:0400000002006D325B
:01000B0032C2
:0100130032BA
:01001B0032B2
:0100230032AA
:01002B0032A2
:030033000207328F
:01003B003292
:03004300023F0079
:01004B003282
:03005300023F0069
:01005B003272
:030063000207365B
:0300E400020066B1
:050066001200E780FE1E
:0900E700788176007880760090A3
:0E00F000E60B7403F000000000000090E60034
:0E00FE007410F075800175B28175900075B3B5
:0E010C00FF75B00075B50090E67AE0FA440188
:0B011A00F0122B0690E60174E2F012D8
:0E012500028A90E6097403F00000007589015B
:09013300000000788276000876D5
:04013C00E17884766C
:05014000120876E178D1
:0501450086761C08761F
:04014A00E17888765A
:05014E004A0876E1788B
:050153008E76780876AD
:04015800E178907644
:05015C007C0876E1784B
:0501610092768E087685
:0C016600E1D2E843D82090E668E0FA44BB
:0E01720009F090E65CE0FA443DF090E682E48D
:0E018000F0D2AF90E680E0FA54F7F0538EF81C
:08018E001201D378A4E660071A
:070196001201AF78A476000E
:05019D007881E6600717
:0701A200788176001232861D
:0501A90012073680E0A2
:0101AE00222E
:0A01AF0090E680E0FA440AF07A00BE
:0201B900DAFE6C
:0E01BB0090E65D74FFF090E65F74FFF05391E4
:0901C900EF90E680E0FA54F7F033
:0101D200220A
:0601D3007880E6700122B5
:0501D900AA08AB097843
:0901DE009CA60208A6037894A671
:0601E7000B08A60C08A69F
:0501ED000D08A60E78CC
:0501F20098A60F08A60D
:0601F7001008A61108A685
:0601FD0012789EA69B781B
:080203009FA69A78A0A69E7840
:0A020B00A1A69D12030CE582700805
:0802150090E6A0E0FA4401F0BC
:0C021D0090E6A0E0FA4480F078807600C3
:06022900789C860808869F
:0A022F000978948602088603088609
:09023900040886058A0B8B0C8C6D
:040242000D8D0E7898
:0C024600988602088603088604088605D6
:050252008A0F8B108CE7
:04025700118D12787B
:08025B009E869B789F869A782D
:07026300A0869E78A1869D94
:01026A002271
:0E026B0090E6837401F07421F07411F0743188
:0E027900F090E6837402F07422F07416F074B4
:0202870036F04F
:010289002252
:0E028A0090E610E4F000000090E611E4F000B1
:0E029800000090E612E4F000000090E613E48F
:0D02A600F000000090E614E4F0000000906D
:0E02B300E615E4F000000090E618E4F000000C
:0E02C1000090E619E4F000000090E61AE4F068
:0E02CF0000000090E61BE4F000000090E61036
:0E02DD0074A0F000000090E61174A0F0000084
:0E02EB000090E61274A0F000000090E614747B
:0E02F900E0F000000090E68DE4F0000000123E
:0503070009B0020978B5
:0C030C0090E6B9E0FA24F4500302061F4A
:07031800EA2A2A90031F737B
:07031F0002046C0204F60267
:06032600061F0205A402FF
:06032C00061F02061F027D
:06033200034302061F0256
:0603380004570204450217
:05033E00041E0204335F
:0A03430090E6BBE0FABA010280194F
:05034D00BA0202802A43
:05035200BA0302803B2C
:06035700BA06030203EEEA
:06035D00BA0703020404CC
:0303630002041A77
:09036600788290E6B308E6F07815
:0B036F008286027B0090E6B4EAF002F8
:02037A00062259
:09037C00788A90E6B308E6F078F7
:0B0385008A86027B0090E6B4EAF002DA
:02039000062243
:0603920090E6BAE07016CF
:09039800788E90E6B308E6F078D7
:0B03A1008E86027B0090E6B4EAF002BA
:0203AC00062227
:0803AE0090E6BAE0FABA01166C
:0903B600789090E6B308E6F078B7
:0B03BF009086027B0090E6B4EAF0029A
:0203CA00062209
:0803CC0090E6BAE0FABA02164D
:0903D400789290E6B308E6F07897
:0B03DD009286027B0090E6B4EAF0027A
:0203E8000622EB
:0403EA0075820022F6
:0903EE00788490E6B308E6F0788B
:0B03F7008486027B0090E6B4EAF0026E
:020402000622D0
:09040400788C90E6B308E6F0786C
:0B040D008C86027B0090E6B4EAF0024F
:020418000622BA
:04041A0075820022C5
:08041E0090E74078A3E6F0909E
:0B042600E68AE4F090E68B7401F0021F
:020431000622A1
:0A04330090E6BAE0FA78A3A60212E0
:06043D00028A12026B02AC
:0204430006228F
:0A04450090E6BAE0FA78A2A60212CF
:06044F00028A12026B029A
:0204550006227D
:0804570090E74078A2E6F09066
:0B045F00E68AE4F090E68B7401F002E6
:02046A00062268
:0A046C0090E6B8E0FABA8002800AB8
:05047600BA8102801BA9
:05047B00BA8274802C20
:0A04800090E740E4F090E741F090AF
:0A048A00E68AF090E68B7402F0029F
:0204940006223E
:0A04960090E740E4F090E741F09099
:0A04A000E68AF090E68B7402F00289
:0204AA00062228
:0E04AC0090E6BCE0FA53027E90E6BCE0FBC393
:0E04BA0074809BE433FB4A9032E893FA33954A
:0E04C800E0FB74A12AFA74E63BFB8A828B8368
:0E04D600E0FA53020190E740EAF090E741E4BB
:0C04E400F090E68AF090E68B7402F002C3
:0204F0000622E2
:0404F20075820022ED
:0704F60090E6B8E0FA60088F
:0504FD00BA02028012AA
:030502000205A04F
:0B05050090E6BAE0FABA0103020622F9
:0405100075820022CE
:0905140090E6BAE0600302059CC8
:0E051D0090E6BCE0FA53027E90E6BCE0FBC321
:0E052B0074809BE433FB4A9032E893FA3395D8
:0E053900E0FB74A12AFA74E63BFB90E6BCE0FE
:0E054700FC53047E90E6BCE0FDC374809DE48E
:0E05550033FD4C9032E893FC3395E0FD74A129
:0E0563002CFC74E63DFD8C828D83E0FC53047D
:0E057100FE8A828B83ECF090E6BCE05480FAA8
:0E057F00C423541FFA90E6BCE0FB740F5B909F
:0D058D00E6832AF090E683E0FA4420F002B5
:02059A00062237
:04059C007582002242
:0405A000758200223E
:0705A40090E6B8E0FA6005E3
:0505AB00BA026D800E94
:0A05B00090E6BAE0FABA0202806891
:0405BA007582002224
:0E05BE0090E6BCE0FA53027E90E6BCE0FBC380
:0E05CC0074809BE433FB4A9032E893FA339537
:0E05DA00E0FB74A12AFA74E63BFB90E6BCE05D
:0E05E800FC53047E90E6BCE0FDC374809DE4ED
:0E05F60033FD4C9032E893FC3395E0FD74A188
:0E0604002CFC74E63DFD8C828D83E0FC4304EB
:09061200018A828B83ECF0800761
:04061B0075820022C2
:03061F00020BA328
:03062200758201DD
:0106250022B2
:0C062600C0E0C082C083C0007880760174
:090632005391EF90E65D7401F0B4
:09063B00D000D083D082D0E0325F
:0E064400C0E0C082C0835391EF90E65D740465
:01065200F0B7
:07065300D083D082D0E03219
:0E065A00C0E0C082C0835391EF90E65D740251
:01066800F0A1
:07066900D083D082D0E03203
:0D067000C0E0C082C083C002C003C000789B
:0A067D00888602088603788AA60228
:0C06870008A6038A828B83A37402F0781B
:0A069300868602088603788CA60212
:0E069D0008A6038A828B83A37407F05391EFA3
:0606AB0090E65D7410F002
:0D06B100D000D003D002D083D082D0E03240
:0C06BE00C0E0C082C083C00078817601DB
:0906CA005391EF90E65D7408F015
:0906D300D000D083D082D0E032C7
:0D06DC00C0E0C082C083C002C003C0009017
:0706E900E680E0FA30E72C87
:0A06F00078868602088603788AA641
:0D06FA000208A6038A828B83A37402F078A5
:0A070700888602088603788CA6029B
:0B07110008A6038A828B83A37407F004
:09071C005391EF90E65D7420F0AA
:0D072500D000D003D002D083D082D0E032CB
:0307320053D8EFAA
:010735003291
:0532D9000102000000ED
:0532DE000100000000EA
:0532E3000100000000E5
:0A32E80000010202030304040505BF
:0A00C60078A4760078A5E4F608F6A9
:0C00D00008F608F678A9E4F608F608F631
:0800DC0008F678ADE4F608F621
:07073600120788E582601440
:07073D00120752E582700D66
:0B07440012087C78B27601758200027A
:02074F0008851B
:010751002285
:0707520078AFE624FA402B0A
:0A07590078AFE625E02690076373F1
:07076300020775020778028E
:06076A00077B0207840278
:05077000077E02078175
:03077500020A1065
:03077800020A74FE
:03077B000216F56E
:03077E0002237FD4
:03078100022BED5B
:030784007582007B
:01078700224F
:05078800E5BA30E104B8
:04078D00758200224F
:0707910078B276007A807B4C
:06079800E78B9A7A807BDA
:0C079E00E77B008A9B90E67BE0FA7B0082
:0507AA000ABA00010B7A
:0E07AF0090E68DE0FC7D00EAB50406EBB50592
:0307BD00028011A6
:0B07C00012087C78B2760175820012EE
:0607CB0008857582002282
:0A07D10090E67BE0FA78AFA60290F4
:0907DB00E67BE0FA78B0A602907A
:0B07E400E67BE0FA78B1A60275820106
:0107EF0022E7
:0807F0001201D3E5BA30E10467
:0407F800750A00225C
:0C07FC0090E780E0FA7B000ABA00010BD5
:0E08080090E68DE0FC7D00EAB50406EBB50538
:030816000280114C
:0B08190012087C78B276017582001294
:060824000885750AFF22A1
:0B082A0090E781E0FA78AFE6B502131A
:0C08350090E782E0FA78B0748046FBEA9D
:03084100B50304F8
:04084400750A01220E
:0608480090E781E0700C56
:08084E0090E782E0FABA02040F
:04085600750A0222FB
:03085A00750AFF1D
:01085D002278
:08085E00AA827B0B7C007D40A7
:0E08660090E67BE0FE8B828C838DF01231FFDA
:07087400A3AB82AC83DAEBB9
:01087B00225A
:08087C0090E68DE4F00000009D
:010884002251
:07088500AA82E5BA30E2018E
:01088C002249
:07088D007BC07CE78C9D7B22
:08089400C07CE77C008B9E9004
:08089C00E67CEA04F078B2905A
:0708A400E67CE6F07B0B7C13
:0508AB00007D408A06FB
:0308B000EE6017E0
:0E08B3008B828C838DF01232B9FFA3AB82AC26
:0908C1008390E67CEFF01E80E656
:0A08CA0090E68F74022AF00000008F
:0108D4002201
:0708D500AA82E5BA30E2013E
:0108DC0022F9
:0708DD007BC07CE78C9D7BD2
:0808E400C07CE77C008B9E90B4
:0808EC00E67CEA04F078B2900A
:0408F400E67CE6F0C8
:0108F80022DD
:0508F900E5BA30E20148
:0108FE0022D7
:0808FF0090E7C178B2E6F09029
:0C090700E7C0E0FA90E68F04F00000006A
:0109130022C1
:0E091400AA82AB83ACF090E67BE0FDC002C08F
:0E09220003C004C00512087CD005D004D00329
:07093000D002E5BA30E2013C
:01093700229D
:070938007EC07FE78F9D7E6A
:08093F00C07FE77F008E9E904F
:0C094700E67CED04F090E67CE4F08D0608
:03095300EE60173C
:0E0956008A828B838CF01232B9FFA3AA82AB87
:090964008390E67CEFF01E80E6B2
:0A096D0090E68F74022DF0000000E8
:01097700225D
:0E09780090E618E4F000000090E6047480F0B1
:0E09860000000090E6047402F00000007A0405
:0B09940090E6497482F0000000DAF5E4
:0E099F0090E604E4F000000090E6A3E4F0000F
:0209AD00000048
:0109AF002225
:0E09B00090E61AE4F000000090E6047480F077
:0D09BE0000000090E6047406F000000090B8
:0E09CB00E604E4F000000090E6A5E4F0000071
:0109D900001D
:0109DA0022FA
:0809DB0090E680E0FA30E70627
:0609E3007A007B02800493
:0409E9007A407B00D5
:0E09ED0090E624EBF000000090E680E0FA3087
:0209FB00E7060D
:0609FD007A007B02800479
:040A03007A407B00BA
:080A070090E625EAF000000072
:010A0F0022C4
:070A100078B0B60202800776
:070A170078B0B60350800522
:050A1E0012087C804D70
:0A0A230075820412085E12087CE5DB
:080A2D000BF4FAE50CF4FBE503
:0A0A35000DF4FCE50EF4FD747B2ABD
:0C0A3F00FAE43BFBE43CFCE43DFD8A0BC8
:050A4B008B0C8C0D8DE9
:050A50000E1218607891
:0C0A5500A5E4F608F608F608F61209B051
:0B0A61001209787582041208858004D9
:040A6C00758200226D
:030A70007582018B
:010A73002260
:0A0A740078B0E624EF5003020B2CCB
:0C0A7E0078B0E6240983C0E0E62414836D
:030A8A00C0E022A7
:020A8D002C2C0F
:020A8F00AF2C8A
:020A91002C2C0B
:020A9300C62C6F
:020A95001AE560
:020A9700FC0160
:020A99002C0629
:020A9B00100B3E
:010A9D001543
:020A9E000B0B40
:020AA0000A0B3F
:020AA2000B0B3C
:020AA4000A0B3B
:020AA6000B0A39
:020AA8000A0B37
:020AAA000B0B34
:020AAC000B0B32
:010AAE000B3C
:070AAF0012087C750B7A753B
:060AB6000C00750D007537
:0A0ABC000E00758204120885806A9E
:0A0AC60075820112085E12087CE53B
:030AD0000B6007B1
:070AD30043B502C2B180032C
:030ADA0053B5FD14
:080ADD00758200120885804BB0
:070AE50012087C750B00757F
:060AEC000C20750D0075E1
:0A0AF2000E0075820412088580349E
:050AFC00121530802FEF
:050B01001212E2802A3F
:050B06001230C0802543
:050B0B001230D580202E
:050B1000123148801BBA
:050B150012310F8016F3
:0C0B1A0012087CA2B7E433FA8A0B758243
:060B2600011208858004A5
:040B2C0075820022AC
:030B3000758201CA
:010B3300229F
:0A0B3400AA82AB83E50845097001B1
:010B3E002294
:070B3F00AC14BCE6028005C6
:050B46008B05BDE63146
:080B4B008A068B07AC13AD1400
:0E0B53008E028F038C828D83E0F88A828B8362
:060B6100F00EBE00010FC2
:050B67000CBC00010DB3
:080B6C00150874FFB50802151D
:010B74000977
:060B7500E508450970D8F7
:010B7B002257
:0C0B7C008C9AAC137E008C9B8D9D7B003E
:050B88008A9E020B8EA5
:010B8D002245
:080B8E00A90890E67B058690A2
:040B9600E67C05866E
:080B9A00E00586F00586D9F89C
:010BA2002230
:0A0BA30090E6B9E0FABAA202804A17
:050BAD00BAA30280451F
:060BB200BAE103020E7817
:060BB800BAE203020E5830
:060BBE00BAE303020E5829
:060BC400BAE403020E3842
:060BCA00BAE503020E383B
:060BD000BAE603020D432A
:060BD600BAE703020D70F6
:060BDC00BAE803020DB8A7
:060BE200BAE903020E183F
:060BE800BAEA03020DE76A
:060BEE00BAEB03020E98B1
:030BF400020EB836
:0B0BF70090E6BAE0FAA3E0FB8A0B8B4B
:0A0C02000C90E6BEE0FAA3E0FB90C0
:090C0C00E6B8E0FCBCC002800364
:030C1500020CA826
:070C1800EA4B7003020EBC61
:080C1F0090E6A0E0FC20E1F8E2
:080C270090E6B9E0FCBCA2114B
:0A0C2F00750D00750E00C002C00331
:070C3900121156D003D00296
:090C4000C3EA9440EB9400500655
:060C49008A0D8B0E8006EF
:060C4F00750D40750E005A
:080C550090E6B9E0FCBCA20D21
:0D0C5D00C002C0031210A9D003D002801AFB
:040C6A00850D088567
:030C6E000E0990DC
:040C7100E740850BC8
:030C750013850CD8
:0C0C780014C002C003120B34D003D002E1
:080C840090E68AE4F0AC0DAD2E
:080C8C000E90E68BECF0EC2564
:070C94000BFEED350CFF8E95
:0A0C9B000B8F0CEAC39CFAEB9DFBE3
:030CA500020C1826
:0A0CA80078ADE608467003020D3F28
:0C0CB20090E6BCE0FCA3E0FD78ADE6B5E8
:090CBE00040708E6B505028002F6
:020CC700807635
:080CC90090E6B8E0FCBC406EAF
:070CD100EA4B7003020EBCA8
:090CD80090E68AE4F090E68BF04E
:080CE10090E6A0E0FC20E1F820
:0A0CE90090E68BE0FC7D008C0D8D81
:090CF3000E90E6B9E0FCBCA31F61
:040CFC00850D0885D5
:030D00000E098554
:060D03000B82850C8375D4
:030D09001340751F
:070D0C0014E7C002C003124E
:080D13000B34D003D002800B69
:0B0D1B00C002C003121156D003D0022A
:060D2600AC0DAD0EEC2542
:070D2C000BFEED350CFF8EFC
:0A0D33000B8F0CEAC39CFAEB9DFB4A
:020D3D008092A2
:040D3F007582002297
:0A0D430090E6B8E0FABAC00280039F
:030D4D00020EBCD7
:080D500090E6A0E0FA20E1F8B2
:0E0D580090E7407409F0A37403F090E68AE47B
:0A0D6600F090E68B7402F0020EBC60
:0A0D700090E6B8E0FABAC002800372
:030D7A00020EBCAA
:080D7D0090E6A0E0FA20E1F885
:0E0D850090E740740DF0A3E4F0A3F0A3F0900B
:0B0D9300E744E4F5F01231FFA3E41286
:0A0D9E0031FFA3E41231FFA3E412B9
:080DA80031FF90E68AE4F090AF
:080DB000E68B7408F0020EBC92
:080DB80090E6B8E0FABA40230E
:090DC00090E68AE4F090E68BF065
:080DC90090E6A0E0FA20E1F839
:0C0DD10090E740E0FAA3E0FB78ADA6023A
:060DDD0008A603020EBC93
:040DE30075820022F3
:080DE70090E6B8E0FABA4025DD
:070DEF0078ADE60846601E26
:0C0DF60090E6BCE0FAA3E0FB78ADE6B5A7
:090E0200020708E6B503028002B4
:020E0B0080075E
:070E0D0078A47601020EBC7F
:040E140075820022C1
:070E1800750BF0750C3F752E
:060E1F000D04750E0075C4
:060E25000FCD7510AB902B
:070E2B00E6B8E0FABAC003CB
:030E3200020EC0ED
:030E3500020FD9D0
:070E3800750BE0750C3F751E
:060E3F000D0C750E00759C
:060E45000F7875105690B5
:070E4B00E6B9E0FABAE40386
:030E5200020EC0CD
:030E5500020FD9B0
:070E5800750BC0750C3F751E
:060E5F000D10750E007578
:060E65000FCD7510AB90EB
:070E6B00E6B9E0FABAE20368
:030E7200020EC0AD
:030E7500020FD990
:070E7800750BA0750C3F751E
:060E7F000D1C750E00754C
:060E85000FCD7510AB90CB
:070E8B00E6B8E0FABAC0036B
:030E9200020EC08D
:030E9500020FD970
:070E9800750BF8750C3F75A6
:060E9F000D02750E007546
:060EA5000FCD7510AB90AB
:070EAB00E6B8E0FABAC0034B
:030EB200020EC06D
:030EB500020FD950
:040EB800758200221D
:030EBC007582013B
:010EBF002210
:0C0EC0007AFF90E6B8E0FBBBC0028004A3
:040ECC007582002209
:050ED000AB0DAC0E7536
:0A0ED5000D00750E00C002C003C03E
:0E0EDF0004121156D004D003D00274032BFB72
:0A0EED00E43CFC8B0D8C0EC00212D9
:0A0EF70010A9D002E50D24FDFBE573
:070F01000E34FFFC8B0D8C88
:0B0F08000E90E740E0FBA3E0FCEBB51F
:060F13000F48ECB510448C
:040F19007A007B00DF
:0A0F1D007403250DFCE4350EFD8B76
:0A0F2700067F00C3EE9CEF9D502CE6
:0A0F3100EB2440F582E434E7F58379
:0A0F3B00E0FC2AFAEB2440FCE43449
:0A0F4500E7FD74022B2440F582E45E
:0C0F4F0034E7F583E0FE8C828D83F00B0C
:020F5B0080C054
:030F5D00EA6064E3
:040F6000850D08856E
:030F64000E0990E3
:090F6700E6B9E0FABAE1028034B7
:050F7000BAE202803D21
:050F7500BAE402800552
:050F7A00BAE9438017F5
:020F7F007A00F6
:030F8100BA0C00A7
:020F8400503EDD
:0A0F8600EA2440F582E434E7F58325
:060F90007430F00A80EB52
:050F960090E740751317
:030F9B00017514C9
:060F9E0033120B34802029
:050FA40090E740751309
:030FA900057514B7
:060FAC0033120B34801229
:050FB20090E7407513FB
:030FB7002175148D
:060FBA0033120B34800429
:040FC0007582002214
:0C0FC40090E68AE4F000000090E68BE567
:080FD0000DF000000075820124
:010FD80022F6
:080FD90090E6B8E0FABA401CF2
:070FE10078ADE6084660153B
:0C0FE80090E6BCE0FAA3E0FB78ADE6B5B3
:090FF400020708E6B503028004BF
:040FFD0075820022D7
:0910010090E68AE4F090E68BF021
:08100A0090E6A0E0FA20E1F8F5
:0710120090E68AE0FA701479
:05101900AA0DAB0E90D2
:0E101E00E68BE0FC7D00B50206EDB503028016
:01102C0004BF
:04102D0075820022A6
:061031008A15AD158D06C5
:061037008E071EEF60258C
:0C103D00C002C00374022E2440FFE43403
:09104900E7FCEE2440F582E434DA
:0C105200E7F583E0FA8F828C83F0D00376
:04105E00D00280D567
:0810620090E740E50FF0A3E563
:05106A0010F07C407E47
:0A106F00E78E9A759B407C00740226
:031079002515FD3D
:09107C0090E67BE0FE2CFCDDF7A0
:0A108500740225152440F582E434BE
:0C108F00E7F583C3E49CFCF074032AFA2C
:08109B00E43BFB8A0D8B0E12F1
:0510A3001156758201E9
:0110A8002225
:0510A900E50DFA7004E2
:0410AE007582012224
:0810B20090E678E0FB20E6F86F
:0C10BA0090E6787480F090E67974A3F062
:0810C60090E678E0FB30E0F851
:0810CE0090E678E0FB20E274DB
:0810D60090E678E0FB30E16CCC
:0310DE00BA01084C
:0810E10090E678E0FB4420F0EA
:0710E90090E679E07B407CFA
:0610F000E78C9A7B407CB6
:0510F600E77C008B9B6C
:0410FB00DA0280266F
:0810FF0090E678E0FB30E0F818
:0811070090E678E0FB20E23BDA
:03110F00BA01081A
:0811120090E678E0FB4420F0B8
:0B111A0090E679E0FB90E67BF080D6C9
:0811250090E678E0FA30E0F8F2
:08112D0090E678E0FA20E215DB
:0E11350090E678E0FA4440F090E679E0FA9017
:07114300E67BF0758201223A
:0B114A0090E678E0FA4440F075820067
:011155002277
:02115600AA0DE0
:0811580090E678E0FB20E6F8C8
:0C11600090E6787480F090E67974A2F0BC
:08116C0090E678E0FB30E0F8AA
:0811740090E678E0FB20E26B3D
:08117C0090E678E0FB30E1632E
:03118400EA600E10
:071187007B407CE78C9A7BA2
:07118E00407CE77C008B9B15
:021195007B02DB
:03119700EA7003F8
:03119A00EB603BCC
:03119D00EB6014F0
:0311A000BB020887
:0811A30090E679E50CF08006EE
:0611AB0090E679E50BF06F
:0311B1001B800A96
:0A11B40090E67BE0FC90E679F01A6B
:0811BE0090E678E0FC30E0F857
:0811C60090E678E0FC20E2193C
:0811CE0090E678E0FC20E1C18D
:0211D600800F88
:0E11D80090E678E0FA4440F01211F3758201BF
:0111E60022E6
:0B11E70090E678E0FA4440F0758200CA
:0111F20022DA
:0811F30090E678E0FA20E6F82E
:0E11FB0090E678E0FA4480F090E67974A2F075
:0812090090E678E0FA30E0F80D
:0812110090E678E0FA4440F099
:0812190090E678E0FA20E6F807
:0812210090E678E0FA30E1D21A
:0112290022A2
:08122A0090E678E0FA4440F080
:0812320090E678E0FA20E6F8EE
:01123A002291
:07123B00AA8290E679EAF0B7
:0812420090E678E0FA30E0F8D4
:08124A0090E678E0FA20E208CA
:0812520090E678E0FA20E107C4
:07125A0012122A78B276237C
:0612610078B2E6B40100C2
:04126700E433F582F5
:01126B002260
:0C126C00AA8290E6787480F0EA2AFAE585
:0B127800164AF58212123BE58270045A
:0412830078B27622A5
:0612870078B2E6B401009C
:04128D00E433F582CF
:01129100223A
:0912920075160175825102126CFF
:0C129B00AA82AB83751600758251C00258
:0D12A700C00312126CE582D003D00260116A
:0E12B4008B82C002C00312123BE582D003D031
:0312C200027004B3
:0412C5007C00800227
:0212C9007C01A6
:0312CB00EC600BC9
:0B12CE007B008A8212123BE582700454
:0412D9007A00800215
:0212DD007A0194
:0212DF008A8201
:0112E10022EA
:0612E200E4F517F518F514
:0712E80008F50975820812E8
:0612EF00085E12087CAC51
:0412F5000FAD10AE7B
:0A12F90011AF12C3E49C74209DE4C1
:051303009EE49F40285C
:04130800850B1985B3
:03130C000C1A8533
:03130F000D1B852E
:041312000E1CEC259C
:0813160019FCED351AFDEE355E
:0A131E001BFEEF351CFFC3E49C74B6
:08132800209DE49EE49F500AA1
:0A13300078B2760975820002088584
:09133A00AC19741C251AFDE43500
:071343001BFEE4351CFF8CCA
:04134A000B8D0C8E6D
:04134E000D8F0E856C
:061352000B82850C8312E2
:06135800129BE582700506
:05135E00F58202088584
:0A13630012122A758200120885E5B7
:04136D000F451045D3
:05137100114512602887
:0A1376001212927401B50F0EE4B5D7
:08138000100AE4B51106E4B502
:0413880012028002CB
:02138C008008D7
:08138E0090E678E0FC4420F039
:0813960090E679E0F50A8003FE
:03139E00751801BE
:0413A100E5186007E4
:0713A500E5176003021522A9
:0913AC001207F0E4B50A02803FCB
:0513B5007401B50A0CF3
:0413BA00E5177008BB
:0813BE0075170112087C802E56
:0513C6007402B50A1CD1
:0713CB0012087CE5187022F6
:0C13D20090E6A57401F000000075180101
:0913DE0078B2760212122A800D89
:0413E700E518700392
:0313EB0012122AB1
:0613EE0075170002152234
:0413F400E51870A9DF
:0513F800E5AA20E5A4B8
:0713FD007C007DF88D9D7C52
:08140400007DF87D008C9E853F
:03140C000F1D852C
:03140F00101E8527
:03141200111F8522
:0314150012209012
:07141800E680E0FA30E70670
:06141F007A007B0280044C
:041425007A407B008E
:0C142900EB3395E0FCFDC3EA951DEB954C
:061435001EEC951FED9571
:03143B002050142A
:08143E0090E680E0FA30E706B9
:061446007A007B02800425
:04144C007A407B0067
:02145000800416
:04145200AA0FAB1022
:041456008A088B096C
:07145A00E5084509700302DB
:02146100150D67
:07146300E518600302150DFE
:08146A0090E678E0FC30E0F8A8
:0814720090E678E0FC30E2187E
:08147A0078B276237518019089
:0C148200E6A57401F0EAC39508FAEB95AA
:04148E0009FB80C80E
:0A1492007402B50F0EE4B5100AE471
:09149C00B51106E4B5120280024C
:0214A5008008BD
:0814A70090E678E0FC4420F01F
:0A14AF007401B50F0EE4B5100AE455
:0914B900B51106E4B5120280022F
:0214C200800B9D
:0B14C400C002C00312122AD003D002A5
:0A14CF0090E679E0FC90E67CF01551
:0714D9000874FFB5080215BD
:0114E0000902
:0514E100AC0FAD10AEE0
:0A14E60011AF121CBCFF091DBDFF71
:0614F000051EBEFF011FF6
:0514F6008C0F8D108E2B
:0A14FB00118F12EC4D4E4F600302FA
:02150500145A76
:0615070075180102145AE0
:0E150D0090E698EBF00000007B0090E699EA73
:07151B00F00000000213A123
:071522001209B0E517600695
:0615290075820002088536
:01152F002299
:071530007521007522007512
:061537002301E4F508F5B4
:08153D000975820812085E1214
:05154500087CAD0FAEB3
:04154A0010AF11AC21
:0C154E0012C3E49D74209EE49FE49C40C6
:01155A001C74
:0A155B00ED250BFDEE350CFEEF351B
:0A1565000DFFEC350EFCC3E49D748D
:08156F00209EE49FE49C500A59
:0A15770078B276097582000208853B
:0B158100758200120885AC0B741C255D
:08158C000CFDE4350DFEE43511
:051594000EFF8C0B8D21
:041599000C8E0D8F18
:04159D000EE50F4503
:0415A100104511459B
:0315A500127003BE
:0315A800752201A8
:0415AB00E5226007CE
:0715AF00E52160030216DDD7
:0915B6001207F0E4B50A028035C9
:0515BF007401B50A0CE7
:0415C400E5217008A5
:0815C80075210112087C80244A
:0515D0007402B50A19C8
:0715D50012087CE5227018EA
:0C15DC0090E6A37401F0000000752201ED
:0615E80078B276028006D5
:0615EE007521000216DD6C
:0415F400E52270B3C9
:0515F800E5AA20E0AEB1
:0715FD007C007DF08D9A7C5B
:08160400007DF07D008C9B903D
:0E160C00E690E0FC8C057C0090E691E0FE7F0D
:08161A00002CF508EF3DF50975
:06162200E50845096083A4
:07162800E52260030215AB8F
:04162F00E523600C43
:07163300850B82850C831278
:05163A00129B75230066
:05163F0078B2E6700E18
:0E16440090E67BE0FCF58212123BE582700B13
:0B16520075220190E6A37401F080C532
:08165D00150874FFB508021521
:01166500097B
:05166600AC0FAD10AE59
:07166B0011AF12EC24FFF5A2
:0A16720024ED34FFF525EE34FFF5FA
:07167C0026EF34FFF527857E
:03168300240F85AC
:03168600251085A7
:03168900261185A2
:03168C002712AA78
:04168F000BAB0CACE9
:0A1693000DAD0E0ABA00090BBB00F2
:06169D00050CBC00010D6C
:0516A3008A0B8B0C8C8A
:0416A8000D8D0EE5B1
:0416AC002445254567
:0516B000264527700330
:0316B5007522019A
:0616B800E508450970067B
:0616BE0090E6497482F081
:0416C400E5227009A2
:0616C800E50B543F600336
:0316CE00021622DF
:0716D10012122A1211F37539
:0516D8002301021622AF
:0416DD00E52370068B
:0616E10012122A1211F39F
:0716E700120978E5216006FD
:0616EE0075820002088570
:0116F40022D3
:0532F2000102000000D4
:0532F7000100000000D1
:0532FC000100000000CC
:043301000E000000BA
:0E3305004F6E626F61726420555342000000EB
:0E331300FDFDFDFD000000000000B2D0DD4A0F
:0E332100444F6E62557362000000FDFDFDFD1D
:02332F0000009C
:0716F50078B0B6020280602C
:0716FC0078B1B60002801175
:0B17030012087C78B2760C7582001290
:06170E000885758201222E
:0517140078B0E6701F33
:0617190078A5E630E011A6
:0B171F0012087C78B27603758200127D
:06172A0008857582012212
:0817300078A5E64401F68024CF
:0517380078B0B60108C5
:08173D0078A5E654FEF68017C2
:0617450078A5E620E0118A
:0B174B0012087C78B276047582001250
:06175600088575820122E6
:0A175C0078B0E624F4500302184CA4
:0A17660078B0E625E02690177073B6
:071770000217940217A40206
:0617770017B402184C0239
:06177D0017C10217DA0299
:06178300180E02184502D9
:06178900183702183702B8
:05178F00183E021837AE
:0A17940012185012087C7582001232
:06179E000885758201229E
:0A17A40012186012087C7582001212
:0617AE000885758201228E
:0D17B40090333175F0801209147582012206
:0717C10012087C750B007596
:0617C8000C6A750D187596
:0C17CE000E00758204120885758201224D
:0717DA0090E67BE0FA6004D9
:0417E100D2B38002FD
:0217E500C2B38D
:0717E70090E67BE0FA6004CC
:0417EE00D2B28002F1
:0217F200C2B281
:0717F40090E67BE0FA6004BF
:0417FB00D2B48002E2
:0217FF00C2B472
:0D18010012087C7582001208857582012294
:0C180E0012087CA2B3E433FA8A0BA2B2E9
:0B181A00E433FA8A0CA2B0E433FA8A2F
:0A1825000DA2B4E433FA8A0E7582B6
:08182F000412088575820122F4
:07183700121C1B7582012247
:07183E001220227582012235
:0718450012186A75820122EE
:03184C00758200A2
:01184F002276
:0E18500043B50443B50843B510C2B2D2B3C2CB
:01185E00B4D5
:01185F002266
:0918600053B5E3C2B2D2B3C2B425
:01186900225C
:05333100010200000094
:05333600010000000091
:05333B0001000000008C
:0B186A007A007B0090E67BE0FC60044D
:04187500D2B3800268
:02187900C2B3F8
:07187B0090E67BE0FC600435
:04188200D2B280025C
:02188600C2B2EC
:0E188800C2B4758204C002C00312085ED00311
:0E18960000C00312087C758200120885D00382
:0718A400D002AC0BAD0CAE4D
:0418AB000DAF0E8CE3
:0418AF000F8D108EFB
:0918B300118F12EC4D4E4F700232
:0218BC007B01AE
:0318BE00EB6006D6
:0618C100EA600302196F4A
:0D18C700C002C0031207F0D003D002E4B548
:0418D4000A02803153
:0518D8007401B50A0FC8
:0E18DD007A01C002C00312087CD003D0028042
:0118EB001DDF
:0518EC007402B50A13AF
:0B18F1007B0178B27602C002C0031237
:0818FC00087CD003D002800536
:051904007A0002196FDA
:03190900EB70B2CE
:05190C00AC0BAD0CAEB8
:0A1911000DAF0EC3ED94FEEE94003E
:05191B00EF94005006EE
:061920008C088D09800611
:061926007508007509FEC2
:08192C00AC08AD09E4FEFFE583
:091934000BC39CFCE50C9DFDE5D4
:08193D000D9EFEE50E9FFF8CDC
:041945000B8D0C8E6C
:081949000D8F0EC000C001A8C3
:0419510008A90909CF
:0E195500D2B4C2B4D8FAD9F8D001D000EC4D0B
:071963004E4F60030218BEA5
:05196A007B010218BE24
:03196F00EA602902
:07197200E50FC3950BFAE538
:0519790010950CFBE5D8
:05197E0011950DFCE5D0
:0519830012950EFD8A23
:041988000B8B0C8C2D
:04198C000D8D0E7837
:0B199000B2E64480F675820402088570
:01199B002229
:0A199C00C001C002A908AA09E96011
:0219A600010A34
:0319A80090E67B4B
:0E19AB00E01392B2D2B4C2B41392B2D2B4C25C
:0E19B900B41392B2D2B4C2B41392B2D2B4C27A
:0E19C700B41392B2D2B4C2B41392B2D2B4C26C
:0E19D500B41392B2D2B4C2B41392B2D2B4C25E
:0919E300B4D9C5DAC3D002D00169
:0119EC0022D8
:0A19ED00C001C002A908AA09E960C0
:0219F700010AE3
:0A19F90090E67B058690E67C0586EB
:0E1A0300E01392B2A2B013D2B4C2B492B2A257
:0E1A1100B013D2B4C2B492B2A2B013D2B4C217
:0E1A1F00B492B2A2B013D2B4C2B492B2A2B0CA
:0E1A2D0013D2B4C2B492B2A2B013D2B4C2B4F7
:0E1A3B0092B2A2B013D2B4C2B492B2A2B0134F
:0E1A4900D2B4C2B40586F00586D9AFDAADD0AE
:031A570002D001B9
:011A5A002269
:0A1A5B00C001C002A908AA09E96051
:021A6500010A74
:031A670090E67C8A
:0E1A6A00A2B0D2B4C2B413A2B0D2B4C2B413AC
:0E1A7800A2B0D2B4C2B413A2B0D2B4C2B4139E
:0E1A8600A2B0D2B4C2B413A2B0D2B4C2B41390
:0E1A9400A2B0D2B4C2B413A2B0D2B4C2B41382
:091AA200F0D9C2DAC0D002D00173
:011AAB002218
:0A1AAC00C001C002A908AA09E96000
:021AB600010A23
:031AB80090E67B3A
:0E1ABB00E01392B3D2B4C2B41392B3D2B4C249
:0E1AC900B41392B3D2B4C2B41392B3D2B4C267
:0E1AD700B41392B3D2B4C2B41392B3D2B4C259
:0E1AE500B41392B3D2B4C2B41392B3D2B4C24B
:091AF300B4D9C5DAC3D002D00158
:011AFC0022C7
:0A1AFD00C001C002A908AA09E960AF
:021B0700010AD1
:0A1B090090E67B058690E67C0586D9
:0E1B1300E01392B3A2B013D2B4C2B492B3A244
:0E1B2100B013D2B4C2B492B3A2B013D2B4C205
:0E1B2F00B492B3A2B013D2B4C2B492B3A2B0B7
:0E1B3D0013D2B4C2B492B3A2B013D2B4C2B4E5
:0E1B4B0092B3A2B013D2B4C2B492B3A2B0133C
:0E1B5900D2B4C2B40586F00586D9AFDAADD09D
:031B670002D001A8
:011B6A002258
:0A1B6B00C001C002A908AA09E96040
:021B7500010A63
:031B770090E67B7A
:0E1B7A00E01392B21392B3D2B4C2B41392B27B
:0E1B88001392B3D2B4C2B41392B21392B3D27A
:0E1B9600B4C2B41392B21392B3D2B4C2B4D993
:071BA400D5DAD3D002D00115
:011BAB002217
:0A1BAC00C001C002A908AA09E960FF
:021BB600010A22
:0A1BB80090E67B058690E67C05862A
:021BC2007C02A3
:0E1BC400E01392B21392B3FBE8A2B013F8EB59
:0E1BD200D2B4C2B41392B21392B3FBE8A2B025
:0E1BE00013F8EBD2B4C2B41392B21392B3FB5B
:0E1BEE00E8A2B013F8EBD2B4C2B41392B21353
:0E1BFC0092B3FBE8A2B013F8EBD2B4C2B4DC93
:0E1C0A00B9E80586F0058619D9AEDAACD0022D
:021C1800D001F9
:011C1A0022A7
:071C1B00752900752B00750F
:071C22002C0078B0B6082A7F
:081C290075290190E67BE0F54E
:081C31002890E67BE0FE600450
:041C3900D2B38002A0
:021C3D00C2B330
:041C3F00E52860082C
:041C4300752DED7599
:041C47002E19805A78
:041C4B00752D9C75E2
:041C4F002E19805278
:051C530078B0B6092580
:0A1C580075280190E67BE0FC6004B3
:041C6200D2B3800277
:021C6600C2B307
:071C680090E67BE0FC600444
:041C6F00D2B280026B
:021C7300C2B2FB
:041C7500752D5B75F9
:041C79002E1A802877
:081C7D0075290190E67BE0F5FA
:081C85002890E67BE0FC6004FE
:041C8D00D2B280024D
:021C9100C2B2DD
:041C9300E5286008D8
:041C9700752DFD7535
:041C9B002E1A800677
:041C9F00752DAC757E
:021CA3002E1AF7
:0D1CA50075820412085E12087C7582001220
:041CB2000885850B11
:031CB6002F850C6B
:031CB90030850D66
:031CBC0031850E61
:031CBF0032852F3C
:031CC2000F85305B
:031CC50010853156
:031CC80011853251
:0A1CCB00127407552FFD7A007B000C
:071CD5007C008D2AAA2FE517
:0C1CDC0030C423CAC423541F6ACA541F1A
:0C1CE800CA6ACAFBE531C42354E04BFB80
:0A1CF400AC31E532C423CCC4235404
:0C1CFE001F6CCC541FCC6CCCFE8A0B8BEE
:041D0A000C8C0D8EA2
:051D0E000EE52A601D36
:051D1300AA0BAB0CACB3
:0A1D18000DAE0E0ABA00090BBB0065
:061D2200050CBC00010EDF
:051D28008A0B8B0C8CFE
:031D2D000D8E0E0A
:051D3000E50F45104520
:051D35001145127003CE
:031D3A00752B0105
:021D3D00C2B42E
:041D3F00E52B600729
:071D4300E52C6003021F35CF
:071D4A001207F0E50A602C0E
:051D51007401B50A0C4D
:041D5600E52C700800
:081D5A00752C0112087C801BAE
:051D62007402B50A1037
:071D670012087CE52B700F50
:091D6E0078B27602752B018006A3
:061D7700752C00021F356F
:041D7D00E5296005EF
:051D8100E5AA20E0B915
:041D8600E5286005E7
:051D8A00E5AA20E5B010
:041D8F00E52B70AC24
:041D9300E529600ED0
:071D97007A007BF08B9A7AC1
:071D9E00007BF07B008A9B33
:041DA500E528600EBF
:071DA9007A007BF88B9D7AA4
:071DB000007BF87B008A9E16
:041DB700E5296019A1
:0E1DBB0090E690E0FA8A037A0090E691E0FC50
:0A1DC9007E004AF508EE4BF5098094
:011DD30054BB
:041DD400850B3385C3
:031DD8000C348543
:031DDB000D35853E
:031DDE000E36902E
:071DE100E680E0FF30E70699
:061DE8007A007B0280047A
:041DEE007A407B00BC
:0C1DF2008A07EBFD3395E0FAFBC3EF9588
:061DFE0033ED9534EA9577
:061E040035EB9536501885
:081E0A0090E680E0FA30E706E3
:061E12007A007B0280044F
:041E18007A407B0091
:061E1C008A088B09800614
:041E22008533088577
:021E260034097D
:081E2800AA08AB09E4FCFDE58A
:091E30000BC39AFAE50C9BFBE5DB
:081E39000D9CFCE50E9DFD8AE5
:041E41000B8B0C8C6F
:041E45000D8D0EE50C
:031E49002A6013F9
:051E4C00E50B450C450B
:051E51000D450E7009B3
:081E5600150874FFB508021520
:011E5E00097A
:061E5F00E50845096009D9
:071E6500852D82852E8312FA
:021E6C00006B09
:071E6E00E52A7003021EFFCC
:051E7500E50B450C45E2
:061E7A000D450E6003029D
:021E80001EFF43
:061E8200AA2AE529700BFD
:031E880030B20471
:041E8B007BFF800257
:021E8F007B00D6
:021E91008005CA
:051E930090E67BE0FB7E
:051E980078B0B60B1D3F
:021E9D008A04B5
:0B1E9F00EBA2E092B3C313FB30B005D0
:051EAA004303808003EA
:031EAF0053037F5B
:061EB200D2B4C2B4DCE76B
:021EB80080198F
:0B1EBA00EBA2E092B2C313FB30B005B6
:051EC5004303808003CF
:031ECA0053037F40
:061ECD00D2B4C2B4DAE752
:041ED300E528601D81
:0C1ED700AD2A7A007408C39DFDE49AFA5D
:071EE3008DF005F0EB800219
:021EEA00C31320
:081EEC00D5F0FBFB90E67CF051
:071EF400752A000508E4B5A2
:041EFB0008020509CB
:041EFF00E529600968
:091F030090E6497482F000000030
:041F0C00E528601252
:0A1F100090E698E509F0000000904B
:081F1A00E699E508F000000063
:051F2200E50B450C4534
:061F27000D450E600302EF
:021F2D001D3F56
:061F2F00752B01021D3FAD
:071F35001209781209B0E562
:041F3C002C700122E2
:041F4000E52A601D11
:051F4400AA0BAB0CAC80
:0A1F49000DAD0E1ABAFF091BBBFF15
:061F5300051CBCFF011D8E
:051F59008A0B8B0C8CCB
:031F5E000D8D0ED8
:041F6100850D35E5D0
:0A1F65000EC40354F8C535C403C5CB
:041F6F00356535C5DA
:061F73003554F8C5356588
:041F790035F536E51F
:081F7D000CC40354074535F5BF
:031F850035850B94
:081F880033E50CC40354F8C555
:061F900033C403C53365F4
:061F960033C53354F8C509
:041F9C00336533F581
:031FA00034853352
:031FA3000B853477
:031FA6000C853572
:031FA9000D85366D
:091FAC000EAE2AE4FFFAFBEE255B
:081FB50033FEEF3534FFEA357D
:071FBD0035FAEB3536FB8E0F
:041FC4000B8F0C8AE9
:041FC8000D8B0EE58A
:091FCC000FC39EFEE5109FFFE526
:081FD500119AFAE5129BFB8E44
:041FDD000F8F108AC8
:041FE100118B128EC0
:041FE5000B8F0C8AC8
:041FE9000D8B0EE569
:031FED0029600464
:041FF0007A80800271
:021FF4007A0071
:041FF600E528600476
:041FFA007B408002A6
:021FFE007B0066
:0A200000EB4A78B246F6E5296004C9
:04200A007A048002D2
:02200E007A0056
:04201000E52860045B
:042014007B048002C7
:022018007B004B
:07201A00EB2AF582020885A4
:01202100229C
:0720220075380075390075E7
:072029003A0090E67BE0F5B0
:082030003775820412085E12EC
:09203800087C7582001208858500
:032041000B3D85CF
:032044000C3E85CA
:032047000D3F85C5
:03204A000E4085C0
:03204D003D0F85BF
:032050003E1085BA
:032053003F1185B5
:032056004012E550
:042059003D453E457E
:05205D003F4540700347
:03206200753901CC
:0C2065007407553DFAE4FDFBFC740325F4
:082071003DFBE4353EFCE435C3
:072079003FFDE43540FE8B42
:042080000B8C0C8D2C
:0A2084000DEEF50EC313FEED13FD83
:0E208E00EC13FCEB13FBEEC313FEED13FDECA5
:0A209C0013FCEB13FB8B0B8C0C8D77
:0420A6000D8E0EE5A8
:0320AA0037600894
:0420AD00753BAC755E
:0420B1003C1B80064E
:0420B500753B6B7597
:0220B9003C1BCE
:0220BB00C2B4AD
:0420BD00E53960079A
:0720C100E53A60030222BEB4
:0B20C800C0021207F0D002E50A6034ED
:0520D3007401B50A10C4
:0420D800E53A700C69
:0C20DC00753A01C00212087CD002801F7F
:0520E8007402B50A14AA
:0B20ED00C00212087CD002E539700F21
:0920F80078B27602753901800608
:06210100753A000222BE47
:05210700E5AA20E0B193
:04210C00E53760054E
:05211000E5AA20E5A88E
:04211500E53970A494
:072119007D007EF08E9A7D2F
:08212000007EF07E008D9BE5BE
:032128003760120B
:04212B00E538700E15
:07212F007D007EF88E9D7D0E
:07213600007EF87E008D9E83
:0E213D0090E690E0FD8D067D0090E691E0FFBB
:0A214B007B002DF508EB3EF509AB13
:0721550008AC09E4FDFEE502
:09215C000BC39BFBE50C9CFCE5A8
:082165000D9DFDE50E9EFE8BB1
:04216D000B8C0C8D3E
:062171000D8E0EEA602C49
:05217700E50B450C45DD
:05217C000D450E70226C
:0E2181008A03FC74032BFBE43CFCA2E713CBA7
:0C218F0013CBA2E713CB13CBFCE508C375
:07219B009BF508E5099CF526
:0121A2000933
:0621A300E5084509600D8E
:0921A900C002853B82853C8312D3
:0421B200006BD002EC
:0621B600EA700302223B67
:0521BC00E50B450C4598
:0521C1000D450E7075D4
:0921C6007B0090E67BE0FC7D004B
:0521CF00C3ED9A50234E
:0321D400BD040542
:0521D70090E67BE0FC36
:0E21DC00ECA2E092B2C313FCA2E092B3C313D4
:0621EA00FCEBA2B013FBA8
:0721F000D2B4C2B40D80D887
:0421F700E537601C4C
:0E21FB008A047D007408C39CFCE49DFD8CF0FA
:0522090005F0EB80026E
:02220E00C313F8
:07221000D5F0FB90E67CF025
:0E2217008A037C0074032BFBE43CFCA2E7135B
:0C222500CB13CBA2E713CB13CBFCEB25B3
:0522310008F508EC3582
:0522360009F5097A0022
:04223B00E5376063C0
:05223F00E50B450C4514
:052244000D450E6004D1
:04224900E5386052C2
:07224D000508E4B5080205D5
:012254000980
:08225500E509C313C50813C518
:04225D0008F509E592
:03226100386024BE
:0822640090E680E0FB30E70684
:06226C007B007C028004EF
:042272007B407C0031
:0C227600ECA2E713CB13CBFCEB2508F522
:0522820008EC3509F530
:01228700094D
:0A22880090E698E509F000000090D0
:09229200E699E508F00000007572
:04229B003800800384
:03229F007538018E
:0C22A20090E6497482F0000000E50B4556
:0422AE000C450D4589
:0622B2000E60030220BDD6
:0622B8007539010220BD92
:0C22BE00C002120978001209B0D002E53D
:0422CA003A70012243
:0A22CE00E50B25E0FBE50C33FCE511
:0A22D8000D33FDE50E33FEEB2BFB8A
:0C22E200EC33FCED33FDEE33FE8B0B8C77
:0422EE000C8D0D8EB8
:0422F2000EEA603D53
:0422F600EA30E21DCB
:0522FA00AB0BAC0CADC4
:0A22FF000DAE0E1BBBFF091CBCFF57
:06230900051DBDFF011ED1
:05230F008B0B8C0C8D0E
:032314000D8E0E1D
:0A231700E4FBFCFDEA250BFAEB35B0
:082321000CFBEC350DFCED3561
:052329000EFD8A0B8B84
:04232E000C8C0D8D79
:012332000E9C
:07233300E50FC3950BFAE56D
:05233A0010950CFBE50D
:05233F0011950DFCE505
:0523440012950EFD8A58
:042349000F8B108C5A
:04234D00118D128A52
:042351000B8B0C8C5A
:042355000D8D0EE5F7
:03235900377008D2
:05235C00F50FF510F57E
:0323610011F51261
:0C23640078B2E644C0F6758208020885D5
:01237000224A
:05334000010200000085
:05334500010000000082
:05334A0001000000007D
:0A237100C28CC28D78B3868A78B35F
:03237B0008868C45
:01237E00223C
:07237F0078B0B60202806095
:0723860078B1B600028011DE
:0B238D0012087C78B2760C75820012FA
:0623980008857582012298
:05239E0078B0E6701F9D
:0623A30078A5E630E2110E
:0B23A90012087C78B2760375820012E7
:0623B4000885758201227C
:0823BA0078A5E64404F6802436
:0523C20078B0B601082F
:0823C70078A5E654FBF680172F
:0623CF0078A5E620E211F2
:0B23D50012087C78B2760475820012BA
:0623E00008857582012250
:0A23E60078B0E624F850030224D07A
:0A23F00078B0E625E0269023FA738A
:0723FA00022412022412026A
:0624010024240224310234
:0624070024B60224BE020F
:05240D0024C60224CBEF
:0C24120012087C78B3E4F608F67582002E
:06241E001208850224D41F
:0D24240090335475F0801209147582012266
:0A24310075820412085E12087C7523
:06243B0053FAE4F554F52C
:0424410055F5568572
:062445000B82850C83856B
:05244B000DF0E50E128A
:0C245000319AAA82AB83ACF0FD8A0B8BA2
:04245C000C8C0D8D4A
:072460000EEC7003ED600CAF
:07246700750BFF750CFF75FA
:05246E000D00750E00D9
:09247300E50BF4FAE50CF4FBE5BD
:08247C000DF4FCE50EF4FD78FF
:08248400B3A60208A603850BB4
:03248C0053850C69
:03248F0054850D64
:0324920055850E5F
:0C249500569000FAE4F5F0123218AA820A
:0A24A100AB83ACF0FD8A0B8B0C8CB2
:0724AB000D8D0E7582041275
:0424B2000885801EFB
:0824B60075820112288C8016CA
:0824BE0075820012288C800ECB
:0524C600122548800909
:0524CB001226C7800489
:0424D00075820022EF
:0324D4007582010D
:0124D70022E2
:0E24D80090E6F3E0FA4480F000000090E67B0E
:0C24E600E0FA90E6F1F00000000225286A
:0E24F20090E6F3E0FA547FF000000090E67BE5
:0C250000E0FA90E6F1F00000000225284F
:0B250C0090E6F1E0122528E582600D4A
:0D25170090E6F2E0FA90E67CF07582012279
:03252400758200BD
:012527002291
:05252800122371D28CAA
:05252D00E5BB20E703FF
:03253200308DF8F1
:05253500E5BB30E704E6
:04253A007582012283
:09253E0090E6F574FFF0758200CF
:012547002271
:0A254800E4FAFBF508F509758204BA
:0D255200C002C00312085ED00300C00312D7
:0D255F00087C758200120885D003D002AC04
:04256C000BAD0CAEF9
:042570000DAF0E8C11
:042574000F8D108E29
:09257800118F12EC4D4E4F700260
:022581007B01DC
:03258300EB600604
:06258600EA600302269347
:0D258C00C002C0031207F0D003D002E4B576
:042599000A02804072
:05259D007401B50A12F3
:0325A200EA700FCD
:0E25A5007A01C002C00312087CD003D002806D
:0125B30029FE
:0525B4007402B50A1FCE
:0E25B900C002C00312087CD003D002EB7016E3
:0C25C70090E6A37401F00000007B017896
:0525D300B27602800554
:0525D8007A00022693C9
:0325DD00EB70A3FD
:0625E000E5084509702A20
:0525E600E5AA20E0253C
:0725EB007C007DF08D9A7C5D
:0825F200007DF07D008C9B9040
:0E25FA00E690E0FC8C057C0090E691E0FE7F10
:08260800002CF508EF3DF50977
:07261000E508450970030213
:02261700258319
:0E261900C002C0031224D8E582D003D00270A4
:0126270006AC
:0626280078B27605805235
:0E262E00C002C0031224F2E582D003D0027075
:01263C000697
:06263D0078B27606803D34
:07264300E50824FEF508E59F
:06264A000934FFF509ACA4
:042650000BAD0CAE14
:0A2654000DAF0E1CBCFF091DBDFFF9
:06265E00051EBEFF011F76
:052664008C0B8D0C8EB3
:092669000D8F0EEC4D4E4F700276
:022672007B01EA
:06267400E50845097006AF
:06267A0090E6497482F0B5
:0826800078B2B60003022583C5
:0B2688007B0190E6A37401F0022583A3
:0A269300C002120978D002EA6029A3
:07269D00E50FC3950BFAE500
:0526A40010950CFBE5A0
:0526A90011950DFCE598
:0526AE0012950EFD8AEB
:0426B3000B8B0C8CF5
:0426B7000D8D0E78FF
:0B26BB00B2E64480F675820402088538
:0126C60022F1
:0A26C700E4FAFBF508F5097582043A
:0D26D100C002C00312085ED00300C0031257
:0D26DE00087C758200120885D003D002AC84
:0426EB000BAD0CAE79
:0426EF000DAF0E8C91
:0426F3000F8D108EA9
:0926F700118F12EC4D4E4F7002E0
:022700007B015B
:03270200EB600683
:06270500EA600302284C0B
:0D270B00C002C0031207F0D003D002E4B5F5
:042718000A028046EB
:05271C007401B50A1272
:03272100EA700F4C
:0E2724007A01C002C00312087CD003D00280EC
:012732002F77
:052733007402B50A2547
:0E273800C002C00312087CD003D002EB701C5C
:0E27460090E6A37401F000000090E6A5740177
:09275400F07B0178B276028005E9
:05275D007A0002284C87
:03276200EB709D7C
:06276500E5084509703D86
:05276B00E5AA20E038A2
:05277000E5AA20E5339D
:072775007C007DF08D9A7CD1
:08277C00007DF07D008C9B7CC8
:06278400007DF88D9D7C34
:08278A00007DF87D008C9E909B
:0E279200E690E0FC8C057C0090E691E0FE7F76
:0827A000002CF508EF3DF509DE
:0727A800E50845097003027A
:0227AF002702FF
:0E27B100C002C0031224D8E582D003D002700B
:0127BF000613
:0627C00078B27605806A84
:0E27C600C002C00312250CE582D003D00270C1
:0127D40006FE
:0627D50078B27606805583
:0827DB00150874FFB508021592
:0127E30009EC
:0527E400AC0BAD0CAED2
:0A27E9000DAF0E1CBCFF091DBDFF63
:0627F300051EBEFF011FE0
:0527F9008C0B8D0C8E1D
:0927FE000D8F0EEC4D4E4F7002E0
:022807007B0153
:06280900E50845097021FD
:0D280F0090E690E0FC90E698F0000000904C
:0C281C00E691E0FC90E699F000000090CE
:08282800E6497482F000000093
:0828300078B2B6000302270292
:0E28380090E6A37401F000000090E6A5740184
:06284600F07B01022702F5
:0E284C00C002120978001209B0D002EA603111
:07285A00E50FC3950BFAE541
:0528610010950CFBE5E1
:0528660011950DFCE5D9
:05286B0012950EFD8A2C
:042870000F8B108C2E
:04287400118D128A26
:042878000B8B0C8C2E
:04287C000D8D0E7838
:0B288000B2E644C0F67582080208852D
:01288B00222A
:0C288C008582417B007C00C003C0041268
:0A28980024D8E582D004D003700DAF
:0B28A20012087C78B2760575820002F7
:0228AD0008859C
:0E28AF00758204C003C00412085ED00400C08D
:0B28BD000412087CD004D003E50B459A
:0428C8000C450D4569
:0328CC000E700289
:0228CF007C018A
:0A28D10090E6F574FFF090E6CEE506
:0928DB000EF000000090E6CFE5CC
:0928E4000DF000000090E6D0E5C3
:0928ED000CF000000090E6D1E5BA
:0C28F6000BF0C003C004122371D004D00A
:0A2902000390E6D1E0FDE541601C02
:0E290C0090E6187410F000000090E6D27401FE
:07291A00F0000000EC703139
:07292100F5BB000000802A55
:0E292800C003C004C0051209DBD005D004D0E6
:0E2936000390E61A7408F000000090E6E274C8
:0829440002F0000000EC700637
:06294C0075BB060000004F
:0E295200758200C003C004C005120885D005C0
:04296000D004D003CC
:03296400EC60061E
:06296700EB6003022A628E
:0E296D00C003C004C0051207F0D005D004D08E
:07297B0003E4B50A028066C7
:052982007401B50A1606
:03298700EB7013DF
:0E298A007B01C003C004C00512087CD005D03C
:0529980004D003804B98
:05299D007402B50A42BE
:0E29A200C003C004C00512087CD005D004D0CC
:0429B00003EC703490
:0529B40078B2E670049A
:0429B90078B2760278
:0429BD00E541600888
:0829C10090E6A37401F080060A
:0629C90090E6A57401F088
:0829CF00000000E5BB20E70950
:0929D70000000090E6F574FFF029
:0429E0007C018004F2
:0429E4007B00807A7A
:0529E800E5BB20E75DE6
:0A29ED0090E6D1E0FEB5050280126D
:0E29F700C003C004122371D004D00390E6D1B7
:042A0500E0FD80244C
:032A0900308D21EC
:082A0C0078B27606E54160088E
:082A140090E6A37401F08006B6
:062A1C0090E6A57401F034
:0B2A22007C0100000090E6F574FFF05E
:042A2D00E54160051A
:052A3100E5AA30E00FF2
:072A3600E541600302296481
:082A3D00E5AA30E5030229645B
:052A4500D28C0229649F
:062A4A00EC6003022964A8
:042A5000E5417009E3
:092A540090E6487406F000000051
:052A5D007C0102296468
:0E2A6200C003120978001209B0D003EB700116
:012A70002243
:0C2A710090E6CEE0FB7C007D007E008B38
:052A7D004575420075E3
:062A8200430075440090C2
:0E2A8800E6CFE0FF7A007B008A048F03E4FAB9
:082A9600FF4242EA4243EB4219
:052A9E0044EC424590EC
:0E2AA300E6D0E0FD7E007A008A038E028D06EA
:092AB100E4FD4242EE4243EA4218
:052ABA0044EB424590D1
:0C2ABF00E6D1E0FCE4FFFAFBE542420433
:092ACB00E5434207E5444202E53F
:092AD400454203E50BC39CFCE53F
:082ADD000C9FFFE50D9AFAE5DC
:062AE5000E9BFB8C0B8F21
:042AEB000C8A0D8BB9
:052AEF000EE54160044A
:042AF4007A80800262
:022AF8007A4022
:0B2AFA0078B2EA46F6758204020885F7
:012B050022AD
:05334F00010200000076
:05335400010000000073
:0533590001000000006E
:0D2B060090E60174FAF090E6F574FFF0908F
:0A2B13003402E493FA90E6F3F09028
:0A2B1D003403E493FA90E6C3F0904D
:0A2B27003404E493FA90E6C1F09044
:0A2B31003405E493FA90E6C2F09038
:0A2B3B003407E493FA90E6C0F0902E
:0D2B45003408E493FA90E6F4F075AF077AD7
:062B52005E7B338B9A7AD2
:0A2B58005E7B337B008A9B759DE4D1
:052B6200759E007A00E1
:032B6700BA800031
:022B6A00500C0D
:0C2B6C0090E67BE0FB90E67CF00A80EF36
:0E2B780090E67174FFF075B4FF90E672E0FA1B
:0E2B86004480F043B68000000090E6C4E4F006
:0E2B940000000090E6C5E4F09033DEE493FA12
:0B2BA20090E6C6F09033DFE493FA9059
:0A2BAD00E6C7F09033E0E493FA90DD
:0A2BB700E6C8F09033E1E493FA90D1
:0A2BC100E6C9F09033E2E493FA90C5
:0A2BCB00E6CAF09033E3E493FA90B9
:0A2BD500E6CBF09033E4E493FA90AD
:0A2BDF00E6CCF09033E5E493FA90A1
:032BE900E6CDF046
:012BEC0022C6
:0E335E0081B9010101010107230302020202ED
:0E336C000200F7F5F5F5F5F5F5F700000000A5
:0E337A000000003F0C8A9A3FA5B53F072103D3
:0E338800030103030500F3F3F2F3F3F1F3F78F
:0E3396003F0000000000003F8191380101015E
:0E33A40001070101070202020200F7F5F7F728
:0E33B200F7F7F7F7000075000000003F81916B
:0E33C0003801010101070303050000000000B1
:0E33CE00F3F1F3F3F3F3F3F700006E000000E9
:0233DC00003FB0
:0E33DE000000000000000000000000000000E1
:0E33EC000000000000000000000000000000D3
:0833FA000000000000000000CB
:07340200E08000F7FA4E0024
:072BED0078B0B6020280601F
:072BF40078B1B60002801168
:0B2BFB0012087C78B2760C7582001284
:062C060008857582012221
:052C0C0078B0E6701F26
:062C110078A5E630E31196
:0B2C170012087C78B276037582001270
:062C220008857582012205
:082C280078A5E64408F68024BB
:052C300078B0B60108B8
:082C350078A5E654F7F68017BC
:062C3D0078A5E620E3117A
:0B2C430012087C78B276047582001243
:062C4E00088575820122D9
:072C540078B0E624FB403BD1
:0A2C5B0078B0E625E026902C6573A2
:072C6500022C74022C740222
:062C6C002C7F022C8C02FB
:022C72002C91A3
:0B2C740012087C758200120885801B8E
:0D2C7F0090341375F0801209147582012243
:052C8C00122C9E8009DE
:052C9100122FB78004C2
:042C96007582002221
:032C9A007582013F
:012C9D002214
:072C9E007546007547007543
:092CA500480075820812085E1255
:0B2CAE00087C758200120885C280902F
:0E2CB900E618E4F000000090E61AE4F00000D7
:0E2CC7000090E6027468F000000090E630E431
:0E2CD500F000000090E631E4F090E680E0FDB3
:032CE30030E706D1
:062CE6007D007E02800467
:042CEC007D407E00A9
:052CF0008D498E4AAF82
:042CF5000FAB10AA67
:042CF90011AC128583
:032CFD00494B85BB
:032D00004A4C75C5
:082D03004D00754E00C3EF9571
:062D0B004BEB954CEA952C
:062D11004DEC954E502C24
:052D17008F498B4AAD5D
:0C2D1C004A90E63474C04DF000000090B6
:072D2800E635E549F0E4F592
:042D2F0008F5097525
:062D33004701750F007559
:062D390010007511007589
:042D3F00120080728C
:082D430090E680E0FD30E7138B
:0E2D4B0090E63474C8F000000090E635E4F025
:052D59000000008012E3
:0E2D5E0090E63474C0F000000090E63574403A
:042D6C00F000000073
:0A2D7000EFC3954BFFEB954CFBEA17
:082D7A00954DFAEC954EFC8F1B
:042D82000F8B108A19
:042D8600118C128515
:032D8A000F4F8563
:032D8D001050855E
:032D900011518559
:052D93001252C3EF9590
:062D98004BEB954CEA959F
:062D9E004DEC954E500BB8
:042DA400854F0885CA
:032DA8005009755A
:042DAB004701800656
:042DAF0085490885C5
:022DB3004A09CB
:0A2DB50090E601E0FA4403F0D28733
:042DBF00E54860077C
:072DC300E5466003022F3515
:072DCA001207F0E50A602E7C
:052DD1007401B50A0CBD
:042DD600E546700856
:082DDA0012087C754601801D02
:052DE2007402B50A12A5
:072DE70012087CE5487011A1
:0A2DEE00C28778B2760275480180B2
:012DF80006D4
:062DF900754600022F35B3
:042DFF00E54870BC77
:052E0300E5AA20E058E3
:0E2E080090E690E0FA8A037A00EB3395E0FC46
:082E1600FDE50BC39AF54FE541
:052E1E000C9BF550E5DE
:052E23000D9CF551E5D6
:052E28000E9DF552852E
:032E2D004F0B85C3
:032E3000500C85BE
:032E3300510D85B9
:032E3600520E90A9
:0C2E3900E691E0FEE4FFFAFBE54FC39ECB
:0A2E4500FEE5509FFFE5519AFAE503
:062E4F00529BFB8E0B8F6D
:042E55000C8A0D8B4B
:072E59000E90E6497402F03F
:0B2E600090E6A9E0FA20E203022F0C2C
:0E2E6B0090E6A5E0FA530270BA3003022F0C75
:042E7900E5476015B4
:0C2E7D00AA0990E63474C04AF00000007E
:092E890090E635E508F0000000B8
:0A2E920090E698E54AF00000009079
:092E9C00E699E549F0000000850B
:032EA50008498554
:032EA800094AE5EF
:052EAB00084509605C10
:082EB000AA08AB09E4FCFDE5F2
:092EB8000FC39AFAE5109BFBE53B
:082EC100119CFCE5129DFD8A45
:042EC9000F8B108CCF
:042ECD00118D1285CC
:032ED1000F4F851B
:032ED40010508516
:032ED70011518511
:032EDA0012529001
:072EDD00E680E0FE30E7068D
:062EE4007E007F02800465
:042EEA007E407F00A7
:0B2EEE00EF3395E0FAFBC3E54F9EE5D3
:062EF900509FE5519AE52F
:042EFF00529B500989
:042F0300850F0885A9
:032F070010097539
:022F0A0047017D
:072F0C00E549454A6003029C
:022F13002DBFD0
:0B2F150090E6A7E0FA20E203022DBFC7
:052F2000E50B450C4526
:062F25000D450E600302E1
:022F2B002DBFB8
:082F2D00754801C287022DBFA7
:0E2F3500C28790E601E054FEF0E0FA4402F09C
:072F43001209781209B0E544
:032F4A0046606777
:052F4D0078B2E6705CA3
:072F520090E6ACE0FA7011FB
:072F590090E6ABE0FA700AFC
:052F6000E50B450C45E6
:052F65000D450E602681
:062F6A00E549454A60063E
:062F700078B2760A8038F9
:072F760090E6B0E0FA7007DD
:072F7D0090E6AFE0FA6006E8
:062F840078B2760B8024F8
:062F8A0078B27607801EFC
:062F9000E549454A600618
:062F960078B276088012FB
:072F9C0090E6AFE0FA7007B8
:072FA30090E6B0E0FA6004C3
:042FAA0078B276097A
:062FAE0075820012088587
:022FB400D280C9
:012FB60022F8
:0D2FB7007A007B007C00C002C003C0041241
:0E2FC400087C758200120885D004D003D0026C
:0E2FD200C28090E6187410F000000090E61A1D
:0D2FE0007408F0000000C002C003C004121D
:0E2FED0009DBD004D003D00290E60274E8F0B5
:0E2FFB0000000090E601E0FD4403F0D2879054
:0C300900E630E4F000000090E631E4F056
:03301500EA60036B
:03301800EB7063F7
:0E301B00C002C003C0041207F0D004D003D0DE
:0530290002E50A603C15
:05302E007401B50A1653
:03303300EA70132D
:0E3036007A01C002C003C00412087CD004D08E
:0530440003D002802111
:053049007402B50A1835
:0E304E00C002C003C00412087CD004D003D01E
:04305C0002EB700A09
:063060007C017B018004ED
:043066007A00801458
:03306A00EB70A860
:03306D00EA60A571
:0830700090E6A7E0FD30E29DAF
:063078007B01C287809776
:0E307E00C28790E601E054FEF0E0FB4402F051
:0D308C00C002C004120978D00400C0041274
:0930990009B0D004D002EA601B6A
:0330A200EC7012BD
:0730A50090E6ABE0FA7007B2
:0730AC0090E6ACE0FA6004BD
:0430B30078B2760772
:0630B7007582001208857D
:0230BD00D280BF
:0130BF0022EE
:053409000102000000BB
:05340E000100000000B8
:053413000100000000B3
:0730C00012087C750B01757D
:0630C7000C00750D007500
:0830CD000E0075820402088563
:0A30D50075820112085E12087CE506
:0330DF000B600A79
:0A30E20078B2760C758200020885B2
:0B30EC007582101208D5750810E4F57D
:0130F70009CF
:0A30F80090E67CE4F0150874FFB5C3
:0431020008021509A1
:06310600E508450970EC2C
:03310C000208F9BD
:0A310F0075820112085E12087CE5CB
:033119000B600A3E
:0A311C0078B2760C75820002088577
:0B3126007582201208D5750810E4F532
:04313100097AC07BDC
:09313500E78A828B83A3A37513C2
:03313E00277514DE
:0531410034120B340202
:0231460008F986
:0A31480075820112085E12087CE592
:033152000B600A05
:0A31550078B2760C7582000208853E
:0B315F007582141208D5750810E4F505
:01316A00095B
:0A316B0090E67CE4F0150874FFB54F
:04317500080215092E
:06317900E508450970ECB9
:06317F00750B0120B506EE
:063185007402450BF50B7E
:0C318B0090E67CE50BF0E4F0E4F0E4F0EA
:033197000208F932
:053418000102000000AC
:05341D000100000000A9
:053422000100000000A4
:0E342700504F57455220474F4F4400000000C1
:0234350000FD98
:0EE1000012010002000000404314070001005D
:04E10E000102000109
:0AE112000A060002000000400100B0
:0EE11C0009022E0001010080FA09040000042F
:0EE12A00FF000000070501020002000705814A
:0EE13800020002000705020200020007058631
:04E1460002000200D1
:0EE14A0009022E0001010080FA090400000401
:0EE15800FF00000007050102400000070581DE
:0EE16600024000000705020240000007058687
:04E174000240000065
:04E17800040309048F
:0EE17C00120344006900670069006C00650032
:04E18A006E007400AF
:0EE18E001A0344006900670069006C00650018
:0CE19C006E00740020005500530042008B
:093F00000206260002065A000226
:083F09000644000206BE00029E
:083F11000670000206DC00024C
:083F1900073600020736000222
:083F210007360002073600021A
:083F2900073600020736000212
:083F310007360002073600020A
:083F3900073600020736000202
:083F41000736000207360002FA
:083F49000736000207360002F2
:083F51000736000207360002EA
:083F59000736000207360002E2
:083F61000736000207360002DA
:083F69000736000207360002D2
:083F71000736000207360002CA
:083F79000736000207360002C2
:083F81000736000207360002BA
:083F89000736000207360002B2
:083F91000736000207360002AA
:083F99000736000207360002A2
:083FA10007360002073600029A
:083FA900073600020736000292
:073FB100073600020736008D
:08319A00FB7A20E4FCFDFEFFBE
:0E31A200E5822582F582E58333F583E5F0337F
:0B31B000F5F0EB33FB4017DAE980423A
:0E31BB00E5822582F582E58333F583E5F03366
:0531C900F5F0EB33FB03
:0E31CE00EC33FCED33FDEE33FEEF33FFEC95FA
:0631DC0053ED9554EE9541
:0831E20055EF95564013EC95E2
:0831EA0053FCED9554FDEE9538
:0931F20055FEEF9556FF438201E2
:0231FB00DABE3A
:0231FD00EB22C3
:06009C00E478FFF6D8FD38
:08007A007900E94400601B7AE3
:05008200009034377806
:030087000075A061
:0A008A00E0E493F2A308B8000205B9
:08009400A0D9F4DAF275A0FF17
:0E31FF0020F71030F6118883A88220F507F61D
:05320D00A88375830099
:013212002299
:03321300F280F74F
:02321600F022A4
:0C321800AAF0FBE5828553F0A4FCADF0A9
:0C322400E5838553F0A42DFDE435F0FE99
:0C323000E5828554F0A42DFDE5F03EFE83
:0C323C00E433FFEA8553F0A42EFEE5F019
:0C3248003FFFE5838554F0A42EFEE5F066
:0C3254003FFFE5828555F0A42EFEE5F05A
:0B3260003FFFEB8553F0A42FFFEA8531
:0A326B0054F0A42FFFE5838555F011
:0C327500A42FFFE5828556F0A42F8EF0F8
:053281008D838C822208
:0400A20075A00078CD
:0700A60000E8440060077947
:0600AD0000E4F309D8FC99
:0800B3007800E84400600C79BC
:0B00BB000090E000E4F0A3D8FCD9FAAC
:02006B00E4733C
:0E32860090E682E044C0F090E681F0438701BC
:0E32940000000000000000000000000000002C
:0E32A20000000000000000000000000000001E
:0932B000000000000000000022F3
:03006D0075815644
:0A0070001232D5E58260030200663B
:0E32B90020F71430F6148883A88220F507E66B
:0632C700A88375830022BC
:0332CD00E280F7A5
:0332D000E4932262
:0232D300E022F7
:0432D50075820022DC
:00000001FF
