:0400000002006D325B
:01000B0032C2
:0100130032BA
:01001B0032B2
:0100230032AA
:01002B0032A2
:030033000206B70B
:01003B003292
:03004300023F0079
:01004B003282
:03005300023F0069
:01005B003272
:030063000206BBD7
:0300E400020066B1
:050066001200E780FE1E
:0900E700788176007880760090A3
:0E00F000E60B7403F000000000000090E60034
:0E00FE007410F075800075B20675900075B331
:0E010C00FF75B03E75B53F90E67AE0FA44010B
:0B011A00F012252290E60174E2F012C2
:0E012500027590E6097403F000000075890170
:09013300000000788276000876D5
:04013C00E17884766C
:05014000120876E178D1
:0501450086761C08761F
:04014A00E17888765A
:0A014E004A0876E1D2E843D8209079
:0E015800E668E0FA4409F090E65CE0FA443D07
:0E016600F090E682E4F0D2AF90E680E0FA542A
:05017400F7F0538EF8C6
:080179001201BE789EE660074A
:0701810012019A789E76003E
:050188007881E660072C
:07018D00788176001226F5CF
:050194001206BB80E033
:010199002243
:0A019A0090E680E0FA440AF07A00D3
:0201A400DAFE81
:0E01A60090E65D74FFF090E65F74FFF05391F9
:0901B400EF90E680E0FA54F7F048
:0101BD00221F
:0601BE007880E6700122CA
:0501C400AA08AB097858
:0901C90096A60208A603788EA692
:0601D2000B08A60C08A6B4
:0501D8000D08A60E78E1
:0501DD0092A60F08A628
:0601E2001008A61108A69A
:0601E800127898A69B7836
:0801EE0099A69A789AA69E7862
:0A01F6009BA69D1202F7E582700837
:0802000090E6A0E0FA4401F0D1
:0C02080090E6A0E0FA4480F078807600D8
:06021400789686080886BA
:0A021A0009788E8602088603088624
:09022400040886058A0B8B0C8C82
:04022D000D8D0E78AD
:0C023100928602088603088604088605F1
:05023D008A0F8B108CFC
:04024200118D127890
:0802460098869B7899869A784E
:07024E009A869E789B869DB5
:010255002286
:0E02560090E6837401F07421F07411F074319D
:0E026400F090E6837402F07422F07416F074C9
:0202720036F064
:010274002267
:0E02750090E610E4F000000090E611E4F000C6
:0E028300000090E612E4F000000090E613E4A4
:0D029100F000000090E614E4F00000009082
:0E029E00E615E4F000000090E618E4F0000021
:0E02AC000090E619E4F000000090E61AE4F07D
:0E02BA0000000090E61BE4F000000090E6104B
:0E02C80074A0F000000090E61174A0F0000099
:0E02D6000090E61274A0F000000090E6147490
:0E02E400E0F000000090E68DE4F00000001253
:0502F200092F0208F7CE
:0C02F70090E6B9E0FA24F450030205A4DC
:07030300EA2A2A90030A73A5
:07030A000203F102047B0273
:0603110005A4020529020B
:0603170005A40205A4028A
:06031D00032E0205A402FC
:0603230003DC0203CA0224
:0503290003A30203B86C
:0A032E0090E6BBE0FABA0102800F6E
:05033800BA0202802062
:05033D00BA0602803148
:05034200BA075A8042D9
:09034700788290E6B308E6F07834
:0B0350008286027B0090E6B4EAF00217
:02035B0005A7F4
:09035D00788A90E6B308E6F07816
:0B0366008A86027B0090E6B4EAF002F9
:0203710005A7DE
:09037300788490E6B308E6F07806
:0B037C008486027B0090E6B4EAF002E9
:0203870005A7C8
:09038900788C90E6B308E6F078E8
:0B0392008C86027B0090E6B4EAF002CB
:02039D0005A7B2
:04039F007582002241
:0803A30090E740789DE6F09020
:0B03AB00E68AE4F090E68B7401F0029B
:0203B60005A799
:0A03B80090E6BAE0FA789DA6021262
:0603C20002751202560252
:0203C80005A787
:0A03CA0090E6BAE0FA789CA6021251
:0603D40002751202560240
:0203DA0005A775
:0803DC0090E740789CE6F090E8
:0B03E400E68AE4F090E68B7401F00262
:0203EF0005A760
:0A03F10090E6B8E0FABA8002800A34
:0503FB00BA8102801B25
:05040000BA8274802C9B
:0A04050090E740E4F090E741F0902A
:0A040F00E68AF090E68B7402F0021A
:0204190005A735
:0A041B0090E740E4F090E741F09014
:0A042500E68AF090E68B7402F00204
:02042F0005A71F
:0E04310090E6BCE0FA53027E90E6BCE0FBC30E
:0E043F0074809BE433FB4A90275293FA339566
:0E044D00E0FB74A12AFA74E63BFB8A828B83E3
:0E045B00E0FA53020190E740EAF090E741E436
:0C046900F090E68AF090E68B7402F0023E
:0204750005A7D9
:040477007582002268
:07047B0090E6B8E0FA60080A
:05048200BA0202801225
:0304870002052546
:0B048A0090E6BAE0FABA01030205A7F1
:04049500758200224A
:0904990090E6BAE06003020521BF
:0E04A20090E6BCE0FA53027E90E6BCE0FBC39D
:0E04B00074809BE433FB4A90275293FA3395F5
:0E04BE00E0FB74A12AFA74E63BFB90E6BCE07A
:0E04CC00FC53047E90E6BCE0FDC374809DE40A
:0E04DA0033FD4C90275293FC3395E0FD74A146
:0E04E8002CFC74E63DFD8C828D83E0FC5304F9
:0E04F600FE8A828B83ECF090E6BCE05480FA24
:0E050400C423541FFA90E6BCE0FB740F5B901A
:0D051200E6832AF090E683E0FA4420F00230
:02051F0005A72E
:0405210075820022BD
:0405250075820022B9
:0705290090E6B8E0FA60055E
:05053000BA026D800E0F
:0A05350090E6BAE0FABA020280680C
:04053F00758200229F
:0E05430090E6BCE0FA53027E90E6BCE0FBC3FB
:0E05510074809BE433FB4A90275293FA339553
:0E055F00E0FB74A12AFA74E63BFB90E6BCE0D8
:0E056D00FC53047E90E6BCE0FDC374809DE468
:0E057B0033FD4C90275293FC3395E0FD74A1A4
:0E0589002CFC74E63DFD8C828D83E0FC430467
:09059700018A828B83ECF08007DD
:0405A000758200223E
:0305A400020A86C2
:0305A70075820159
:0105AA00222E
:0C05AB00C0E0C082C083C00078807601F0
:0905B7005391EF90E65D7401F030
:0905C000D000D083D082D0E032DB
:0E05C900C0E0C082C0835391EF90E65D7404E1
:0105D700F033
:0705D800D083D082D0E03295
:0E05DF00C0E0C082C0835391EF90E65D7402CD
:0105ED00F01D
:0705EE00D083D082D0E0327F
:0D05F500C0E0C082C083C002C003C0007817
:0A060200888602088603788AA602A3
:0C060C0008A6038A828B83A37402F07896
:0A061800868602088603788CA6028D
:0E06220008A6038A828B83A37407F05391EF1E
:0606300090E65D7410F07D
:0D063600D000D003D002D083D082D0E032BB
:0C064300C0E0C082C083C0007881760156
:09064F005391EF90E65D7408F090
:09065800D000D083D082D0E03242
:0D066100C0E0C082C083C002C003C0009092
:07066E00E680E0FA30E72C02
:0A06750078868602088603788AA6BC
:0D067F000208A6038A828B83A37402F07820
:0A068C00888602088603788CA60217
:0B06960008A6038A828B83A37407F080
:0906A1005391EF90E65D7420F026
:0D06AA00D000D003D002D083D082D0E03247
:0306B70053D8EF26
:0106BA00320D
:05274800010200000089
:05274D00010000000086
:0A2752000001020203030404050560
:0A00C600789E7600789FE4F608F6B5
:0C00D00008F608F678A3E4F608F608F637
:0800DC0008F678A7E4F608F627
:0706BB00120707E582601839
:0906C200C2B11206DBE582700DE5
:0B06CB001207FB78AC7601758200126C
:0206D600080416
:0206D800D2B19D
:0106DA0022FD
:0706DB0078A9B600028015AA
:0706E20078A9B601028011A6
:0706E90078A9B60202800DA2
:0706F00078A9B6040E800991
:0306F70002098F66
:0306FA000209F3FF
:0306FD0002110DDA
:03070000021D9B3C
:03070300758200FC
:0107060022D0
:05070700E5BA30E10439
:04070C0075820022D0
:0707100078AC76007A807BD3
:06071700E78B9A7A807B5B
:0C071D00E77B008A9B90E67BE0FA7B0003
:050729000ABA00010BFB
:0E072E0090E68DE0FC7D00EAB50406EBB50513
:03073C0002801127
:0B073F001207FB78AC760175820012F7
:06074A0008047582002284
:0A07500090E67BE0FA78A9A602907B
:09075A00E67BE0FA78AAA6029001
:0B076300E67BE0FA78ABA6027582018D
:01076E002268
:08076F001201BEE5BA30E104FD
:04077700750A0022DD
:0C077B0090E780E0FA7B000ABA00010B56
:0E07870090E68DE0FC7D00EAB50406EBB505BA
:03079500028011CE
:0B0798001207FB78AC7601758200129E
:0607A3000804750AFF22A4
:0B07A90090E781E0FA78A9E6B50213A2
:0C07B40090E782E0FA78AA748046FBEA25
:0307C000B503047A
:0407C300750A012290
:0607C70090E781E0700CD8
:0807CD0090E782E0FABA020491
:0407D500750A02227D
:0307D900750AFF9F
:0107DC0022FA
:0807DD00AA827B0B7C007D4029
:0E07E50090E67BE0FE8B828C838DF012266EF8
:0707F300A3AB82AC83DAEB3B
:0107FA0022DC
:0807FB0090E68DE4F00000001F
:0108030022D2
:07080400AA82E5BA30E2010F
:01080B0022CA
:07080C007BC07CE78C9D7BA3
:08081300C07CE77C008B9E9085
:08081B00E67CEA04F078AC90E1
:07082300E67CE6F07B0B7C94
:05082A00007D408A067C
:03082F00EE601761
:0E0832008B828C838DF0122728FFA3AB82AC43
:090840008390E67CEFF01E80E6D7
:0A08490090E68F74022AF000000010
:010853002282
:07085400AA82E5BA30E201BF
:01085B00227A
:07085C007BC07CE78C9D7B53
:08086300C07CE77C008B9E9035
:08086B00E67CEA04F078AC9091
:04087300E67CE6F049
:01087700225E
:05087800E5BA30E201C9
:01087D002258
:08087E0090E7C178ACE6F090B0
:0C088600E7C0E0FA90E68F04F0000000EC
:010892002243
:0E089300AA82AB83ACF090E67BE0FDC002C011
:0E08A10003C004C0051207FBD005D004D0032D
:0708AF00D002E5BA30E201BE
:0108B600221F
:0708B7007EC07FE78F9D7EEC
:0808BE00C07FE77F008E9E90D1
:0C08C600E67CED04F090E67CE4F08D068A
:0308D200EE6017BE
:0E08D5008A828B838CF0122728FFA3AA82ABA5
:0908E3008390E67CEFF01E80E634
:0A08EC0090E68F74022DF00000006A
:0108F60022DF
:0E08F70090E618E4F000000090E6047480F033
:0E09050000000090E6047402F00000007A0486
:0B09130090E6497482F0000000DAF565
:0E091E0090E604E4F000000090E6A3E4F00090
:02092C000000C9
:01092E0022A6
:0E092F0090E61AE4F000000090E6047480F0F8
:0D093D0000000090E6047406F00000009039
:0E094A00E604E4F000000090E6A5E4F00000F2
:01095800009E
:01095900227B
:08095A0090E680E0FA30E706A8
:060962007A007B02800414
:040968007A407B0056
:0E096C0090E624EBF000000090E680E0FA3008
:02097A00E7068E
:06097C007A007B028004FA
:040982007A407B003C
:0809860090E625EAF0000000F4
:01098E002246
:07098F0078AAB602028007FE
:0709960078AAB603508005AA
:05099D001207FB804D74
:0A09A2007582041207DD1207FBE561
:0809AC000BF4FAE50CF4FBE585
:0A09B4000DF4FCE50EF4FD747B2A3F
:0C09BE00FAE43BFBE43CFCE43DFD8A0B4A
:0509CA008B0C8C0D8D6B
:0509CF000E12127A78FF
:0C09D4009FE4F608F608F608F612092F5A
:0B09E0001208F775820412080480045E
:0409EB0075820022EF
:0309EF007582010D
:0109F20022E2
:0509F30078AAB602170E
:0709F8001207FB750B0075EF
:0609FF000C00750D0075EF
:0A0A05000E0075820412080480043C
:040A0F0075820022CA
:030A1300758201E8
:010A160022BD
:0A0A1700AA82AB83E50845097001CF
:010A210022B2
:070A2200AC14BCE6028005E4
:050A29008B05BDE63164
:080A2E008A068B07AC13AD141E
:0E0A36008E028F038C828D83E0F88A828B8380
:060A4400F00EBE00010FE0
:050A4A000CBC00010DD1
:080A4F00150874FFB50802153B
:010A57000995
:060A5800E508450970D815
:010A5E002275
:0C0A5F008C9AAC137E008C9B8D9D7B005C
:050A6B008A9E020A71E1
:010A70002263
:080A7100A90890E67B058690C0
:040A7900E67C05868C
:080A7D00E00586F00586D9F8BA
:010A8500224E
:0A0A860090E6B9E0FABAA202804A35
:050A9000BAA30280453D
:060A9500BAE103020D5B53
:060A9B00BAE203020D3B6C
:060AA100BAE303020D3B65
:060AA700BAE403020D1B7E
:060AAD00BAE503020D1B77
:060AB300BAE603020C2666
:060AB900BAE703020C5332
:060ABF00BAE803020C9BE3
:060AC500BAE903020CFB7C
:060ACB00BAEA03020CCAA6
:060AD100BAEB03020D7BED
:030AD700020D9B72
:0B0ADA0090E6BAE0FAA3E0FB8A0B8B69
:0A0AE5000C90E6BEE0FAA3E0FB90DF
:090AEF00E6B8E0FCBCC002800383
:030AF800020B8B63
:070AFB00EA4B7003020D9F9E
:080B020090E6A0E0FC20E1F800
:080B0A0090E6B9E0FCBCA21169
:0A0B1200750D00750E00C002C0034F
:070B1C00121039D003D002D2
:090B2300C3EA9440EB9400500673
:060B2C008A0D8B0E80060D
:060B3200750D40750E0078
:080B380090E6B9E0FCBCA20D3F
:0D0B4000C002C003120F8CD003D002801A37
:040B4D00850D088585
:030B51000E0990FA
:040B5400E740850BE6
:030B580013850CF6
:0C0B5B0014C002C003120A17D003D0021D
:080B670090E68AE4F0AC0DAD4C
:080B6F000E90E68BECF0EC2582
:070B77000BFEED350CFF8EB3
:0A0B7E000B8F0CEAC39CFAEB9DFB01
:030B8800020AFB63
:0A0B8B0078A7E608467003020C226A
:0C0B950090E6BCE0FCA3E0FD78A7E6B50C
:090BA100040708E6B50502800214
:020BAA00807653
:080BAC0090E6B8E0FCBC406ECD
:070BB400EA4B7003020D9FE4
:090BBB0090E68AE4F090E68BF06C
:080BC40090E6A0E0FC20E1F83E
:0A0BCC0090E68BE0FC7D008C0D8D9F
:090BD6000E90E6B9E0FCBCA31F7F
:040BDF00850D0885F3
:030BE3000E098573
:060BE6000B82850C8375F3
:030BEC001340753E
:070BEF0014E7C002C003126D
:080BF6000A17D003D002800BA6
:0B0BFE00C002C003121039D003D00267
:060C0900AC0DAD0EEC2560
:070C0F000BFEED350CFF8E1A
:0A0C16000B8F0CEAC39CFAEB9DFB68
:020C20008092C0
:040C220075820022B5
:0A0C260090E6B8E0FABAC0028003BD
:030C3000020D9F13
:080C330090E6A0E0FA20E1F8D0
:0E0C3B0090E7407409F0A37403F090E68AE499
:0A0C4900F090E68B7402F0020D9F9C
:0A0C530090E6B8E0FABAC002800390
:030C5D00020D9FE6
:080C600090E6A0E0FA20E1F8A3
:0E0C680090E7407405F0A3E4F0A3F0A3F09031
:0B0C7600E744E4F5F012266EA3E41240
:0A0C8100266EA3E412266EA3E4120F
:080C8B00266E90E68AE4F09069
:080C9300E68B7408F0020D9FCE
:080C9B0090E6B8E0FABA40232C
:090CA30090E68AE4F090E68BF083
:080CAC0090E6A0E0FA20E1F857
:0C0CB40090E740E0FAA3E0FB78A7A6025E
:060CC00008A603020D9FCF
:040CC6007582002211
:080CCA0090E6B8E0FABA4025FB
:070CD20078A7E60846601E4A
:0C0CD90090E6BCE0FAA3E0FB78A7E6B5CB
:090CE500020708E6B503028002D3
:020CEE0080077D
:070CF000789E7601020D9FC2
:040CF70075820022E0
:070CFB00750BF0750C3F754D
:060D02000D04750E0075E2
:060D08000FCD7510AB9049
:070D0E00E6B8E0FABAC003E9
:030D1500020DA329
:030D1800020EBC0C
:070D1B00750BE0750C3F753C
:060D22000D0C750E0075BA
:060D28000F7875105690D3
:070D2E00E6B9E0FABAE403A4
:030D3500020DA309
:030D3800020EBCEC
:070D3B00750BC0750C3F753C
:060D42000D10750E007596
:060D48000FCD7510AB9009
:070D4E00E6B9E0FABAE20386
:030D5500020DA3E9
:030D5800020EBCCC
:070D5B00750BA0750C3F753C
:060D62000D1C750E00756A
:060D68000FCD7510AB90E9
:070D6E00E6B8E0FABAC00389
:030D7500020DA3C9
:030D7800020EBCAC
:070D7B00750BF8750C3F75C4
:060D82000D02750E007564
:060D88000FCD7510AB90C9
:070D8E00E6B8E0FABAC00369
:030D9500020DA3A9
:030D9800020EBC8C
:040D9B00758200223B
:030D9F0075820159
:010DA200222E
:0C0DA3007AFF90E6B8E0FBBBC0028004C1
:040DAF007582002227
:050DB300AB0DAC0E7554
:0A0DB8000D00750E00C002C003C05C
:0E0DC20004121039D004D003D00274032BFBAE
:0A0DD000E43CFC8B0D8C0EC00212F7
:0A0DDA000F8CD002E50D24FDFBE5AF
:070DE4000E34FFFC8B0D8CA7
:0B0DEB000E90E740E0FBA3E0FCEBB53E
:060DF6000F48ECB51044AB
:040DFC007A007B00FE
:0A0E00007403250DFCE4350EFD8B94
:0A0E0A00067F00C3EE9CEF9D502C04
:0A0E1400EB2440F582E434E7F58397
:0A0E1E00E0FC2AFAEB2440FCE43467
:0A0E2800E7FD74022B2440F582E47C
:0C0E320034E7F583E0FE8C828D83F00B2A
:020E3E0080C072
:030E4000EA606401
:040E4300850D08858C
:030E47000E099001
:090E4A00E6B9E0FABAE1028034D5
:050E5300BAE202803D3F
:050E5800BAE402800570
:050E5D00BAE943801713
:020E62007A0014
:030E6400BA0C00C5
:020E6700503EFB
:0A0E6900EA2440F582E434E7F58343
:060E73007430F00A80EB70
:050E790090E740751335
:030E7E0066751482
:060E810027120A17802071
:050E870090E740751327
:030E8C006A751470
:060E8F0027120A17801271
:050E950090E740751319
:030E9A0086751446
:060E9D0027120A17800471
:040EA3007582002232
:0C0EA70090E68AE4F000000090E68BE585
:080EB3000DF000000075820142
:010EBB002214
:080EBC0090E6B8E0FABA401C10
:070EC40078A7E6084660155F
:0C0ECB0090E6BCE0FAA3E0FB78A7E6B5D7
:090ED700020708E6B503028004DD
:040EE00075820022F5
:090EE40090E68AE4F090E68BF040
:080EED0090E6A0E0FA20E1F814
:070EF50090E68AE0FA701498
:050EFC00AA0DAB0E90F1
:0E0F0100E68BE0FC7D00B50206EDB503028034
:010F0F0004DD
:040F100075820022C4
:060F14008A15AD158D06E3
:060F1A008E071EEF6025AA
:0C0F2000C002C00374022E2440FFE43421
:090F2C00E7FCEE2440F582E434F8
:0C0F3500E7F583E0FA8F828C83F0D00394
:040F4100D00280D585
:080F450090E740E50FF0A3E581
:050F4D0010F07C407E65
:0A0F5200E78E9A759B407C00740244
:030F5C002515FD5B
:090F5F0090E67BE0FE2CFCDDF7BE
:0A0F6800740225152440F582E434DC
:0C0F7200E7F583C3E49CFCF074032AFA4A
:080F7E00E43BFB8A0D8B0E120F
:050F8600103975820125
:010F8B002243
:050F8C00E50DFA700400
:040F91007582012242
:080F950090E678E0FB20E6F88D
:0C0F9D0090E6787480F090E67974A3F080
:080FA90090E678E0FB30E0F86F
:080FB10090E678E0FB20E274F9
:080FB90090E678E0FB30E16CEA
:030FC100BA01086A
:080FC40090E678E0FB4420F008
:070FCC0090E679E07B407C18
:060FD300E78C9A7B407CD4
:050FD900E77C008B9B8A
:040FDE00DA0280268D
:080FE20090E678E0FB30E0F836
:080FEA0090E678E0FB20E23BF9
:030FF200BA010839
:080FF50090E678E0FB4420F0D7
:0B0FFD0090E679E0FB90E67BF080D6E8
:0810080090E678E0FA30E0F810
:0810100090E678E0FA20E215F9
:0E10180090E678E0FA4440F090E679E0FA9035
:07102600E67BF07582012258
:0B102D0090E678E0FA4440F075820085
:011038002295
:02103900AA0DFE
:08103B0090E678E0FB20E6F8E6
:0C10430090E6787480F090E67974A2F0DA
:08104F0090E678E0FB30E0F8C8
:0810570090E678E0FB20E26B5B
:08105F0090E678E0FB30E1634C
:03106700EA600E2E
:07106A007B407CE78C9A7BC0
:07107100407CE77C008B9B33
:021078007B02F9
:03107A00EA700316
:03107D00EB603BEA
:03108000EB60140E
:03108300BB0208A5
:0810860090E679E50CF080060C
:06108E0090E679E50BF08D
:031094001B800AB4
:0A10970090E67BE0FC90E679F01A89
:0810A10090E678E0FC30E0F875
:0810A90090E678E0FC20E2195A
:0810B10090E678E0FC20E1C1AB
:0210B900800FA6
:0E10BB0090E678E0FA4440F01210D6758201FB
:0110C9002204
:0B10CA0090E678E0FA4440F0758200E8
:0110D50022F8
:0810D60090E678E0FA20E6F84C
:0E10DE0090E678E0FA4480F090E67974A2F093
:0810EC0090E678E0FA30E0F82C
:0810F40090E678E0FA4440F0B8
:0810FC0090E678E0FA20E6F826
:0811040090E678E0FA30E1D238
:01110C0022C0
:05275C00010200000075
:05276100010000000072
:042766000402203019
:0E276A0055534232204D6F64756C65000000BF
:0E277800FDFDFDFD0000000000008813D030C4
:0E278600444D6F62557362000000FDFDFDFDC5
:02279400000043
:07110D0078AAB6020280601F
:0711140078ABB60002801168
:0B111B001207FB78AC760C7582001206
:061126000804758201229D
:05112C0078AAE6701F27
:06113100789FE630E0119A
:0B1137001207FB78AC760375820012F3
:0611420008047582012281
:08114800789FE64401F68024C3
:0511500078AAB60108B9
:08115500789FE654FEF68017B6
:06115D00789FE620E0117E
:0B1163001207FB78AC760475820012C6
:06116E0008047582012255
:0A11740078AAE624F4500302126486
:0A117E0078AAE625E0269011887398
:071188000211AC0211BC02D0
:06118F0011CC0212640203
:0611950011D90211F20263
:06119B00122602125D02A3
:0611A100124F02124F0282
:0511A700125602124F78
:0A11AC001212681207FB7582001290
:0611B6000804758201220D
:0A11BC0012127A1207FB758200126E
:0611C600080475820122FD
:0D11CC0090279675F080120893758201221D
:0711D9001207FB750B007506
:0611E0000C6A750D187584
:0C11E6000E0075820412080475820122BC
:0711F20090E67BE0FA6004C7
:0411F900D285800219
:0211FD00C285A9
:0711FF0090E67BE0FA6004BA
:04120600D28380020D
:02120A00C2839D
:07120C0090E67BE0FA6004AC
:04121300D2868002FD
:02121700C2868D
:0D1219001207FB7582001208047582012285
:0C1226001207FBA285E433FA8A0BA283B6
:0B123200E433FA8A0CA284E433FA8A49
:0A123D000DA286E433FA8A0E7582D2
:08124700041208047582012263
:07124F00121637758201221F
:07125600121A3E758201220D
:07125D0012128675820122C6
:0312640075820090
:011267002264
:0E12680043B20843B22043B240D282C283D2C6
:0312760085C286A8
:011279002252
:0B127A00C28253B297C283D285C286A5
:011285002246
:0527960001020000003B
:05279B00010000000038
:0B1286007A007B0090E67BE0FC600437
:04129100D285800280
:02129500C28510
:0712970090E67BE0FC60041F
:04129E00D283800275
:0212A200C28305
:0E12A400C286758204C002C0031207DDD003AB
:0E12B20000C0031207FB758200120804D0036F
:0712C000D002AC0BAD0CAE37
:0412C7000DAF0E8CCD
:0412CB000F8D108EE5
:0912CF00118F12EC4D4E4F70021C
:0212D8007B0198
:0312DA00EB6006C0
:0612DD00EA600302138B1E
:0D12E300C002C00312076FD003D002E4B5B3
:0412F0000A0280313D
:0512F4007401B50A0FB2
:0E12F9007A01C002C0031207FBD003D00280AE
:011307001DC8
:051308007402B50A1398
:0B130D007B0178AC7602C002C0031226
:0813180007FBD003D0028005A1
:051320007A0002138BAE
:03132500EB70B2B8
:05132800AC0BAD0CAEA2
:0A132D000DAF0EC3ED94FEEE940028
:05133700EF94005006D8
:06133C008C088D098006FB
:061342007508007509FEAC
:08134800AC08AD09E4FEFFE56D
:091350000BC39CFCE50C9DFDE5BE
:081359000D9EFEE50E9FFF8CC6
:041361000B8D0C8E56
:081365000D8F0EC000C001A8AD
:04136D0008A90909B9
:0E137100D286C286D8FAD9F8D001D000EC4D51
:07137F004E4F60030212DA79
:051386007B010212DAF8
:03138B00EA6029EC
:07138E00E50FC3950BFAE522
:0513950010950CFBE5C2
:05139A0011950DFCE5BA
:05139F0012950EFD8A0D
:0413A4000B8B0C8C17
:0413A8000D8D0E7821
:0B13AC00ACE64480F6758204020804E1
:0113B7002213
:0A13B800C001C002A908AA09E960FB
:0213C200010A1E
:0313C40090E67B35
:0E13C700E0139283D286C286139283D286C22E
:0E13D50086139283D286C286139283D286C27A
:0E13E30086139283D286C286139283D286C26C
:0E13F10086139283D286C286139283D286C25E
:0913FF0086D9C5DAC3D002D00181
:0114080022C1
:0A140900C001C002A908AA09E960A9
:02141300010ACC
:0A14150090E67B058690E67C0586D4
:0E141F00E0139283A28413D286C2869283A227
:0E142D008413D286C2869283A28413D286C212
:0E143B00869283A28413D286C2869283A284F4
:0E14490013D286C2869283A28413D286C286F4
:0E1457009283A28413D286C2869283A284134B
:0E146500D286C2860586F00586D9AFDAADD0F4
:0314730002D001A3
:011476002253
:0A147700C001C002A908AA09E9603B
:02148100010A5E
:0314830090E67C74
:0E148600A284D286C28613A284D286C28613A6
:0E149400A284D286C28613A284D286C2861398
:0E14A200A284D286C28613A284D286C286138A
:0E14B000A284D286C28613A284D286C286137C
:0914BE00F0D9C2DAC0D002D0015D
:0114C7002202
:0A14C800C001C002A908AA09E960EA
:0214D200010A0D
:0314D40090E67B24
:0E14D700E0139285D286C286139285D286C219
:0E14E50086139285D286C286139285D286C265
:0E14F30086139285D286C286139285D286C257
:0E15010086139285D286C286139285D286C248
:09150F0086D9C5DAC3D002D0016F
:0115180022B0
:0A151900C001C002A908AA09E96098
:02152300010ABB
:0A15250090E67B058690E67C0586C3
:0E152F00E0139285A28413D286C2869285A212
:0E153D008413D286C2869285A28413D286C2FF
:0E154B00869285A28413D286C2869285A284DF
:0E15590013D286C2869285A28413D286C286E1
:0E1567009285A28413D286C2869285A2841336
:0E157500D286C2860586F00586D9AFDAADD0E3
:0315830002D00192
:011586002242
:0A158700C001C002A908AA09E9602A
:02159100010A4D
:0315930090E67B64
:0E159600E0139283139285D286C2861392834D
:0E15A400139285D286C286139283139285D24B
:0E15B20086C286139283139285D286C286D992
:0715C000D5DAD3D002D001FF
:0115C7002201
:0A15C800C001C002A908AA09E960E9
:0215D200010A0C
:0A15D40090E67B058690E67C058614
:0215DE007C028D
:0E15E000E0139283139285FBE8A28413F8EBCC
:0E15EE00D286C286139283139285FBE8A284F4
:0E15FC0013F8EBD286C286139283139285FBFE
:0E160A00E8A28413F8EBD286C28613928313F3
:0E1618009285FBE8A28413F8EBD286C286DC32
:0E162600B9E80586F0058619D9AEDAACD00217
:02163400D001E3
:011636002291
:07163700751700751900751D
:07163E001A0078AAB6082A81
:0816450075170190E67BE0F54A
:08164D001690E67BE0FE60044C
:04165500D2858002B8
:02165900C28548
:04165B00E516600828
:04165F00751B097579
:041663001C14805A79
:04166700751BB875C2
:04166B001C1380527A
:05166F0078AAB6092570
:0A16740075160190E67BE0FC6004AF
:04167E00D28580028F
:02168200C2851F
:0716840090E67BE0FC60042E
:04168B00D283800284
:02168F00C28314
:04169100751B7775D9
:041695001C14802879
:0816990075170190E67BE0F5F6
:0816A1001690E67BE0FC6004FA
:0416A900D283800266
:0216AD00C283F6
:0416AF00E5166008D4
:0416B300751B197515
:0416B7001C15800678
:0416BB00751BC8755E
:0216BF001C14F9
:0D16C1007582041207DD1207FB758200120E
:0416CE000804850B7C
:0316D2001D850C67
:0316D5001E850D62
:0316D8001F850E5D
:0316DB0020851D4A
:0316DE000F851E57
:0316E10010851F52
:0316E4001185204D
:0A16E700127407551DFD7A007B0008
:0716F1007C008D18AA1DE525
:0C16F8001EC423CAC423541F6ACA541F16
:0C170400CA6ACAFBE51FC42354E04BFB7B
:0A171000AC1FE520C423CCC4235411
:0C171A001F6CCC541FCC6CCCFE8A0B8BD7
:041726000C8C0D8E8C
:05172A000EE518601D32
:05172F00AA0BAB0CAC9D
:0A1734000DAE0E0ABA00090BBB004F
:06173E00050CBC00010EC9
:051744008A0B8B0C8CE8
:031749000D8E0EF4
:05174C00E50F4510450A
:051751001145127003B8
:0317560075190101
:02175900C28646
:04175B00E519600725
:07175F00E51A6003021951B5
:0717660012076FE50A602C79
:05176D007401B50A0C37
:04177200E51A7008FC
:08177600751A011207FB801B2C
:05177E007402B50A1021
:071783001207FBE519700FCE
:09178A0078AC76027519018006A5
:06179300751A0002195155
:04179900E5176005EB
:05179D00E5AA20E0B9FF
:0417A200E5166005E3
:0517A600E5AA20E5B0FA
:0417AB00E51970AC20
:0417AF00E517600ECC
:0717B3007A007BF08B9A7AAB
:0717BA00007BF07B008A9B1D
:0417C100E516600EBB
:0717C5007A007BF88B9D7A8E
:0717CC00007BF87B008A9E00
:0417D300E51760199D
:0E17D70090E690E0FA8A037A0090E691E0FC3A
:0A17E5007E004AF508EE4BF509807E
:0117EF0054A5
:0417F000850B2185BF
:0317F4000C22853F
:0317F7000D23853A
:0317FA000E24902A
:0717FD00E680E0FF30E70683
:061804007A007B02800463
:04180A007A407B00A5
:0C180E008A07EBFD3395E0FAFBC3EF9571
:06181A0021ED9522EA9584
:0618200023EB9524501893
:0818260090E680E0FA30E706CD
:06182E007A007B02800439
:041834007A407B007B
:061838008A088B098006FE
:04183E008521088573
:02184200220979
:08184400AA08AB09E4FCFDE574
:09184C000BC39AFAE50C9BFBE5C5
:081855000D9CFCE50E9DFD8ACF
:04185D000B8B0C8C59
:041861000D8D0EE5F6
:03186500186013F5
:05186800E50B450C45F5
:05186D000D450E70099D
:08187200150874FFB50802150A
:01187A000964
:06187B00E50845096009C3
:07188100851B82851C831208
:02188800006BF3
:07188A00E518700302191BB1
:05189100E50B450C45CC
:061896000D450E60030287
:02189C00191B16
:06189E00AA18E517700B0B
:0318A4003083048A
:0418A7007BFF800241
:0218AB007B00C0
:0218AD008005B4
:0518AF0090E67BE0FB68
:0518B40078AAB60B1D2F
:0218B9008A049F
:0B18BB00EBA2E09285C313FB30840514
:0518C6004303808003D4
:0318CB0053037F45
:0618CE00D286C286DCE7B1
:0218D400801979
:0B18D600EBA2E09283C313FB308405FB
:0518E1004303808003B9
:0318E60053037F2A
:0618E900D286C286DAE798
:0418EF00E516601D7D
:0C18F300AD187A007408C39DFDE49AFA59
:0718FF008DF005F0EB800203
:02190600C31309
:08190800D5F0FBFB90E67CF03A
:071910007518000508E4B59D
:0419170008020509B4
:04191B00E517600963
:09191F0090E6497482F00000001A
:04192800E51660124E
:0A192C0090E698E509F00000009035
:08193600E699E508F00000004D
:05193E00E50B450C451E
:061943000D450E600302D9
:02194900175B2A
:06194B0075190102175B93
:071951001208F712092FE54F
:041958001A700122DE
:04195C00E518601D0D
:05196000AA0BAB0CAC6A
:0A1965000DAD0E1ABAFF091BBBFFFF
:06196F00051CBCFF011D78
:051975008A0B8B0C8CB5
:03197A000D8D0EC2
:04197D00850D23E5CC
:0A1981000EC40354F8C523C403C5C7
:04198B00236523C5E8
:06198F002354F8C5236596
:0419950023F524E52D
:081999000CC40354074523F5BB
:0319A10023850B90
:0819A40021E50CC40354F8C551
:0619AC0021C403C5216502
:0619B20021C52154F8C517
:0419B800216521F58F
:0319BC0022852160
:0319BF000B852273
:0319C2000C85236E
:0319C5000D852469
:0919C8000EAE18E4FFFAFBEE2557
:0819D10021FEEF3522FFEA358B
:0719D90023FAEB3524FB8E1D
:0419E0000B8F0C8AD3
:0419E4000D8B0EE574
:0919E8000FC39EFEE5109FFFE510
:0819F100119AFAE5129BFB8E2E
:0419F9000F8F108AB2
:0419FD00118B128EAA
:041A01000B8F0C8AB1
:041A05000D8B0EE552
:031A09001760045F
:041A0C007A8080025A
:021A10007A005A
:041A1200E516600471
:041A16007B4080028F
:021A1A007B004F
:0A1A1C00EB4A78AC46F6E5176004CB
:041A26007A048002BC
:021A2A007A0040
:041A2C00E516600457
:041A30007B048002B1
:021A34007B0035
:071A3600EB2AF5820208040F
:011A3D002286
:071A3E0075260075270075F5
:071A4500280090E67BE0F5AC
:081A4C00257582041207DD126A
:091A540007FB75820012080485ED
:031A5D000B2B85CB
:031A60000C2C85C6
:031A63000D2D85C1
:031A66000E2E85BC
:031A69002B0F85BB
:031A6C002C1085B6
:031A6F002D1185B1
:031A72002E12E54C
:041A75002B452C458C
:051A79002D452E700355
:031A7E00752701C8
:0C1A81007407552BFAE4FDFBFC740325F0
:081A8D002BFBE4352CFCE435D1
:071A95002DFDE4352EFE8B50
:041A9C000B8C0C8D16
:0A1AA0000DEEF50EC313FEED13FD6D
:0E1AAA00EC13FCEB13FBEEC313FEED13FDEC8F
:0A1AB80013FCEB13FB8B0B8C0C8D61
:041AC2000D8E0EE592
:031AC60025600890
:041AC9007529C8753E
:041ACD002A15800650
:041AD1007529877577
:021AD5002A15D0
:021AD700C286C5
:041AD900E527600796
:071ADD00E5286003021CDA9A
:0B1AE400C00212076FD002E50A603458
:051AEF007401B50A10AE
:041AF400E528700C65
:0C1AF800752801C0021207FBD002801FFD
:051B04007402B50A1493
:0B1B0900C0021207FBD002E527700F9E
:091B140078AC7602752701800609
:061B1D00752800021CDA2D
:051B2300E5AA20E0B17D
:041B2800E52560054A
:051B2C00E5AA20E5A878
:041B3100E52770A490
:071B35007D007EF08E9A7D19
:081B3C00007EF07E008D9BE5A8
:031B440025601207
:041B4700E526700E11
:071B4B007D007EF88E9D7DF8
:071B5200007EF87E008D9E6D
:0E1B590090E690E0FD8D067D0090E691E0FFA5
:0A1B67007B002DF508EB3EF509ABFD
:071B710008AC09E4FDFEE5EC
:091B78000BC39BFBE50C9CFCE592
:081B81000D9DFDE50E9EFE8B9B
:041B89000B8C0C8D28
:061B8D000D8E0EEA602C33
:051B9300E50B450C45C7
:051B98000D450E702256
:0E1B9D008A03FC74032BFBE43CFCA2E713CB91
:0C1BAB0013CBA2E713CB13CBFCE508C35F
:071BB7009BF508E5099CF510
:011BBE00091D
:061BBF00E5084509600D78
:091BC500C002852982852A8312E1
:041BCE00006BD002D6
:061BD200EA7003021C573B
:051BD800E50B450C4582
:051BDD000D450E7075BE
:091BE2007B0090E67BE0FC7D0035
:051BEB00C3ED9A502338
:031BF000BD04052C
:051BF30090E67BE0FC20
:0E1BF800ECA2E09283C313FCA2E09285C3131B
:061C0600FCEBA28413FBBD
:071C0C00D286C2860D80D8CC
:041C1300E525601C47
:0E1C17008A047D007408C39CFCE49DFD8CF0E3
:051C250005F0EB800258
:021C2A00C313E2
:071C2C00D5F0FB90E67CF00F
:0E1C33008A037C0074032BFBE43CFCA2E71345
:0C1C4100CB13CBA2E713CB13CBFCEB259D
:051C4D0008F508EC356C
:051C520009F5097A000C
:041C5700E5256063BC
:051C5B00E50B450C45FE
:051C60000D450E6004BB
:041C6500E5266052BE
:071C69000508E4B5080205BF
:011C7000096A
:081C7100E509C313C50813C502
:041C790008F509E57C
:031C7D00266024BA
:081C800090E680E0FB30E7066E
:061C88007B007C028004D9
:041C8E007B407C001B
:0C1C9200ECA2E713CB13CBFCEB2508F50C
:051C9E0008EC3509F51A
:011CA3000937
:0A1CA40090E698E509F000000090BA
:091CAE00E699E508F0000000755C
:041CB7002600800380
:031CBB007526018A
:0C1CBE0090E6497482F0000000E50B4540
:041CCA000C450D4573
:061CCE000E6003021AD9AA
:061CD400752701021AD978
:0C1CDA00C0021208F70012092FD002E52A
:041CE600287001223F
:0A1CEA00E50B25E0FBE50C33FCE5FB
:0A1CF4000D33FDE50E33FEEB2BFB74
:0C1CFE00EC33FCED33FDEE33FE8B0B8C61
:041D0A000C8D0D8EA1
:041D0E000EEA603D3C
:041D1200EA30E21DB4
:051D1600AB0BAC0CADAD
:0A1D1B000DAE0E1BBBFF091CBCFF40
:061D2500051DBDFF011EBB
:051D2B008B0B8C0C8DF8
:031D30000D8E0E07
:0A1D3300E4FBFCFDEA250BFAEB359A
:081D3D000CFBEC350DFCED354B
:051D45000EFD8A0B8B6E
:041D4A000C8C0D8D63
:011D4E000E86
:071D4F00E50FC3950BFAE557
:051D560010950CFBE5F7
:051D5B0011950DFCE5EF
:051D600012950EFD8A42
:041D65000F8B108C44
:041D6900118D128A3C
:041D6D000B8B0C8C44
:041D71000D8D0EE5E1
:031D7500257008CE
:051D7800F50FF510F568
:031D7D0011F5124B
:0C1D800078ACE644C0F675820802080446
:011D8C002234
:0527A000010200000031
:0527A50001000000002E
:0A1D8D00C28CC28D78AD868A78AD55
:031D970008868C2F
:011D9A002226
:071D9B0078AAB60202806085
:071DA20078ABB600028011CE
:0B1DA9001207FB78AC760C758200126C
:061DB40008047582012203
:051DBA0078AAE6701F8D
:061DBF00789FE630E211FE
:0B1DC5001207FB78AC76037582001259
:061DD000080475820122E7
:081DD600789FE64404F6802426
:051DDE0078AAB601081F
:081DE300789FE654FBF680171F
:061DEB00789FE620E211E2
:0B1DF1001207FB78AC7604758200122C
:061DFC00080475820122BB
:0A1E020078AAE624F85003021EEC53
:0A1E0C0078AAE625E026901E167362
:071E1600021E2E021E2E0227
:061E1D001E40021E4D02F2
:061E23001ED2021EDA02CD
:051E29001EE2021EE7AD
:0C1E2E001207FB78ADE4F608F6758200A0
:061E3A00120804021EF074
:0D1E40009027AF75F0801208937582012283
:0A1E4D007582041207DD1207FB7511
:061E570034FAE4F535F554
:041E5D0036F537859A
:061E61000B82850C838555
:051E67000DF0E50E1274
:0C1E6C002609AA82AB83ACF0FD8A0B8B28
:041E78000C8C0D8D34
:071E7C000EEC7003ED600C99
:071E8300750BFF750CFF75E4
:051E8A000D00750E00C3
:091E8F00E50BF4FAE50CF4FBE5A7
:081E98000DF4FCE50EF4FD78E9
:081EA000ADA60208A603850BA4
:031EA80034850C72
:031EAB0035850D6D
:031EAE0036850E68
:0C1EB100379000FAE4F5F0122687AA82B0
:0A1EBD00AB83ACF0FD8A0B8B0C8C9C
:071EC7000D8D0E758204125F
:041ECE000804801E66
:081ED2007582011222A880169E
:081EDA007582001222A8800E9F
:051EE200121F648009DD
:051EE7001220E380045D
:041EEC0075820022D9
:031EF000758201F7
:011EF30022CC
:0E1EF40090E6F3E0FA4480F000000090E67BF8
:0C1F0200E0FA90E6F1F0000000021F443D
:0E1F0E0090E6F3E0FA547FF000000090E67BCE
:0C1F1C00E0FA90E6F1F0000000021F4423
:0B1F280090E6F1E0121F44E582600D1E
:0D1F330090E6F2E0FA90E67CF07582012263
:031F4000758200A7
:011F4300227B
:051F4400121D8DD28C7E
:051F4900E5BB20E703E9
:031F4E00308DF8DB
:051F5100E5BB30E704D0
:041F5600758201226D
:091F5A0090E6F574FFF0758200B9
:011F6300225B
:0A1F6400E4FAFBF508F509758204A4
:0D1F6E00C002C0031207DDD00300C0031243
:0D1F7B0007FB758200120804D003D002ACF1
:041F88000BAD0CAEE3
:041F8C000DAF0E8CFB
:041F90000F8D108E13
:091F9400118F12EC4D4E4F70024A
:021F9D007B01C6
:031F9F00EB6006EE
:061FA200EA60030220AF1B
:0D1FA800C002C00312076FD003D002E4B5E1
:041FB5000A0280405C
:051FB9007401B50A12DD
:031FBE00EA700FB7
:0E1FC1007A01C002C0031207FBD003D00280D9
:011FCF0029E8
:051FD0007402B50A1FB8
:0E1FD500C002C0031207FBD003D002EB70164F
:0C1FE30090E6A37401F00000007B017880
:051FEF00AC7602800544
:051FF4007A000220AF9D
:031FF900EB70A3E7
:061FFC00E5084509702A0A
:05200200E5AA20E02525
:072007007C007DF08D9A7C46
:08200E00007DF07D008C9B9029
:0E201600E690E0FC8C057C0090E691E0FE7FF9
:08202400002CF508EF3DF50961
:07202C00E5084509700302FD
:022033001F9FED
:0E203500C002C003121EF4E582D003D0027078
:012043000696
:0620440078AC7605805225
:0E204A00C002C003121F0EE582D003D0027048
:012058000681
:0620590078AC7606803D24
:07205F00E50824FEF508E589
:062066000934FFF509AC8E
:04206C000BAD0CAEFE
:0A2070000DAF0E1CBCFF091DBDFFE3
:06207A00051EBEFF011F60
:052080008C0B8D0C8E9D
:092085000D8F0EEC4D4E4F700260
:02208E007B01D4
:06209000E5084509700699
:0620960090E6497482F09F
:08209C0078ACB60003021F9F9F
:0B20A4007B0190E6A37401F0021F9F77
:0A20AF00C0021208F7D002EA60290F
:0720B900E50FC3950BFAE5EA
:0520C00010950CFBE58A
:0520C50011950DFCE582
:0520CA0012950EFD8AD5
:0420CF000B8B0C8CDF
:0420D3000D8D0E78E9
:0B20D700ACE64480F6758204020804A9
:0120E20022DB
:0A20E300E4FAFBF508F50975820424
:0D20ED00C002C0031207DDD00300C00312C3
:0D20FA0007FB758200120804D003D002AC71
:042107000BAD0CAE62
:04210B000DAF0E8C7A
:04210F000F8D108E92
:09211300118F12EC4D4E4F7002C9
:02211C007B0145
:03211E00EB60066D
:06212100EA6003022268DF
:0D212700C002C00312076FD003D002E4B560
:042134000A028046D5
:052138007401B50A125C
:03213D00EA700F36
:0E2140007A01C002C0031207FBD003D0028058
:01214E002F61
:05214F007402B50A2531
:0E215400C002C0031207FBD003D002EB701CC8
:0E21620090E6A37401F000000090E6A5740161
:09217000F07B0178AC76028005D9
:052179007A000222685B
:03217E00EB709D66
:06218100E5084509703D70
:05218700E5AA20E0388C
:05218C00E5AA20E53387
:072191007C007DF08D9A7CBB
:08219800007DF07D008C9B7CB2
:0621A000007DF88D9D7C1E
:0821A600007DF87D008C9E9085
:0E21AE00E690E0FC8C057C0090E691E0FE7F60
:0821BC00002CF508EF3DF509C8
:0721C400E508450970030264
:0221CB00211ED3
:0E21CD00C002C003121EF4E582D003D00270DF
:0121DB0006FD
:0621DC0078AC7605806A74
:0E21E200C002C003121F28E582D003D0027095
:0121F00006E8
:0621F10078AC7606805573
:0821F700150874FFB50802157C
:0121FF0009D6
:05220000AC0BAD0CAEBB
:0A2205000DAF0E1CBCFF091DBDFF4C
:06220F00051EBEFF011FC9
:052215008C0B8D0C8E06
:09221A000D8F0EEC4D4E4F7002C9
:022223007B013D
:06222500E50845097021E7
:0D222B0090E690E0FC90E698F00000009036
:0C223800E691E0FC90E699F000000090B8
:08224400E6497482F00000007D
:08224C0078ACB6000302211E6C
:0E22540090E6A37401F000000090E6A574016E
:06226200F07B0102211EC9
:0E226800C0021208F70012092FD002EA6031FE
:07227600E50FC3950BFAE52B
:05227D0010950CFBE5CB
:0522820011950DFCE5C3
:0522870012950EFD8A16
:04228C000F8B108C18
:04229000118D128A10
:042294000B8B0C8C18
:042298000D8D0E7822
:0B229C00ACE644C0F67582080208049E
:0122A7002214
:0C22A80085822F7B007C00C003C0041264
:0A22B4001EF4E582D004D003700D83
:0B22BE001207FB78AC76057582000269
:0222C900080407
:0E22CB00758204C003C0041207DDD00400C0F9
:0B22D900041207FBD004D003E50B4506
:0422E4000C450D4553
:0322E8000E700273
:0222EB007C0174
:0A22ED0090E6F574FFF090E6CEE5F0
:0922F7000EF000000090E6CFE5B6
:092300000DF000000090E6D0E5AC
:092309000CF000000090E6D1E5A3
:0C2312000BF0C003C004121D8DD004D0DD
:0A231E000390E6D1E0FDE52F601CFE
:0E23280090E6187410F000000090E6D27401E8
:07233600F0000000EC703123
:07233D00F5BB000000802A3F
:0E234400C003C004C00512095AD005D004D051
:0E2352000390E61A7408F000000090E6E274B2
:0823600002F0000000EC700621
:0623680075BB0600000039
:0E236E00758200C003C004C005120804D0052B
:04237C00D004D003B6
:03238000EC600608
:06238300EB600302247E62
:0E238900C003C004C00512076FD005D004D0F9
:0723970003E4B50A028066B1
:05239E007401B50A16F0
:0323A300EB7013C9
:0E23A6007B01C003C004C0051207FBD005D0A8
:0523B40004D003804B82
:0523B9007402B50A42A8
:0E23BE00C003C004C0051207FBD005D004D038
:0423CC0003EC70347A
:0523D00078ACE670048A
:0423D50078AC760268
:0423D900E52F600884
:0823DD0090E6A37401F08006F4
:0623E50090E6A57401F072
:0823EB00000000E5BB20E7093A
:0923F30000000090E6F574FFF013
:0423FC007C018004DC
:042400007B00807A63
:05240400E5BB20E75DCF
:0A24090090E6D1E0FEB50502801256
:0E241300C003C004121D8DD004D00390E6D18A
:04242100E0FD802436
:03242500308D21D6
:0824280078AC7606E52F600890
:0824300090E6A37401F08006A0
:0624380090E6A57401F01E
:0B243E007C0100000090E6F574FFF048
:04244900E52F600516
:05244D00E5AA30E00FDC
:07245200E52F600302238067
:08245900E5AA30E5030223802F
:05246100D28C02238073
:06246600EC60030223807C
:04246C00E52F7009DF
:0924700090E6487406F00000003B
:052479007C010223803C
:0E247E00C0031208F70012092FD003EB700103
:01248C00222D
:0C248D0090E6CEE0FB7C007D007E008B22
:052499003375300075F1
:06249E00310075320090D0
:0E24A400E6CFE0FF7A007B008A048F03E4FAA3
:0824B200FF4230EA4231EB4227
:0524BA0032EC423390FA
:0E24BF00E6D0E0FD7E007A008A038E028D06D4
:0924CD00E4FD4230EE4231EA4226
:0524D60032EB423390DF
:0C24DB00E6D1E0FCE4FFFAFBE53042042F
:0924E700E5314207E5324202E54D
:0924F000334203E50BC39CFCE53B
:0824F9000C9FFFE50D9AFAE5C6
:062501000E9BFB8C0B8F0A
:042507000C8A0D8BA2
:05250B000EE52F600445
:042510007A8080024B
:022514007A400B
:0B25160078ACEA46F675820402080467
:012521002297
:0527AA00010200000027
:0527AF00010000000024
:0D25220090E60174FAF090E6F574FFF09079
:0A252F002858E493FA90E6F3F090C8
:0A2539002859E493FA90E6C3F090ED
:0A254300285AE493FA90E6C1F090E4
:0A254D00285BE493FA90E6C2F090D8
:0A255700285DE493FA90E6C0F090CE
:0D256100285EE493FA90E6F4F075AF077A77
:06256E00B47B278B9A7A72
:0A257400B47B277B008A9B759DE471
:05257E00759E007A00CB
:03258300BA80001B
:02258600500CF7
:0C25880090E67BE0FB90E67CF00A80EF20
:0E25940090E67174FFF075B4FF90E672E0FA05
:0E25A2004480F043B68000000090E6C4E4F0F0
:0E25B00000000090E6C5E4F0902834E493FAB1
:0B25BE0090E6C6F0902835E493FA90F8
:0A25C900E6C7F0902836E493FA907C
:0A25D300E6C8F0902837E493FA9070
:0A25DD00E6C9F0902838E493FA9064
:0A25E700E6CAF0902839E493FA9058
:0A25F100E6CBF090283AE493FA904C
:0A25FB00E6CCF090283BE493FA9040
:03260500E6CDF02F
:0126080022AF
:0E27B40081B9010101010107230302020202A3
:0E27C2000200F7F5F5F5F5F5F5F7000000005B
:0E27D0000000003F0C8A9A3FA5B53F07210389
:0E27DE00030103030500F3F3F2F3F3F1F3F745
:0E27EC003F0000000000003F81913801010114
:0E27FA0001070101070202020200F7F5F7F7DE
:0E280800F7F7F7F7000075000000003F819120
:0E281600380101010107030305000000000066
:0E282400F3F1F3F3F3F3F3F700006E0000009E
:02283200003F65
:0E283400000000000000000000000000000096
:0E284200000000000000000000000000000088
:08285000000000000000000080
:07285800E08000F7FA4E00DA
:0EE10000120100020000004043140300000062
:04E10E000102000109
:0AE112000A060002000000400100B0
:0EE11C0009022E0001010080FA09040000042F
:0EE12A00FF000000070501024000000705810C
:0EE138000240000007050202000200070586F3
:04E1460002000200D1
:0EE14A0009022E0001010080FA090400000401
:0EE15800FF00000007050102400000070581DE
:0EE16600024000000705020240000007058687
:04E174000240000065
:093F00000205AB000205DF00021E
:083F090005C900020643000295
:083F110005F500020661000243
:083F190006BB000206BB00021A
:083F210006BB000206BB000212
:083F290006BB000206BB00020A
:083F310006BB000206BB000202
:083F390006BB000206BB0002FA
:083F410006BB000206BB0002F2
:083F490006BB000206BB0002EA
:083F510006BB000206BB0002E2
:083F590006BB000206BB0002DA
:083F610006BB000206BB0002D2
:083F690006BB000206BB0002CA
:083F710006BB000206BB0002C2
:083F790006BB000206BB0002BA
:083F810006BB000206BB0002B2
:083F890006BB000206BB0002AA
:083F910006BB000206BB0002A2
:083F990006BB000206BB00029A
:083FA10006BB000206BB000292
:083FA90006BB000206BB00028A
:073FB10006BB000206BB0085
:08260900FB7A20E4FCFDFEFF5A
:0E261100E5822582F582E58333F583E5F0331B
:0B261F00F5F0EB33FB4017DAE98042D6
:0E262A00E5822582F582E58333F583E5F03302
:05263800F5F0EB33FB9F
:0E263D00EC33FCED33FDEE33FEEF33FFEC9596
:06264B0034ED9535EE951B
:0826510036EF95374013EC95BC
:0826590034FCED9535FDEE9512
:0926610036FEEF9537FF438201BC
:02266A00DABED6
:02266C00EB225F
:06009C00E478FFF6D8FD38
:08007A007900E94400601B7AE3
:050082000090285F78EA
:030087000075A061
:0A008A00E0E493F2A308B8000205B9
:08009400A0D9F4DAF275A0FF17
:0E266E0020F71030F6118883A88220F507F6B9
:05267C00A88375830036
:012681002236
:03268200F280F7EC
:02268500F02241
:0C268700AAF0FBE5828534F0A4FCADF065
:0C269300E5838534F0A42DFDE435F0FE55
:0C269F00E5828535F0A42DFDE5F03EFE3F
:0C26AB00E433FFEA8534F0A42EFEE5F0D5
:0C26B7003FFFE5838535F0A42EFEE5F022
:0C26C3003FFFE5828536F0A42EFEE5F016
:0B26CF003FFFEB8534F0A42FFFEA85ED
:0A26DA0035F0A42FFFE5838536F0EC
:0C26E400A42FFFE5828537F0A42F8EF0B4
:0526F0008D838C8222A5
:0400A20075A00078CD
:0700A60000E8440060077947
:0600AD0000E4F309D8FC99
:0800B3007800E84400600C79BC
:0B00BB000090E000E4F0A3D8FCD9FAAC
:02006B00E4733C
:0E26F50090E682E044C0F090E681F043870159
:0E2703000000000000000000000000000000C8
:0E2711000000000000000000000000000000BA
:09271F000000000000000000228F
:03006D0075813763
:0A007000122744E5826003020066D7
:0E27280020F71430F6148883A88220F507E607
:06273600A8837583002258
:03273C00E280F741
:03273F00E49322FE
:02274200E02293
:042744007582002278
:00000001FF
