:0400000002006D325B
:01000B0032C2
:0100130032BA
:01001B0032B2
:0100230032AA
:01002B0032A2
:030033000206BA08
:01003B003292
:03004300023F0079
:01004B003282
:03005300023F0069
:01005B003272
:030063000206BED4
:0300EA00020066AB
:050066001200ED80FE18
:0900ED007881760078807600909D
:0E00F600E60B7403F000000000000090E6002E
:0E0104007410F075802075B2EF75900075B321
:0E011200FF75B00075B5FF90E67AE0FA440183
:0B012000F090E60174E0F0120278900D
:0E012B00E6097403F000000075890100000071
:06013900788276000876D2
:04013F00E178847669
:05014300120876E178CE
:0501480086761C08761C
:04014D00E178887657
:0A0151004A0876E1D2E843D8209076
:0E015B00E668E0FA4409F090E65CE0FA443D04
:0E016900F090E682E4F0D2AF90E680E0FA5427
:05017700F7F0538EF8C3
:08017C001201C1789EE6600744
:0701840012019D789E760038
:05018B007881E6600729
:07019000788176001228FDC2
:050197001206BE80E02D
:01019C002240
:0A019D0090E680E0FA440AF07A00D0
:0201A700DAFE7E
:0E01A90090E65D74FFF090E65F74FFF05391F6
:0901B700EF90E680E0FA54F7F045
:0101C000221C
:0601C1007880E6700122C7
:0501C700AA08AB097855
:0901CC0096A60208A603788EA68F
:0601D5000B08A60C08A6B1
:0501DB000D08A60E78DE
:0501E00092A60F08A625
:0601E5001008A61108A697
:0601EB00127898A69B7833
:0801F10099A69A789AA69E785F
:0A01F9009BA69D1202FAE582700831
:0802030090E6A0E0FA4401F0CE
:0C020B0090E6A0E0FA4480F078807600D5
:06021700789686080886B7
:0A021D0009788E8602088603088621
:09022700040886058A0B8B0C8C7F
:040230000D8D0E78AA
:0C023400928602088603088604088605EE
:050240008A0F8B108CF9
:04024500118D12788D
:0802490098869B7899869A784B
:070251009A869E789B869DB2
:010258002283
:0E02590090E6837401F07421F07411F074319A
:0E026700F090E6837402F07422F07416F074C6
:0202750036F061
:010277002264
:0E02780090E610E4F000000090E611E4F000C3
:0E028600000090E612E4F000000090E613E4A1
:0D029400F000000090E614E4F0000000907F
:0E02A100E615E4F000000090E618E4F000001E
:0E02AF000090E619E4F000000090E61AE4F07A
:0E02BD0000000090E61BE4F000000090E61048
:0E02CB0074A0F000000090E61174A0F0000096
:0E02D9000090E61274A0F000000090E614748D
:0E02E700E0F000000090E68DE4F00000001250
:0502F500092E0208F6CD
:0C02FA0090E6B9E0FA24F450030205A7D6
:07030600EA2A2A90030D739F
:07030D000203F402047E026A
:0603140005A702052C0202
:06031A0005A70205A70281
:0603200003310205A702F3
:0603260003DF0203CD021B
:05032C0003A60203BB63
:0A03310090E6BBE0FABA0102800F6B
:05033B00BA020280205F
:05034000BA0602803145
:05034500BA075A8042D6
:09034A00788290E6B308E6F07831
:0B0353008286027B0090E6B4EAF00214
:02035E0005AAEE
:09036000788A90E6B308E6F07813
:0B0369008A86027B0090E6B4EAF002F6
:0203740005AAD8
:09037600788490E6B308E6F07803
:0B037F008486027B0090E6B4EAF002E6
:02038A0005AAC2
:09038C00788C90E6B308E6F078E5
:0B0395008C86027B0090E6B4EAF002C8
:0203A00005AAAC
:0403A200758200223E
:0803A60090E740789DE6F0901D
:0B03AE00E68AE4F090E68B7401F00298
:0203B90005AA93
:0A03BB0090E6BAE0FA789DA602125F
:0603C50002781202590249
:0203CB0005AA81
:0A03CD0090E6BAE0FA789CA602124E
:0603D70002781202590237
:0203DD0005AA6F
:0803DF0090E740789CE6F090E5
:0B03E700E68AE4F090E68B7401F0025F
:0203F20005AA5A
:0A03F40090E6B8E0FABA8002800A31
:0503FE00BA8102801B22
:05040300BA8274802C98
:0A04080090E740E4F090E741F09027
:0A041200E68AF090E68B7402F00217
:02041C0005AA2F
:0A041E0090E740E4F090E741F09011
:0A042800E68AF090E68B7402F00201
:0204320005AA19
:0E04340090E6BCE0FA53027E90E6BCE0FBC30B
:0E04420074809BE433FB4A90295A93FA339559
:0E045000E0FB74A12AFA74E63BFB8A828B83E0
:0E045E00E0FA53020190E740EAF090E741E433
:0C046C00F090E68AF090E68B7402F0023B
:0204780005AAD3
:04047A007582002265
:07047E0090E6B8E0FA600807
:05048500BA0202801222
:03048A0002052840
:0B048D0090E6BAE0FABA01030205AAEB
:040498007582002247
:09049C0090E6BAE06003020524B9
:0E04A50090E6BCE0FA53027E90E6BCE0FBC39A
:0E04B30074809BE433FB4A90295A93FA3395E8
:0E04C100E0FB74A12AFA74E63BFB90E6BCE077
:0E04CF00FC53047E90E6BCE0FDC374809DE407
:0E04DD0033FD4C90295A93FC3395E0FD74A139
:0E04EB002CFC74E63DFD8C828D83E0FC5304F6
:0E04F900FE8A828B83ECF090E6BCE05480FA21
:0E050700C423541FFA90E6BCE0FB740F5B9017
:0D051500E6832AF090E683E0FA4420F0022D
:0205220005AA28
:0405240075820022BA
:0405280075820022B6
:07052C0090E6B8E0FA60055B
:05053300BA026D800E0C
:0A05380090E6BAE0FABA0202806809
:04054200758200229C
:0E05460090E6BCE0FA53027E90E6BCE0FBC3F8
:0E05540074809BE433FB4A90295A93FA339546
:0E056200E0FB74A12AFA74E63BFB90E6BCE0D5
:0E057000FC53047E90E6BCE0FDC374809DE465
:0E057E0033FD4C90295A93FC3395E0FD74A197
:0E058C002CFC74E63DFD8C828D83E0FC430464
:09059A00018A828B83ECF08007DA
:0405A300758200223B
:0305A700020A85C0
:0305AA0075820156
:0105AD00222B
:0C05AE00C0E0C082C083C00078807601ED
:0905BA005391EF90E65D7401F02D
:0905C300D000D083D082D0E032D8
:0E05CC00C0E0C082C0835391EF90E65D7404DE
:0105DA00F030
:0705DB00D083D082D0E03292
:0E05E200C0E0C082C0835391EF90E65D7402CA
:0105F000F01A
:0705F100D083D082D0E0327C
:0D05F800C0E0C082C083C002C003C0007814
:0A060500888602088603788AA602A0
:0C060F0008A6038A828B83A37402F07893
:0A061B00868602088603788CA6028A
:0E06250008A6038A828B83A37407F05391EF1B
:0606330090E65D7410F07A
:0D063900D000D003D002D083D082D0E032B8
:0C064600C0E0C082C083C0007881760153
:090652005391EF90E65D7408F08D
:09065B00D000D083D082D0E0323F
:0D066400C0E0C082C083C002C003C000908F
:07067100E680E0FA30E72CFF
:0A06780078868602088603788AA6B9
:0D0682000208A6038A828B83A37402F0781D
:0A068F00888602088603788CA60214
:0B06990008A6038A828B83A37407F07D
:0906A4005391EF90E65D7420F023
:0D06AD00D000D003D002D083D082D0E03244
:0306BA0053D8EF23
:0106BD00320A
:0529500001020000007F
:0529550001F700000085
:0A295A000001020203030404050556
:0A00C600789E7600789FE4F608F6B5
:0C00D00008F608F678A3E4F608F608F637
:0800DC0008F678A7E4F608F627
:0706BE00120706E58260143B
:0706C5001206DAE582700D58
:0B06CC001207FA78AC7601758200027C
:0206D700080316
:0106D90022FE
:0706DA0078A9B600028015AB
:0706E10078A9B601028011A7
:0706E80078A9B60202800DA3
:0706EF0078A9B6060E800990
:0306F60002098E68
:0306F9000209F201
:0306FC0002110CDC
:0306FF00021DBE1B
:03070200758200FD
:0107050022D1
:05070600E5BA30E1043A
:04070B0075820022D1
:07070F0078AC76007A807BD4
:06071600E78B9A7A807B5C
:0C071C00E77B008A9B90E67BE0FA7B0004
:050728000ABA00010BFC
:0E072D0090E68DE0FC7D00EAB50406EBB50514
:03073B0002801128
:0B073E001207FA78AC760175820012F9
:0607490008037582002286
:0A074F0090E67BE0FA78A9A602907C
:09075900E67BE0FA78AAA6029002
:0B076200E67BE0FA78ABA6027582018E
:01076D002269
:08076E001201C1E5BA30E104FB
:04077600750A0022DE
:0C077A0090E780E0FA7B000ABA00010B57
:0E07860090E68DE0FC7D00EAB50406EBB505BB
:03079400028011CF
:0B0797001207FA78AC760175820012A0
:0607A2000803750AFF22A6
:0B07A80090E781E0FA78A9E6B50213A3
:0C07B30090E782E0FA78AA748046FBEA26
:0307BF00B503047B
:0407C200750A012291
:0607C60090E781E0700CD9
:0807CC0090E782E0FABA020492
:0407D400750A02227E
:0307D800750AFFA0
:0107DB0022FB
:0807DC00AA827B0B7C007D402A
:0E07E40090E67BE0FE8B828C838DF01228E481
:0707F200A3AB82AC83DAEB3C
:0107F90022DD
:0807FA0090E68DE4F000000020
:0108020022D3
:07080300AA82E5BA30E20110
:01080A0022CB
:07080B007BC07CE78C9D7BA4
:08081200C07CE77C008B9E9086
:08081A00E67CEA04F078AC90E2
:07082200E67CE6F07B0B7C95
:05082900007D408A067D
:03082E00EE601762
:0E0831008B828C838DF0122930FFA3AB82AC3A
:09083F008390E67CEFF01E80E6D8
:0A08480090E68F74022AF000000011
:010852002283
:07085300AA82E5BA30E201C0
:01085A00227B
:07085B007BC07CE78C9D7B54
:08086200C07CE77C008B9E9036
:08086A00E67CEA04F078AC9092
:04087200E67CE6F04A
:01087600225F
:05087700E5BA30E201CA
:01087C002259
:08087D0090E7C178ACE6F090B1
:0C088500E7C0E0FA90E68F04F0000000ED
:010891002244
:0E089200AA82AB83ACF090E67BE0FDC002C012
:0E08A00003C004C0051207FAD005D004D0032F
:0708AE00D002E5BA30E201BF
:0108B5002220
:0708B6007EC07FE78F9D7EED
:0808BD00C07FE77F008E9E90D2
:0C08C500E67CED04F090E67CE4F08D068B
:0308D100EE6017BF
:0E08D4008A828B838CF0122930FFA3AA82AB9C
:0908E2008390E67CEFF01E80E635
:0A08EB0090E68F74022DF00000006B
:0108F50022E0
:0E08F60090E618E4F000000090E6047480F034
:0E09040000000090E6047402F00000007A0487
:0B09120090E6497482F0000000DAF566
:0E091D0090E604E4F000000090E6A3E4F00091
:02092B000000CA
:01092D0022A7
:0E092E0090E61AE4F000000090E6047480F0F9
:0D093C0000000090E6047406F0000000903A
:0E094900E604E4F000000090E6A5E4F00000F3
:01095700009F
:01095800227C
:0809590090E680E0FA30E706A9
:060961007A007B02800415
:040967007A407B0057
:0E096B0090E624EBF000000090E680E0FA3009
:02097900E7068F
:06097B007A007B028004FB
:040981007A407B003D
:0809850090E625EAF0000000F5
:01098D002247
:07098E0078AAB602028007FF
:0709950078AAB603508005AB
:05099C001207FA804D76
:0A09A1007582041207DC1207FAE564
:0809AB000BF4FAE50CF4FBE586
:0A09B3000DF4FCE50EF4FD747B2A40
:0C09BD00FAE43BFBE43CFCE43DFD8A0B4B
:0509C9008B0C8C0D8D6C
:0509CE000E12128978F1
:0C09D3009FE4F608F608F608F612092E5C
:0B09DF001208F6758204120803800461
:0409EA0075820022F0
:0309EE007582010E
:0109F10022E3
:0509F20078AAB602170F
:0709F7001207FA750B0075F1
:0609FE000C00750D0075F0
:0A0A04000E0075820412080380043E
:040A0E0075820022CB
:030A1200758201E9
:010A150022BE
:0A0A1600AA82AB83E50845097001D0
:010A200022B3
:070A2100AC14BCE6028005E5
:050A28008B05BDE63165
:080A2D008A068B07AC13AD141F
:0E0A35008E028F038C828D83E0F88A828B8381
:060A4300F00EBE00010FE1
:050A49000CBC00010DD2
:080A4E00150874FFB50802153C
:010A56000996
:060A5700E508450970D816
:010A5D002276
:0C0A5E008C9AAC137E008C9B8D9D7B005D
:050A6A008A9E020A70E3
:010A6F002264
:080A7000A90890E67B058690C1
:040A7800E67C05868D
:080A7C00E00586F00586D9F8BB
:010A8400224F
:0A0A850090E6B9E0FABAA202804A36
:050A8F00BAA30280453E
:060A9400BAE103020D5A55
:060A9A00BAE203020D3A6E
:060AA000BAE303020D3A67
:060AA600BAE403020D1A80
:060AAC00BAE503020D1A79
:060AB200BAE603020C2568
:060AB800BAE703020C5234
:060ABE00BAE803020C9AE5
:060AC400BAE903020CFA7E
:060ACA00BAEA03020CC9A8
:060AD000BAEB03020D7AEF
:030AD600020D9A74
:0B0AD90090E6BAE0FAA3E0FB8A0B8B6A
:0A0AE4000C90E6BEE0FAA3E0FB90E0
:090AEE00E6B8E0FCBCC002800384
:030AF700020B8A65
:070AFA00EA4B7003020D9EA0
:080B010090E6A0E0FC20E1F801
:080B090090E6B9E0FCBCA2116A
:0A0B1100750D00750E00C002C00350
:070B1B00121038D003D002D4
:090B2200C3EA9440EB9400500674
:060B2B008A0D8B0E80060E
:060B3100750D40750E0079
:080B370090E6B9E0FCBCA20D40
:0D0B3F00C002C003120F8BD003D002801A39
:040B4C00850D088586
:030B50000E0990FB
:040B5300E740850BE7
:030B570013850CF7
:0C0B5A0014C002C003120A16D003D0021F
:080B660090E68AE4F0AC0DAD4D
:080B6E000E90E68BECF0EC2583
:070B76000BFEED350CFF8EB4
:0A0B7D000B8F0CEAC39CFAEB9DFB02
:030B8700020AFA65
:0A0B8A0078A7E608467003020C216C
:0C0B940090E6BCE0FCA3E0FD78A7E6B50D
:090BA000040708E6B50502800215
:020BA900807654
:080BAB0090E6B8E0FCBC406ECE
:070BB300EA4B7003020D9EE6
:090BBA0090E68AE4F090E68BF06D
:080BC30090E6A0E0FC20E1F83F
:0A0BCB0090E68BE0FC7D008C0D8DA0
:090BD5000E90E6B9E0FCBCA31F80
:040BDE00850D0885F4
:030BE2000E098574
:060BE5000B82850C8375F4
:030BEB001340753F
:070BEE0014E7C002C003126E
:080BF5000A16D003D002800BA8
:0B0BFD00C002C003121038D003D00269
:060C0800AC0DAD0EEC2561
:070C0E000BFEED350CFF8E1B
:0A0C15000B8F0CEAC39CFAEB9DFB69
:020C1F008092C1
:040C210075820022B6
:0A0C250090E6B8E0FABAC0028003BE
:030C2F00020D9E15
:080C320090E6A0E0FA20E1F8D1
:0E0C3A0090E7407409F0A37403F090E68AE49A
:0A0C4800F090E68B7402F0020D9E9E
:0A0C520090E6B8E0FABAC002800391
:030C5C00020D9EE8
:080C5F0090E6A0E0FA20E1F8A4
:0E0C670090E7407411F0A3E4F0A3F0A3F09026
:0B0C7500E744E4F5F01228E4A3E412C9
:0A0C800028E4A3E41228E4A3E41220
:080C8A0028E490E68AE4F090F2
:080C9200E68B7408F0020D9ED0
:080C9A0090E6B8E0FABA40232D
:090CA20090E68AE4F090E68BF084
:080CAB0090E6A0E0FA20E1F858
:0C0CB30090E740E0FAA3E0FB78A7A6025F
:060CBF0008A603020D9ED1
:040CC5007582002212
:080CC90090E6B8E0FABA4025FC
:070CD10078A7E60846601E4B
:0C0CD80090E6BCE0FAA3E0FB78A7E6B5CC
:090CE400020708E6B503028002D4
:020CED0080077E
:070CEF00789E7601020D9EC4
:040CF60075820022E1
:070CFA00750BF0750C3F754E
:060D01000D04750E0075E3
:060D07000FCD7510AB904A
:070D0D00E6B8E0FABAC003EA
:030D1400020DA22B
:030D1700020EBB0E
:070D1A00750BE0750C3F753D
:060D21000D0C750E0075BB
:060D27000F7875105690D4
:070D2D00E6B9E0FABAE403A5
:030D3400020DA20B
:030D3700020EBBEE
:070D3A00750BC0750C3F753D
:060D41000D10750E007597
:060D47000FCD7510AB900A
:070D4D00E6B9E0FABAE20387
:030D5400020DA2EB
:030D5700020EBBCE
:070D5A00750BA0750C3F753D
:060D61000D1C750E00756B
:060D67000FCD7510AB90EA
:070D6D00E6B8E0FABAC0038A
:030D7400020DA2CB
:030D7700020EBBAE
:070D7A00750BF8750C3F75C5
:060D81000D02750E007565
:060D87000FCD7510AB90CA
:070D8D00E6B8E0FABAC0036A
:030D9400020DA2AB
:030D9700020EBB8E
:040D9A00758200223C
:030D9E007582015A
:010DA100222F
:0C0DA2007AFF90E6B8E0FBBBC0028004C2
:040DAE007582002228
:050DB200AB0DAC0E7555
:0A0DB7000D00750E00C002C003C05D
:0E0DC10004121038D004D003D00274032BFBB0
:0A0DCF00E43CFC8B0D8C0EC00212F8
:0A0DD9000F8BD002E50D24FDFBE5B1
:070DE3000E34FFFC8B0D8CA8
:0B0DEA000E90E740E0FBA3E0FCEBB53F
:060DF5000F48ECB51044AC
:040DFB007A007B00FF
:0A0DFF007403250DFCE4350EFD8B96
:0A0E0900067F00C3EE9CEF9D502C05
:0A0E1300EB2440F582E434E7F58398
:0A0E1D00E0FC2AFAEB2440FCE43468
:0A0E2700E7FD74022B2440F582E47D
:0C0E310034E7F583E0FE8C828D83F00B2B
:020E3D0080C073
:030E3F00EA606402
:040E4200850D08858D
:030E46000E099002
:090E4900E6B9E0FABAE1028034D6
:050E5200BAE202803D40
:050E5700BAE402800571
:050E5C00BAE943801714
:020E61007A0015
:030E6300BA0C00C6
:020E6600503EFC
:0A0E6800EA2440F582E434E7F58344
:060E72007430F00A80EB71
:050E780090E740751336
:030E7D006E75147B
:060E800029120A16802071
:050E860090E740751328
:030E8B0072751469
:060E8E0029120A16801271
:050E940090E74075131A
:030E99008E75143F
:060E9C0029120A16800471
:040EA2007582002233
:0C0EA60090E68AE4F000000090E68BE586
:080EB2000DF000000075820143
:010EBA002215
:080EBB0090E6B8E0FABA401C11
:070EC30078A7E60846601560
:0C0ECA0090E6BCE0FAA3E0FB78A7E6B5D8
:090ED600020708E6B503028004DE
:040EDF0075820022F6
:090EE30090E68AE4F090E68BF041
:080EEC0090E6A0E0FA20E1F815
:070EF40090E68AE0FA701499
:050EFB00AA0DAB0E90F2
:0E0F0000E68BE0FC7D00B50206EDB503028035
:010F0E0004DE
:040F0F0075820022C5
:060F13008A15AD158D06E4
:060F19008E071EEF6025AB
:0C0F1F00C002C00374022E2440FFE43422
:090F2B00E7FCEE2440F582E434F9
:0C0F3400E7F583E0FA8F828C83F0D00395
:040F4000D00280D586
:080F440090E740E50FF0A3E582
:050F4C0010F07C407E66
:0A0F5100E78E9A759B407C00740245
:030F5B002515FD5C
:090F5E0090E67BE0FE2CFCDDF7BF
:0A0F6700740225152440F582E434DD
:0C0F7100E7F583C3E49CFCF074032AFA4B
:080F7D00E43BFB8A0D8B0E1210
:050F8500103875820127
:010F8A002244
:050F8B00E50DFA700401
:040F90007582012243
:080F940090E678E0FB20E6F88E
:0C0F9C0090E6787480F090E67974A3F081
:080FA80090E678E0FB30E0F870
:080FB00090E678E0FB20E274FA
:080FB80090E678E0FB30E16CEB
:030FC000BA01086B
:080FC30090E678E0FB4420F009
:070FCB0090E679E07B407C19
:060FD200E78C9A7B407CD5
:050FD800E77C008B9B8B
:040FDD00DA0280268E
:080FE10090E678E0FB30E0F837
:080FE90090E678E0FB20E23BFA
:030FF100BA01083A
:080FF40090E678E0FB4420F0D8
:0B0FFC0090E679E0FB90E67BF080D6E9
:0810070090E678E0FA30E0F811
:08100F0090E678E0FA20E215FA
:0E10170090E678E0FA4440F090E679E0FA9036
:07102500E67BF07582012259
:0B102C0090E678E0FA4440F075820086
:011037002296
:02103800AA0DFF
:08103A0090E678E0FB20E6F8E7
:0C10420090E6787480F090E67974A2F0DB
:08104E0090E678E0FB30E0F8C9
:0810560090E678E0FB20E26B5C
:08105E0090E678E0FB30E1634D
:03106600EA600E2F
:071069007B407CE78C9A7BC1
:07107000407CE77C008B9B34
:021077007B02FA
:03107900EA700317
:03107C00EB603BEB
:03107F00EB60140F
:03108200BB0208A6
:0810850090E679E50CF080060D
:06108D0090E679E50BF08E
:031093001B800AB5
:0A10960090E67BE0FC90E679F01A8A
:0810A00090E678E0FC30E0F876
:0810A80090E678E0FC20E2195B
:0810B00090E678E0FC20E1C1AC
:0210B800800FA7
:0E10BA0090E678E0FA4440F01210D5758201FD
:0110C8002205
:0B10C90090E678E0FA4440F0758200E9
:0110D40022F9
:0810D50090E678E0FA20E6F84D
:0E10DD0090E678E0FA4480F090E67974A2F094
:0810EB0090E678E0FA30E0F82D
:0810F30090E678E0FA4440F0B9
:0810FB0090E678E0FA20E6F827
:0811030090E678E0FA30E1D239
:01110B0022C1
:0529640001020000006B
:0529690001F700000071
:04296E000302103020
:0E2972004A5441472D555342204361626C6523
:0E298000000000FDFDFDFD0000007EF4946CE3
:0E298E0044436162557362000000FDFDFDFDD3
:02299C00000039
:07110C0078AAB60202807709
:0711130078ABB60002801169
:0B111A001207FA78AC760C7582001208
:061125000803758201229F
:05112B0078AAE6703611
:06113000789FE630E0119B
:0B1136001207FA78AC760375820012F5
:0611410008037582012283
:06114700789FE630E41180
:0B114D001207FA78AC760375820012DE
:061158000803758201226C
:08115E00789FE64401F68024AD
:0511660078AAB60108A3
:08116B00789FE654FEF68017A0
:06117300789FE620E01168
:0B1179001207FA78AC760475820012B1
:0611840008037582012240
:0A118A0078AAE624F4500302127E56
:0A11940078AAE625E02690119E736C
:07119E000211C20211D2028E
:0611A50011E202127E02BD
:0611AB0011EF0212080220
:0611B100123C021277025D
:0611B70012690212690238
:0511BD0012700212692E
:0A11C2001212821207FA7582001261
:0611CC00080375820122F8
:0A11D2001212891207FA758200124A
:0611DC00080375820122E8
:0D11E20090299E75F08012089275820122FE
:0711EF001207FA750B0075F1
:0611F6000C6A750D18756E
:0C11FC000E0075820412080375820122A7
:0712080090E67BE0FA6004B0
:04120F00D285800202
:02121300C28592
:0712150090E67BE0FA6004A3
:04121C00D2838002F7
:02122000C28387
:0712220090E67BE0FA600496
:04122900D2868002E7
:02122D00C28677
:0D122F001207FA7582001208037582012271
:0C123C001207FAA285E433FA8A0BA283A1
:08124800E433FA8A0C3084043F
:041250007A0080029E
:021254007A011D
:0A1256008A0DA286E433FA8A0E75B1
:09126000820412080375820122C8
:0712690012164575820122F7
:07127000121A5E75820122D3
:0712770012129075820122A2
:03127E0075820076
:01128100224A
:06128200C283D285C28682
:011288002243
:06128900C283D285C2867B
:01128F00223C
:05299E00010200000031
:0529A30001F700000037
:0B1290007A007B0090E67BE0FC60042D
:04129B00D285800276
:02129F00C28506
:0712A10090E67BE0FC600415
:0412A800D28380026B
:0212AC00C283FB
:0E12AE00C286758204C002C0031207DCD003A2
:0E12BC0000C0031207FA758200120803D00367
:0712CA00D002AC0BAD0CAE2D
:0412D1000DAF0E8CC3
:0412D5000F8D108EDB
:0912D900118F12EC4D4E4F700212
:0212E2007B018E
:0312E400EB6006B6
:0612E700EA60030213950A
:0D12ED00C002C00312076ED003D002E4B5AA
:0412FA000A02803133
:0512FE007401B50A0FA8
:0E1303007A01C002C0031207FAD003D00280A4
:011311001DBE
:051312007402B50A138E
:0B1317007B0178AC7602C002C003121C
:0813220007FAD003D002800598
:05132A007A000213959A
:03132F00EB70B2AE
:05133200AC0BAD0CAE98
:0A1337000DAF0EC3ED94FEEE94001E
:05134100EF94005006CE
:061346008C088D098006F1
:06134C007508007509FEA2
:08135200AC08AD09E4FEFFE563
:09135A000BC39CFCE50C9DFDE5B4
:081363000D9EFEE50E9FFF8CBC
:04136B000B8D0C8E4C
:08136F000D8F0EC000C001A8A3
:0413770008A90909AF
:0E137B00D286C286D8FAD9F8D001D000EC4D47
:071389004E4F60030212E465
:051390007B010212E4E4
:03139500EA6029E2
:07139800E50FC3950BFAE518
:05139F0010950CFBE5B8
:0513A40011950DFCE5B0
:0513A90012950EFD8A03
:0413AE000B8B0C8C0D
:0413B2000D8D0E7817
:0B13B600ACE64480F6758204020803D8
:0113C1002209
:0A13C200C001C002A908AA09E960F1
:0213CC00010A14
:0313CE0090E67B2B
:0E13D100E0139283D286C286139283D286C224
:0E13DF0086139283D286C286139283D286C270
:0E13ED0086139283D286C286139283D286C262
:0E13FB0086139283D286C286139283D286C254
:0914090086D9C5DAC3D002D00176
:0114120022B7
:0A141300C001C002A908AA09E9609F
:02141D00010AC2
:0A141F0090E67B058690E67C0586CA
:0E142900E0139283A28413D286C2869283A21D
:0E1437008413D286C2869283A28413D286C208
:0E144500869283A28413D286C2869283A284EA
:0E14530013D286C2869283A28413D286C286EA
:0E1461009283A28413D286C2869283A2841341
:0E146F00D286C286F40586F00586D9AEDAACC8
:04147D00D002D001C8
:011481002248
:0A148200C001C002A908AA09E96030
:02148C00010A53
:03148E0090E67C69
:0E149100A284D286C28613A284D286C286139B
:0E149F00A284D286C28613A284D286C286138D
:0E14AD00A284D286C28613A284D286C286137F
:0E14BB00A284D286C28613A284D286C2861371
:0A14C900F4F0D9C1DABFD002D0015F
:0114D30022F6
:0A14D400C001C002A908AA09E960DE
:0214DE00010A01
:0314E00090E67B18
:0E14E300E0139285D286C286139285D286C20D
:0E14F10086139285D286C286139285D286C259
:0E14FF0086139285D286C286139285D286C24B
:0E150D0086139285D286C286139285D286C23C
:09151B0086D9C5DAC3D002D00163
:0115240022A4
:0A152500C001C002A908AA09E9608C
:02152F00010AAF
:0A15310090E67B058690E67C0586B7
:0E153B00E0139285A28413D286C2869285A206
:0E1549008413D286C2869285A28413D286C2F3
:0E155700869285A28413D286C2869285A284D3
:0E15650013D286C2869285A28413D286C286D5
:0E1573009285A28413D286C2869285A284132A
:0E158100D286C286F40586F00586D9AEDAACB5
:04158F00D002D001B5
:011593002235
:0A159400C001C002A908AA09E9601D
:02159E00010A40
:0315A00090E67B57
:0E15A300E0139283139285D286C28613928340
:0E15B100139285D286C286139283139285D23E
:0E15BF0086C286139283139285D286C286D985
:0715CD00D5DAD3D002D001F2
:0115D40022F4
:0A15D500C001C002A908AA09E960DC
:0215DF00010AFF
:0A15E10090E67B058690E67C058607
:0215EB007C0280
:0E15ED00E0139283139285FBE8A28413F8EBBF
:0E15FB00D286C286139283139285FBE8A284E7
:0E16090013F8EBD286C286139283139285FBF0
:0E161700E8A28413F8EBD286C28613928313E6
:0E1625009285FBE8A28413F8EBD286C286DC25
:0E163300B9E8F40586F0058619D9ADDAABD01A
:0316410002D001D3
:011644002283
:07164500751700751900750F
:07164C001A0078AAB6082A73
:0816530075170190E67BE0F53C
:08165B001690E67BE0FE60043E
:04166300D2858002AA
:02166700C2853A
:04166900E51660081A
:04166D00751B137561
:041671001C14805A6B
:04167500751BC275AA
:041679001C1380526C
:05167D0078AAB6092562
:0A16820075160190E67BE0FC6004A1
:04168C00D285800281
:02169000C28511
:0716920090E67BE0FC600420
:04169900D283800276
:02169D00C28306
:04169F00751B8275C0
:0416A3001C1480286B
:0816A70075170190E67BE0F5E8
:0816AF001690E67BE0FC6004EC
:0416B700D283800258
:0216BB00C283E8
:0416BD00E5166008C6
:0416C100751B2575FB
:0416C5001C1580066A
:0416C900751BD47544
:0216CD001C14EB
:0D16CF007582041207DC1207FA7582001202
:0416DC000803850B6F
:0316E0001D850C59
:0316E3001E850D54
:0316E6001F850E4F
:0316E90020851D3C
:0316EC000F851E49
:0316EF0010851F44
:0316F2001185203F
:0A16F500127407551DFD7A007B00FA
:0716FF007C008D18AA1DE517
:0C1706001EC423CAC423541F6ACA541F07
:0C171200CA6ACAFBE51FC42354E04BFB6D
:0A171E00AC1FE520C423CCC4235403
:0C1728001F6CCC541FCC6CCCFE8A0B8BC9
:041734000C8C0D8E7E
:051738000EE518601D24
:05173D00AA0BAB0CAC8F
:0A1742000DAE0E0ABA00090BBB0041
:06174C00050CBC00010EBB
:051752008A0B8B0C8CDA
:031757000D8E0EE6
:05175A00E50F451045FC
:05175F001145127003AA
:03176400751901F3
:02176700C28638
:04176900E519600717
:07176D00E51A600302197187
:0717740012076EE50A602C6C
:05177B007401B50A0C29
:04178000E51A7008EE
:08178400751A011207FA801B1F
:05178C007402B50A1013
:071791001207FAE519700FC1
:0917980078AC7602751901800697
:0617A100751A0002197127
:0417A700E5176005DD
:0517AB00E5AA20E0B9F1
:0417B000E5166005D5
:0517B400E5AA20E5B0EC
:0417B900E51970AC12
:0417BD00E517600EBE
:0717C1007A007BF08B9A7A9D
:0717C800007BF07B008A9B0F
:0417CF00E516600EAD
:0717D3007A007BF88B9D7A80
:0717DA00007BF87B008A9EF2
:0417E100E51760198F
:0E17E50090E690E0FA8A037A0090E691E0FC2C
:0A17F3007E004AF508EE4BF5098070
:0117FD005497
:0417FE00850B2185B1
:031802000C228530
:031805000D23852B
:031808000E24901B
:07180B00E680E0FF30E70674
:061812007A007B02800455
:041818007A407B0097
:0C181C008A07EBFD3395E0FAFBC3EF9563
:0618280021ED9522EA9576
:06182E0023EB9524501885
:0818340090E680E0FA30E706BF
:06183C007A007B0280042B
:041842007A407B006D
:061846008A088B098006F0
:04184C008521088565
:0218500022096B
:08185200AA08AB09E4FCFDE566
:09185A000BC39AFAE50C9BFBE5B7
:081863000D9CFCE50E9DFD8AC1
:04186B000B8B0C8C4B
:04186F000D8D0EE5E8
:03187300186013E7
:05187600E50B450C45E7
:05187B000D450E70098F
:08188000150874FFB5080215FC
:011888000956
:06188900E50845096009B5
:07188F00851B82851C8312FA
:02189600006BE5
:07189800E518700302193B83
:05189F00E50B450C45BE
:0618A4000D450E60030279
:0218AA00193BE8
:0618AC00AA18E517700BFD
:0318B2003083047C
:0418B5007BFF800233
:0218B9007B00B2
:0218BB008005A6
:0518BD0090E67BE0FB5A
:0518C20078AAB60B2618
:0218C7008A0491
:0B18C900EBA2E09285C313FB30840407
:0418D4007D00800211
:0218D8007D0190
:0318DA00ED6005B9
:0518DD004303808003BD
:0318E20053037F2E
:0618E500D286C286DCDEA3
:0218EB00802259
:0B18ED00EBA2E09283C313FB308404E5
:0418F8007C008002EE
:0218FC007C016D
:0318FE00EC600596
:05190100430380800398
:0319060053037F09
:06190900D286C286DADE80
:04190F00E516601D5C
:0C191300AD187A007408C39DFDE49AFA38
:07191F008DF005F0EB8002E2
:02192600C313E9
:08192800D5F0FBFB90E67CF01A
:071930007518000508E4B57D
:041937000802050994
:04193B00E517600943
:09193F0090E6497482F0000000FA
:04194800E51660122E
:0A194C0090E698E509F00000009015
:08195600E699E508F00000002D
:05195E00E50B450C45FE
:061963000D450E600302B9
:021969001769FC
:06196B0075190102176965
:071971001208F612092EE531
:041978001A700122BE
:04197C00E518601DED
:05198000AA0BAB0CAC4A
:0A1985000DAD0E1ABAFF091BBBFFDF
:06198F00051CBCFF011D58
:051995008A0B8B0C8C95
:03199A000D8D0EA2
:04199D00850D23E5AC
:0A19A1000EC40354F8C523C403C5A7
:0419AB00236523C5C8
:0619AF002354F8C5236576
:0419B50023F524E50D
:0819B9000CC40354074523F59B
:0319C10023850B70
:0819C40021E50CC40354F8C531
:0619CC0021C403C52165E2
:0619D20021C52154F8C5F7
:0419D800216521F56F
:0319DC0022852140
:0319DF000B852253
:0319E2000C85234E
:0319E5000D852449
:0919E8000EAE18E4FFFAFBEE2537
:0819F10021FEEF3522FFEA356B
:0719F90023FAEB3524FB8EFD
:041A00000B8F0C8AB2
:041A04000D8B0EE553
:091A08000FC39EFEE5109FFFE5EF
:081A1100119AFAE5129BFB8E0D
:041A19000F8F108A91
:041A1D00118B128E89
:041A21000B8F0C8A91
:041A25000D8B0EE532
:031A29001760043F
:041A2C007A8080023A
:021A30007A003A
:041A3200E516600451
:041A36007B4080026F
:021A3A007B002F
:0A1A3C00EB4A78AC46F6E5176004AB
:041A46007A0480029C
:021A4A007A0020
:041A4C00E516600437
:041A50007B04800291
:021A54007B0015
:071A5600EB2AF582020803F0
:011A5D002266
:071A5E0075260075270075D5
:071A6500280090E67BE0F58C
:081A6C00257582041207DC124B
:091A740007FA75820012080385CF
:031A7D000B2B85AB
:031A80000C2C85A6
:031A83000D2D85A1
:031A86000E2E859C
:031A89002B0F859B
:031A8C002C108596
:031A8F002D118591
:031A92002E12E52C
:041A95002B452C456C
:051A99002D452E700335
:031A9E00752701A8
:0C1AA1007407552BFAE4FDFBFC740325D0
:081AAD002BFBE4352CFCE435B1
:071AB5002DFDE4352EFE8B30
:041ABC000B8C0C8DF6
:0A1AC0000DEEF50EC313FEED13FD4D
:0E1ACA00EC13FCEB13FBEEC313FEED13FDEC6F
:0A1AD80013FCEB13FB8B0B8C0C8D41
:041AE2000D8E0EE572
:031AE60025600870
:041AE9007529D57511
:041AED002A15800630
:041AF100752994754A
:021AF5002A15B0
:021AF700C286A5
:041AF900E527600776
:071AFD00E5286003021D0B48
:0B1B0400C00212076ED002E50A603438
:051B0F007401B50A108D
:041B1400E528700C44
:0C1B1800752801C0021207FAD002801FDD
:051B24007402B50A1473
:0B1B2900C0021207FAD002E527700F7F
:091B340078AC76027527018006E9
:061B3D00752800021D0BDB
:051B4300E5AA20E0B15D
:041B4800E52560052A
:051B4C00E5AA20E5A858
:041B5100E52770A470
:071B55007D007EF08E9A7DF9
:081B5C00007EF07E008D9BE588
:031B6400256012E7
:041B6700E526700EF1
:071B6B007D007EF88E9D7DD8
:071B7200007EF87E008D9E4D
:0E1B790090E690E0FD8D067D0090E691E0FF85
:0A1B87007B002DF508EB3EF509ABDD
:071B910008AC09E4FDFEE5CC
:091B98000BC39BFBE50C9CFCE572
:081BA1000D9DFDE50E9EFE8B7B
:041BA9000B8C0C8D08
:061BAD000D8E0EEA602C13
:051BB300E50B450C45A7
:051BB8000D450E702236
:0E1BBD008A03FC74032BFBE43CFCA2E713CB71
:0C1BCB0013CBA2E713CB13CBFCE508C33F
:071BD7009BF508E5099CF5F0
:011BDE0009FD
:061BDF00E5084509600D58
:091BE500C002852982852A8312C1
:041BEE00006BD002B6
:061BF200EA7003021C88EA
:051BF800E50B450C4562
:061BFD000D450E6003021D
:021C03001C883B
:091C05007B0090E67BE0FC7D0011
:051C0E00C3ED9A503106
:031C1300BD040508
:051C160090E67BE0FCFC
:0E1C1B00ECA2E09283C313FCA2E09285C313F7
:081C2900FCEBC313FB30840443
:041C31007E008002AF
:021C35007E012E
:031C3700EE600359
:031C3A00430380E1
:071C3D00D286C2860D80CAA9
:041C4400E525601C16
:0E1C48008A047D007408C39CFCE49DFD8CF0B2
:051C560005F0EB800227
:021C5B00C313B1
:071C5D00D5F0FB90E67CF0DE
:0E1C64008A037C0074032BFBE43CFCA2E71314
:0C1C7200CB13CBA2E713CB13CBFCEB256C
:051C7E0008F508EC353B
:051C830009F5097A00DB
:041C8800E52560638B
:051C8C00E50B450C45CD
:051C91000D450E60048A
:041C9600E52660528D
:071C9A000508E4B50802058E
:011CA1000939
:081CA200E509C313C50813C5D1
:041CAA0008F509E54B
:031CAE0026602489
:081CB10090E680E0FB30E7063D
:061CB9007B007C028004A8
:041CBF007B407C00EA
:0C1CC300ECA2E713CB13CBFCEB2508F5DB
:051CCF0008EC3509F5E9
:011CD4000906
:0A1CD50090E698E509F00000009089
:091CDF00E699E508F0000000752B
:041CE800260080034F
:031CEC0075260159
:0C1CEF0090E6497482F0000000E50B450F
:041CFB000C450D4542
:061CFF000E6003021AF959
:061D0500752701021AF926
:0C1D0B00C0021208F60012092ED002E5FA
:041D1700287001220D
:0A1D1B00E50B25E0FBE50C33FCE5C9
:0A1D25000D33FDE50E33FEEB2BFB42
:0C1D2F00EC33FCED33FDEE33FE8B0B8C2F
:041D3B000C8D0D8E70
:041D3F000EEA603D0B
:041D4300EA30E21D83
:051D4700AB0BAC0CAD7C
:0A1D4C000DAE0E1BBBFF091CBCFF0F
:061D5600051DBDFF011E8A
:051D5C008B0B8C0C8DC7
:031D61000D8E0ED6
:0A1D6400E4FBFCFDEA250BFAEB3569
:081D6E000CFBEC350DFCED351A
:051D76000EFD8A0B8B3D
:041D7B000C8C0D8D32
:011D7F000E55
:071D8000E50FC3950BFAE526
:051D870010950CFBE5C6
:051D8C0011950DFCE5BE
:051D910012950EFD8A11
:041D96000F8B108C13
:041D9A00118D128A0B
:041D9E000B8B0C8C13
:041DA2000D8D0EE5B0
:031DA6002570089D
:051DA900F50FF510F537
:031DAE0011F5121A
:0C1DB10078ACE644C0F675820802080316
:011DBD002203
:0529A800010200000027
:0529AD0001F70000002D
:0600E400752F00753000CD
:071DBE0078AAB6020280774B
:071DC50078ABB600028011AB
:0B1DCC001207FA78AC760C758200124A
:061DD700080375820122E1
:051DDD0078AAE6703653
:061DE200789FE630E411D9
:0B1DE8001207FA78AC76037582001237
:061DF300080375820122C5
:061DF900789FE630E011C6
:0B1DFF001207FA78AC76037582001220
:061E0A00080375820122AD
:081E1000789FE64410F68024DF
:051E180078AAB60108E4
:081E1D00789FE654EFF68017F0
:061E2500789FE620E411A5
:0B1E2B001207FA78AC760475820012F2
:061E360008037582012281
:0A1E3C0078AAE624F75003021EF412
:0A1E460078AAE625E026901E5073EE
:071E5000021E6B021E81025D
:061E57001E91021E9E0216
:061E5D001EA8021EB202E5
:061E63001EC9021EE00290
:021E69001EEA6F
:071E6B00752F007530001215
:091E72001EF81207FA7582001235
:061E7B000803758201223C
:0A1E8100121EFF1207FA758200120C
:061E8B000803758201222C
:0D1E91009029B775F0801208927582012229
:0A1E9E00121F11121FD275820122DB
:0A1EA8001207FA121FD27582012200
:0B1EB20090E67BE0FAF5821220281277
:0C1EBD0007FA75820012080375820122EA
:0B1EC90090E67BE0FAF582121F061283
:0C1ED40007FA75820012080375820122D3
:0A1EE000758201122038758201227C
:0A1EEA007582001220387582012273
:031EF400758200F4
:011EF70022C8
:061EF800C283D285C28600
:011EFE0022C1
:061EFF00C283D285C286F9
:011F050022B9
:051F0600E582FA600312
:031F0B00D285225A
:021F0E00C2858A
:011F100022AE
:0A1F11007582041207DC1207FA853E
:031F1B000B4185F2
:031F1E000C4285ED
:031F21000D4385E8
:0A1F24000E44906BFF75F0DC7402B0
:0E1F2E0012287FAA82AB83ACF0FD0ABA00092C
:091F3C000BBB00050CBC00010DFB
:051F45008A0B8B0C8CDF
:0A1F4A000D8D0EC374249AE49BE48D
:051F54009CE49D400427
:041F590075300022BD
:051F5D00AA0BAB0CAC67
:0A1F62000DAD0EC374579AE49BE422
:051F6C009CE49D40040F
:041F710075300122A4
:0E1F7500EA24C0FAEB34FFFBEC34FFFCED3441
:091F8300FFFD754118E4F542F57B
:0A1F8C0043F5448A828B838CF0ED4C
:0E1F960012287FAA82AB83ACF0FD0ABA0009C4
:091FA4000BBB00050CBC00010D93
:051FAD008A0B8B0C8C77
:041FB2000D8D0E85FE
:031FB6000B348564
:031FB9000C35855F
:031FBC000D36855A
:0A1FBF000E37EB7006EC7003ED60C6
:011FC9000413
:041FCA007530FF224D
:031FCE0085343027
:011FD10022ED
:041FD200E530700D79
:071FD600750B56750C5875E0
:061FDD000D14F50E803F1B
:0C1FE300E53075F018A4243FFAE435F056
:091FEF00FB8A41F5423395E0F54F
:0A1FF80043F544906BFF75F0DC74B4
:0E2002000212287FAA82AB83ACF0FD0ABA005E
:0A201000090BBB00050CBC00010D1C
:05201A008A0B8B0C8C09
:03201F000D8D0E16
:06202200758204020803B0
:0A202800AA8274075AF52F30E10375
:03203200D2862231
:02203500C28661
:012037002286
:09203800AA82753900753A009086
:09204100E67BE0FB90E67BE0F594
:04204A0038EA600B05
:08204E0075320190E67BE0F51C
:0320560033800CC8
:0720590090E67BE0F5317514
:052060003301753200A0
:0E206500758204C0031207DC001207FA7582B0
:0920730000120803D003AA0BAF10
:04207C000CAE0DADEC
:042080000E8A0F8F26
:04208400108E118D1C
:0420880012EB6004F3
:04208C00D285800277
:02209000C28507
:07209200E530600302213676
:04209900E532603795
:04209D00E533603394
:0520A100E52F30E217FD
:0520A600E52F30E00908
:0420AB00753BD77535
:0320AF003C2302CD
:0220B2002163A8
:0420B400753B3675CD
:0320B8003C2402C3
:0220BB0021639F
:0520BD00E52F30E009F1
:0420C200753B1975DC
:0320C6003C2302B6
:0220C900216391
:0420CB00753B787574
:0320CF003C2302AD
:0220D200216388
:0420D400E532602F62
:0520D800E52F30E215C8
:0520DD00E52F30E008D2
:0420E200753B49758C
:0420E6003C2580799C
:0420EA00753BA3752A
:0420EE003C2580719C
:0520F200E52F30E008BD
:0420F700753B95752B
:0420FB003C2480649D
:0420FF00753BEF75C9
:042103003C24805C9C
:05210700E52F30E21598
:05210C00E52F30E008A2
:04211100753BB575F0
:042115003C26804A9A
:04211900753B12758B
:04211D003C27804299
:05212100E52F30E0088D
:04212600753BFD7593
:04212A003C2580359B
:04212E00753B587530
:042132003C26802D9A
:05213600E52F30E21569
:05213B00E52F30E00873
:04214000753B6F7507
:042144003C27801B99
:04214800753BF77577
:04214C003C27801399
:05215000E52F30E0085E
:04215500753BB375AE
:042159003C27800699
:04215D00753B3B751E
:022161003C2818
:04216300E5396007F3
:07216700E53A60030222AA21
:07216E0012076EE50A602C68
:052175007401B50A0C25
:04217A00E53A7008CA
:08217E00753A011207FA801BFB
:052186007402B50A100F
:07218B001207FAE539700F9D
:0921920078AC7602753901800673
:06219B00753A000222AAC1
:0421A100E5326005BE
:0521A500E5AA20E0B9ED
:0421AA00E5336005B4
:0521AE00E5AA20E5B0E8
:0421B300E53970ACEE
:0421B700E532600E9F
:0721BB007E007FF08F9A7E89
:0721C200007FF07F008E9BFF
:0421C900E533600E8C
:0721CD007E007FF88F9D7E6C
:0721D400007FF87F008E9EE2
:0421DB00E532601970
:0E21DF0090E690E0FE8E077E0090E691E0FA1A
:0A21ED007D004EF508ED4FF5098066
:0121F7005394
:0421F800850F3D858D
:0321FC00103E850D
:0321FF00113F8508
:03220200124090F7
:07220500E680E0FC30E70673
:06220C007A007B02800451
:042212007A407B0093
:0C2216008A04EB3395E0FAFDC3EC953D23
:08222200EB953EEA953FED95B6
:03222A0040501809
:08222D0090E680E0FA30E706BC
:062235007A007B02800428
:04223B007A407B006A
:06223F008A088B098006ED
:04224500853D088546
:022249003E094C
:08224B00AA08AB09E4FCFDE563
:092253000FC39AFAE5109BFBE5AC
:08225C00119CFCE5129DFD8AB6
:042264000F8B108C40
:04226800118D12853D
:06226C003B82853C831259
:06227200006BE53260097B
:0922780090E6497482F0000000B8
:04228100E5336012CF
:0A22850090E698E509F000000090D3
:08228F00E699E508F0000000EB
:05229700E50F451045B4
:06229C001145126003026F
:0222A2002163B6
:0622A400753901022163FF
:0422AA00E5386004AF
:0422AE00D285800253
:0222B200C285E3
:0722B4001208F612092EE5E5
:0322BB003A605A2C
:0722BE00E50BC3950FFAE5E3
:0522C5000C9510FBE583
:0522CA000D9511FCE57B
:0522CF000E9512FD8ACE
:0422D4000B8B0C8CD8
:0422D8000D8D0E8AD0
:0422DC000F8B108CC8
:0422E000118D12E565
:0322E40032600461
:0422E7007A80800277
:0222EB007A0077
:0422ED00E533600471
:0422F1007B408002AC
:0222F5007B006C
:0A22F700EB4A78AC46F6E5326004CD
:042301007A048002D8
:022305007A005C
:04230700E533600456
:04230B007B048002CD
:02230F007B0051
:07231100EB2AF5820208032C
:0123180022A2
:08231900A908AA09E960010A04
:0E23210090E67BE0339283B286B286A28433CC
:0E232F009283B286B286A284339283B286B2C3
:0E233D0086A284339283B286B286A284339243
:0E234B0083B286B286A284339283B286B286B3
:0E235900A284339283B286B286A2843392832A
:0E236700B286B286A28433F490E67CF0D9AC44
:02237500DAAAE2
:012377002243
:08237800A908AA09E960010AA5
:0E23800090E67BE0339283B286A28433B2866D
:0E238E009283B286A28433B2869283B286A274
:0E239C008433B2869283B286A28433B28692D4
:0E23AA0083B286A28433B2869283B286A28466
:0E23B80033B2869283B286A28433B2869283B9
:0E23C600B286A28433B286F490E67CF0D9ACE5
:0223D400DAAA83
:0123D60022E4
:0823D700A908AA09E960010A46
:0E23DF0090E67BE0139283B286B286A284134E
:0E23ED009283B286B286A284139283B286B225
:0E23FB0086A284139283B286B286A2841392C5
:0E24090083B286B286A284139283B286B28614
:0E241700A284139283B286B286A284139283AB
:0E242500B286B286A28413F490E67CF0D9ACA5
:02243300DAAA23
:012435002284
:08243600A908AA09E960010AE6
:0E243E0090E67BE0139283B286A28413B286EE
:0E244C009283B286A28413B2869283B286A2D5
:0E245A008413B2869283B286A28413B2869255
:0E24680083B286A28413B2869283B286A284C7
:0E24760013B2869283B286A28413B28692833A
:0E248400B286A28413B286F490E67CF0D9AC46
:02249200DAAAC4
:012494002225
:08249500A908AA09E960010A87
:03249D0090E67B4B
:0E24A000E0339283B286B286A284339283B276
:0E24AE0086B286A284339283B286B286A2845E
:0E24BC00339283B286B286A284339283B286B4
:0E24CA00B286A284339283B286B286A2843395
:0E24D8009283B286B286A284339283B286B219
:0824E60086A28433D9B4DAB2F6
:0124EE0022CB
:0824EF00A908AA09E960010A2D
:0324F70090E67BF1
:0E24FA00E0339283B286A28433B2869283B21C
:0E25080086A28433B2869283B286A28433B256
:0E251600869283B286A28433B2869283B28606
:0E252400A28433B2869283B286A28433B2863A
:0E2532009283B286A28433B2869283B286A2CE
:082540008433B286D9B4DAB28B
:012548002270
:08254900A908AA09E960010AD2
:0325510090E67B96
:0E255400E0139283B286B286A284139283B201
:0E25620086B286A284139283B286B286A284C9
:0E257000139283B286B286A284139283B2863F
:0E257E00B286A284139283B286B286A2841320
:0E258C009283B286B286A284139283B286B284
:08259A0086A28413D9B4DAB261
:0125A2002216
:0825A300A908AA09E960010A78
:0325AB0090E67B3C
:0E25AE00E0139283B286A28413B2869283B2A7
:0E25BC0086A28413B2869283B286A28413B2E2
:0E25CA00869283B286A28413B2869283B28672
:0E25D800A28413B2869283B286A28413B286C6
:0E25E6009283B286A28413B2869283B286A23A
:0825F4008413B286D9B4DAB2F7
:0125FC0022BC
:0825FD00A908AA09E960010A1E
:0326050090E67CE0
:0E260800339283B286B286A284339283B28666
:0E261600B286A284339283B286B286A2843347
:0E2624009283B286B286A284339283B286B2CB
:0E26320086A284339283B286B286A28433924B
:0E26400083B286B286A284339283B286B286BB
:09264E00A28433F4F0D9B3DAB12F
:012657002260
:08265800A908AA09E960010AC2
:0326600090E67C85
:0C266300E531339283B286A28433B28644
:0E266F009283B286A28433B2869283B286A290
:0E267D008433B2869283B286A28433B28692F0
:0E268B0083B286A28433B2869283B286A28482
:0E26990033B2869283B286A28433B2869283D5
:0D26A700B286A28433B286F4F0D9B1DAAF66
:0126B4002203
:0826B500A908AA09E960010A65
:0326BD0090E67C28
:0C26C000E531139283B286B286A2841327
:0E26CC009283B286B286A284139283B286B243
:0E26DA0086A284139283B286B286A2841392E3
:0E26E80083B286B286A284139283B286B28633
:0E26F600A284139283B286B286A284139283CA
:0D270400B286B286A28413F4F0D9B1DAAF28
:0127110022A5
:08271200A908AA09E960010A07
:03271A0090E67CCA
:0C271D00E531139283B286A28413B286C9
:0E2729009283B286A28413B2869283B286A2F5
:0E2737008413B2869283B286A28413B2869275
:0E27450083B286A28413B2869283B286A284E7
:0E27530013B2869283B286A28413B28692835A
:0D276100B286A28413B286F4F0D9B1DAAFCB
:01276E002248
:08276F00A908AA09E960010AAA
:06277700E532600274FF70
:08277D0004FBE533600274FF68
:0227850004FC52
:09278700E531BB000490E67BE0A3
:022790007D08C2
:0727920013B2869283A83008
:08279900D8FEB286A284A8302C
:0D27A100D8FEDDED13BC0005F490E67CF0E1
:0427AE00D9D7DAD5C8
:0127B2002204
:0827B300A908AA09E960010A66
:0627BB00E532600274FF2C
:0827C10004FBE533600274FF24
:0227C90004FC0E
:0927CB00E531BB000490E67BE05F
:0227D4007D087E
:0727D60033B2869283A830A4
:0827DD00D8FEB286A284A830E8
:0D27E500D8FEDDED33BC0005F490E67CF07D
:0427F200D9D7DAD584
:0127F60022C0
:0827F700A908AA09E960010A22
:0627FF00E532600274FFE8
:0828050004FBE533600274FFDF
:02280D0004FCC9
:09280F00E531BB000490E67BE01A
:022818007D0839
:05281A00139283A830B9
:08281F00D8FEB286A284A830A5
:0E282700D8FEB286DDED13BC0005F490E67C11
:01283500F0B2
:04283600D9D7DAD53F
:01283A00227B
:08283B00A908AA09E960010ADD
:06284300E532600274FFA3
:0828490004FBE533600274FF9B
:0228510004FC85
:09285300E531BB000490E67BE0D6
:02285C007D08F5
:05285E00339283A83055
:08286300D8FEB286A284A83061
:0E286B00D8FEB286DDED33BC0005F490E67CAD
:01287900F06E
:04287A00D9D7DAD5FB
:01287E002237
:0529B20001020000001D
:0529B70001F700000023
:0EE10000120100020000004043140100000064
:04E10E000102000109
:0AE112000A060002000000400100B0
:0EE11C0009022E0001010080FA09040000042F
:0EE12A00FF000000070501024000000705810C
:0EE138000240000007050202000200070586F3
:04E1460002000200D1
:0EE14A0009022E0001010080FA090400000401
:0EE15800FF00000007050102400000070581DE
:0EE16600024000000705020240000007058687
:04E174000240000065
:093F00000205AE000205E2000218
:083F090005CC0002064600028F
:083F110005F80002066400023D
:083F190006BE000206BE000214
:083F210006BE000206BE00020C
:083F290006BE000206BE000204
:083F310006BE000206BE0002FC
:083F390006BE000206BE0002F4
:083F410006BE000206BE0002EC
:083F490006BE000206BE0002E4
:083F510006BE000206BE0002DC
:083F590006BE000206BE0002D4
:083F610006BE000206BE0002CC
:083F690006BE000206BE0002C4
:083F710006BE000206BE0002BC
:083F790006BE000206BE0002B4
:083F810006BE000206BE0002AC
:083F890006BE000206BE0002A4
:083F910006BE000206BE00029C
:083F990006BE000206BE000294
:083FA10006BE000206BE00028C
:083FA90006BE000206BE000284
:073FB10006BE000206BE007F
:08287F00FB7A20E4FCFDFEFFE2
:0E288700E5822582F582E58333F583E5F033A3
:0B289500F5F0EB33FB4017DAE980425E
:0E28A000E5822582F582E58333F583E5F0338A
:0528AE00F5F0EB33FB27
:0E28B300EC33FCED33FDEE33FEEF33FFEC951E
:0628C10041ED9542EE9589
:0828C70043EF95444013EC952A
:0828CF0041FCED9542FDEE9580
:0928D70043FEEF9544FF4382012A
:0228E000DABE5E
:0228E200EB22E7
:06009C00E478FFF6D8FD38
:08007A007900E94400601B7AE3
:05008200009029BC788C
:030087000075A061
:0A008A00E0E493F2A308B8000205B9
:08009400A0D9F4DAF275A0FF17
:0E28E40020F71030F6118883A88220F507F641
:0528F200A883758300BE
:0128F70022BE
:0328F800F280F774
:0228FB00F022C9
:0400A20075A00078CD
:0700A60000E8440060077947
:0600AD0000E4F309D8FC99
:0800B3007800E84400600C79BC
:0B00BB000090E000E4F0A3D8FCD9FAAC
:02006B00E4733C
:0E28FD0090E682E044C0F090E681F04387014F
:0E290B000000000000000000000000000000BE
:0E2919000000000000000000000000000000B0
:0929270000000000000000002285
:03006D0075814456
:0A00700012294CE5826003020066CD
:0E29300020F71430F6148883A88220F507E6FD
:06293E00A883758300224E
:03294400E280F737
:03294700E49322F4
:02294A00E02289
:04294C00758200226E
:00000001FF
