:0400000002006D325B
:01000B0032C2
:0100130032BA
:01001B0032B2
:0100230032AA
:01002B0032A2
:030033000206B70B
:01003B003292
:03004300023F0079
:01004B003282
:03005300023F0069
:01005B003272
:030063000206BBD7
:0300E400020066B1
:050066001200E780FE1E
:0900E700788176007880760090A3
:0E00F000E60B7403F000000000000090E60034
:0E00FE007410F075800175B28175900075B3B5
:0E010C00FF75B00075B50090E67AE0FA440188
:0B011A00F0122A9890E60174E2F01247
:0E012500027590E6097403F000000075890170
:09013300000000788276000876D5
:04013C00E17884766C
:05014000120876E178D1
:0501450086761C08761F
:04014A00E17888765A
:0A014E004A0876E1D2E843D8209079
:0E015800E668E0FA4409F090E65CE0FA443D07
:0E016600F090E682E4F0D2AF90E680E0FA542A
:05017400F7F0538EF8C6
:080179001201BE789EE660074A
:0701810012019A789E76003E
:050188007881E660072C
:07018D00788176001233F3C4
:050194001206BB80E033
:010199002243
:0A019A0090E680E0FA440AF07A00D3
:0201A400DAFE81
:0E01A60090E65D74FFF090E65F74FFF05391F9
:0901B400EF90E680E0FA54F7F048
:0101BD00221F
:0601BE007880E6700122CA
:0501C400AA08AB097858
:0901C90096A60208A603788EA692
:0601D2000B08A60C08A6B4
:0501D8000D08A60E78E1
:0501DD0092A60F08A628
:0601E2001008A61108A69A
:0601E800127898A69B7836
:0801EE0099A69A789AA69E7862
:0A01F6009BA69D1202F7E582700837
:0802000090E6A0E0FA4401F0D1
:0C02080090E6A0E0FA4480F078807600D8
:06021400789686080886BA
:0A021A0009788E8602088603088624
:09022400040886058A0B8B0C8C82
:04022D000D8D0E78AD
:0C023100928602088603088604088605F1
:05023D008A0F8B108CFC
:04024200118D127890
:0802460098869B7899869A784E
:07024E009A869E789B869DB5
:010255002286
:0E02560090E6837401F07421F07411F074319D
:0E026400F090E6837402F07422F07416F074C9
:0202720036F064
:010274002267
:0E02750090E610E4F000000090E611E4F000C6
:0E028300000090E612E4F000000090E613E4A4
:0D029100F000000090E614E4F00000009082
:0E029E00E615E4F000000090E618E4F0000021
:0E02AC000090E619E4F000000090E61AE4F07D
:0E02BA0000000090E61BE4F000000090E6104B
:0E02C80074A0F000000090E61174A0F0000099
:0E02D6000090E61274A0F000000090E6147490
:0E02E400E0F000000090E68DE4F00000001253
:0502F20009350208FDC2
:0C02F70090E6B9E0FA24F450030205A4DC
:07030300EA2A2A90030A73A5
:07030A000203F102047B0273
:0603110005A4020529020B
:0603170005A40205A4028A
:06031D00032E0205A402FC
:0603230003DC0203CA0224
:0503290003A30203B86C
:0A032E0090E6BBE0FABA0102800F6E
:05033800BA0202802062
:05033D00BA0602803148
:05034200BA075A8042D9
:09034700788290E6B308E6F07834
:0B0350008286027B0090E6B4EAF00217
:02035B0005A7F4
:09035D00788A90E6B308E6F07816
:0B0366008A86027B0090E6B4EAF002F9
:0203710005A7DE
:09037300788490E6B308E6F07806
:0B037C008486027B0090E6B4EAF002E9
:0203870005A7C8
:09038900788C90E6B308E6F078E8
:0B0392008C86027B0090E6B4EAF002CB
:02039D0005A7B2
:04039F007582002241
:0803A30090E740789DE6F09020
:0B03AB00E68AE4F090E68B7401F0029B
:0203B60005A799
:0A03B80090E6BAE0FA789DA6021262
:0603C20002751202560252
:0203C80005A787
:0A03CA0090E6BAE0FA789CA6021251
:0603D40002751202560240
:0203DA0005A775
:0803DC0090E740789CE6F090E8
:0B03E400E68AE4F090E68B7401F00262
:0203EF0005A760
:0A03F10090E6B8E0FABA8002800A34
:0503FB00BA8102801B25
:05040000BA8274802C9B
:0A04050090E740E4F090E741F0902A
:0A040F00E68AF090E68B7402F0021A
:0204190005A735
:0A041B0090E740E4F090E741F09014
:0A042500E68AF090E68B7402F00204
:02042F0005A71F
:0E04310090E6BCE0FA53027E90E6BCE0FBC30E
:0E043F0074809BE433FB4A90345593FA339556
:0E044D00E0FB74A12AFA74E63BFB8A828B83E3
:0E045B00E0FA53020190E740EAF090E741E436
:0C046900F090E68AF090E68B7402F0023E
:0204750005A7D9
:040477007582002268
:07047B0090E6B8E0FA60080A
:05048200BA0202801225
:0304870002052546
:0B048A0090E6BAE0FABA01030205A7F1
:04049500758200224A
:0904990090E6BAE06003020521BF
:0E04A20090E6BCE0FA53027E90E6BCE0FBC39D
:0E04B00074809BE433FB4A90345593FA3395E5
:0E04BE00E0FB74A12AFA74E63BFB90E6BCE07A
:0E04CC00FC53047E90E6BCE0FDC374809DE40A
:0E04DA0033FD4C90345593FC3395E0FD74A136
:0E04E8002CFC74E63DFD8C828D83E0FC5304F9
:0E04F600FE8A828B83ECF090E6BCE05480FA24
:0E050400C423541FFA90E6BCE0FB740F5B901A
:0D051200E6832AF090E683E0FA4420F00230
:02051F0005A72E
:0405210075820022BD
:0405250075820022B9
:0705290090E6B8E0FA60055E
:05053000BA026D800E0F
:0A05350090E6BAE0FABA020280680C
:04053F00758200229F
:0E05430090E6BCE0FA53027E90E6BCE0FBC3FB
:0E05510074809BE433FB4A90345593FA339543
:0E055F00E0FB74A12AFA74E63BFB90E6BCE0D8
:0E056D00FC53047E90E6BCE0FDC374809DE468
:0E057B0033FD4C90345593FC3395E0FD74A194
:0E0589002CFC74E63DFD8C828D83E0FC430467
:09059700018A828B83ECF08007DD
:0405A000758200223E
:0305A400020B3512
:0305A70075820159
:0105AA00222E
:0C05AB00C0E0C082C083C00078807601F0
:0905B7005391EF90E65D7401F030
:0905C000D000D083D082D0E032DB
:0E05C900C0E0C082C0835391EF90E65D7404E1
:0105D700F033
:0705D800D083D082D0E03295
:0E05DF00C0E0C082C0835391EF90E65D7402CD
:0105ED00F01D
:0705EE00D083D082D0E0327F
:0D05F500C0E0C082C083C002C003C0007817
:0A060200888602088603788AA602A3
:0C060C0008A6038A828B83A37402F07896
:0A061800868602088603788CA6028D
:0E06220008A6038A828B83A37407F05391EF1E
:0606300090E65D7410F07D
:0D063600D000D003D002D083D082D0E032BB
:0C064300C0E0C082C083C0007881760156
:09064F005391EF90E65D7408F090
:09065800D000D083D082D0E03242
:0D066100C0E0C082C083C002C003C0009092
:07066E00E680E0FA30E72C02
:0A06750078868602088603788AA6BC
:0D067F000208A6038A828B83A37402F07820
:0A068C00888602088603788CA60217
:0B06960008A6038A828B83A37407F080
:0906A1005391EF90E65D7420F026
:0D06AA00D000D003D002D083D082D0E03247
:0306B70053D8EF26
:0106BA00320D
:0534460001020000007E
:05344B0001000000007B
:05345000010000000076
:0A3455000001020203030404050550
:0A00C600789E7600789FE4F608F6B5
:0C00D00008F608F678A3E4F608F608F637
:0800DC0008F678A7E4F608F627
:0706BB0012070DE582601437
:0706C2001206D7E582700D5E
:0B06C90012080178AC76017582000277
:0206D400080A12
:0106D6002201
:0706D70078A9E624FA402B8C
:0A06DE0078A9E625E0269006E873EF
:0706E8000206FA0206FD0202
:0606EF00070002070902EA
:0506F5000703020706E7
:0306FA000209955D
:0306FD000209F9F6
:0307000002168757
:03070300022311BD
:03070600022B7F44
:03070900758200F6
:01070C0022CA
:05070D00E5BA30E10433
:0407120075820022CA
:0707160078AC76007A807BCD
:06071D00E78B9A7A807B55
:0C072300E77B008A9B90E67BE0FA7B00FD
:05072F000ABA00010BF5
:0E07340090E68DE0FC7D00EAB50406EBB5050D
:0307420002801121
:0B07450012080178AC760175820012EA
:06075000080A7582002278
:0A07560090E67BE0FA78A9A6029075
:09076000E67BE0FA78AAA60290FB
:0B076900E67BE0FA78ABA60275820187
:010774002262
:080775001201BEE5BA30E104F7
:04077D00750A0022D7
:0C07810090E780E0FA7B000ABA00010B50
:0E078D0090E68DE0FC7D00EAB50406EBB505B4
:03079B00028011C8
:0B079E0012080178AC76017582001291
:0607A900080A750AFF2298
:0B07AF0090E781E0FA78A9E6B502139C
:0C07BA0090E782E0FA78AA748046FBEA1F
:0307C600B5030474
:0407C900750A01228A
:0607CD0090E781E0700CD2
:0807D30090E782E0FABA02048B
:0407DB00750A022277
:0307DF00750AFF99
:0107E20022F4
:0807E300AA827B0B7C007D4023
:0E07EB0090E67BE0FE8B828C838DF012336CE7
:0707F900A3AB82AC83DAEB35
:0108000022D5
:0808010090E68DE4F000000018
:0108090022CC
:07080A00AA82E5BA30E20109
:0108110022C4
:070812007BC07CE78C9D7B9D
:08081900C07CE77C008B9E907F
:08082100E67CEA04F078AC90DB
:07082900E67CE6F07B0B7C8E
:05083000007D408A0676
:03083500EE60175B
:0E0838008B828C838DF0123426FFA3AB82AC32
:090846008390E67CEFF01E80E6D1
:0A084F0090E68F74022AF00000000A
:01085900227C
:07085A00AA82E5BA30E201B9
:010861002274
:070862007BC07CE78C9D7B4D
:08086900C07CE77C008B9E902F
:08087100E67CEA04F078AC908B
:04087900E67CE6F043
:01087D002258
:05087E00E5BA30E201C3
:010883002252
:0808840090E7C178ACE6F090AA
:0C088C00E7C0E0FA90E68F04F0000000E6
:01089800223D
:0E089900AA82AB83ACF090E67BE0FDC002C00B
:0E08A70003C004C005120801D005D004D00320
:0708B500D002E5BA30E201B8
:0108BC002219
:0708BD007EC07FE78F9D7EE6
:0808C400C07FE77F008E9E90CB
:0C08CC00E67CED04F090E67CE4F08D0684
:0308D800EE6017B8
:0E08DB008A828B838CF0123426FFA3AA82AB94
:0908E9008390E67CEFF01E80E62E
:0A08F20090E68F74022DF000000064
:0108FC0022D9
:0E08FD0090E618E4F000000090E6047480F02D
:0E090B0000000090E6047402F00000007A0480
:0B09190090E6497482F0000000DAF55F
:0E09240090E604E4F000000090E6A3E4F0008A
:020932000000C3
:0109340022A0
:0E09350090E61AE4F000000090E6047480F0F2
:0D09430000000090E6047406F00000009033
:0E095000E604E4F000000090E6A5E4F00000EC
:01095E000098
:01095F002275
:0809600090E680E0FA30E706A2
:060968007A007B0280040E
:04096E007A407B0050
:0E09720090E624EBF000000090E680E0FA3002
:02098000E70688
:060982007A007B028004F4
:040988007A407B0036
:08098C0090E625EAF0000000EE
:010994002240
:0709950078AAB602028007F8
:07099C0078AAB603508005A4
:0509A300120801804D67
:0A09A8007582041207E3120801E54E
:0809B2000BF4FAE50CF4FBE57F
:0A09BA000DF4FCE50EF4FD747B2A39
:0C09C400FAE43BFBE43CFCE43DFD8A0B44
:0509D0008B0C8C0D8D65
:0509D5000E1217F2787C
:0C09DA009FE4F608F608F608F61209354E
:0B09E6001208FD75820412080A80044C
:0409F10075820022E9
:0309F50075820107
:0109F80022DC
:0A09F90078AAE624EF5003020ABEBC
:0C0A030078AAE6240983C0E0E6241483EE
:030A0F00C0E02222
:020A1200BEBE66
:020A140034BEEE
:020A1600BEBE62
:020A18004B6A27
:020A1A00BE8993
:020A1C00A0A593
:020A1E00BEAA6E
:020A2000B4AF71
:010A2200B91A
:020A23000A0ABD
:020A25000A0ABB
:020A27000A0AB9
:020A29000A0AB7
:020A2B000A0AB5
:020A2D000A0AB3
:020A2F000A0AB1
:020A31000A0AAF
:010A33000AB8
:070A3400120801750B567555
:060A3B000C00750D0075B2
:0A0A41000E0075820412080A807787
:0A0A4B007582011207E3120801E5AD
:030A55000B60072C
:070A580043B502C2B18003A7
:030A5F0053B5FD8F
:080A620075820012080A805899
:0A0A6A007582011207E3120801E58E
:030A74000B60070D
:070A770043B540C2B6800345
:030A7E0053B5BFAE
:080A810075820012080A803999
:070A8900120801750B007556
:060A90000C20750D00753D
:0A0A96000E0075820412080A802287
:050AA0001214C2801DCC
:050AA50012127480181C
:050AAA00123052801320
:050AAF00123067800E0B
:050AB40012315E800913
:050AB90012311280045F
:040ABE00758200221B
:030AC20075820139
:010AC500220E
:0A0AC600AA82AB83E5084509700120
:010AD0002203
:070AD100AC14BCE602800535
:050AD8008B05BDE631B5
:080ADD008A068B07AC13AD146F
:0E0AE5008E028F038C828D83E0F88A828B83D1
:060AF300F00EBE00010F31
:050AF9000CBC00010D22
:080AFE00150874FFB50802158C
:010B060009E5
:060B0700E508450970D865
:010B0D0022C5
:0C0B0E008C9AAC137E008C9B8D9D7B00AC
:050B1A008A9E020B2081
:010B1F0022B3
:080B2000A90890E67B05869010
:040B2800E67C0586DC
:080B2C00E00586F00586D9F80A
:010B3400229E
:0A0B350090E6B9E0FABAA202804A85
:050B3F00BAA30280458D
:060B4400BAE103020E0AF3
:060B4A00BAE203020DEA0D
:060B5000BAE303020DEA06
:060B5600BAE403020DCA1F
:060B5C00BAE503020DCA18
:060B6200BAE603020CD507
:060B6800BAE703020D02D2
:060B6E00BAE803020D4A83
:060B7400BAE903020DAA1C
:060B7A00BAEA03020D7946
:060B8000BAEB03020E2A8D
:030B8600020E4A12
:0B0B890090E6BAE0FAA3E0FB8A0B8BB9
:0A0B94000C90E6BEE0FAA3E0FB902F
:090B9E00E6B8E0FCBCC0028003D3
:030BA700020C3A03
:070BAA00EA4B7003020E4E3E
:080BB10090E6A0E0FC20E1F851
:080BB90090E6B9E0FCBCA211BA
:0A0BC100750D00750E00C002C003A0
:070BCB001210E8D003D00274
:090BD200C3EA9440EB94005006C4
:060BDB008A0D8B0E80065E
:060BE100750D40750E00C9
:080BE70090E6B9E0FCBCA20D90
:0D0BEF00C002C00312103BD003D002801AD8
:040BFC00850D0885D6
:030C00000E09904A
:040C0300E740850B36
:030C070013850C46
:0C0C0A0014C002C003120AC6D003D002BE
:080C160090E68AE4F0AC0DAD9C
:080C1E000E90E68BECF0EC25D2
:070C26000BFEED350CFF8E03
:0A0C2D000B8F0CEAC39CFAEB9DFB51
:030C3700020BAA03
:0A0C3A0078A7E608467003020CD10B
:0C0C440090E6BCE0FCA3E0FD78A7E6B55C
:090C5000040708E6B50502800264
:020C59008076A3
:080C5B0090E6B8E0FCBC406E1D
:070C6300EA4B7003020E4E84
:090C6A0090E68AE4F090E68BF0BC
:080C730090E6A0E0FC20E1F88E
:0A0C7B0090E68BE0FC7D008C0D8DEF
:090C85000E90E6B9E0FCBCA31FCF
:040C8E00850D088543
:030C92000E0985C3
:060C95000B82850C837543
:030C9B001340758E
:070C9E0014E7C002C00312BD
:080CA5000AC6D003D002800B47
:0B0CAD00C002C0031210E8D003D00208
:060CB800AC0DAD0EEC25B1
:070CBE000BFEED350CFF8E6B
:0A0CC5000B8F0CEAC39CFAEB9DFBB9
:020CCF00809211
:040CD1007582002206
:0A0CD50090E6B8E0FABAC00280030E
:030CDF00020E4EB4
:080CE20090E6A0E0FA20E1F821
:0E0CEA0090E7407409F0A37403F090E68AE4EA
:0A0CF800F090E68B7402F0020E4E3D
:0A0D020090E6B8E0FABAC0028003E0
:030D0C00020E4E86
:080D0F0090E6A0E0FA20E1F8F3
:0E0D170090E740740DF0A3E4F0A3F0A3F09079
:0B0D2500E744E4F5F012336CA3E41285
:0A0D3000336CA3E412336CA3E41249
:080D3A00336C90E68AE4F090AE
:080D4200E68B7408F0020E4E6E
:080D4A0090E6B8E0FABA40237C
:090D520090E68AE4F090E68BF0D3
:080D5B0090E6A0E0FA20E1F8A7
:0C0D630090E740E0FAA3E0FB78A7A602AE
:060D6F0008A603020E4E6F
:040D75007582002261
:080D790090E6B8E0FABA40254B
:070D810078A7E60846601E9A
:0C0D880090E6BCE0FAA3E0FB78A7E6B51B
:090D9400020708E6B50302800223
:020D9D008007CD
:070D9F00789E7601020E4E62
:040DA6007582002230
:070DAA00750BF0750C3F759D
:060DB1000D04750E007533
:060DB7000FCD7510AB909A
:070DBD00E6B8E0FABAC0033A
:030DC400020E52CA
:030DC700020F6BAD
:070DCA00750BE0750C3F758D
:060DD1000D0C750E00750B
:060DD7000F787510569024
:070DDD00E6B9E0FABAE403F5
:030DE400020E52AA
:030DE700020F6B8D
:070DEA00750BC0750C3F758D
:060DF1000D10750E0075E7
:060DF7000FCD7510AB905A
:070DFD00E6B9E0FABAE203D7
:030E0400020E5289
:030E0700020F6B6C
:070E0A00750BA0750C3F758C
:060E11000D1C750E0075BA
:060E17000FCD7510AB9039
:070E1D00E6B8E0FABAC003D9
:030E2400020E5269
:030E2700020F6B4C
:070E2A00750BF8750C3F7514
:060E31000D02750E0075B4
:060E37000FCD7510AB9019
:070E3D00E6B8E0FABAC003B9
:030E4400020E5249
:030E4700020F6B2C
:040E4A00758200228B
:030E4E00758201A9
:010E5100227E
:0C0E52007AFF90E6B8E0FBBBC002800411
:040E5E007582002277
:050E6200AB0DAC0E75A4
:0A0E67000D00750E00C002C003C0AC
:0E0E7100041210E8D004D003D00274032BFB4F
:0A0E7F00E43CFC8B0D8C0EC0021247
:0A0E8900103BD002E50D24FDFBE54F
:070E93000E34FFFC8B0D8CF7
:0B0E9A000E90E740E0FBA3E0FCEBB58E
:060EA5000F48ECB51044FB
:040EAB007A007B004E
:0A0EAF007403250DFCE4350EFD8BE5
:0A0EB900067F00C3EE9CEF9D502C55
:0A0EC300EB2440F582E434E7F583E8
:0A0ECD00E0FC2AFAEB2440FCE434B8
:0A0ED700E7FD74022B2440F582E4CD
:0C0EE10034E7F583E0FE8C828D83F00B7B
:020EED0080C0C3
:030EEF00EA606452
:040EF200850D0885DD
:030EF6000E099052
:090EF900E6B9E0FABAE102803426
:050F0200BAE202803D8F
:050F0700BAE4028005C0
:050F0C00BAE943801763
:020F11007A0064
:030F1300BA0C0015
:020F1600503E4B
:0A0F1800EA2440F582E434E7F58393
:060F22007430F00A80EBC0
:050F280090E740751385
:030F2D006E7514CA
:060F300034120AC6802005
:050F360090E740751377
:030F3B00727514B8
:060F3E0034120AC6801205
:050F440090E740751369
:030F49008E75148E
:060F4C0034120AC6800405
:040F52007582002282
:0C0F560090E68AE4F000000090E68BE5D5
:080F62000DF000000075820192
:010F6A002264
:080F6B0090E6B8E0FABA401C60
:070F730078A7E608466015AF
:0C0F7A0090E6BCE0FAA3E0FB78A7E6B527
:090F8600020708E6B5030280042D
:040F8F007582002245
:090F930090E68AE4F090E68BF090
:080F9C0090E6A0E0FA20E1F864
:070FA40090E68AE0FA7014E8
:050FAB00AA0DAB0E9041
:0E0FB000E68BE0FC7D00B50206EDB503028085
:010FBE00042E
:040FBF007582002215
:060FC3008A15AD158D0634
:060FC9008E071EEF6025FB
:0C0FCF00C002C00374022E2440FFE43472
:090FDB00E7FCEE2440F582E43449
:0C0FE400E7F583E0FA8F828C83F0D003E5
:040FF000D00280D5D6
:080FF40090E740E50FF0A3E5D2
:050FFC0010F07C407EB6
:0A100100E78E9A759B407C00740294
:03100B002515FDAB
:09100E0090E67BE0FE2CFCDDF70E
:0A101700740225152440F582E4342C
:0C102100E7F583C3E49CFCF074032AFA9A
:08102D00E43BFB8A0D8B0E125F
:0510350010E8758201C6
:01103A002293
:05103B00E50DFA700450
:041040007582012292
:0810440090E678E0FB20E6F8DD
:0C104C0090E6787480F090E67974A3F0D0
:0810580090E678E0FB30E0F8BF
:0810600090E678E0FB20E27449
:0810680090E678E0FB30E16C3A
:03107000BA0108BA
:0810730090E678E0FB4420F058
:07107B0090E679E07B407C68
:06108200E78C9A7B407C24
:05108800E77C008B9BDA
:04108D00DA028026DD
:0810910090E678E0FB30E0F886
:0810990090E678E0FB20E23B49
:0310A100BA010889
:0810A40090E678E0FB4420F027
:0B10AC0090E679E0FB90E67BF080D638
:0810B70090E678E0FA30E0F861
:0810BF0090E678E0FA20E2154A
:0E10C70090E678E0FA4440F090E679E0FA9086
:0710D500E67BF075820122A9
:0B10DC0090E678E0FA4440F0758200D6
:0110E70022E6
:0210E800AA0D4F
:0810EA0090E678E0FB20E6F837
:0C10F20090E6787480F090E67974A2F02B
:0810FE0090E678E0FB30E0F819
:0811060090E678E0FB20E26BAB
:08110E0090E678E0FB30E1639C
:03111600EA600E7E
:071119007B407CE78C9A7B10
:07112000407CE77C008B9B83
:021127007B0249
:03112900EA700366
:03112C00EB603B3A
:03112F00EB60145E
:03113200BB0208F5
:0811350090E679E50CF080065C
:06113D0090E679E50BF0DD
:031143001B800A04
:0A11460090E67BE0FC90E679F01AD9
:0811500090E678E0FC30E0F8C5
:0811580090E678E0FC20E219AA
:0811600090E678E0FC20E1C1FB
:02116800800FF6
:0E116A0090E678E0FA4440F01211857582019B
:011178002254
:0B11790090E678E0FA4440F075820038
:011184002248
:0811850090E678E0FA20E6F89C
:0E118D0090E678E0FA4480F090E67974A2F0E3
:08119B0090E678E0FA30E0F87C
:0811A30090E678E0FA4440F008
:0811AB0090E678E0FA20E6F876
:0811B30090E678E0FA30E1D289
:0111BB002211
:0811BC0090E678E0FA4440F0EF
:0811C40090E678E0FA20E6F85D
:0111CC002200
:0711CD00AA8290E679EAF026
:0811D40090E678E0FA30E0F843
:0811DC0090E678E0FA20E20839
:0811E40090E678E0FA20E10733
:0711EC001211BC78AC762360
:0611F30078ACE6B4010037
:0411F900E433F58264
:0111FD0022CF
:0C11FE00AA8290E6787480F0EA2AFAE5F4
:0B120A00164AF5821211CDE582700437
:0412150078AC762219
:0612190078ACE6B4010010
:04121F00E433F5823D
:0112230022A8
:091224007516017582510211FEDC
:0C122D00AA82AB83751600758251C002C6
:0D123900C0031211FEE582D003D002601147
:0E1246008B82C002C0031211CDE582D003D00E
:0312540002700421
:041257007C00800295
:02125B007C0114
:03125D00EC600B37
:0B1260007B008A821211CDE582700431
:04126B007A00800283
:02126F007A0102
:021271008A826F
:011273002258
:06127400E4F517F518F582
:07127A0008F5097582081256
:0612810007E3120801ACB6
:041287000FAD10AEE9
:0A128B0011AF12C3E49C74209DE42F
:051295009EE49F4028CB
:04129A00850B198522
:03129E000C1A85A2
:0312A1000D1B859D
:0412A4000E1CEC250B
:0812A80019FCED351AFDEE35CD
:0A12B0001BFEEF351CFFC3E49C7425
:0812BA00209DE49EE49F500A10
:0A12C20078AC760975820002080A74
:0912CC00AC19741C251AFDE4356F
:0712D5001BFEE4351CFF8C39
:0412DC000B8D0C8EDC
:0412E0000D8F0E85DB
:0612E4000B82850C831251
:0612EA00122DE5827005E3
:0512F000F58202080A6E
:0A12F5001211BC75820012080AE510
:0412FF000F45104542
:051303001145126028F5
:0A1308001212247401B50F0EE4B5B3
:08131200100AE4B51106E4B570
:04131A001202800239
:02131E00800845
:0813200090E678E0FC4420F0A7
:0813280090E679E0F50A80036C
:031330007518012C
:04133300E518600752
:07133700E51760030214B486
:09133E00120775E4B50A02803FB4
:051347007401B50A0C61
:04134C00E517700829
:08135000751701120801802E3F
:051358007402B50A1C3F
:07135D00120801E5187022DF
:0C13640090E6A57401F00000007518016F
:0913700078AC76021211BC800D6C
:04137900E518700300
:03137D001211BC8E
:061380007517000214B411
:04138600E51870A94D
:05138A00E5AA20E5A426
:07138F007C007DF88D9D7CC0
:08139600007DF87D008C9E85AE
:03139E000F1D859B
:0313A100101E8596
:0313A400111F8591
:0313A70012209081
:0713AA00E680E0FA30E706DF
:0613B1007A007B028004BB
:0413B7007A407B00FD
:0C13BB00EB3395E0FCFDC3EA951DEB95BB
:0613C7001EEC951FED95E0
:0313CD0020501499
:0813D00090E680E0FA30E70628
:0613D8007A007B02800494
:0413DE007A407B00D6
:0213E200800485
:0413E400AA0FAB1091
:0413E8008A088B09DB
:0713EC00E50845097003024A
:0213F300149F45
:0713F500E518600302149FDC
:0813FC0090E678E0FC30E0F817
:0814040090E678E0FC30E218EC
:08140C0078AC762375180190FD
:0C141400E6A57401F0EAC39508FAEB9518
:0414200009FB80C87C
:0A1424007402B50F0EE4B5100AE4DF
:09142E00B51106E4B512028002BA
:0214370080082B
:0814390090E678E0FC4420F08D
:0A1441007401B50F0EE4B5100AE4C3
:09144B00B51106E4B5120280029D
:02145400800B0B
:0B145600C002C0031211BCD003D00282
:0A14610090E679E0FC90E67CF015BF
:07146B000874FFB50802152B
:011472000970
:05147300AC0FAD10AE4E
:0A14780011AF121CBCFF091DBDFFDF
:06148200051EBEFF011F64
:051488008C0F8D108E99
:0A148D00118F12EC4D4E4F60030268
:0214970013EC54
:061499007518010213ECBE
:0E149F0090E698EBF00000007B0090E699EAE2
:0714AD00F000000002133300
:0714B400120935E51760067F
:0614BB0075820002080A20
:0114C1002208
:0714C2007521007522007581
:0614C9002301E4F508F523
:0814CF00097582081207E312FF
:0514D7000801AD0FAE9D
:0414DC0010AF11AC90
:0C14E00012C3E49D74209EE49FE49C4035
:0114EC001CE3
:0A14ED00ED250BFDEE350CFEEF358A
:0A14F7000DFFEC350EFCC3E49D74FC
:08150100209EE49FE49C500AC7
:0A15090078AC760975820002080A2A
:0B15130075820012080AAC0B741C2546
:08151E000CFDE4350DFEE4357F
:051526000EFF8C0B8D8F
:04152B000C8E0D8F86
:04152F000EE50F4571
:041533001045114509
:031537001270032C
:03153A0075220116
:04153D00E52260073C
:07154100E521600302166FB3
:09154800120775E4B50A028035B2
:051551007401B50A0C55
:04155600E521700813
:08155A00752101120801802433
:051562007402B50A1936
:07156700120801E5227018D3
:0C156E0090E6A37401F00000007522015B
:06157A0078AC7602800649
:0615800075210002166F48
:04158600E52270B337
:05158A00E5AA20E0AE1F
:07158F007C007DF08D9A7CC9
:08159600007DF07D008C9B90AC
:0E159E00E690E0FC8C057C0090E691E0FE7F7C
:0815AC00002CF508EF3DF509E4
:0615B400E5084509608313
:0715BA00E522600302153D6C
:0415C100E523600CB2
:0715C500850B82850C8312E7
:0515CC00122D75230043
:0515D10078ACE6700E8D
:0E15D60090E67BE0FCF5821211CDE582700BF1
:0B15E40075220190E6A37401F080C5A1
:0815EF00150874FFB508021590
:0115F70009EA
:0515F800AC0FAD10AEC8
:0715FD0011AF12EC24FFF511
:0A16040024ED34FFF525EE34FFF568
:07160E0026EF34FFF52785EC
:03161500240F851A
:0316180025108515
:03161B0026118510
:03161E002712AAE6
:041621000BAB0CAC57
:0A1625000DAD0E0ABA00090BBB0060
:06162F00050CBC00010DDA
:051635008A0B8B0C8CF8
:04163A000D8D0EE51F
:04163E0024452545D5
:0516420026452770039E
:0316470075220108
:06164A00E50845097006E9
:0616500090E6497482F0EF
:04165600E522700910
:06165A00E50B543F6003A4
:031660000215B4BC
:071663001211BC1211857584
:05166A0023010215B48C
:04166F00E5237006F9
:061673001211BC121185EA
:071679001208FDE5216006E7
:0616800075820002080A59
:011686002241
:05345F00010200000065
:05346400010000000062
:0534690001000000005D
:04346E000800000052
:0E3472004F6E626F6172642055534220380025
:0E3480000000FDFDFDFD00000000089016405C
:0E348E00444F6E62557362000000FDFDFDFDAF
:02349C0000002E
:0716870078AAB602028060A0
:07168E0078ABB600028011E9
:0B16950012080178AC760C7582001280
:0616A000080A7582012218
:0516A60078AAE6701FA8
:0616AB00789FE630E0111B
:0B16B10012080178AC7603758200126D
:0616BC00080A75820122FC
:0816C200789FE64401F6802444
:0516CA0078AAB601083A
:0816CF00789FE654FEF6801737
:0616D700789FE620E011FF
:0B16DD0012080178AC76047582001240
:0616E800080A75820122D0
:0A16EE0078AAE624F450030217DE88
:0A16F80078AAE625E0269017027399
:071702000217260217360250
:0617090017460217DE0284
:06170F00175302176C02E3
:0617150017A00217D70225
:06171B0017C90217C90204
:0517210017D00217C9FA
:0A1726001217E2120801758200128A
:06173000080A7582012287
:0A1736001217F2120801758200126A
:06174000080A7582012277
:0D17460090349E75F0801208997582012282
:07175300120801750B00757F
:06175A000C6A750D187504
:0C1760000E0075820412080A7582012236
:07176C0090E67BE0FA600447
:04177300D2B380026B
:02177700C2B3FB
:0717790090E67BE0FA60043A
:04178000D2B280025F
:02178400C2B2EF
:0717860090E67BE0FA60042D
:04178D00D2B4800250
:02179100C2B4E0
:0D17930012080175820012080A75820122F9
:0C17A000120801A2B3E433FA8A0BA2B2D3
:0B17AC00E433FA8A0CA2B0E433FA8A9E
:0A17B7000DA2B4E433FA8A0E758225
:0817C1000412080A75820122DE
:0717C900121BAD7582012225
:0717D000121FB47582012213
:0717D7001217FC75820122CC
:0317DE0075820011
:0117E10022E5
:0E17E20043B50443B50843B510C2B2D2B3C23A
:0117F000B444
:0117F10022D5
:0917F20053B5E3C2B2D2B3C2B494
:0117FB0022CB
:05349E00010200000026
:0534A300010000000023
:0534A80001000000001E
:0B17FC007A007B0090E67BE0FC6004BC
:04180700D2B38002D6
:02180B00C2B366
:07180D0090E67BE0FC6004A3
:04181400D2B28002CA
:02181800C2B25A
:0E181A00C2B4758204C002C0031207E3D003FB
:0E18280000C00312080175820012080AD003E6
:07183600D002AC0BAD0CAEBB
:04183D000DAF0E8C51
:041841000F8D108E69
:09184500118F12EC4D4E4F7002A0
:02184E007B011C
:03185000EB600644
:06185300EA600302190126
:0D185900C002C003120775D003D002E4B531
:041866000A028031C1
:05186A007401B50A0F36
:0E186F007A01C002C003120801D003D002802B
:01187D001D4D
:05187E007402B50A131D
:0B1883007B0178AC7602C002C00312AB
:08188E000801D003D00280051F
:051896007A00021901B7
:03189B00EB70B23D
:05189E00AC0BAD0CAE27
:0A18A3000DAF0EC3ED94FEEE9400AD
:0518AD00EF940050065D
:0618B2008C088D09800680
:0618B8007508007509FE31
:0818BE00AC08AD09E4FEFFE5F2
:0918C6000BC39CFCE50C9DFDE543
:0818CF000D9EFEE50E9FFF8C4B
:0418D7000B8D0C8EDB
:0818DB000D8F0EC000C001A832
:0418E30008A909093E
:0E18E700D2B4C2B4D8FAD9F8D001D000EC4D7A
:0718F5004E4F600302185082
:0518FC007B0102185001
:03190100EA602970
:07190400E50FC3950BFAE5A6
:05190B0010950CFBE546
:0519100011950DFCE53E
:0519150012950EFD8A91
:04191A000B8B0C8C9B
:04191E000D8D0E78A5
:0B192200ACE64480F675820402080A5F
:01192D002297
:0A192E00C001C002A908AA09E9607F
:02193800010AA2
:03193A0090E67BB9
:0E193D00E01392B2D2B4C2B41392B2D2B4C2CA
:0E194B00B41392B2D2B4C2B41392B2D2B4C2E8
:0E195900B41392B2D2B4C2B41392B2D2B4C2DA
:0E196700B41392B2D2B4C2B41392B2D2B4C2CC
:09197500B4D9C5DAC3D002D001D7
:01197E002246
:0A197F00C001C002A908AA09E9602E
:02198900010A51
:0A198B0090E67B058690E67C058659
:0E199500E01392B2A2B013D2B4C2B492B2A2C6
:0E19A300B013D2B4C2B492B2A2B013D2B4C286
:0E19B100B492B2A2B013D2B4C2B492B2A2B039
:0E19BF0013D2B4C2B492B2A2B013D2B4C2B466
:0E19CD0092B2A2B013D2B4C2B492B2A2B013BE
:0E19DB00D2B4C2B40586F00586D9AFDAADD01D
:0319E90002D00128
:0119EC0022D8
:0A19ED00C001C002A908AA09E960C0
:0219F700010AE3
:0319F90090E67CF9
:0E19FC00A2B0D2B4C2B413A2B0D2B4C2B4131B
:0E1A0A00A2B0D2B4C2B413A2B0D2B4C2B4130C
:0E1A1800A2B0D2B4C2B413A2B0D2B4C2B413FE
:0E1A2600A2B0D2B4C2B413A2B0D2B4C2B413F0
:091A3400F0D9C2DAC0D002D001E1
:011A3D002286
:0A1A3E00C001C002A908AA09E9606E
:021A4800010A91
:031A4A0090E67BA8
:0E1A4D00E01392B3D2B4C2B41392B3D2B4C2B7
:0E1A5B00B41392B3D2B4C2B41392B3D2B4C2D5
:0E1A6900B41392B3D2B4C2B41392B3D2B4C2C7
:0E1A7700B41392B3D2B4C2B41392B3D2B4C2B9
:091A8500B4D9C5DAC3D002D001C6
:011A8E002235
:0A1A8F00C001C002A908AA09E9601D
:021A9900010A40
:0A1A9B0090E67B058690E67C058648
:0E1AA500E01392B3A2B013D2B4C2B492B3A2B3
:0E1AB300B013D2B4C2B492B3A2B013D2B4C274
:0E1AC100B492B3A2B013D2B4C2B492B3A2B026
:0E1ACF0013D2B4C2B492B3A2B013D2B4C2B454
:0E1ADD0092B3A2B013D2B4C2B492B3A2B013AB
:0E1AEB00D2B4C2B40586F00586D9AFDAADD00C
:031AF90002D00117
:011AFC0022C7
:0A1AFD00C001C002A908AA09E960AF
:021B0700010AD1
:031B090090E67BE8
:0E1B0C00E01392B21392B3D2B4C2B41392B2E9
:0E1B1A001392B3D2B4C2B41392B21392B3D2E8
:0E1B2800B4C2B41392B21392B3D2B4C2B4D901
:071B3600D5DAD3D002D00183
:011B3D002285
:0A1B3E00C001C002A908AA09E9606D
:021B4800010A90
:0A1B4A0090E67B058690E67C058698
:021B54007C0211
:0E1B5600E01392B21392B3FBE8A2B013F8EBC7
:0E1B6400D2B4C2B41392B21392B3FBE8A2B093
:0E1B720013F8EBD2B4C2B41392B21392B3FBC9
:0E1B8000E8A2B013F8EBD2B4C2B41392B213C1
:0E1B8E0092B3FBE8A2B013F8EBD2B4C2B4DC01
:0E1B9C00B9E80586F0058619D9AEDAACD0029C
:021BAA00D00168
:011BAC002216
:071BAD00752900752B00757E
:071BB4002C0078AAB6082AF4
:081BBB0075290190E67BE0F5BD
:081BC3002890E67BE0FE6004BF
:041BCB00D2B380020F
:021BCF00C2B39F
:041BD100E52860089B
:041BD500752D7F7576
:041BD9002E19805AE7
:041BDD00752D2E75BF
:041BE1002E198052E7
:051BE50078AAB60925F5
:0A1BEA0075280190E67BE0FC600422
:041BF400D2B38002E6
:021BF800C2B376
:071BFA0090E67BE0FC6004B3
:041C0100D2B28002D9
:021C0500C2B269
:041C0700752DED75D5
:041C0B002E198028E6
:081C0F0075290190E67BE0F568
:081C17002890E67BE0FC60046C
:041C1F00D2B28002BB
:021C2300C2B24B
:041C2500E528600846
:041C2900752D8F7511
:041C2D002E1A8006E5
:041C3100752D3E755A
:021C35002E1A65
:0D1C37007582041207E31208017582001285
:041C4400080A850BFA
:031C48002F850CD9
:031C4B0030850DD4
:031C4E0031850ECF
:031C510032852FAA
:031C54000F8530C9
:031C5700108531C4
:031C5A00118532BF
:0A1C5D00127407552FFD7A007B007A
:071C67007C008D2AAA2FE585
:0C1C6E0030C423CAC423541F6ACA541F88
:0C1C7A00CA6ACAFBE531C42354E04BFBEE
:0A1C8600AC31E532C423CCC4235472
:0C1C90001F6CCC541FCC6CCCFE8A0B8B5C
:041C9C000C8C0D8E11
:051CA0000EE52A601DA5
:051CA500AA0BAB0CAC22
:0A1CAA000DAE0E0ABA00090BBB00D4
:061CB400050CBC00010E4E
:051CBA008A0B8B0C8C6D
:031CBF000D8E0E79
:051CC200E50F4510458F
:051CC70011451270033D
:031CCC00752B0174
:021CCF00C2B49D
:041CD100E52B600798
:071CD500E52C6003021EC7AD
:071CDC00120775E50A602CF8
:051CE3007401B50A0CBC
:041CE800E52C70086F
:081CEC00752C01120801801B98
:051CF4007402B50A10A6
:071CF900120801E52B700F3A
:091D000078AC7602752B01800617
:061D0900752C00021EC74C
:041D0F00E52960055D
:051D1300E5AA20E0B983
:041D1800E528600555
:051D1C00E5AA20E5B07E
:041D2100E52B70AC92
:041D2500E529600E3E
:071D29007A007BF08B9A7A2F
:071D3000007BF07B008A9BA1
:041D3700E528600E2D
:071D3B007A007BF88B9D7A12
:071D4200007BF87B008A9E84
:041D4900E52960190F
:0E1D4D0090E690E0FA8A037A0090E691E0FCBE
:0A1D5B007E004AF508EE4BF5098002
:011D65005429
:041D6600850B338531
:031D6A000C3485B1
:031D6D000D3585AC
:031D70000E36909C
:071D7300E680E0FF30E70607
:061D7A007A007B028004E8
:041D80007A407B002A
:0C1D84008A07EBFD3395E0FAFBC3EF95F6
:061D900033ED9534EA95E5
:061D960035EB95365018F4
:081D9C0090E680E0FA30E70652
:061DA4007A007B028004BE
:041DAA007A407B0000
:061DAE008A088B09800683
:041DB40085330885E6
:021DB8003409EC
:081DBA00AA08AB09E4FCFDE5F9
:091DC2000BC39AFAE50C9BFBE54A
:081DCB000D9CFCE50E9DFD8A54
:041DD3000B8B0C8CDE
:041DD7000D8D0EE57B
:031DDB002A601368
:051DDE00E50B450C457A
:051DE3000D450E700922
:081DE800150874FFB50802158F
:011DF00009E9
:061DF100E5084509600948
:071DF700852D82852E831269
:021DFE00006B78
:071E0000E52A7003021E91A8
:051E0700E50B450C4550
:061E0C000D450E6003020B
:021E12001E911F
:061E1400AA2AE529700B6B
:031E1A0030B204DF
:041E1D007BFF8002C5
:021E21007B0044
:021E2300800538
:051E250090E67BE0FBEC
:051E2A0078AAB60B1DB3
:021E2F008A0423
:0B1E3100EBA2E092B3C313FB30B0053E
:051E3C00430380800358
:031E410053037FC9
:061E4400D2B4C2B4DCE7D9
:021E4A008019FD
:0B1E4C00EBA2E092B2C313FB30B00524
:051E570043038080033D
:031E5C0053037FAE
:061E5F00D2B4C2B4DAE7C0
:041E6500E528601DEF
:0C1E6900AD2A7A007408C39DFDE49AFACB
:071E75008DF005F0EB800287
:021E7C00C3138E
:081E7E00D5F0FBFB90E67CF0BF
:071E8600752A000508E4B510
:041E8D000802050939
:041E9100E5296009D6
:091E950090E6497482F00000009F
:041E9E00E5286012C1
:0A1EA20090E698E509F000000090BA
:081EAC00E699E508F0000000D2
:051EB400E50B450C45A3
:061EB9000D450E6003025E
:021EBF001CD134
:061EC100752B01021CD18B
:071EC7001208FD120935E5C8
:041ECE002C70012251
:041ED200E52A601D80
:051ED600AA0BAB0CACEF
:0A1EDB000DAD0E1ABAFF091BBBFF84
:061EE500051CBCFF011DFD
:051EEB008A0B8B0C8C3A
:031EF0000D8D0E47
:041EF300850D35E53F
:0A1EF7000EC40354F8C535C403C53A
:041F0100356535C548
:061F05003554F8C53565F6
:041F0B0035F536E58D
:081F0F000CC40354074535F52D
:031F170035850B02
:081F1A0033E50CC40354F8C5C3
:061F220033C403C5336562
:061F280033C53354F8C577
:041F2E00336533F5EF
:031F3200348533C0
:031F35000B8534E5
:031F38000C8535E0
:031F3B000D8536DB
:091F3E000EAE2AE4FFFAFBEE25C9
:081F470033FEEF3534FFEA35EB
:071F4F0035FAEB3536FB8E7D
:041F56000B8F0C8A57
:041F5A000D8B0EE5F8
:091F5E000FC39EFEE5109FFFE594
:081F6700119AFAE5129BFB8EB2
:041F6F000F8F108A36
:041F7300118B128E2E
:041F77000B8F0C8A36
:041F7B000D8B0EE5D7
:031F7F00296004D2
:041F82007A808002DF
:021F86007A00DF
:041F8800E5286004E4
:041F8C007B40800214
:021F90007B00D4
:0A1F9200EB4A78AC46F6E52960043E
:041F9C007A04800241
:021FA0007A00C5
:041FA200E5286004CA
:041FA6007B04800236
:021FAA007B00BA
:071FAC00EB2AF58202080A8E
:011FB300220B
:071FB4007538007539007556
:071FBB003A0090E67BE0F51F
:081FC200377582041207E312D7
:091FCA00080175820012080A8565
:031FD3000B3D853E
:031FD6000C3E8539
:031FD9000D3F8534
:031FDC000E40852F
:031FDF003D0F852E
:031FE2003E108529
:031FE5003F118524
:031FE8004012E5BF
:041FEB003D453E45ED
:051FEF003F45407003B6
:031FF4007539013B
:0C1FF7007407553DFAE4FDFBFC74032563
:082003003DFBE4353EFCE43531
:07200B003FFDE43540FE8BB0
:042012000B8C0C8D9A
:0A2016000DEEF50EC313FEED13FDF1
:0E202000EC13FCEB13FBEEC313FEED13FDEC13
:0A202E0013FCEB13FB8B0B8C0C8DE5
:042038000D8E0EE516
:03203C0037600802
:04203F00753B3E753A
:042043003C1B8006BC
:04204700753BFD7573
:02204B003C1A3D
:02204D00C2B41B
:04204F00E539600708
:07205300E53A600302225090
:0B205A00C002120775D002E50A6034D6
:052065007401B50A1032
:04206A00E53A700CD7
:0C206E00753A01C002120801D002801F68
:05207A007402B50A1418
:0B207F00C002120801D002E539700F0A
:09208A0078AC760275390180067C
:06209300753A0002225024
:05209900E5AA20E0B102
:04209E00E5376005BD
:0520A200E5AA20E5A8FD
:0420A700E53970A403
:0720AB007D007EF08E9A7D9E
:0820B200007EF07E008D9BE52D
:0320BA003760127A
:0420BD00E538700E84
:0720C1007D007EF88E9D7D7D
:0720C800007EF87E008D9EF2
:0E20CF0090E690E0FD8D067D0090E691E0FF2A
:0A20DD007B002DF508EB3EF509AB82
:0720E70008AC09E4FDFEE571
:0920EE000BC39BFBE50C9CFCE517
:0820F7000D9DFDE50E9EFE8B20
:0420FF000B8C0C8DAD
:062103000D8E0EEA602CB7
:05210900E50B450C454B
:05210E000D450E7022DA
:0E2113008A03FC74032BFBE43CFCA2E713CB15
:0C21210013CBA2E713CB13CBFCE508C3E3
:07212D009BF508E5099CF594
:0121340009A1
:06213500E5084509600DFC
:09213B00C002853B82853C831241
:04214400006BD0025A
:06214800EA70030221CD44
:05214E00E50B450C4506
:052153000D450E707542
:092158007B0090E67BE0FC7D00B9
:05216100C3ED9A5023BC
:03216600BD0405B0
:0521690090E67BE0FCA4
:0E216E00ECA2E092B2C313FCA2E092B3C31342
:06217C00FCEBA2B013FB16
:07218200D2B4C2B40D80D8F5
:04218900E537601CBA
:0E218D008A047D007408C39CFCE49DFD8CF068
:05219B0005F0EB8002DD
:0221A000C31367
:0721A200D5F0FB90E67CF094
:0E21A9008A037C0074032BFBE43CFCA2E713CA
:0C21B700CB13CBA2E713CB13CBFCEB2522
:0521C30008F508EC35F1
:0521C80009F5097A0091
:0421CD00E53760632F
:0521D100E50B450C4583
:0521D6000D450E600440
:0421DB00E538605231
:0721DF000508E4B508020544
:0121E60009EF
:0821E700E509C313C50813C587
:0421EF0008F509E501
:0321F3003860242D
:0821F60090E680E0FB30E706F3
:0621FE007B007C0280045E
:042204007B407C009F
:0C220800ECA2E713CB13CBFCEB2508F590
:0522140008EC3509F59E
:0122190009BB
:0A221A0090E698E509F0000000903E
:09222400E699E508F000000075E0
:04222D0038008003F2
:03223100753801FC
:0C22340090E6497482F0000000E50B45C4
:042240000C450D45F7
:062244000E600302204FB2
:06224A0075390102204F6E
:0C225000C0021208FD00120935D002E5A2
:04225C003A700122B1
:0A226000E50B25E0FBE50C33FCE57F
:0A226A000D33FDE50E33FEEB2BFBF8
:0C227400EC33FCED33FDEE33FE8B0B8CE5
:042280000C8D0D8E26
:042284000EEA603DC1
:04228800EA30E21D39
:05228C00AB0BAC0CAD32
:0A2291000DAE0E1BBBFF091CBCFFC5
:06229B00051DBDFF011E40
:0522A1008B0B8C0C8D7D
:0322A6000D8E0E8C
:0A22A900E4FBFCFDEA250BFAEB351F
:0822B3000CFBEC350DFCED35D0
:0522BB000EFD8A0B8BF3
:0422C0000C8C0D8DE8
:0122C4000E0B
:0722C500E50FC3950BFAE5DC
:0522CC0010950CFBE57C
:0522D10011950DFCE574
:0522D60012950EFD8AC7
:0422DB000F8B108CC9
:0422DF00118D128AC1
:0422E3000B8B0C8CC9
:0422E7000D8D0EE566
:0322EB0037700841
:0522EE00F50FF510F5ED
:0322F30011F512D0
:0C22F60078ACE644C0F675820802080AC5
:0123020022B8
:0534AD00010200000017
:0534B200010000000014
:0534B70001000000000F
:0A230300C28CC28D78AD868A78ADD9
:03230D0008868CB3
:0123100022AA
:0723110078AAB60202806009
:0723180078ABB60002801152
:0B231F0012080178AC760C75820012E9
:06232A00080A7582012281
:0523300078AAE6701F11
:06233500789FE630E21182
:0B233B0012080178AC760375820012D6
:06234600080A7582012265
:08234C00789FE64404F68024AA
:0523540078AAB60108A3
:08235900789FE654FBF68017A3
:06236100789FE620E21166
:0B23670012080178AC760475820012A9
:06237200080A7582012239
:0A23780078AAE624F850030224625C
:0A23820078AAE625E02690238C736C
:07238C000223A40223A402B6
:0623930023B60223C30281
:062399002448022450025A
:05239F00245802245D3A
:0C23A40012080178ADE4F608F67582001E
:0623B00012080A02246677
:0D23B6009034C175F08012089975820122E3
:0A23C3007582041207E31208017589
:0623CD0053FAE4F554F59B
:0423D30055F55685E1
:0623D7000B82850C8385DA
:0523DD000DF0E50E12F9
:0C23E2003307AA82AB83ACF0FD8A0B8BA2
:0423EE000C8C0D8DB9
:0723F2000EEC7003ED600C1E
:0723F900750BFF750CFF7569
:052400000D00750E0047
:09240500E50BF4FAE50CF4FBE52B
:08240E000DF4FCE50EF4FD786D
:08241600ADA60208A603850B28
:03241E0053850CD7
:0324210054850DD2
:0324240055850ECD
:0C242700569000FAE4F5F0123385AA820A
:0A243300AB83ACF0FD8A0B8B0C8C20
:07243D000D8D0E75820412E3
:04244400080A801EE4
:0824480075820112281E8016A6
:0824500075820012281E800EA7
:052458001224DA8009E6
:05245D00122659800465
:04246200758200225D
:032466007582017B
:012469002250
:0E246A0090E6F3E0FA4480F000000090E67B7C
:0C247800E0FA90E6F1F00000000224BA47
:0E24840090E6F3E0FA547FF000000090E67B53
:0C249200E0FA90E6F1F00000000224BA2D
:0B249E0090E6F1E01224BAE582600D28
:0D24A90090E6F2E0FA90E67CF075820122E8
:0324B6007582002C
:0124B9002200
:0524BA00122303D28C87
:0524BF00E5BB20E7036E
:0324C400308DF860
:0524C700E5BB30E70455
:0424CC0075820122F2
:0924D00090E6F574FFF07582003E
:0124D90022E0
:0A24DA00E4FAFBF508F50975820429
:0D24E400C002C0031207E3D00300C00312C2
:0D24F100080175820012080AD003D002AC69
:0424FE000BAD0CAE68
:042502000DAF0E8C7F
:042506000F8D108E97
:09250A00118F12EC4D4E4F7002CE
:022513007B014A
:03251500EB600672
:06251800EA600302262523
:0D251E00C002C003120775D003D002E4B55F
:04252B000A028040E0
:05252F007401B50A1261
:03253400EA700F3B
:0E2537007A01C002C003120801D003D0028056
:01254500296C
:052546007402B50A1F3C
:0E254B00C002C003120801D003D002EB7016CC
:0C25590090E6A37401F00000007B017804
:05256500AC76028005C8
:05256A007A00022625A5
:03256F00EB70A36B
:06257200E5084509702A8E
:05257800E5AA20E025AA
:07257D007C007DF08D9A7CCB
:08258400007DF07D008C9B90AE
:0E258C00E690E0FC8C057C0090E691E0FE7F7E
:08259A00002CF508EF3DF509E6
:0725A200E508450970030282
:0225A9002515F6
:0E25AB00C002C00312246AE582D003D0027081
:0125B900061B
:0625BA0078AC76058052AA
:0E25C000C002C003122484E582D003D0027052
:0125CE000606
:0625CF0078AC7606803DA9
:0725D500E50824FEF508E50E
:0625DC000934FFF509AC13
:0425E2000BAD0CAE83
:0A25E6000DAF0E1CBCFF091DBDFF68
:0625F000051EBEFF011FE5
:0525F6008C0B8D0C8E22
:0925FB000D8F0EEC4D4E4F7002E5
:022604007B0158
:06260600E508450970061D
:06260C0090E6497482F023
:0826120078ACB60003022515A7
:0B261A007B0190E6A37401F00225157F
:0A262500C0021208FDD002EA60298D
:07262F00E50FC3950BFAE56E
:0526360010950CFBE50E
:05263B0011950DFCE506
:0526400012950EFD8A59
:042645000B8B0C8C63
:042649000D8D0E786D
:0B264D00ACE64480F675820402080A27
:01265800225F
:0A265900E4FAFBF508F509758204A8
:0D266300C002C0031207E3D00300C0031241
:0D267000080175820012080AD003D002ACE8
:04267D000BAD0CAEE7
:042681000DAF0E8CFF
:042685000F8D108E17
:09268900118F12EC4D4E4F70024E
:022692007B01CA
:03269400EB6006F2
:06269700EA60030227DEE9
:0D269D00C002C003120775D003D002E4B5DF
:0426AA000A0280465A
:0526AE007401B50A12E1
:0326B300EA700FBB
:0E26B6007A01C002C003120801D003D00280D6
:0126C4002FE6
:0526C5007402B50A25B6
:0E26CA00C002C003120801D003D002EB701C46
:0E26D80090E6A37401F000000090E6A57401E6
:0926E600F07B0178AC760280055E
:0526EF007A000227DE65
:0326F400EB709DEB
:0626F700E5084509703DF5
:0526FD00E5AA20E03811
:05270200E5AA20E5330B
:072707007C007DF08D9A7C3F
:08270E00007DF07D008C9B7C36
:06271600007DF88D9D7CA2
:08271C00007DF87D008C9E9009
:0E272400E690E0FC8C057C0090E691E0FE7FE4
:08273200002CF508EF3DF5094C
:07273A00E5084509700302E8
:022741002694DC
:0E274300C002C00312246AE582D003D00270E7
:012751000681
:0627520078AC7605806AF8
:0E275800C002C00312249EE582D003D002709E
:01276600066C
:0627670078AC76068055F7
:08276D00150874FFB508021500
:01277500095A
:05277600AC0BAD0CAE40
:0A277B000DAF0E1CBCFF091DBDFFD1
:06278500051EBEFF011F4E
:05278B008C0B8D0C8E8B
:092790000D8F0EEC4D4E4F70024E
:022799007B01C2
:06279B00E508450970216C
:0D27A10090E690E0FC90E698F000000090BB
:0C27AE00E691E0FC90E699F0000000903D
:0827BA00E6497482F000000002
:0827C20078ACB6000302269476
:0E27CA0090E6A37401F000000090E6A57401F3
:0627D800F07B01022694D3
:0E27DE00C0021208FD00120935D002EA603177
:0727EC00E50FC3950BFAE5B0
:0527F30010950CFBE550
:0527F80011950DFCE548
:0527FD0012950EFD8A9B
:042802000F8B108C9C
:04280600118D128A94
:04280A000B8B0C8C9C
:04280E000D8D0E78A6
:0B281200ACE644C0F675820802080A1C
:01281D002298
:0C281E008582417B007C00C003C00412D6
:0A282A00246AE582D004D003700D8B
:0B28340012080178AC760575820002E6
:02283F00080A85
:0E284100758204C003C0041207E3D00400C077
:0B284F0004120801D004D003E50B4583
:04285A000C450D45D7
:03285E000E7002F7
:022861007C01F8
:0A28630090E6F574FFF090E6CEE574
:09286D000EF000000090E6CFE53A
:092876000DF000000090E6D0E531
:09287F000CF000000090E6D1E528
:0C2888000BF0C003C004122303D004D0E6
:0A2894000390E6D1E0FDE541601C71
:0E289E0090E6187410F000000090E6D274016D
:0728AC00F0000000EC7031A8
:0728B300F5BB000000802AC4
:0E28BA00C003C004C005120960D005D004D0D0
:0E28C8000390E61A7408F000000090E6E27437
:0828D60002F0000000EC7006A6
:0628DE0075BB06000000BE
:0E28E400758200C003C004C00512080AD005AA
:0428F200D004D0033B
:0328F600EC60068D
:0628F900EB60030229F46C
:0E28FF00C003C004C005120775D005D004D078
:07290D0003E4B50A02806635
:052914007401B50A1674
:03291900EB70134D
:0E291C007B01C003C004C005120801D005D025
:05292A0004D003804B06
:05292F007402B50A422C
:0E293400C003C004C005120801D005D004D0B5
:0429420003EC7034FE
:0529460078ACE670040E
:04294B0078AC7602EC
:04294F00E5416008F6
:0829530090E6A37401F0800678
:06295B0090E6A57401F0F6
:08296100000000E5BB20E709BE
:0929690000000090E6F574FFF097
:042972007C01800460
:042976007B00807AE8
:05297A00E5BB20E75D54
:0A297F0090E6D1E0FEB505028012DB
:0E298900C003C004122303D004D00390E6D193
:04299700E0FD8024BB
:03299B00308D215B
:08299E0078AC7606E541600803
:0829A60090E6A37401F0800625
:0629AE0090E6A57401F0A3
:0B29B4007C0100000090E6F574FFF0CD
:0429BF00E541600589
:0529C300E5AA30E00F61
:0729C800E54160030228F65F
:0829CF00E5AA30E5030228F639
:0529D700D28C0228F67D
:0629DC00EC60030228F686
:0429E200E541700952
:0929E60090E6487406F0000000C0
:0529EF007C010228F646
:0E29F400C0031208FD00120935D003EB70017C
:012A020022B1
:0C2A030090E6CEE0FB7C007D007E008BA6
:052A0F00457542007551
:062A140043007544009030
:0E2A1A00E6CFE0FF7A007B008A048F03E4FA27
:082A2800FF4242EA4243EB4287
:052A300044EC4245905A
:0E2A3500E6D0E0FD7E007A008A038E028D0658
:092A4300E4FD4242EE4243EA4286
:052A4C0044EB4245903F
:0C2A5100E6D1E0FCE4FFFAFBE5424204A1
:092A5D00E5434207E5444202E5AD
:092A6600454203E50BC39CFCE5AD
:082A6F000C9FFFE50D9AFAE54A
:062A77000E9BFB8C0B8F8F
:042A7D000C8A0D8B27
:052A81000EE5416004B8
:042A86007A808002D0
:022A8A007A4090
:0B2A8C0078ACEA46F675820402080AE6
:012A9700221C
:0534BC00010200000008
:0534C100010000000005
:0534C600010000000000
:0D2A980090E60174FAF090E6F574FFF090FE
:0A2AA500356FE493FA90E6F3F09029
:0A2AAF003570E493FA90E6C3F0904E
:0A2AB9003571E493FA90E6C1F09045
:0A2AC3003572E493FA90E6C2F09039
:0A2ACD003574E493FA90E6C0F0902F
:0D2AD7003575E493FA90E6F4F075AF077AD8
:062AE400CB7B348B9A7AD3
:0A2AEA00CB7B347B008A9B759DE4D2
:052AF400759E007A0050
:032AF900BA8000A0
:022AFC00500C7C
:0C2AFE0090E67BE0FB90E67CF00A80EFA5
:0E2B0A0090E67174FFF075B4FF90E672E0FA89
:0E2B18004480F043B68000000090E6C4E4F074
:0E2B260000000090E6C5E4F090354BE493FA11
:0B2B340090E6C6F090354CE493FA9058
:0A2B3F00E6C7F090354DE493FA90DC
:0A2B4900E6C8F090354EE493FA90D0
:0A2B5300E6C9F090354FE493FA90C4
:0A2B5D00E6CAF0903550E493FA90B8
:0A2B6700E6CBF0903551E493FA90AC
:0A2B7100E6CCF0903552E493FA90A0
:032B7B00E6CDF0B4
:012B7E002234
:0E34CB0081B90101010101072303020202027F
:0E34D9000200F7F5F5F5F5F5F5F70000000037
:0E34E7000000003F0C8A9A3FA5B53F07210365
:0E34F500030103030500F3F3F2F3F3F1F3F721
:0E3503003F0000000000003F819138010101EF
:0E35110001070101070202020200F7F5F7F7B9
:0E351F00F7F7F7F7000075000000003F8191FC
:0E352D00380101010107030305000000000042
:0E353B00F3F1F3F3F3F3F3F700006E0000007A
:02354900003F41
:0E354B00000000000000000000000000000072
:0E355900000000000000000000000000000064
:0835670000000000000000005C
:07356F00E08000F7FA4E00B6
:072B7F0078AAB60202806093
:072B860078ABB600028011DC
:0B2B8D0012080178AC760C7582001273
:062B9800080A758201220B
:052B9E0078AAE6701F9B
:062BA300789FE630E3110B
:0B2BA90012080178AC76037582001260
:062BB400080A75820122EF
:082BBA00789FE64408F6802430
:052BC20078AAB601082D
:082BC700789FE654F7F6801731
:062BCF00789FE620E311EF
:0B2BD50012080178AC76047582001233
:062BE000080A75820122C3
:072BE60078AAE624FB403B46
:0A2BED0078AAE625E026902BF77386
:072BF700022C06022C06026D
:062BFE002C11022C1E0246
:022C04002C237F
:0B2C060012080175820012080A801BF2
:0D2C110090358075F08012089975820122BF
:052C1E00122C308009BA
:052C2300122F4980049E
:042C2800758200228F
:032C2C00758201AD
:012C2F002282
:072C300075460075470075B1
:092C370048007582081207E3123F
:0B2C4000080175820012080AC2809093
:0E2C4B00E618E4F000000090E61AE4F0000045
:0E2C59000090E6027468F000000090E630E49F
:0E2C6700F000000090E631E4F090E680E0FD21
:032C750030E7063F
:062C78007D007E028004D5
:042C7E007D407E0017
:052C82008D498E4AAFF0
:042C87000FAB10AAD5
:042C8B0011AC1285F1
:032C8F00494B8529
:032C92004A4C7534
:082C95004D00754E00C3EF95E0
:062C9D004BEB954CEA959B
:062CA3004DEC954E502C93
:052CA9008F498B4AADCC
:0C2CAE004A90E63474C04DF00000009025
:072CBA00E635E549F0E4F501
:042CC10008F5097594
:062CC5004701750F0075C8
:062CCB00100075110075F8
:042CD10012008072FB
:082CD50090E680E0FD30E713FA
:0E2CDD0090E63474C8F000000090E635E4F094
:052CEB00000000801252
:0E2CF00090E63474C0F000000090E6357440A9
:042CFE00F0000000E2
:0A2D0200EFC3954BFFEB954CFBEA85
:082D0C00954DFAEC954EFC8F89
:042D14000F8B108A87
:042D1800118C128583
:032D1C000F4F85D1
:032D1F00105085CC
:032D2200115185C7
:052D25001252C3EF95FE
:062D2A004BEB954CEA950D
:062D30004DEC954E500B26
:042D3600854F088538
:032D3A00500975C8
:042D3D0047018006C4
:042D41008549088533
:022D45004A0939
:0A2D470090E601E0FA4403F0D287A1
:042D5100E5486007EA
:072D5500E5466003022EC7F2
:072D5C00120775E50A602E65
:052D63007401B50A0C2B
:042D6800E5467008C4
:082D6C00120801754601801DEB
:052D74007402B50A1213
:072D7900120801E54870118A
:0A2D8000C28778AC76027548018026
:012D8A000642
:062D8B00754600022EC790
:042D9100E54870BCE5
:052D9500E5AA20E05852
:0E2D9A0090E690E0FA8A037A00EB3395E0FCB5
:082DA800FDE50BC39AF54FE5B0
:052DB0000C9BF550E54D
:052DB5000D9CF551E545
:052DBA000E9DF552859D
:032DBF004F0B8532
:032DC200500C852D
:032DC500510D8528
:032DC800520E9018
:0C2DCB00E691E0FEE4FFFAFBE54FC39E3A
:0A2DD700FEE5509FFFE5519AFAE572
:062DE100529BFB8E0B8FDC
:042DE7000C8A0D8BBA
:072DEB000E90E6497402F0AE
:0B2DF20090E6A9E0FA20E203022E9E0A
:0E2DFD0090E6A5E0FA530270BA3003022E9E53
:042E0B00E547601522
:0C2E0F00AA0990E63474C04AF0000000EC
:092E1B0090E635E508F000000026
:0A2E240090E698E54AF000000090E7
:092E2E00E699E549F00000008579
:032E3700084985C2
:032E3A00094AE55D
:052E3D00084509605C7E
:082E4200AA08AB09E4FCFDE560
:092E4A000FC39AFAE5109BFBE5A9
:082E5300119CFCE5129DFD8AB3
:042E5B000F8B108C3D
:042E5F00118D12853A
:032E63000F4F8589
:032E660010508584
:032E69001151857F
:032E6C001252906F
:072E6F00E680E0FE30E706FB
:062E76007E007F028004D3
:042E7C007E407F0015
:0B2E8000EF3395E0FAFBC3E54F9EE541
:062E8B00509FE5519AE59D
:042E9100529B5009F7
:042E9500850F088518
:032E9900100975A8
:022E9C004701EC
:072E9E00E549454A6003020B
:022EA5002D51AD
:0B2EA70090E6A7E0FA20E203022D51A4
:052EB200E50B450C4595
:062EB7000D450E60030250
:022EBD002D5195
:082EBF00754801C287022D5184
:0E2EC700C28790E601E054FEF0E0FA4402F00B
:072ED5001208FD120935E5AA
:032EDC00466067E6
:052EDF0078ACE6705C18
:072EE40090E6ACE0FA70116A
:072EEB0090E6ABE0FA700A6B
:052EF200E50B450C4555
:052EF7000D450E6026F0
:062EFC00E549454A6006AD
:062F020078AC760A80386D
:072F080090E6B0E0FA70074B
:072F0F0090E6AFE0FA600656
:062F160078AC760B80246C
:062F1C0078AC7607801E70
:062F2200E549454A600686
:062F280078AC760880126F
:072F2E0090E6AFE0FA700726
:072F350090E6B0E0FA600431
:042F3C0078AC7609EE
:062F400075820012080A70
:022F4600D28037
:012F48002266
:0D2F49007A007B007C00C002C003C00412AF
:0E2F5600080175820012080AD004D003D002D0
:0E2F6400C28090E6187410F000000090E61A8B
:0D2F72007408F0000000C002C003C004128B
:0E2F7F000960D004D003D00290E60274E8F09E
:0E2F8D0000000090E601E0FD4403F0D28790C2
:0C2F9B00E630E4F000000090E631E4F0C5
:032FA700EA6003DA
:032FAA00EB706366
:0E2FAD00C002C003C004120775D004D003D0C8
:052FBB0002E50A603C84
:052FC0007401B50A16C2
:032FC500EA70139C
:0E2FC8007A01C002C003C004120801D004D078
:052FD60003D002802180
:052FDB007402B50A18A4
:0E2FE000C002C003C004120801D004D003D008
:042FEE0002EB700A78
:062FF2007C017B0180045C
:042FF8007A008014C7
:032FFC00EB70A8CF
:032FFF00EA60A5E0
:0830020090E6A7E0FD30E29D1D
:06300A007B01C2878097E4
:0E301000C28790E601E054FEF0E0FB4402F0BF
:0D301E00C002C0041208FDD00400C004125E
:09302B000935D004D002EA601B53
:03303400EC70122B
:0730370090E6ABE0FA700720
:07303E0090E6ACE0FA60042B
:0430450078AC7607E6
:0630490075820012080A66
:02304F00D2802D
:01305100225C
:0535760001020000004D
:05357B0001000000004A
:05358000010000000045
:07305200120801750B047563
:063059000C00750D00756E
:08305F000E0075820402080A4C
:0A3067007582011207E3120801AAA6
:0C3071000B8A037C00EB54FC7003EC6045
:01307D00074B
:07307E0078AC760C02310C66
:0830850090E678E0FB20E6F87C
:0B308D0090E6787480F078ACE6700AE2
:0A309800430240EA2AF5821232BB1F
:0530A20078ACE67005AA
:0530A700F5821232BBAE
:0530AC0078ACE670069F
:0630B10075823F1232BBE4
:0530B70078ACE6700694
:0630BC007582FF1232BB19
:0C30C20090E678E0FA4440F078ACE6704C
:0130CE003DC4
:0E30CF0075821012085A90E67C74A0F0740FFF
:0E30DD00F0E4F0E4F090E67C74D0F07407F0BC
:0A30EB00E4F0E4F0750808E4F509CC
:0A30F50090E67CE4F0150874FFB5C6
:0430FF0008021509A5
:06310300E508450970EC2F
:0331090002087E3B
:06310C0075820002080AB2
:0A3112007582011207E3120801AAFA
:0B311C000B7B00EA54FC7003EB600A20
:0A31270078AC760275820002080AF7
:0B31310075822012085A750820E4F592
:04313C00097AC07BD1
:0A314000E78A828B83A3A3E50BC48A
:0A314A000354F82494FAE43435FB32
:053154008A138B141228
:053159000AC602087E19
:0A315E007582011207E3120801AAAE
:0B3168000B7B00EA54FC7003EB600AD4
:0A31730078AC760C75820002080AA1
:0C317D0075821412085A7440450B25E0BE
:07318900FA8A0F750B0075B7
:063190000C00750D007536
:063196000E007510027826
:04319C00ACE670032A
:0331A000123223C5
:0A31A300AA0BE50CC423CAC4235490
:0C31AD001F6ACA541FCA6ACAFB8A0B8B37
:0531B9000C90E67CE52E
:0631BE000BF0E50CF0E54A
:0631C4000DF0E50EF075B0
:0631CA000B00750C0075FE
:0631D0000D00750E0075F4
:0731D600100178ACE6700364
:0331DD0012322388
:0531E000E50C30E706DC
:0631E500750DFF750EFFE1
:0731EB0090E67CE50BF0E526
:0631F2000CF0E50DF0E514
:0731F8000EF0750808E4F574
:0131FF0009C6
:0A32000090E67CE4F0150874FFB5B9
:04320A000802150998
:06320E00E508450970EC23
:0D32140090E67C7401F0E4F0E4F0E4F002D8
:02322100087E25
:0832230090E678E0FA20E6F8DD
:0B322B0090E6787480F078ACE6700646
:06323600850F821232BB7D
:05323C0078ACE670060D
:063241008510821232BB71
:0532470078ACE6700800
:08324C0090E678E0FA4440F03E
:0832540000000078ACE67008F0
:08325C0090E678E0FA20E6F8A4
:0532640078ACE67006E5
:0632690090E6787480F08D
:05326F0078ACE67009D7
:093274007401450FF5821232BB12
:05327D0078ACE67009C9
:0932820090000C75F0401232DEE0
:05328B0078ACE67008BC
:0832900090E678E0FA4420F01A
:0532980078ACE67009AE
:09329D0090000C75F0401232DEC5
:0C32A60090E678E0FA4440F078ACE67066
:0132B2000714
:0732B30090E679E0FA8A0BB6
:0132BA0022F1
:0632BB00E58290E679F0C7
:0832C10090E678E0FA30E0F835
:0832C90090E678E0FA20E2082B
:0832D10090E678E0FA20E10428
:0432D90078AC762334
:0132DD0022CE
:0E32DE00AA82AB83ACF090E679E0FD8A828B89
:0632EC00838CF012336C2C
:0832F20090E678E0FA30E0F804
:0832FA0090E678E0FA30E204EE
:0433020078AC76230A
:0133060022A4
:0535850001020000003E
:05358A0001000000003B
:05358F00010000000036
:0E359400332E335600000000312E3856000052
:0E35A2000000312E305600000000322E35564B
:0435B0000000000017
:0EE1000012010002000000404314070000005E
:04E10E000102000109
:0AE112000A060002000000400100B0
:0EE11C0009022E0001010080FA09040000042F
:0EE12A00FF000000070501024000000705810C
:0EE138000240000007050202000200070586F3
:04E1460002000200D1
:0EE14A0009022E0001010080FA090400000401
:0EE15800FF00000007050102400000070581DE
:0EE16600024000000705020240000007058687
:04E174000240000065
:02E178000000A5
:093F00000205AB000205DF00021E
:083F090005C900020643000295
:083F110005F500020661000243
:083F190006BB000206BB00021A
:083F210006BB000206BB000212
:083F290006BB000206BB00020A
:083F310006BB000206BB000202
:083F390006BB000206BB0002FA
:083F410006BB000206BB0002F2
:083F490006BB000206BB0002EA
:083F510006BB000206BB0002E2
:083F590006BB000206BB0002DA
:083F610006BB000206BB0002D2
:083F690006BB000206BB0002CA
:083F710006BB000206BB0002C2
:083F790006BB000206BB0002BA
:083F810006BB000206BB0002B2
:083F890006BB000206BB0002AA
:083F910006BB000206BB0002A2
:083F990006BB000206BB00029A
:083FA10006BB000206BB000292
:083FA90006BB000206BB00028A
:073FB10006BB000206BB0085
:08330700FB7A20E4FCFDFEFF4F
:0E330F00E5822582F582E58333F583E5F03310
:0B331D00F5F0EB33FB4017DAE98042CB
:0E332800E5822582F582E58333F583E5F033F7
:05333600F5F0EB33FB94
:0E333B00EC33FCED33FDEE33FEEF33FFEC958B
:0633490053ED9554EE95D2
:08334F0055EF95564013EC9573
:0833570053FCED9554FDEE95C9
:09335F0055FEEF9556FF43820173
:02336800DABECB
:02336A00EB2254
:06009C00E478FFF6D8FD38
:08007A007900E94400601B7AE3
:05008200009035B47888
:030087000075A061
:0A008A00E0E493F2A308B8000205B9
:08009400A0D9F4DAF275A0FF17
:0E336C0020F71030F6118883A88220F507F6AE
:05337A00A8837583002B
:01337F00222B
:03338000F280F7E1
:02338300F02236
:0C338500AAF0FBE5828553F0A4FCADF03B
:0C339100E5838553F0A42DFDE435F0FE2B
:0C339D00E5828554F0A42DFDE5F03EFE15
:0C33A900E433FFEA8553F0A42EFEE5F0AB
:0C33B5003FFFE5838554F0A42EFEE5F0F8
:0C33C1003FFFE5828555F0A42EFEE5F0EC
:0B33CD003FFFEB8553F0A42FFFEA85C3
:0A33D80054F0A42FFFE5838555F0A3
:0C33E200A42FFFE5828556F0A42F8EF08A
:0533EE008D838C82229A
:0400A20075A00078CD
:0700A60000E8440060077947
:0600AD0000E4F309D8FC99
:0800B3007800E84400600C79BC
:0B00BB000090E000E4F0A3D8FCD9FAAC
:02006B00E4733C
:0E33F30090E682E044C0F090E681F04387014E
:0E3401000000000000000000000000000000BD
:0E340F000000000000000000000000000000AF
:09341D0000000000000000002284
:03006D0075815644
:0A007000123442E5826003020066CC
:0E34260020F71430F6148883A88220F507E6FC
:06343400A883758300224D
:03343A00E280F736
:03343D00E49322F3
:02344000E02288
:04344200758200226D
:00000001FF
