:0400000002006D325B
:01000B0032C2
:0100130032BA
:01001B0032B2
:0100230032AA
:01002B0032A2
:030033000206BD05
:01003B003292
:03004300023F0079
:01004B003282
:03005300023F0069
:01005B003272
:030063000206C1D1
:0300EA00020066AB
:050066001200ED80FE18
:0900ED007881760078807600909D
:0E00F600E60B7403F000000000000090E6002E
:0E0104007410F075800175B28175900075B3AE
:0E011200FF75B08075B5A090E67AE0FA440162
:0B012000F012306190E60174E2F01272
:0E012B00027B90E6097403F000000075890164
:09013900000000788276000876CF
:04014200E178847666
:05014600120876E178CB
:05014B0086761C087619
:04015000E178887654
:0A0154004A0876E1D2E843D8209073
:0E015E00E668E0FA4409F090E65CE0FA443D01
:0E016C00F090E682E4F0D2AF90E680E0FA5424
:05017A00F7F0538EF8C0
:08017F001201C4789EE660073E
:070187001201A0789E760032
:05018E007881E6600726
:0701930078817600123707A6
:05019A001206C180E027
:01019F00223D
:0A01A00090E680E0FA440AF07A00CD
:0201AA00DAFE7B
:0E01AC0090E65D74FFF090E65F74FFF05391F3
:0901BA00EF90E680E0FA54F7F042
:0101C3002219
:0601C4007880E6700122C4
:0501CA00AA08AB097852
:0901CF0096A60208A603788EA68C
:0601D8000B08A60C08A6AE
:0501DE000D08A60E78DB
:0501E30092A60F08A622
:0601E8001008A61108A694
:0601EE00127898A69B7830
:0801F40099A69A789AA69E785C
:0A01FC009BA69D1202FDE58270082B
:0802060090E6A0E0FA4401F0CB
:0C020E0090E6A0E0FA4480F078807600D2
:06021A00789686080886B4
:0A02200009788E860208860308861E
:09022A00040886058A0B8B0C8C7C
:040233000D8D0E78A7
:0C023700928602088603088604088605EB
:050243008A0F8B108CF6
:04024800118D12788A
:08024C0098869B7899869A7848
:070254009A869E789B869DAF
:01025B002280
:0E025C0090E6837401F07421F07411F0743197
:0E026A00F090E6837402F07422F07416F074C3
:0202780036F05E
:01027A002261
:0E027B0090E610E4F000000090E611E4F000C0
:0E028900000090E612E4F000000090E613E49E
:0D029700F000000090E614E4F0000000907C
:0E02A400E615E4F000000090E618E4F000001B
:0E02B2000090E619E4F000000090E61AE4F077
:0E02C00000000090E61BE4F000000090E61045
:0E02CE0074A0F000000090E61174A0F0000093
:0E02DC000090E61274A0F000000090E614748A
:0E02EA00E0F000000090E68DE4F0000000124D
:0502F8000941020909A3
:0C02FD0090E6B9E0FA24F450030205AAD0
:07030900EA2A2A9003107399
:070310000203F70204810261
:0603170005AA02052F02F9
:06031D0005AA0205AA0278
:0603230003340205AA02EA
:0603290003E20203D00212
:05032F0003A90203BE5A
:0A03340090E6BBE0FABA0102800F68
:05033E00BA020280205C
:05034300BA0602803142
:05034800BA075A8042D3
:09034D00788290E6B308E6F0782E
:0B0356008286027B0090E6B4EAF00211
:0203610005ADE8
:09036300788A90E6B308E6F07810
:0B036C008A86027B0090E6B4EAF002F3
:0203770005ADD2
:09037900788490E6B308E6F07800
:0B0382008486027B0090E6B4EAF002E3
:02038D0005ADBC
:09038F00788C90E6B308E6F078E2
:0B0398008C86027B0090E6B4EAF002C5
:0203A30005ADA6
:0403A500758200223B
:0803A90090E740789DE6F0901A
:0B03B100E68AE4F090E68B7401F00295
:0203BC0005AD8D
:0A03BE0090E6BAE0FA789DA602125C
:0603C800027B12025C0240
:0203CE0005AD7B
:0A03D00090E6BAE0FA789CA602124B
:0603DA00027B12025C022E
:0203E00005AD69
:0803E20090E740789CE6F090E2
:0B03EA00E68AE4F090E68B7401F0025C
:0203F50005AD54
:0A03F70090E6B8E0FABA8002800A2E
:05040100BA8102801B1E
:05040600BA8274802C95
:0A040B0090E740E4F090E741F09024
:0A041500E68AF090E68B7402F00214
:02041F0005AD29
:0A04210090E740E4F090E741F0900E
:0A042B00E68AF090E68B7402F002FE
:0204350005AD13
:0E04370090E6BCE0FA53027E90E6BCE0FBC308
:0E04450074809BE433FB4A90376E93FA339534
:0E045300E0FB74A12AFA74E63BFB8A828B83DD
:0E046100E0FA53020190E740EAF090E741E430
:0C046F00F090E68AF090E68B7402F00238
:02047B0005ADCD
:04047D007582002262
:0704810090E6B8E0FA600804
:05048800BA020280121F
:03048D0002052B3A
:0B04900090E6BAE0FABA01030205ADE5
:04049B007582002244
:09049F0090E6BAE06003020527B3
:0E04A80090E6BCE0FA53027E90E6BCE0FBC397
:0E04B60074809BE433FB4A90376E93FA3395C3
:0E04C400E0FB74A12AFA74E63BFB90E6BCE074
:0E04D200FC53047E90E6BCE0FDC374809DE404
:0E04E00033FD4C90376E93FC3395E0FD74A114
:0E04EE002CFC74E63DFD8C828D83E0FC5304F3
:0E04FC00FE8A828B83ECF090E6BCE05480FA1E
:0E050A00C423541FFA90E6BCE0FB740F5B9014
:0D051800E6832AF090E683E0FA4420F0022A
:0205250005AD22
:0405270075820022B7
:04052B0075820022B3
:07052F0090E6B8E0FA600558
:05053600BA026D800E09
:0A053B0090E6BAE0FABA0202806806
:040545007582002299
:0E05490090E6BCE0FA53027E90E6BCE0FBC3F5
:0E05570074809BE433FB4A90376E93FA339521
:0E056500E0FB74A12AFA74E63BFB90E6BCE0D2
:0E057300FC53047E90E6BCE0FDC374809DE462
:0E05810033FD4C90376E93FC3395E0FD74A172
:0E058F002CFC74E63DFD8C828D83E0FC430461
:09059D00018A828B83ECF08007D7
:0405A6007582002238
:0305AA00020AE35F
:0305AD0075820153
:0105B0002228
:0C05B100C0E0C082C083C00078807601EA
:0905BD005391EF90E65D7401F02A
:0905C600D000D083D082D0E032D5
:0E05CF00C0E0C082C0835391EF90E65D7404DB
:0105DD00F02D
:0705DE00D083D082D0E0328F
:0E05E500C0E0C082C0835391EF90E65D7402C7
:0105F300F017
:0705F400D083D082D0E03279
:0D05FB00C0E0C082C083C002C003C0007811
:0A060800888602088603788AA6029D
:0C06120008A6038A828B83A37402F07890
:0A061E00868602088603788CA60287
:0E06280008A6038A828B83A37407F05391EF18
:0606360090E65D7410F077
:0D063C00D000D003D002D083D082D0E032B5
:0C064900C0E0C082C083C0007881760150
:090655005391EF90E65D7408F08A
:09065E00D000D083D082D0E0323C
:0D066700C0E0C082C083C002C003C000908C
:07067400E680E0FA30E72CFC
:0A067B0078868602088603788AA6B6
:0D0685000208A6038A828B83A37402F0781A
:0A069200888602088603788CA60211
:0B069C0008A6038A828B83A37407F07A
:0906A7005391EF90E65D7420F020
:0D06B000D000D003D002D083D082D0E03241
:0306BD0053D8EF20
:0106C0003207
:05375A00010200000067
:05375F00010000000064
:0537640001000000005F
:0537690001F700000063
:0A376E000001020203030404050534
:0A00C600789E7600789FE4F608F6B5
:0C00D00008F608F678A3E4F608F608F637
:0800DC0008F678A7E4F608F627
:0706C100120719E582601425
:0706C8001206DDE582700D52
:0B06CF0012080D78AC76017582000265
:0206DA00081600
:0106DC0022FB
:0706DD0078A9E624F9403181
:0A06E40078A9E625E0269006EE73E3
:0706EE0002070302070602E8
:0606F500070902071502CF
:0606FB00070C02070F02CC
:020701000712DD
:030703000209A147
:03070600020A05DF
:0307090002116A70
:03070C000228DAE6
:03070F000231486C
:03071200021E01C3
:03071500758200EA
:0107180022BE
:05071900E5BA30E10427
:04071E0075820022BE
:0707220078AC76007A807BC1
:06072900E78B9A7A807B49
:0C072F00E77B008A9B90E67BE0FA7B00F1
:05073B000ABA00010BE9
:0E07400090E68DE0FC7D00EAB50406EBB50501
:03074E0002801115
:0B07510012080D78AC760175820012D2
:06075C0008167582002260
:0A07620090E67BE0FA78A9A6029069
:09076C00E67BE0FA78AAA60290EF
:0B077500E67BE0FA78ABA6027582017B
:010780002256
:080781001201C4E5BA30E104E5
:04078900750A0022CB
:0C078D0090E780E0FA7B000ABA00010B44
:0E07990090E68DE0FC7D00EAB50406EBB505A8
:0307A700028011BC
:0B07AA0012080D78AC76017582001279
:0607B5000816750AFF2280
:0B07BB0090E781E0FA78A9E6B5021390
:0C07C60090E782E0FA78AA748046FBEA13
:0307D200B5030468
:0407D500750A01227E
:0607D90090E781E0700CC6
:0807DF0090E782E0FABA02047F
:0407E700750A02226B
:0307EB00750AFF8D
:0107EE0022E8
:0807EF00AA827B0B7C007D4017
:0E07F70090E67BE0FE8B828C838DF0123680C4
:07080500A3AB82AC83DAEB28
:01080C0022C9
:08080D0090E68DE4F00000000C
:0108150022C0
:07081600AA82E5BA30E201FD
:01081D0022B8
:07081E007BC07CE78C9D7B91
:08082500C07CE77C008B9E9073
:08082D00E67CEA04F078AC90CF
:07083500E67CE6F07B0B7C82
:05083C00007D408A066A
:03084100EE60174F
:0E0844008B828C838DF012373AFFA3AB82AC0F
:090852008390E67CEFF01E80E6C5
:0A085B0090E68F74022AF0000000FE
:010865002270
:07086600AA82E5BA30E201AD
:01086D002268
:07086E007BC07CE78C9D7B41
:08087500C07CE77C008B9E9023
:08087D00E67CEA04F078AC907F
:04088500E67CE6F037
:01088900224C
:05088A00E5BA30E201B7
:01088F002246
:0808900090E7C178ACE6F0909E
:0C089800E7C0E0FA90E68F04F0000000DA
:0108A4002231
:0E08A500AA82AB83ACF090E67BE0FDC002C0FF
:0E08B30003C004C00512080DD005D004D00308
:0708C100D002E5BA30E201AC
:0108C800220D
:0708C9007EC07FE78F9D7EDA
:0808D000C07FE77F008E9E90BF
:0C08D800E67CED04F090E67CE4F08D0678
:0308E400EE6017AC
:0E08E7008A828B838CF012373AFFA3AA82AB71
:0908F5008390E67CEFF01E80E622
:0A08FE0090E68F74022DF000000058
:0109080022CC
:0E09090090E618E4F000000090E6047480F020
:0E09170000000090E6047402F00000007A0474
:0B09250090E6497482F0000000DAF553
:0E09300090E604E4F000000090E6A3E4F0007E
:02093E000000B7
:010940002294
:0E09410090E61AE4F000000090E6047480F0E6
:0D094F0000000090E6047406F00000009027
:0E095C00E604E4F000000090E6A5E4F00000E0
:01096A00008C
:01096B002269
:08096C0090E680E0FA30E70696
:060974007A007B02800402
:04097A007A407B0044
:0E097E0090E624EBF000000090E680E0FA30F6
:02098C00E7067C
:06098E007A007B028004E8
:040994007A407B002A
:0809980090E625EAF0000000E2
:0109A0002234
:0709A10078AAB602028007EC
:0709A80078AAB60350800598
:0509AF0012080D804D4F
:0A09B4007582041207EF12080DE52A
:0809BE000BF4FAE50CF4FBE573
:0A09C6000DF4FCE50EF4FD747B2A2D
:0C09D000FAE43BFBE43CFCE43DFD8A0B38
:0509DC008B0C8C0D8D59
:0509E1000E1212EE7879
:0C09E6009FE4F608F608F608F612094136
:0B09F200120909758204120816800427
:0409FD0075820022DD
:030A0100758201FA
:010A040022CF
:070A050078AAB60202800E80
:070A0C0078AAB60302801E68
:070A130078AAB604548035F7
:070A1A0012080D750B0175B8
:060A21000C00750D0075CC
:0A0A27000E00758204120816803FCD
:0E0A310012080D75B28190E601E0FA4420F043
:0E0A3F0090E6C274FFF0D2B77582001208165E
:020A4D00802106
:0E0A4F0012080DC2B775B20090E601E0FA542D
:0E0A5D00DFF090E6C2E4F07582001208168009
:010A6B000486
:040A6C00758200226D
:030A70007582018B
:010A73002260
:0A0A7400AA82AB83E5084509700172
:010A7E002255
:070A7F00AC14BCE602800587
:050A86008B05BDE63107
:080A8B008A068B07AC13AD14C1
:0E0A93008E028F038C828D83E0F88A828B8323
:060AA100F00EBE00010F83
:050AA7000CBC00010D74
:080AAC00150874FFB5080215DE
:010AB4000938
:060AB500E508450970D8B8
:010ABB002218
:0C0ABC008C9AAC137E008C9B8D9D7B00FF
:050AC8008A9E020ACE27
:010ACD002206
:080ACE00A90890E67B05869063
:040AD600E67C05862F
:080ADA00E00586F00586D9F85D
:010AE20022F1
:0A0AE30090E6B9E0FABAA202804AD8
:050AED00BAA3028045E0
:060AF200BAE103020DB899
:060AF800BAE203020D98B2
:060AFE00BAE303020D98AB
:060B0400BAE403020D78C3
:060B0A00BAE503020D78BC
:060B1000BAE603020C83AB
:060B1600BAE703020CB077
:060B1C00BAE803020CF828
:060B2200BAE903020D58C0
:060B2800BAEA03020D27EA
:060B2E00BAEB03020DD832
:030B3400020DF8B7
:0B0B370090E6BAE0FAA3E0FB8A0B8B0B
:0A0B42000C90E6BEE0FAA3E0FB9081
:090B4C00E6B8E0FCBCC002800325
:030B5500020BE8A8
:070B5800EA4B7003020DFCE3
:080B5F0090E6A0E0FC20E1F8A3
:080B670090E6B9E0FCBCA2110C
:0A0B6F00750D00750E00C002C003F2
:070B7900121096D003D00218
:090B8000C3EA9440EB9400500616
:060B89008A0D8B0E8006B0
:060B8F00750D40750E001B
:080B950090E6B9E0FCBCA20DE2
:0D0B9D00C002C003120FE9D003D002801A7D
:040BAA00850D088528
:030BAE000E09909D
:040BB100E740850B89
:030BB50013850C99
:0C0BB80014C002C003120A74D003D00263
:080BC40090E68AE4F0AC0DADEF
:080BCC000E90E68BECF0EC2525
:070BD4000BFEED350CFF8E56
:0A0BDB000B8F0CEAC39CFAEB9DFBA4
:030BE500020B58A8
:0A0BE80078A7E608467003020C7FB0
:0C0BF20090E6BCE0FCA3E0FD78A7E6B5AF
:090BFE00040708E6B505028002B7
:020C07008076F5
:080C090090E6B8E0FCBC406E6F
:070C1100EA4B7003020DFC29
:090C180090E68AE4F090E68BF00E
:080C210090E6A0E0FC20E1F8E0
:0A0C290090E68BE0FC7D008C0D8D41
:090C33000E90E6B9E0FCBCA31F21
:040C3C00850D088595
:030C40000E098515
:060C43000B82850C837595
:030C4900134075E0
:070C4C0014E7C002C003120F
:080C53000A74D003D002800BEB
:0B0C5B00C002C003121096D003D002AC
:060C6600AC0DAD0EEC2503
:070C6C000BFEED350CFF8EBD
:0A0C73000B8F0CEAC39CFAEB9DFB0B
:020C7D00809263
:040C7F007582002258
:0A0C830090E6B8E0FABAC002800360
:030C8D00020DFC59
:080C900090E6A0E0FA20E1F873
:0E0C980090E7407409F0A37403F090E68AE43C
:0A0CA600F090E68B7402F0020DFCE2
:0A0CB00090E6B8E0FABAC002800333
:030CBA00020DFC2C
:080CBD0090E6A0E0FA20E1F846
:0E0CC50090E740741DF0A3E4F0A3F0A3F090BC
:0B0CD300E744E4F5F0123680A3E412C1
:0A0CDE003680A3E4123680A3E4126E
:080CE800368090E68AE4F090EA
:080CF000E68B7408F0020DFC14
:080CF80090E6B8E0FABA4023CF
:090D000090E68AE4F090E68BF025
:080D090090E6A0E0FA20E1F8F9
:0C0D110090E740E0FAA3E0FB78A7A60200
:060D1D0008A603020DFC14
:040D230075820022B3
:080D270090E6B8E0FABA40259D
:070D2F0078A7E60846601EEC
:0C0D360090E6BCE0FAA3E0FB78A7E6B56D
:090D4200020708E6B50302800275
:020D4B0080071F
:070D4D00789E7601020DFC07
:040D54007582002282
:070D5800750BF0750C3F75EF
:060D5F000D04750E007585
:060D65000FCD7510AB90EC
:070D6B00E6B8E0FABAC0038C
:030D7200020E006E
:030D7500020F1951
:070D7800750BE0750C3F75DF
:060D7F000D0C750E00755D
:060D85000F787510569076
:070D8B00E6B9E0FABAE40347
:030D9200020E004E
:030D9500020F1931
:070D9800750BC0750C3F75DF
:060D9F000D10750E007539
:060DA5000FCD7510AB90AC
:070DAB00E6B9E0FABAE20329
:030DB200020E002E
:030DB500020F1911
:070DB800750BA0750C3F75DF
:060DBF000D1C750E00750D
:060DC5000FCD7510AB908C
:070DCB00E6B8E0FABAC0032C
:030DD200020E000E
:030DD500020F19F1
:070DD800750BF8750C3F7567
:060DDF000D02750E007507
:060DE5000FCD7510AB906C
:070DEB00E6B8E0FABAC0030C
:030DF200020E00EE
:030DF500020F19D1
:040DF80075820022DE
:030DFC00758201FC
:010DFF0022D1
:0C0E00007AFF90E6B8E0FBBBC002800463
:040E0C0075820022C9
:050E1000AB0DAC0E75F6
:0A0E15000D00750E00C002C003C0FE
:0E0E1F0004121096D004D003D00274032BFBF3
:0A0E2D00E43CFC8B0D8C0EC0021299
:0A0E37000FE9D002E50D24FDFBE5F4
:070E41000E34FFFC8B0D8C49
:0B0E48000E90E740E0FBA3E0FCEBB5E0
:060E53000F48ECB510444D
:040E59007A007B00A0
:0A0E5D007403250DFCE4350EFD8B37
:0A0E6700067F00C3EE9CEF9D502CA7
:0A0E7100EB2440F582E434E7F5833A
:0A0E7B00E0FC2AFAEB2440FCE4340A
:0A0E8500E7FD74022B2440F582E41F
:0C0E8F0034E7F583E0FE8C828D83F00BCD
:020E9B0080C015
:030E9D00EA6064A4
:040EA000850D08852F
:030EA4000E0990A4
:090EA700E6B9E0FABAE102803478
:050EB000BAE202803DE2
:050EB500BAE402800513
:050EBA00BAE9438017B6
:020EBF007A00B7
:030EC100BA0C0068
:020EC400503E9E
:0A0EC600EA2440F582E434E7F583E6
:060ED0007430F00A80EB13
:050ED60090E7407513D8
:030EDB008C7514FF
:060EDE0037120A748020A7
:050EE40090E7407513CA
:030EE900907514ED
:060EEC0037120A748012A7
:050EF20090E7407513BC
:030EF700AC7514C3
:060EFA0037120A748004A7
:040F000075820022D4
:0C0F040090E68AE4F000000090E68BE527
:080F10000DF0000000758201E4
:010F180022B6
:080F190090E6B8E0FABA401CB2
:070F210078A7E60846601501
:0C0F280090E6BCE0FAA3E0FB78A7E6B579
:090F3400020708E6B5030280047F
:040F3D007582002297
:090F410090E68AE4F090E68BF0E2
:080F4A0090E6A0E0FA20E1F8B6
:070F520090E68AE0FA70143A
:050F5900AA0DAB0E9093
:0E0F5E00E68BE0FC7D00B50206EDB5030280D7
:010F6C000480
:040F6D007582002267
:060F71008A15AD158D0686
:060F77008E071EEF60254D
:0C0F7D00C002C00374022E2440FFE434C4
:090F8900E7FCEE2440F582E4349B
:0C0F9200E7F583E0FA8F828C83F0D00337
:040F9E00D00280D528
:080FA20090E740E50FF0A3E524
:050FAA0010F07C407E08
:0A0FAF00E78E9A759B407C007402E7
:030FB9002515FDFE
:090FBC0090E67BE0FE2CFCDDF761
:0A0FC500740225152440F582E4347F
:0C0FCF00E7F583C3E49CFCF074032AFAED
:080FDB00E43BFB8A0D8B0E12B2
:050FE30010967582016B
:010FE80022E6
:050FE900E50DFA7004A3
:040FEE0075820122E5
:080FF20090E678E0FB20E6F830
:0C0FFA0090E6787480F090E67974A3F023
:0810060090E678E0FB30E0F811
:08100E0090E678E0FB20E2749B
:0810160090E678E0FB30E16C8C
:03101E00BA01080C
:0810210090E678E0FB4420F0AA
:0710290090E679E07B407CBA
:06103000E78C9A7B407C76
:05103600E77C008B9B2C
:04103B00DA0280262F
:08103F0090E678E0FB30E0F8D8
:0810470090E678E0FB20E23B9B
:03104F00BA0108DB
:0810520090E678E0FB4420F079
:0B105A0090E679E0FB90E67BF080D68A
:0810650090E678E0FA30E0F8B3
:08106D0090E678E0FA20E2159C
:0E10750090E678E0FA4440F090E679E0FA90D8
:07108300E67BF075820122FB
:0B108A0090E678E0FA4440F075820028
:011095002238
:02109600AA0DA1
:0810980090E678E0FB20E6F889
:0C10A00090E6787480F090E67974A2F07D
:0810AC0090E678E0FB30E0F86B
:0810B40090E678E0FB20E26BFE
:0810BC0090E678E0FB30E163EF
:0310C400EA600ED1
:0710C7007B407CE78C9A7B63
:0710CE00407CE77C008B9BD6
:0210D5007B029C
:0310D700EA7003B9
:0310DA00EB603B8D
:0310DD00EB6014B1
:0310E000BB020848
:0810E30090E679E50CF08006AF
:0610EB0090E679E50BF030
:0310F1001B800A57
:0A10F40090E67BE0FC90E679F01A2C
:0810FE0090E678E0FC30E0F818
:0811060090E678E0FC20E219FC
:08110E0090E678E0FC20E1C14D
:02111600800F48
:0E11180090E678E0FA4440F01211337582013F
:0111260022A6
:0B11270090E678E0FA4440F07582008A
:01113200229A
:0811330090E678E0FA20E6F8EE
:0E113B0090E678E0FA4480F090E67974A2F035
:0811490090E678E0FA30E0F8CE
:0811510090E678E0FA4440F05A
:0811590090E678E0FA20E6F8C8
:0811610090E678E0FA30E1D2DB
:011169002263
:05377800010200000049
:05377D00010000000046
:05378200010000000041
:0537870001F700000045
:04378C0006015000E2
:0E379000582D426F617264000000FDFDFDFDCA
:0E379E000000FF74BC188AFD1608C072E2001D
:0E37AC00444F6E62557362000000FDFDFDFD8E
:0237BA0000000D
:07116A0078AAB602028077AB
:0711710078ABB6000280110B
:0B11780012080D78AC760C7582001296
:061183000816758201222E
:0511890078AAE67036B3
:06118E00789FE630E0113D
:0B11940012080D78AC76037582001283
:06119F0008167582012212
:0611A500789FE630E41122
:0B11AB0012080D78AC7603758200126C
:0611B600081675820122FB
:0811BC00789FE64401F680244F
:0511C40078AAB6010845
:0811C900789FE654FEF6801742
:0611D100789FE620E0110A
:0B11D70012080D78AC7604758200123F
:0611E200081675820122CF
:0A11E80078AAE624F450030212D89E
:0A11F20078AAE625E0269011FC73B0
:0711FC000212200212300272
:0612030012400212D802A5
:06120900124D0212660204
:06120F00129A0212D10246
:0612150012C30212C30225
:05121B0012CA0212C31B
:0A1220001212DC12080D7582001294
:06122A0008167582012286
:0A1230001212EE12080D7582001272
:06123A0008167582012276
:0D1240009037BC75F0801208A57582012260
:07124D0012080D750B00757E
:061254000C6A750D18750F
:0C125A000E007582041208167582012235
:0712660090E67BE0FA600452
:04126D00D2B3800276
:02127100C2B306
:0712730090E67BE0FA600445
:04127A00D2B280026A
:02127E00C2B2FA
:0712800090E67BE0FA600438
:04128700D2B480025B
:02128B00C2B4EB
:0D128D0012080D75820012081675820122EC
:0C129A0012080DA2B3E433FA8A0BA2B2D2
:0B12A600E433FA8A0CA2B0E433FA8AA9
:0A12B1000DA2B4E433FA8A0E758230
:0812BB000412081675820122DD
:0712C3001216AB7582012237
:0712CA00121AB27582012225
:0712D1001212FA75820122DE
:0312D8007582001C
:0112DB0022F0
:0E12DC0043B50443B50843B510D2B5C2B2D233
:0312EA00B3C2B4D8
:0112ED0022DE
:0B12EE00C2B553B5E3C2B2D2B3C2B424
:0112F90022D2
:0537BC00010200000005
:0537C100010000000002
:0537C6000100000000FD
:0537CB0001F700000001
:0B12FA007A007B0090E67BE0FC6004C3
:04130500D2B38002DD
:02130900C2B36D
:07130B0090E67BE0FC6004AA
:04131200D2B28002D1
:02131600C2B261
:0E131800C2B4758204C002C0031207EFD003F6
:0E13260000C00312080D758200120816D003D5
:07133400D002AC0BAD0CAEC2
:04133B000DAF0E8C58
:04133F000F8D108E70
:09134300118F12EC4D4E4F7002A7
:02134C007B0123
:03134E00EB60064B
:06135100EA60030213FF35
:0D135700C002C003120781D003D002E4B52C
:041364000A028031C8
:051368007401B50A0F3D
:0E136D007A01C002C00312080DD003D0028026
:01137B001D54
:05137C007402B50A1324
:0B1381007B0178AC7602C002C00312B2
:08138C00080DD003D00280051A
:051394007A000213FFC6
:03139900EB70B244
:05139C00AC0BAD0CAE2E
:0A13A1000DAF0EC3ED94FEEE9400B4
:0513AB00EF9400500664
:0613B0008C088D09800687
:0613B6007508007509FE38
:0813BC00AC08AD09E4FEFFE5F9
:0913C4000BC39CFCE50C9DFDE54A
:0813CD000D9EFEE50E9FFF8C52
:0413D5000B8D0C8EE2
:0813D9000D8F0EC000C001A839
:0413E10008A9090945
:0E13E500D2B4C2B4D8FAD9F8D001D000EC4D81
:0713F3004E4F600302134E90
:0513FA007B0102134E0F
:0313FF00EA602978
:07140200E50FC3950BFAE5AD
:0514090010950CFBE54D
:05140E0011950DFCE545
:0514130012950EFD8A98
:041418000B8B0C8CA2
:04141C000D8D0E78AC
:0B142000ACE64480F67582040208165A
:01142B00229E
:0A142C00C001C002A908AA09E96086
:02143600010AA9
:0314380090E67BC0
:0E143B00E01392B2D2B4C2B41392B2D2B4C2D1
:0E144900B41392B2D2B4C2B41392B2D2B4C2EF
:0E145700B41392B2D2B4C2B41392B2D2B4C2E1
:0E146500B41392B2D2B4C2B41392B2D2B4C2D3
:09147300B4D9C5DAC3D002D001DE
:01147C00224D
:0A147D00C001C002A908AA09E96035
:02148700010A58
:0A14890090E67B058690E67C058660
:0E149300E01392B2A2B013D2B4C2B492B2A2CD
:0E14A100B013D2B4C2B492B2A2B013D2B4C28D
:0E14AF00B492B2A2B013D2B4C2B492B2A2B040
:0E14BD0013D2B4C2B492B2A2B013D2B4C2B46D
:0E14CB0092B2A2B013D2B4C2B492B2A2B013C5
:0E14D900D2B4C2B40586F00586D9AFDAADD024
:0314E70002D0012F
:0114EA0022DF
:0A14EB00C001C002A908AA09E960C7
:0214F500010AEA
:0314F70090E67C00
:0E14FA00A2B0D2B4C2B413A2B0D2B4C2B41322
:0E150800A2B0D2B4C2B413A2B0D2B4C2B41313
:0E151600A2B0D2B4C2B413A2B0D2B4C2B41305
:0E152400A2B0D2B4C2B413A2B0D2B4C2B413F7
:09153200F0D9C2DAC0D002D001E8
:01153B00228D
:0A153C00C001C002A908AA09E96075
:02154600010A98
:0315480090E67BAF
:0E154B00E01392B3D2B4C2B41392B3D2B4C2BE
:0E155900B41392B3D2B4C2B41392B3D2B4C2DC
:0E156700B41392B3D2B4C2B41392B3D2B4C2CE
:0E157500B41392B3D2B4C2B41392B3D2B4C2C0
:09158300B4D9C5DAC3D002D001CD
:01158C00223C
:0A158D00C001C002A908AA09E96024
:02159700010A47
:0A15990090E67B058690E67C05864F
:0E15A300E01392B3A2B013D2B4C2B492B3A2BA
:0E15B100B013D2B4C2B492B3A2B013D2B4C27B
:0E15BF00B492B3A2B013D2B4C2B492B3A2B02D
:0E15CD0013D2B4C2B492B3A2B013D2B4C2B45B
:0E15DB0092B3A2B013D2B4C2B492B3A2B013B2
:0E15E900D2B4C2B40586F00586D9AFDAADD013
:0315F70002D0011E
:0115FA0022CE
:0A15FB00C001C002A908AA09E960B6
:02160500010AD8
:0316070090E67BEF
:0E160A00E01392B21392B3D2B4C2B41392B2F0
:0E1618001392B3D2B4C2B41392B21392B3D2EF
:0E162600B4C2B41392B21392B3D2B4C2B4D908
:07163400D5DAD3D002D0018A
:01163B00228C
:0A163C00C001C002A908AA09E96074
:02164600010A97
:0A16480090E67B058690E67C05869F
:021652007C0218
:0E165400E01392B21392B3FBE8A2B013F8EBCE
:0E166200D2B4C2B41392B21392B3FBE8A2B09A
:0E16700013F8EBD2B4C2B41392B21392B3FBD0
:0E167E00E8A2B013F8EBD2B4C2B41392B213C8
:0E168C0092B3FBE8A2B013F8EBD2B4C2B4DC08
:0E169A00B9E80586F0058619D9AEDAACD002A3
:0216A800D0016F
:0116AA00221D
:0716AB0075170075190075A9
:0716B2001A0078AAB6082A0D
:0816B90075170190E67BE0F5D6
:0816C1001690E67BE0FE6004D8
:0416C900D2B3800216
:0216CD00C2B3A6
:0416CF00E5166008B4
:0416D300751B7D7591
:0416D7001C14805A05
:0416DB00751B2C75DA
:0416DF001C14805205
:0516E30078AAB60925FC
:0A16E80075160190E67BE0FC60043B
:0416F200D2B38002ED
:0216F600C2B37D
:0716F80090E67BE0FC6004BA
:0416FF00D2B28002E1
:02170300C2B270
:04170500751BEB75F0
:041709001C14802804
:08170D0075170190E67BE0F581
:081715001690E67BE0FC600485
:04171D00D2B28002C2
:02172100C2B252
:04172300E51660085F
:04172700751B8D752C
:04172B001C15800603
:04172F00751B3C7575
:021733001C1583
:0D1735007582041207EF12080D7582001274
:041742000816850BF5
:031746001D850CF2
:031749001E850DED
:03174C001F850EE8
:03174F0020851DD5
:031752000F851EE2
:0317550010851FDD
:03175800118520D8
:0A175B00127407551DFD7A007B0093
:071765007C008D18AA1DE5B0
:0C176C001EC423CAC423541F6ACA541FA1
:0C177800CA6ACAFBE51FC42354E04BFB07
:0A178400AC1FE520C423CCC423549D
:0C178E001F6CCC541FCC6CCCFE8A0B8B63
:04179A000C8C0D8E18
:05179E000EE518601DBE
:0517A300AA0BAB0CAC29
:0A17A8000DAE0E0ABA00090BBB00DB
:0617B200050CBC00010E55
:0517B8008A0B8B0C8C74
:0317BD000D8E0E80
:0517C000E50F45104596
:0517C500114512700344
:0317CA007519018D
:0217CD00C2B4A4
:0417CF00E5196007B1
:0717D300E51A60030219C5CD
:0717DA00120781E50A602CF3
:0517E1007401B50A0CC3
:0417E600E51A700888
:0817EA00751A0112080D801BA5
:0517F2007402B50A10AD
:0717F70012080DE519700F47
:0917FE0078AC7602751901800631
:06180700751A000219C56C
:04180D00E517600576
:05181100E5AA20E0B98A
:04181600E51660056E
:05181A00E5AA20E5B085
:04181F00E51970ACAB
:04182300E517600E57
:071827007A007BF08B9A7A36
:07182E00007BF07B008A9BA8
:04183500E516600E46
:071839007A007BF88B9D7A19
:07184000007BF87B008A9E8B
:04184700E517601928
:0E184B0090E690E0FA8A037A0090E691E0FCC5
:0A1859007E004AF508EE4BF5098009
:011863005430
:04186400850B21854A
:031868000C2285CA
:03186B000D2385C5
:03186E000E2490B5
:07187100E680E0FF30E7060E
:061878007A007B028004EF
:04187E007A407B0031
:0C1882008A07EBFD3395E0FAFBC3EF95FD
:06188E0021ED9522EA9510
:0618940023EB952450181F
:08189A0090E680E0FA30E70659
:0618A2007A007B028004C5
:0418A8007A407B0007
:0618AC008A088B0980068A
:0418B20085210885FF
:0218B600220905
:0818B800AA08AB09E4FCFDE500
:0918C0000BC39AFAE50C9BFBE551
:0818C9000D9CFCE50E9DFD8A5B
:0418D1000B8B0C8CE5
:0418D5000D8D0EE582
:0318D90018601381
:0518DC00E50B450C4581
:0518E1000D450E700929
:0818E600150874FFB508021596
:0118EE0009F0
:0618EF00E508450960094F
:0718F500851B82851C831294
:0218FC00006B7F
:0718FE00E518700302198FC9
:05190500E50B450C4557
:06190A000D450E60030212
:02191000198F2D
:06191200AA18E517700B96
:0319180030B204E6
:04191B007BFF8002CC
:02191F007B004B
:0219210080053F
:0519230090E67BE0FBF3
:0519280078AAB60B1DBA
:02192D008A042A
:0B192F00EBA2E092B3C313FB30B00545
:05193A0043038080035F
:03193F0053037FD0
:06194200D2B4C2B4DCE7E0
:02194800801904
:0B194A00EBA2E092B2C313FB30B0052B
:05195500430380800344
:03195A0053037FB5
:06195D00D2B4C2B4DAE7C7
:04196300E516601D08
:0C196700AD187A007408C39DFDE49AFAE4
:071973008DF005F0EB80028E
:02197A00C31395
:08197C00D5F0FBFB90E67CF0C6
:071984007518000508E4B529
:04198B000802050940
:04198F00E5176009EF
:0919930090E6497482F0000000A6
:04199C00E5166012DA
:0A19A00090E698E509F000000090C1
:0819AA00E699E508F0000000D9
:0519B200E50B450C45AA
:0619B7000D450E60030265
:0219BD0017CF42
:0619BF007519010217CFAB
:0719C500120909120941E5B6
:0419CC001A7001226A
:0419D000E518601D99
:0519D400AA0BAB0CACF6
:0A19D9000DAD0E1ABAFF091BBBFF8B
:0619E300051CBCFF011D04
:0519E9008A0B8B0C8C41
:0319EE000D8D0E4E
:0419F100850D23E558
:0A19F5000EC40354F8C523C403C553
:0419FF00236523C574
:061A03002354F8C5236521
:041A090023F524E5B8
:081A0D000CC40354074523F546
:031A150023850B1B
:081A180021E50CC40354F8C5DC
:061A200021C403C521658D
:061A260021C52154F8C5A2
:041A2C00216521F51A
:031A3000228521EB
:031A33000B8522FE
:031A36000C8523F9
:031A39000D8524F4
:091A3C000EAE18E4FFFAFBEE25E2
:081A450021FEEF3522FFEA3516
:071A4D0023FAEB3524FB8EA8
:041A54000B8F0C8A5E
:041A58000D8B0EE5FF
:091A5C000FC39EFEE5109FFFE59B
:081A6500119AFAE5129BFB8EB9
:041A6D000F8F108A3D
:041A7100118B128E35
:041A75000B8F0C8A3D
:041A79000D8B0EE5DE
:031A7D00176004EB
:041A80007A808002E6
:021A84007A00E6
:041A8600E5166004FD
:041A8A007B4080021B
:021A8E007B00DB
:0A1A9000EB4A78AC46F6E517600457
:041A9A007A04800248
:021A9E007A00CC
:041AA000E5166004E3
:041AA4007B0480023D
:021AA8007B00C1
:071AAA00EB2AF58202081689
:011AB1002212
:071AB2007526007527007581
:071AB900280090E67BE0F538
:081AC000257582041207EF12E4
:091AC800080D7582001208168554
:031AD1000B2B8557
:031AD4000C2C8552
:031AD7000D2D854D
:031ADA000E2E8548
:031ADD002B0F8547
:031AE0002C108542
:031AE3002D11853D
:031AE6002E12E5D8
:041AE9002B452C4518
:051AED002D452E7003E1
:031AF20075270154
:0C1AF5007407552BFAE4FDFBFC7403257C
:081B01002BFBE4352CFCE4355C
:071B09002DFDE4352EFE8BDB
:041B10000B8C0C8DA1
:0A1B14000DEEF50EC313FEED13FDF8
:0E1B1E00EC13FCEB13FBEEC313FEED13FDEC1A
:0A1B2C0013FCEB13FB8B0B8C0C8DEC
:041B36000D8E0EE51D
:031B3A002560081B
:041B3D0075293C7555
:041B41002A168006DA
:041B45007529FB758E
:021B49002A155B
:021B4B00C2B422
:041B4D00E527600721
:071B5100E5286003021D4EB0
:0B1B5800C002120781D002E50A6034D1
:051B63007401B50A1039
:041B6800E528700CF0
:0C1B6C00752801C00212080DD002801F75
:051B78007402B50A141F
:0B1B7D00C00212080DD002E527700F17
:091B880078AC7602752701800695
:061B9100752800021D4E44
:051B9700E5AA20E0B109
:041B9C00E5256005D6
:051BA000E5AA20E5A804
:041BA500E52770A41C
:071BA9007D007EF08E9A7DA5
:081BB000007EF07E008D9BE534
:031BB80025601293
:041BBB00E526700E9D
:071BBF007D007EF88E9D7D84
:071BC600007EF87E008D9EF9
:0E1BCD0090E690E0FD8D067D0090E691E0FF31
:0A1BDB007B002DF508EB3EF509AB89
:071BE50008AC09E4FDFEE578
:091BEC000BC39BFBE50C9CFCE51E
:081BF5000D9DFDE50E9EFE8B27
:041BFD000B8C0C8DB4
:061C01000D8E0EEA602CBE
:051C0700E50B450C4552
:051C0C000D450E7022E1
:0E1C11008A03FC74032BFBE43CFCA2E713CB1C
:0C1C1F0013CBA2E713CB13CBFCE508C3EA
:071C2B009BF508E5099CF59B
:011C320009A8
:061C3300E5084509600D03
:091C3900C002852982852A83126C
:041C4200006BD00261
:061C4600EA7003021CCB52
:051C4C00E50B450C450D
:051C51000D450E707549
:091C56007B0090E67BE0FC7D00C0
:051C5F00C3ED9A5023C3
:031C6400BD0405B7
:051C670090E67BE0FCAB
:0E1C6C00ECA2E092B2C313FCA2E092B3C31349
:061C7A00FCEBA2B013FB1D
:071C8000D2B4C2B40D80D8FC
:041C8700E525601CD3
:0E1C8B008A047D007408C39CFCE49DFD8CF06F
:051C990005F0EB8002E4
:021C9E00C3136E
:071CA000D5F0FB90E67CF09B
:0E1CA7008A037C0074032BFBE43CFCA2E713D1
:0C1CB500CB13CBA2E713CB13CBFCEB2529
:051CC10008F508EC35F8
:051CC60009F5097A0098
:041CCB00E525606348
:051CCF00E50B450C458A
:051CD4000D450E600447
:041CD900E52660524A
:071CDD000508E4B50802054B
:011CE40009F6
:081CE500E509C313C50813C58E
:041CED0008F509E508
:031CF10026602446
:081CF40090E680E0FB30E706FA
:061CFC007B007C02800465
:041D02007B407C00A6
:0C1D0600ECA2E713CB13CBFCEB2508F597
:051D120008EC3509F5A5
:011D170009C2
:0A1D180090E698E509F00000009045
:091D2200E699E508F000000075E7
:041D2B00260080030B
:031D2F0075260115
:0C1D320090E6497482F0000000E50B45CB
:041D3E000C450D45FE
:061D42000E6003021B4DC0
:061D4800752701021B4D8E
:0C1D4E00C00212090900120941D002E590
:041D5A0028700122CA
:0A1D5E00E50B25E0FBE50C33FCE586
:0A1D68000D33FDE50E33FEEB2BFBFF
:0C1D7200EC33FCED33FDEE33FE8B0B8CEC
:041D7E000C8D0D8E2D
:041D82000EEA603DC8
:041D8600EA30E21D40
:051D8A00AB0BAC0CAD39
:0A1D8F000DAE0E1BBBFF091CBCFFCC
:061D9900051DBDFF011E47
:051D9F008B0B8C0C8D84
:031DA4000D8E0E93
:0A1DA700E4FBFCFDEA250BFAEB3526
:081DB1000CFBEC350DFCED35D7
:051DB9000EFD8A0B8BFA
:041DBE000C8C0D8DEF
:011DC2000E12
:071DC300E50FC3950BFAE5E3
:051DCA0010950CFBE583
:051DCF0011950DFCE57B
:051DD40012950EFD8ACE
:041DD9000F8B108CD0
:041DDD00118D128AC8
:041DE1000B8B0C8CD0
:041DE5000D8D0EE56D
:031DE9002570085A
:051DEC00F50FF510F5F4
:031DF10011F512D7
:0C1DF40078ACE644C0F6758208020816C0
:011E000022BF
:0537D0000102000000F1
:0537D5000100000000EE
:0537DA000100000000E9
:0537DF0001F7000000ED
:0600E400752F00753000CD
:071E010078AAB60202807707
:071E080078ABB60002801167
:0B1E0F0012080D78AC760C75820012F2
:061E1A000816758201228A
:051E200078AAE670360F
:061E2500789FE630E41195
:0B1E2B0012080D78AC760375820012DF
:061E36000816758201226E
:061E3C00789FE630E01182
:0B1E420012080D78AC760375820012C8
:061E4D0008167582012257
:081E5300789FE64410F680249C
:051E5B0078AAB60108A1
:081E6000789FE654EFF68017AD
:061E6800789FE620E41162
:0B1E6E0012080D78AC7604758200129B
:061E79000816758201222B
:0A1E7F0078AAE624F75003021F378B
:0A1E890078AAE625E026901E937368
:071E9300021EAE021EC40294
:061E9A001ED4021EE1024D
:061EA0001EEB021EF5021C
:061EA6001F0C021F2302C5
:021EAC001F2DE8
:071EAE00752F0075300012D2
:091EB5001F3B12080D758200129A
:061EBE00081675820122E6
:0A1EC400121F4D12080D7582001266
:061ECE00081675820122D6
:0D1ED4009037F375F0801208A57582012289
:0A1EE100121F6A12202B75820122E5
:0A1EEB0012080D12202B758201224F
:0B1EF50090E67BE0FAF58212208112DB
:0C1F0000080D758200120816758201227F
:0B1F0C0090E67BE0FAF582121F5F12E6
:0C1F1700080D7582001208167582012268
:0A1F230075820112209175820122DF
:0A1F2D0075820012209175820122D6
:031F3700758200B0
:011F3A002284
:0E1F3B00C2B243B504D2B343B508C2B443B535
:031F490010D2B5FE
:011F4C002272
:0E1F4D00C2B5C2B253B5FBD2B353B5F7C2B49E
:031F5B0053B5EF8C
:011F5E002260
:051F5F00E582FA6003B9
:031F6400D2B322D3
:021F6700C2B303
:011F69002255
:0A1F6A007582041207EF12080D85BE
:031F74000B538587
:031F77000C548582
:031F7A000D55857D
:0A1F7D000E56906BFF75F0DC740245
:0E1F870012361BAA82AB83ACF0FD0ABA000929
:091F95000BBB00050CBC00010DA2
:051F9E008A0B8B0C8C86
:0A1FA3000D8D0EC374249AE49BE434
:051FAD009CE49D4004CE
:041FB2007530002264
:051FB600AA0BAB0CAC0E
:0A1FBB000DAD0EC374579AE49BE4C9
:051FC5009CE49D4004B6
:041FCA00753001224B
:0E1FCE00EA24C0FAEB34FFFBEC34FFFCED34E8
:091FDC00FFFD755318E4F554F5FE
:0A1FE50055F5568A828B838CF0EDCF
:0E1FEF0012361BAA82AB83ACF0FD0ABA0009C1
:091FFD000BBB00050CBC00010D3A
:052006008A0B8B0C8C1D
:04200B000D8D0E85A4
:03200F000B34850A
:032012000C358505
:032015000D368500
:0A2018000E37EB7006EC7003ED606C
:0120220004B9
:042023007530FF22F3
:03202700853430CD
:01202A002293
:04202B00E530700D1F
:07202F00750B56750C587586
:062036000D14F50E803FC1
:0C203C00E53075F018A4243FFAE435F0FC
:09204800FB8A53F5543395E0F5D1
:0A20510055F556906BFF75F0DC7436
:0E205B000212361BAA82AB83ACF0FD0ABA005B
:0A206900090BBB00050CBC00010DC3
:052073008A0B8B0C8CB0
:032078000D8D0EBD
:06207B0075820402081644
:0A208100AA8274075AF52F30E1031C
:03208B00D2B422AA
:02208E00C2B4DA
:01209000222D
:09209100AA82753900753A00902D
:09209A00E67BE0FB90E67BE0F53B
:0420A30038EA600BAC
:0820A70075320190E67BE0F5C3
:0320AF0033800C6F
:0720B20090E67BE0F53175BB
:0520B900330175320047
:0E20BE00758204C0031207EF0012080D758230
:0920CC0000120816D003AA0BAFA4
:0420D5000CAE0DAD93
:0420D9000E8A0F8FCD
:0420DD00108E118DC3
:0420E10012EB60049A
:0420E500D2B38002F0
:0220E900C2B380
:0720EB00E530600302218FC4
:0420F200E53260373C
:0420F600E53360333B
:0520FA00E52F30E217A4
:0520FF00E52F30E009AF
:04210400753B2E7584
:032108003C240272
:02210B0021BCF5
:04210D00753B8C751D
:032111003C240269
:0221140021BCEC
:05211600E52F30E00997
:04211B00753B727529
:03211F003C23025C
:0221220021BCDE
:04212400753BD075C2
:032128003C230253
:02212B0021BCD5
:04212D00E532602F08
:05213100E52F30E2156E
:05213600E52F30E00878
:04213B00753B9E75DD
:04213F003C25807942
:04214300753BF8757B
:042147003C25807142
:05214B00E52F30E00863
:04215000753BEA757C
:042154003C24806443
:04215800753B44751A
:04215C003C25805C42
:05216000E52F30E2153F
:05216500E52F30E00849
:04216A00753B087544
:04216E003C27804A40
:04217200753B6475E0
:042176003C27804240
:05217A00E52F30E00834
:04217F00753B5275E5
:042183003C26803541
:04218700753BAC7583
:04218B003C26802D41
:05218F00E52F30E21510
:05219400E52F30E0081A
:04219900753BC0755D
:04219D003C27801B40
:0421A100753B4675CF
:0421A5003C2880133F
:0521A900E52F30E00805
:0421AE00753B037505
:0421B2003C2880063F
:0421B600753B897577
:0221BA003C28BF
:0421BC00E53960079A
:0721C000E53A60030223036E
:0721C700120781E50A602CFC
:0521CE007401B50A0CCC
:0421D300E53A700871
:0821D700753A0112080D801B8E
:0521DF007402B50A10B6
:0721E40012080DE539700F30
:0921EB0078AC760275390180061A
:0621F400753A000223030E
:0421FA00E532600565
:0521FE00E5AA20E0B994
:04220300E53360055A
:05220700E5AA20E5B08E
:04220C00E53970AC94
:04221000E532600E45
:072214007E007FF08F9A7E2F
:07221B00007FF07F008E9BA5
:04222200E533600E32
:072226007E007FF88F9D7E12
:07222D00007FF87F008E9E88
:04223400E532601916
:0E22380090E690E0FE8E077E0090E691E0FAC0
:0A2246007D004EF508ED4FF509800C
:01225000533A
:04225100850F3D8533
:03225500103E85B3
:03225800113F85AE
:03225B001240909E
:07225E00E680E0FC30E7061A
:062265007A007B028004F8
:04226B007A407B003A
:0C226F008A04EB3395E0FAFDC3EC953DCA
:08227B00EB953EEA953FED955D
:03228300405018B0
:0822860090E680E0FA30E70663
:06228E007A007B028004CF
:042294007A407B0011
:062298008A088B09800694
:04229E00853D0885ED
:0222A2003E09F3
:0822A400AA08AB09E4FCFDE50A
:0922AC000FC39AFAE5109BFBE553
:0822B500119CFCE5129DFD8A5D
:0422BD000F8B108CE7
:0422C100118D1285E4
:0622C5003B82853C831200
:0622CB00006BE532600922
:0922D10090E6497482F00000005F
:0422DA00E533601276
:0A22DE0090E698E509F0000000907A
:0822E800E699E508F000000092
:0522F000E50F4510455B
:0622F50011451260030216
:0222FB0021BC04
:0622FD007539010221BC4D
:04230300E538600455
:04230700D2B38002CB
:02230B00C2B35B
:07230D00120909120941E564
:032314003A605AD2
:07231700E50BC3950FFAE589
:05231E000C9510FBE529
:052323000D9511FCE521
:052328000E9512FD8A74
:04232D000B8B0C8C7E
:042331000D8D0E8A76
:042335000F8B108C6E
:04233900118D12E50B
:03233D0032600407
:042340007A8080021D
:022344007A001D
:04234600E533600417
:04234A007B40800252
:02234E007B0012
:0A235000EB4A78AC46F6E532600473
:04235A007A0480027F
:02235E007A0003
:04236000E5336004FD
:042364007B04800274
:022368007B00F8
:07236A00EB2AF582020816C0
:012371002249
:08237200A908AA09E960010AAB
:0E237A0090E67BE03392B2B2B4B2B4A2B033BC
:0E23880092B2B2B4B2B4A2B03392B2B2B4B256
:0E239600B4A2B03392B2B2B4B2B4A2B03392D9
:0E23A400B2B2B4B2B4A2B03392B2B2B4B2B418
:0E23B200A2B03392B2B2B4B2B4A2B03392B2BF
:0E23C000B2B4B2B4A2B03390E67CF0D9ADDA7C
:0123CE00AB63
:0123CF0022EB
:0823D000A908AA09E960010A4D
:0E23D80090E67BE03392B2B2B4A2B033B2B45E
:0E23E60092B2B2B4A2B033B2B492B2B2B4A208
:0E23F400B033B2B492B2B2B4A2B033B2B4926B
:0E240200B2B2B4A2B033B2B492B2B2B4A2B0CD
:0E24100033B2B492B2B2B4A2B033B2B492B24C
:0E241E00B2B4A2B033B2B490E67CF0D9ADDA1D
:01242C00AB04
:01242D00228C
:08242E00A908AA09E960010AEE
:0E24360090E67BE01392B2B2B4B2B4A2B0133F
:0E24440092B2B2B4B2B4A2B01392B2B2B4B2B9
:0E245200B4A2B01392B2B2B4B2B4A2B013925C
:0E246000B2B2B4B2B4A2B01392B2B2B4B2B47B
:0E246E00A2B01392B2B2B4B2B4A2B01392B242
:0E247C00B2B4B2B4A2B01390E67CF0D9ADDADF
:01248A00ABA6
:01248B00222E
:08248C00A908AA09E960010A90
:0E24940090E67BE01392B2B2B4A2B013B2B4E1
:0E24A20092B2B2B4A2B013B2B492B2B2B4A26B
:0E24B000B013B2B492B2B2B4A2B013B2B492EE
:0E24BE00B2B2B4A2B013B2B492B2B2B4A2B031
:0E24CC0013B2B492B2B2B4A2B013B2B492B2D0
:0E24DA00B2B4A2B013B2B490E67CF0D9ADDA81
:0124E800AB48
:0124E90022D0
:0824EA00A908AA09E960010A32
:0324F20090E67BF6
:0E24F500E03392B2B2B4B2B4A2B03392B2B23B
:0E250300B4B2B4A2B03392B2B2B4B2B4A2B0C9
:0E2511003392B2B2B4B2B4A2B03392B2B2B44A
:0E251F00B2B4A2B03392B2B2B4B2B4A2B0332E
:0E252D0092B2B2B4B2B4A2B03392B2B2B4B2AF
:08253B00B4A2B033D9B4DAB246
:012543002275
:08254400A908AA09E960010AD7
:03254C0090E67B9B
:0E254F00E03392B2B2B4A2B033B2B492B2B2E0
:0E255D00B4A2B033B2B492B2B2B4A2B033B2F0
:0E256B00B492B2B2B4A2B033B2B492B2B2B46F
:0E257900A2B033B2B492B2B2B4A2B033B2B4D4
:0E25870092B2B2B4A2B033B2B492B2B2B4A265
:08259500B033B2B4D9B4DAB2DC
:01259D00221B
:08259E00A908AA09E960010A7D
:0325A60090E67B41
:0E25A900E01392B2B2B4B2B4A2B01392B2B2C6
:0E25B700B4B2B4A2B01392B2B2B4B2B4A2B035
:0E25C5001392B2B2B4B2B4A2B01392B2B2B4D6
:0E25D300B2B4A2B01392B2B2B4B2B4A2B013BA
:0E25E10092B2B2B4B2B4A2B01392B2B2B4B21B
:0825EF00B4A2B013D9B4DAB2B2
:0125F70022C1
:0825F800A908AA09E960010A23
:0326000090E67BE6
:0E260300E01392B2B2B4A2B013B2B492B2B26B
:0E261100B4A2B013B2B492B2B2B4A2B013B27B
:0E261F00B492B2B2B4A2B013B2B492B2B2B4DA
:0E262D00A2B013B2B492B2B2B4A2B013B2B45F
:0E263B0092B2B2B4A2B013B2B492B2B2B4A2D0
:08264900B013B2B4D9B4DAB247
:012651002266
:08265200A908AA09E960010AC8
:03265A0090E67C8B
:0E265D003392B2B2B4B2B4A2B03392B2B2B4FD
:0E266B00B2B4A2B03392B2B2B4B2B4A2B033E1
:0E26790092B2B2B4B2B4A2B03392B2B2B4B262
:0E268700B4A2B03392B2B2B4B2B4A2B03392E5
:0E269500B2B2B4B2B4A2B03392B2B2B4B2B424
:0826A300A2B033F0D9B4DAB2A1
:0126AB00220C
:0826AC00A908AA09E960010A6E
:0326B40090E67C31
:0C26B700E5313392B2B2B4A2B033B2B439
:0E26C30092B2B2B4A2B033B2B492B2B2B4A228
:0E26D100B033B2B492B2B2B4A2B033B2B4928B
:0E26DF00B2B2B4A2B033B2B492B2B2B4A2B0EE
:0E26ED0033B2B492B2B2B4A2B033B2B492B26D
:0C26FB00B2B4A2B033B2B4F0D9B2DAB07D
:0127070022AF
:08270800A908AA09E960010A11
:0327100090E67CD4
:0C271300E5311392B2B2B4B2B4A2B0131C
:0E271F0092B2B2B4B2B4A2B01392B2B2B4B2DB
:0E272D00B4A2B01392B2B2B4B2B4A2B013927E
:0E273B00B2B2B4B2B4A2B01392B2B2B4B2B49D
:0E274900A2B01392B2B2B4B2B4A2B01392B264
:0C275700B2B4B2B4A2B013F0D9B2DAB040
:012763002253
:08276400A908AA09E960010AB5
:03276C0090E67C78
:0C276F00E5311392B2B2B4A2B013B2B4C0
:0E277B0092B2B2B4A2B013B2B492B2B2B4A28F
:0E278900B013B2B492B2B2B4A2B013B2B49212
:0E279700B2B2B4A2B013B2B492B2B2B4A2B055
:0E27A50013B2B492B2B2B4A2B013B2B492B2F4
:0C27B300B2B4A2B013B2B4F0D9B2DAB0E4
:0127BF0022F7
:0827C000A908AA09E960010A59
:0627C800E532600274FF1F
:0827CE0004FBE533600274FF17
:0227D60004FC01
:0927D800E531BB000490E67BE052
:0227E1007D0871
:0727E30013B2B492B2A8305A
:0827EA00D8FEB2B4A2B0A83081
:0C27F200D8FEDDED13BC000490E67CF086
:0427FE00D9D8DAD676
:0128020022B3
:08280300A908AA09E960010A15
:06280B00E532600274FFDB
:0828110004FBE533600274FFD3
:0228190004FCBD
:09281B00E531BB000490E67BE00E
:022824007D082D
:0728260033B2B492B2A830F6
:08282D00D8FEB2B4A2B0A8303D
:0C283500D8FEDDED33BC000490E67CF022
:04284100D9D8DAD632
:012845002270
:08284600A908AA09E960010AD2
:06284E00E532600274FF98
:0828540004FBE533600274FF90
:02285C0004FC7A
:09285E00E531BB000490E67BE0CB
:022867007D08EA
:052869001392B2A8303B
:08286E00D8FEB2B4A2B0A830FC
:0E287600D8FEB2B4DDED13BC000490E67CF099
:04288400D9D8DAD6EF
:01288800222D
:08288900A908AA09E960010A8F
:06289100E532600274FF55
:0828970004FBE533600274FF4D
:02289F0004FC37
:0928A100E531BB000490E67BE088
:0228AA007D08A7
:0528AC003392B2A830D8
:0828B100D8FEB2B4A2B0A830B9
:0E28B900D8FEB2B4DDED33BC000490E67CF036
:0428C700D9D8DAD6AC
:0128CB0022EA
:0537E4000102000000DD
:0537E9000100000000DA
:0537EE000100000000D5
:0537F30001F7000000D9
:0A28CC00C28CC28D78AD868A78AD0B
:0328D60008868CE5
:0128D90022DC
:0728DA0078AAB6020280603B
:0728E10078ABB60002801184
:0B28E80012080D78AC760C758200120F
:0628F300081675820122A7
:0528F90078AAE6701F43
:0628FE00789FE630E211B4
:0B29040012080D78AC760375820012FB
:06290F000816758201228A
:08291500789FE64404F68024DB
:05291D0078AAB60108D4
:08292200789FE654FBF68017D4
:06292A00789FE620E21197
:0B29300012080D78AC760475820012CE
:06293B000816758201225E
:0A29410078AAE624F85003022A2BBE
:0A294B0078AAE625E02690295573CE
:0729550002296D02296D0249
:06295C00297F02298C0214
:062962002A11022A1902ED
:052968002A21022A26CD
:0C296D0012080D78ADE4F608F675820043
:06297900120816022A2FCD
:0D297F009037FD75F0801208A575820122C9
:0A298C007582041207EF12080D75A2
:0629960053FAE4F554F5CC
:04299C0055F5568512
:0629A0000B82850C83850B
:0529A6000DF0E50E122A
:0C29AB00361BAA82AB83ACF0FD8A0B8BBC
:0429B7000C8C0D8DEA
:0729BB000EEC7003ED600C4F
:0729C200750BFF750CFF759A
:0529C9000D00750E0079
:0929CE00E50BF4FAE50CF4FBE55D
:0829D7000DF4FCE50EF4FD789F
:0829DF00ADA60208A603850B5A
:0329E70053850C09
:0329EA0054850D04
:0329ED0055850EFF
:0C29F000569000FAE4F5F0123699AA8225
:0A29FC00AB83ACF0FD8A0B8B0C8C52
:072A06000D8D0E7582041214
:042A0D000816801E09
:082A1100758201122DE7801609
:082A1900758200122DE7800E0A
:052A2100122AA3800948
:052A2600122C228004C7
:042A2B00758200228E
:032A2F00758201AC
:012A32002281
:0E2A330090E6F3E0FA4480F000000090E67BAD
:0C2A4100E0FA90E6F1F0000000022A83A9
:0E2A4D0090E6F3E0FA547FF000000090E67B84
:0C2A5B00E0FA90E6F1F0000000022A838F
:0B2A670090E6F1E0122A83E582600D8A
:0D2A720090E6F2E0FA90E67CF07582012219
:032A7F007582005D
:012A82002231
:052A83001228CCD28CEA
:052A8800E5BB20E7039F
:032A8D00308DF891
:052A9000E5BB30E70486
:042A95007582012223
:092A990090E6F574FFF07582006F
:012AA2002211
:0A2AA300E4FAFBF508F5097582045A
:0D2AAD00C002C0031207EFD00300C00312E7
:0D2ABA00080D758200120816D003D002AC82
:042AC7000BAD0CAE99
:042ACB000DAF0E8CB1
:042ACF000F8D108EC9
:092AD300118F12EC4D4E4F700200
:022ADC007B017C
:032ADE00EB6006A4
:062AE100EA6003022BEE87
:0D2AE700C002C003120781D003D002E4B585
:042AF4000A02804012
:052AF8007401B50A1293
:032AFD00EA700F6D
:0E2B00007A01C002C00312080DD003D002807B
:012B0E00299D
:052B0F007402B50A1F6D
:0E2B1400C002C00312080DD003D002EB7016F1
:0C2B220090E6A37401F00000007B017835
:052B2E00AC76028005F9
:052B33007A00022BEE08
:032B3800EB70A39C
:062B3B00E5084509702ABF
:052B4100E5AA20E025DB
:072B46007C007DF08D9A7CFC
:082B4D00007DF07D008C9B90DF
:0E2B5500E690E0FC8C057C0090E691E0FE7FAF
:082B6300002CF508EF3DF50917
:072B6B00E5084509700302B3
:022B72002ADE59
:0E2B7400C002C003122A33E582D003D00270E3
:012B8200064C
:062B830078AC76058052DB
:0E2B8900C002C003122A4DE582D003D00270B4
:012B97000637
:062B980078AC7606803DDA
:072B9E00E50824FEF508E53F
:062BA5000934FFF509AC44
:042BAB000BAD0CAEB4
:0A2BAF000DAF0E1CBCFF091DBDFF99
:062BB900051EBEFF011F16
:052BBF008C0B8D0C8E53
:092BC4000D8F0EEC4D4E4F700216
:022BCD007B018A
:062BCF00E508450970064F
:062BD50090E6497482F055
:082BDB0078ACB60003022ADE0B
:0B2BE3007B0190E6A37401F0022ADEE3
:0A2BEE00C002120909D002EA6029B2
:072BF800E50FC3950BFAE5A0
:052BFF0010950CFBE540
:052C040011950DFCE537
:052C090012950EFD8A8A
:042C0E000B8B0C8C94
:042C12000D8D0E789E
:0B2C1600ACE64480F67582040208164C
:012C21002290
:0A2C2200E4FAFBF508F509758204D9
:0D2C2C00C002C0031207EFD00300C0031266
:0D2C3900080D758200120816D003D002AC01
:042C46000BAD0CAE18
:042C4A000DAF0E8C30
:042C4E000F8D108E48
:092C5200118F12EC4D4E4F70027F
:022C5B007B01FB
:032C5D00EB600623
:062C6000EA6003022DA74B
:0D2C6600C002C003120781D003D002E4B504
:042C73000A0280468B
:052C77007401B50A1212
:032C7C00EA700FEC
:0E2C7F007A01C002C00312080DD003D00280FB
:012C8D002F17
:052C8E007402B50A25E7
:0E2C9300C002C00312080DD003D002EB701C6B
:0E2CA10090E6A37401F000000090E6A5740117
:092CAF00F07B0178AC760280058F
:052CB8007A00022DA7C7
:032CBD00EB709D1C
:062CC000E5084509703D26
:052CC600E5AA20E03842
:052CCB00E5AA20E5333D
:072CD0007C007DF08D9A7C71
:082CD700007DF07D008C9B7C68
:062CDF00007DF88D9D7CD4
:082CE500007DF87D008C9E903B
:0E2CED00E690E0FC8C057C0090E691E0FE7F16
:082CFB00002CF508EF3DF5097E
:072D0300E508450970030219
:022D0A002C5D3E
:0E2D0C00C002C003122A33E582D003D0027049
:012D1A0006B2
:062D1B0078AC7605806A29
:0E2D2100C002C003122A67E582D003D0027000
:012D2F00069D
:062D300078AC7606805528
:082D3600150874FFB508021531
:012D3E00098B
:052D3F00AC0BAD0CAE71
:0A2D44000DAF0E1CBCFF091DBDFF02
:062D4E00051EBEFF011F7F
:052D54008C0B8D0C8EBC
:092D59000D8F0EEC4D4E4F70027F
:022D62007B01F3
:062D6400E508450970219D
:0D2D6A0090E690E0FC90E698F000000090EC
:0C2D7700E691E0FC90E699F0000000906E
:082D8300E6497482F000000033
:082D8B0078ACB60003022C5DD8
:0E2D930090E6A37401F000000090E6A5740124
:062DA100F07B01022C5D35
:0E2DA700C00212090900120941D002EA60318F
:072DB500E50FC3950BFAE5E1
:052DBC0010950CFBE581
:052DC10011950DFCE579
:052DC60012950EFD8ACC
:042DCB000F8B108CCE
:042DCF00118D128AC6
:042DD3000B8B0C8CCE
:042DD7000D8D0E78D8
:0B2DDB00ACE644C0F675820802081642
:012DE60022CA
:0C2DE7008582417B007C00C003C0041208
:0A2DF3002A33E582D004D003700DEE
:0B2DFD0012080D78AC7605758200020C
:022E08000816AA
:0E2E0A00758204C003C0041207EFD00400C09C
:0B2E18000412080DD004D003E50B45A8
:042E23000C450D4508
:032E27000E700228
:022E2A007C0129
:0A2E2C0090E6F574FFF090E6CEE5A5
:092E36000EF000000090E6CFE56B
:092E3F000DF000000090E6D0E562
:092E48000CF000000090E6D1E559
:0C2E51000BF0C003C0041228CCD004D049
:0A2E5D000390E6D1E0FDE541601CA2
:0E2E670090E6187410F000000090E6D274019E
:072E7500F0000000EC7031D9
:072E7C00F5BB000000802AF5
:0E2E8300C003C004C00512096CD005D004D0F5
:0E2E91000390E61A7408F000000090E6E27468
:082E9F0002F0000000EC7006D7
:062EA70075BB06000000EF
:0E2EAD00758200C003C004C005120816D005CF
:042EBB00D004D0036C
:032EBF00EC6006BE
:062EC200EB6003022FBDCE
:0E2EC800C003C004C005120781D005D004D09D
:072ED60003E4B50A02806667
:052EDD007401B50A16A6
:032EE200EB70137F
:0E2EE5007B01C003C004C00512080DD005D04B
:052EF30004D003804B38
:052EF8007402B50A425E
:0E2EFD00C003C004C00512080DD005D004D0DB
:042F0B0003EC70342F
:052F0F0078ACE670043F
:042F140078AC76021D
:042F1800E541600827
:082F1C0090E6A37401F08006A9
:062F240090E6A57401F027
:082F2A00000000E5BB20E709EF
:092F320000000090E6F574FFF0C8
:042F3B007C01800491
:042F3F007B00807A19
:052F4300E5BB20E75D85
:0A2F480090E6D1E0FEB5050280120C
:0E2F5200C003C0041228CCD004D00390E6D1F6
:042F6000E0FD8024EC
:032F6400308D218C
:082F670078AC7606E541600834
:082F6F0090E6A37401F0800656
:062F770090E6A57401F0D4
:0B2F7D007C0100000090E6F574FFF0FE
:042F8800E5416005BA
:052F8C00E5AA30E00F92
:072F9100E5416003022EBFC1
:082F9800E5AA30E503022EBF9B
:052FA000D28C022EBFDF
:062FA500EC6003022EBFE8
:042FAB00E541700983
:092FAF0090E6487406F0000000F1
:052FB8007C01022EBFA8
:0E2FBD00C00312090900120941D003EB700194
:012FCB0022E3
:0C2FCC0090E6CEE0FB7C007D007E008BD8
:052FD800457542007583
:062FDD0043007544009062
:0E2FE300E6CFE0FF7A007B008A048F03E4FA59
:082FF100FF4242EA4243EB42B9
:052FF90044EC4245908C
:0E2FFE00E6D0E0FD7E007A008A038E028D068A
:09300C00E4FD4242EE4243EA42B7
:0530150044EB42459070
:0C301A00E6D1E0FCE4FFFAFBE5424204D2
:09302600E5434207E5444202E5DE
:09302F00454203E50BC39CFCE5DE
:083038000C9FFFE50D9AFAE57B
:063040000E9BFB8C0B8FC0
:043046000C8A0D8B58
:05304A000EE5416004E9
:04304F007A80800201
:023053007A40C1
:0B30550078ACEA46F67582040208160B
:01306000224D
:0537F8000102000000C9
:0537FD000100000000C6
:053802000100000000C0
:0538070001F7000000C4
:0D30610090E60174FAF090E6F574FFF0902F
:0A306E0038B0E493FA90E6F3F09016
:0A30780038B1E493FA90E6C3F0903B
:0A30820038B2E493FA90E6C1F09032
:0A308C0038B3E493FA90E6C2F09026
:0A30960038B5E493FA90E6C0F0901C
:0D30A00038B6E493FA90E6F4F075AF077AC5
:0630AD000C7B388B9A7ABF
:0A30B3000C7B387B008A9B759DE4BE
:0530BD00759E007A0081
:0330C200BA8000D1
:0230C500500CAD
:0C30C70090E67BE0FB90E67CF00A80EFD6
:0E30D30090E67174FFF075B4FF90E672E0FABB
:0E30E1004480F043B68000000090E6C4E4F0A6
:0E30EF0000000090E6C5E4F090388CE493FAFF
:0B30FD0090E6C6F090388DE493FA9046
:0A310800E6C7F090388EE493FA90C9
:0A311200E6C8F090388FE493FA90BD
:0A311C00E6C9F0903890E493FA90B1
:0A312600E6CAF0903891E493FA90A5
:0A313000E6CBF0903892E493FA9099
:0A313A00E6CCF0903893E493FA908D
:03314400E6CDF0E5
:013147002265
:0E380C0081B90101010101072303020202023A
:0E381A000200F7F5F5F5F5F5F5F700000000F2
:0E3828000000003F0C8A9A3FA5B53F07210320
:0E383600030103030500F3F3F2F3F3F1F3F7DC
:0E3844003F0000000000003F819138010101AB
:0E38520001070101070202020200F7F5F7F775
:0E386000F7F7F7F7000075000000003F8191B8
:0E386E003801010101070303050000000000FE
:0E387C00F3F1F3F3F3F3F3F700006E00000036
:02388A00003FFD
:0E388C0000000000000000000000000000002E
:0E389A00000000000000000000000000000020
:0838A800000000000000000018
:0738B000E08000F7FA4E0072
:0731480078AAB602028060C4
:07314F0078ABB6000280110D
:0B31560012080D78AC760C7582001298
:0631610008167582012230
:0531670078AAE6701FCC
:06316C00789FE630E3113C
:0B31720012080D78AC76037582001285
:06317D0008167582012214
:08318300789FE64408F6802461
:05318B0078AAB601085E
:08319000789FE654F7F6801762
:06319800789FE620E31120
:0B319E0012080D78AC76047582001258
:0631A900081675820122E8
:0731AF0078AAE624FB403B77
:0A31B60078AAE625E0269031C073E8
:0731C0000231CF0231CF0202
:0631C70031DA0231E702DB
:0231CD0031ECE3
:0B31CF0012080D758200120816801B0C
:0D31DA009038C175F0801208A575820122A1
:0531E7001231F980091E
:0531EC00123512800401
:0431F10075820022C1
:0331F500758201DF
:0131F80022B4
:0731F90075460075470075E3
:0932000048007582081207EF1264
:0B320900080D758200120816C28090AC
:0E321400E618E4F000000090E61AE4F0000076
:0E3222000090E6027468F000000090E630E4D0
:0E323000F000000090E631E4F090E680E0FD52
:03323E0030E70670
:063241007D007E02800406
:043247007D407E0048
:05324B008D498E4AAF21
:043250000FAB10AA06
:0432540011AC128522
:03325800494B855A
:03325B004A4C7565
:08325E004D00754E00C3EF9511
:063266004BEB954CEA95CC
:06326C004DEC954E502CC4
:053272008F498B4AADFD
:0C3277004A90E63474C04DF00000009056
:07328300E635E549F0E4F532
:04328A0008F50975C5
:06328E004701750F0075F9
:0632940010007511007529
:04329A00120080722C
:08329E0090E680E0FD30E7132B
:0E32A60090E63474C8F000000090E635E4F0C5
:0532B400000000801283
:0E32B90090E63474C0F000000090E6357440DA
:0432C700F000000013
:0A32CB00EFC3954BFFEB954CFBEAB7
:0832D500954DFAEC954EFC8FBB
:0432DD000F8B108AB9
:0432E100118C1285B5
:0332E5000F4F8503
:0332E800105085FE
:0332EB00115185F9
:0532EE001252C3EF9530
:0632F3004BEB954CEA953F
:0632F9004DEC954E500B58
:0432FF00854F08856A
:03330300500975F9
:0433060047018006F5
:04330A008549088564
:02330E004A096A
:0A33100090E601E0FA4403F0D287D2
:04331A00E54860071B
:07331E00E546600302349054
:07332500120781E50A602E8A
:05332C007401B50A0C5C
:04333100E5467008F5
:0833350012080D754601801D10
:05333D007402B50A1244
:0733420012080DE5487011AF
:0A334900C28778AC76027548018057
:013353000673
:06335400754600023490F2
:04335A00E54870BC16
:05335E00E5AA20E05883
:0E33630090E690E0FA8A037A00EB3395E0FCE6
:08337100FDE50BC39AF54FE5E1
:053379000C9BF550E57E
:05337E000D9CF551E576
:053383000E9DF55285CE
:033388004F0B8563
:03338B00500C855E
:03338E00510D8559
:03339100520E9049
:0C339400E691E0FEE4FFFAFBE54FC39E6B
:0A33A000FEE5509FFFE5519AFAE5A3
:0633AA00529BFB8E0B8F0D
:0433B0000C8A0D8BEB
:0733B4000E90E6497402F0DF
:0B33BB0090E6A9E0FA20E2030234676C
:0E33C60090E6A5E0FA530270BA3003023467B5
:0433D400E547601554
:0C33D800AA0990E63474C04AF00000001E
:0933E40090E635E508F000000058
:0A33ED0090E698E54AF00000009019
:0933F700E699E549F000000085AB
:03340000084985F3
:03340300094AE58E
:05340600084509605CAF
:08340B00AA08AB09E4FCFDE591
:093413000FC39AFAE5109BFBE5DA
:08341C00119CFCE5129DFD8AE4
:043424000F8B108C6E
:04342800118D12856B
:03342C000F4F85BA
:03342F00105085B5
:03343200115185B0
:03343500125290A0
:07343800E680E0FE30E7062C
:06343F007E007F02800404
:043445007E407F0046
:0B344900EF3395E0FAFBC3E54F9EE572
:06345400509FE5519AE5CE
:04345A00529B500928
:04345E00850F088549
:03346200100975D9
:0234650047011D
:07346700E549454A6003023C
:02346E00331A0F
:0B34700090E6A7E0FA20E20302331A06
:05347B00E50B450C45C6
:063480000D450E60030281
:02348600331AF7
:08348800754801C28702331AE6
:0E349000C28790E601E054FEF0E0FA4402F03C
:07349E00120909120941E5C2
:0334A50046606717
:0534A80078ACE6705C49
:0734AD0090E6ACE0FA70119B
:0734B40090E6ABE0FA700A9C
:0534BB00E50B450C4586
:0534C0000D450E602621
:0634C500E549454A6006DE
:0634CB0078AC760A80389F
:0734D10090E6B0E0FA70077D
:0734D80090E6AFE0FA600688
:0634DF0078AC760B80249E
:0634E50078AC7607801EA2
:0634EB00E549454A6006B8
:0634F10078AC76088012A1
:0734F70090E6AFE0FA700758
:0734FE0090E6B0E0FA600463
:0435050078AC76091F
:0635090075820012081695
:02350F00D28068
:013511002297
:0D3512007A007B007C00C002C003C00412E0
:0E351F00080D758200120816D004D003D002E9
:0E352D00C28090E6187410F000000090E61ABC
:0D353B007408F0000000C002C003C00412BC
:0E354800096CD004D003D00290E60274E8F0C3
:0E35560000000090E601E0FD4403F0D28790F3
:0C356400E630E4F000000090E631E4F0F6
:03357000EA60030B
:03357300EB706397
:0E357600C002C003C004120781D004D003D0ED
:0535840002E50A603CB5
:053589007401B50A16F3
:03358E00EA7013CD
:0E3591007A01C002C003C00412080DD004D09D
:05359F0003D0028021B1
:0535A4007402B50A18D5
:0E35A900C002C003C00412080DD004D003D02D
:0435B70002EB700AA9
:0635BB007C017B0180048D
:0435C1007A008014F8
:0335C500EB70A800
:0335C800EA60A511
:0835CB0090E6A7E0FD30E29D4F
:0635D3007B01C287809716
:0E35D900C28790E601E054FEF0E0FB4402F0F1
:0D35E700C002C004120909D00400C0041283
:0935F4000941D004D002EA601B79
:0335FD00EC70125D
:0736000090E6ABE0FA700751
:0736070090E6ACE0FA60045C
:04360E0078AC760717
:063612007582001208168B
:02361800D2805E
:01361A00228D
:0538B700010200000009
:0538BC00010000000006
:0538C100010000000001
:0538C60001F700000005
:0EE10000120100020000004043140500000060
:04E10E000102000109
:0AE112000A060002000000400100B0
:0EE11C0009022E0001010080FA09040000042F
:0EE12A00FF000000070501024000000705810C
:0EE138000240000007050202000200070586F3
:04E1460002000200D1
:0EE14A0009022E0001010080FA090400000401
:0EE15800FF00000007050102400000070581DE
:0EE16600024000000705020240000007058687
:04E174000240000065
:02E178000000A5
:093F00000205B1000205E5000212
:083F090005CF00020649000289
:083F110005FB00020667000237
:083F190006C1000206C100020E
:083F210006C1000206C1000206
:083F290006C1000206C10002FE
:083F310006C1000206C10002F6
:083F390006C1000206C10002EE
:083F410006C1000206C10002E6
:083F490006C1000206C10002DE
:083F510006C1000206C10002D6
:083F590006C1000206C10002CE
:083F610006C1000206C10002C6
:083F690006C1000206C10002BE
:083F710006C1000206C10002B6
:083F790006C1000206C10002AE
:083F810006C1000206C10002A6
:083F890006C1000206C100029E
:083F910006C1000206C1000296
:083F990006C1000206C100028E
:083FA10006C1000206C1000286
:083FA90006C1000206C100027E
:073FB10006C1000206C10079
:08361B00FB7A20E4FCFDFEFF38
:0E362300E5822582F582E58333F583E5F033F9
:0B363100F5F0EB33FB4017DAE98042B4
:0E363C00E5822582F582E58333F583E5F033E0
:05364A00F5F0EB33FB7D
:0E364F00EC33FCED33FDEE33FEEF33FFEC9574
:06365D0053ED9554EE95BB
:0836630055EF95564013EC955C
:08366B0053FCED9554FDEE95B2
:0936730055FEEF9556FF4382015C
:02367C00DABEB4
:02367E00EB223D
:06009C00E478FFF6D8FD38
:08007A007900E94400601B7AE3
:05008200009038CB786E
:030087000075A061
:0A008A00E0E493F2A308B8000205B9
:08009400A0D9F4DAF275A0FF17
:0E36800020F71030F6118883A88220F507F697
:05368E00A88375830014
:013693002214
:03369400F280F7CA
:02369700F0221F
:0C369900AAF0FBE5828553F0A4FCADF024
:0C36A500E5838553F0A42DFDE435F0FE14
:0C36B100E5828554F0A42DFDE5F03EFEFE
:0C36BD00E433FFEA8553F0A42EFEE5F094
:0C36C9003FFFE5838554F0A42EFEE5F0E1
:0C36D5003FFFE5828555F0A42EFEE5F0D5
:0B36E1003FFFEB8553F0A42FFFEA85AC
:0A36EC0054F0A42FFFE5838555F08C
:0C36F600A42FFFE5828556F0A42F8EF073
:053702008D838C822282
:0400A20075A00078CD
:0700A60000E8440060077947
:0600AD0000E4F309D8FC99
:0800B3007800E84400600C79BC
:0B00BB000090E000E4F0A3D8FCD9FAAC
:02006B00E4733C
:0E37070090E682E044C0F090E681F043870136
:0E3715000000000000000000000000000000A6
:0E372300000000000000000000000000000098
:093731000000000000000000226D
:03006D0075815644
:0A007000123756E5826003020066B5
:0E373A0020F71430F6148883A88220F507E6E5
:06374800A8837583002236
:03374E00E280F71F
:03375100E49322DC
:02375400E02271
:043756007582002256
:00000001FF
