:0400000002006D325B
:01000B0032C2
:0100130032BA
:01001B0032B2
:0100230032AA
:01002B0032A2
:030033000206B40E
:01003B003292
:03004300021F0099
:01004B003282
:03005300021F0089
:01005B003272
:030063000206B8DA
:0300E400020066B1
:050066001200E780FE1E
:0900E700788176007880760090A3
:0E00F000E60B7403F000000000000090E60034
:0E00FE007410F075800075B20675900075B331
:0E010C00FF75B03E75B53F90E67AE0FA44010B
:0B011A00F090E60174E0F01202729019
:0E012500E6097403F000000075890100000077
:06013300788276000876D8
:04013900E17884766F
:05013D00120876E178D4
:0501420086761C087622
:04014700E17888765D
:0A014B004A0876E1D2E843D820907C
:0E015500E668E0FA4409F090E65CE0FA443D0A
:0E016300F090E682E4F0D2AF90E680E0FA542D
:05017100F7F0538EF8C9
:080176001201BB789EE6600750
:07017E00120197789E760044
:050185007881E660072F
:07018A0078817600121D953B
:050191001206B880E039
:010196002246
:0A01970090E680E0FA440AF07A00D6
:0201A100DAFE84
:0E01A30090E65D74FFF090E65F74FFF05391FC
:0901B100EF90E680E0FA54F7F04B
:0101BA002222
:0601BB007880E6700122CD
:0501C100AA08AB09785B
:0901C60096A60208A603788EA695
:0601CF000B08A60C08A6B7
:0501D5000D08A60E78E4
:0501DA0092A60F08A62B
:0601DF001008A61108A69D
:0601E500127898A69B7839
:0801EB0099A69A789AA69E7865
:0A01F3009BA69D1202F4E58270083D
:0801FD0090E6A0E0FA4401F0D5
:0C02050090E6A0E0FA4480F078807600DB
:06021100789686080886BD
:0A02170009788E8602088603088627
:09022100040886058A0B8B0C8C85
:04022A000D8D0E78B0
:0C022E00928602088603088604088605F4
:05023A008A0F8B108CFF
:04023F00118D127893
:0802430098869B7899869A7851
:07024B009A869E789B869DB8
:010252002289
:0E02530090E6837401F07421F07411F07431A0
:0E026100F090E6837402F07422F07416F074CC
:02026F0036F067
:01027100226A
:0E02720090E610E4F000000090E611E4F000C9
:0E028000000090E612E4F000000090E613E4A7
:0D028E00F000000090E614E4F00000009085
:0E029B00E615E4F000000090E618E4F0000024
:0E02A9000090E619E4F000000090E61AE4F080
:0E02B70000000090E61BE4F000000090E6104E
:0E02C50074A0F000000090E61174A0F000009C
:0E02D3000090E61274A0F000000090E6147493
:0E02E100E0F000000090E68DE4F00000001256
:0502EF00091E0208E6F3
:0C02F40090E6B9E0FA24F450030205A1E2
:07030000EA2A2A90030773AB
:070307000203EE020478027C
:06030E0005A10205260214
:0603140005A10205A10293
:06031A00032B0205A10205
:0603200003D90203C7022D
:0503260003A00203B575
:0A032B0090E6BBE0FABA0102800F71
:05033500BA0202802065
:05033A00BA060280314B
:05033F00BA075A8042DC
:09034400788290E6B308E6F07837
:0B034D008286027B0090E6B4EAF0021A
:0203580005A4FA
:09035A00788A90E6B308E6F07819
:0B0363008A86027B0090E6B4EAF002FC
:02036E0005A4E4
:09037000788490E6B308E6F07809
:0B0379008486027B0090E6B4EAF002EC
:0203840005A4CE
:09038600788C90E6B308E6F078EB
:0B038F008C86027B0090E6B4EAF002CE
:02039A0005A4B8
:04039C007582002244
:0803A00090E740789DE6F09023
:0B03A800E68AE4F090E68B7401F0029E
:0203B30005A49F
:0A03B50090E6BAE0FA789DA6021265
:0603BF000272120253025B
:0203C50005A48D
:0A03C70090E6BAE0FA789CA6021254
:0603D10002721202530249
:0203D70005A47B
:0803D90090E740789CE6F090EB
:0B03E100E68AE4F090E68B7401F00265
:0203EC0005A466
:0A03EE0090E6B8E0FABA8002800A37
:0503F800BA8102801B28
:0503FD00BA8274802C9F
:0A04020090E740E4F090E741F0902D
:0A040C00E68AF090E68B7402F0021D
:0204160005A43B
:0A04180090E740E4F090E741F09017
:0A042200E68AF090E68B7402F00207
:02042C0005A425
:0E042E0090E6BCE0FA53027E90E6BCE0FBC311
:0E043C0074809BE433FB4A901DED93FA3395D8
:0E044A00E0FB74A12AFA74E63BFB8A828B83E6
:0E045800E0FA53020190E740EAF090E741E439
:0C046600F090E68AF090E68B7402F00241
:0204720005A4DF
:04047400758200226B
:0704780090E6B8E0FA60080D
:05047F00BA0202801228
:030484000205224C
:0B04870090E6BAE0FABA01030205A4F7
:04049200758200224D
:0904960090E6BAE0600302051EC5
:0E049F0090E6BCE0FA53027E90E6BCE0FBC3A0
:0E04AD0074809BE433FB4A901DED93FA339567
:0E04BB00E0FB74A12AFA74E63BFB90E6BCE07D
:0E04C900FC53047E90E6BCE0FDC374809DE40D
:0E04D70033FD4C901DED93FC3395E0FD74A1B8
:0E04E5002CFC74E63DFD8C828D83E0FC5304FC
:0E04F300FE8A828B83ECF090E6BCE05480FA27
:0E050100C423541FFA90E6BCE0FB740F5B901D
:0D050F00E6832AF090E683E0FA4420F00233
:02051C0005A434
:04051E0075820022C0
:0405220075820022BC
:0705260090E6B8E0FA600561
:05052D00BA026D800E12
:0A05320090E6BAE0FABA020280680F
:04053C0075820022A2
:0E05400090E6BCE0FA53027E90E6BCE0FBC3FE
:0E054E0074809BE433FB4A901DED93FA3395C5
:0E055C00E0FB74A12AFA74E63BFB90E6BCE0DB
:0E056A00FC53047E90E6BCE0FDC374809DE46B
:0E05780033FD4C901DED93FC3395E0FD74A116
:0E0586002CFC74E63DFD8C828D83E0FC43046A
:09059400018A828B83ECF08007E0
:04059D007582002241
:0305A100020A75D6
:0305A4007582015C
:0105A7002231
:0C05A800C0E0C082C083C00078807601F3
:0905B4005391EF90E65D7401F033
:0905BD00D000D083D082D0E032DE
:0E05C600C0E0C082C0835391EF90E65D7404E4
:0105D400F036
:0705D500D083D082D0E03298
:0E05DC00C0E0C082C0835391EF90E65D7402D0
:0105EA00F020
:0705EB00D083D082D0E03282
:0D05F200C0E0C082C083C002C003C000781A
:0A05FF00888602088603788AA602A7
:0C06090008A6038A828B83A37402F07899
:0A061500868602088603788CA60290
:0E061F0008A6038A828B83A37407F05391EF21
:06062D0090E65D7410F080
:0D063300D000D003D002D083D082D0E032BE
:0C064000C0E0C082C083C0007881760159
:09064C005391EF90E65D7408F093
:09065500D000D083D082D0E03245
:0D065E00C0E0C082C083C002C003C0009095
:07066B00E680E0FA30E72C05
:0A06720078868602088603788AA6BF
:0D067C000208A6038A828B83A37402F07823
:0A068900888602088603788CA6021A
:0B06930008A6038A828B83A37407F083
:09069E005391EF90E65D7420F029
:0D06A700D000D003D002D083D082D0E0324A
:0306B40053D8EF29
:0106B7003210
:051DE8000102000000F3
:0A1DED0000010202030304040505CF
:0A00C600789E7600789FE4F608F6B5
:0C00D00008F608F678A3E4F608F608F637
:0800DC0008F678A7E4F608F627
:0706B8001206F6E582601452
:0706BF001206D4E582700D64
:0B06C6001207EA78AC76017582000292
:0206D10007F32D
:0106D3002204
:0706D40078A9B60002800EB8
:0706DB0078A9B60102800AB4
:0706E20078A9B6020B8006A7
:0306E90002097E85
:0306EC000209E21E
:0306EF000210FCFA
:0306F2007582000E
:0106F50022E2
:0506F600E5BA30E1044B
:0406FB0075820022E2
:0706FF0078AC76007A807BE5
:06070600E78B9A7A807B6C
:0C070C00E77B008A9B90E67BE0FA7B0014
:050718000ABA00010B0C
:0E071D0090E68DE0FC7D00EAB50406EBB50524
:03072B0002801138
:0B072E001207EA78AC76017582001219
:0607390007F375820022A7
:0A073F0090E67BE0FA78A9A602908C
:09074900E67BE0FA78AAA6029012
:0B075200E67BE0FA78ABA6027582019E
:01075D002279
:08075E001201BBE5BA30E10411
:04076600750A0022EE
:0C076A0090E780E0FA7B000ABA00010B67
:0E07760090E68DE0FC7D00EAB50406EBB505CB
:03078400028011DF
:0B0787001207EA78AC760175820012C0
:0607920007F3750AFF22C7
:0B07980090E781E0FA78A9E6B50213B3
:0C07A30090E782E0FA78AA748046FBEA36
:0307AF00B503048B
:0407B200750A0122A1
:0607B60090E781E0700CE9
:0807BC0090E782E0FABA0204A2
:0407C400750A02228E
:0307C800750AFFB0
:0107CB00220B
:0807CC00AA827B0B7C007D403A
:0E07D40090E67BE0FE8B828C838DF0121D7C04
:0707E200A3AB82AC83DAEB4C
:0107E90022ED
:0807EA0090E68DE4F000000030
:0107F20022E4
:0707F300AA82E5BA30E20121
:0107FA0022DC
:0707FB007BC07CE78C9D7BB5
:08080200C07CE77C008B9E9096
:08080A00E67CEA04F078AC90F2
:07081200E67CE6F07B0B7CA5
:05081900007D408A068D
:03081E00EE601772
:0E0821008B828C838DF0121DC8FFA3AB82ACBE
:09082F008390E67CEFF01E80E6E8
:0A08380090E68F74022AF000000021
:010842002293
:07084300AA82E5BA30E201D0
:01084A00228B
:07084B007BC07CE78C9D7B64
:08085200C07CE77C008B9E9046
:08085A00E67CEA04F078AC90A2
:04086200E67CE6F05A
:01086600226F
:05086700E5BA30E201DA
:01086C002269
:08086D0090E7C178ACE6F090C1
:0C087500E7C0E0FA90E68F04F0000000FD
:010881002254
:0E088200AA82AB83ACF090E67BE0FDC002C022
:0E08900003C004C0051207EAD005D004D0034F
:07089E00D002E5BA30E201CF
:0108A5002230
:0708A6007EC07FE78F9D7EFD
:0808AD00C07FE77F008E9E90E2
:0C08B500E67CED04F090E67CE4F08D069B
:0308C100EE6017CF
:0E08C4008A828B838CF0121DC8FFA3AA82AB20
:0908D2008390E67CEFF01E80E645
:0A08DB0090E68F74022DF00000007B
:0108E50022F0
:0E08E60090E618E4F000000090E6047480F044
:0E08F40000000090E6047402F00000007A0498
:0B09020090E6497482F0000000DAF576
:0E090D0090E604E4F000000090E6A3E4F000A1
:02091B000000DA
:01091D0022B7
:0E091E0090E61AE4F000000090E6047480F009
:0D092C0000000090E6047406F0000000904A
:0E093900E604E4F000000090E6A5E4F0000003
:0109470000AF
:01094800228C
:0809490090E680E0FA30E706B9
:060951007A007B02800425
:040957007A407B0067
:0E095B0090E624EBF000000090E680E0FA3019
:02096900E7069F
:06096B007A007B0280040B
:040971007A407B004D
:0809750090E625EAF000000005
:01097D002257
:07097E0078AAB6020280070F
:0709850078AAB603508005BB
:05098C001207EA804D96
:0A0991007582041207CC1207EAE594
:08099B000BF4FAE50CF4FBE596
:0A09A3000DF4FCE50EF4FD747B2A50
:0C09AD00FAE43BFBE43CFCE43DFD8A0B5B
:0509B9008B0C8C0D8D7C
:0509BE000E1212697821
:0C09C3009FE4F608F608F608F612091E7C
:0B09CF001208E67582041207F3800492
:0409DA007582002200
:0309DE007582011E
:0109E10022F3
:0509E20078AAB602171F
:0709E7001207EA750B007511
:0609EE000C00750D007500
:0A09F4000E007582041207F3800460
:0409FE0075820022DC
:030A0200758201F9
:010A050022CE
:0A0A0600AA82AB83E50845097001E0
:010A100022C3
:070A1100AC14BCE6028005F5
:050A18008B05BDE63175
:080A1D008A068B07AC13AD142F
:0E0A25008E028F038C828D83E0F88A828B8391
:060A3300F00EBE00010FF1
:050A39000CBC00010DE2
:080A3E00150874FFB50802154C
:010A460009A6
:060A4700E508450970D826
:010A4D002286
:0C0A4E008C9AAC137E008C9B8D9D7B006D
:050A5A008A9E020A6003
:010A5F002274
:080A6000A90890E67B058690D1
:040A6800E67C05869D
:080A6C00E00586F00586D9F8CB
:010A7400225F
:0A0A750090E6B9E0FABAA202804A46
:050A7F00BAA30280454E
:060A8400BAE103020D4A75
:060A8A00BAE203020D2A8E
:060A9000BAE303020D2A87
:060A9600BAE403020D0AA0
:060A9C00BAE503020D0A99
:060AA200BAE603020C1588
:060AA800BAE703020C4254
:060AAE00BAE803020C8A05
:060AB400BAE903020CEA9E
:060ABA00BAEA03020CB9C8
:060AC000BAEB03020D6A0F
:030AC600020D8A94
:0B0AC90090E6BAE0FAA3E0FB8A0B8B7A
:0A0AD4000C90E6BEE0FAA3E0FB90F0
:090ADE00E6B8E0FCBCC002800394
:030AE700020B7A85
:070AEA00EA4B7003020D8EC0
:080AF10090E6A0E0FC20E1F812
:080AF90090E6B9E0FCBCA2117B
:0A0B0100750D00750E00C002C00360
:070B0B00121028D003D002F4
:090B1200C3EA9440EB9400500684
:060B1B008A0D8B0E80061E
:060B2100750D40750E0089
:080B270090E6B9E0FCBCA20D50
:0D0B2F00C002C003120F7BD003D002801A59
:040B3C00850D088596
:030B40000E09900B
:040B4300E740850BF7
:030B470013850C07
:0C0B4A0014C002C003120A06D003D0023F
:080B560090E68AE4F0AC0DAD5D
:080B5E000E90E68BECF0EC2593
:070B66000BFEED350CFF8EC4
:0A0B6D000B8F0CEAC39CFAEB9DFB12
:030B7700020AEA85
:0A0B7A0078A7E608467003020C118C
:0C0B840090E6BCE0FCA3E0FD78A7E6B51D
:090B9000040708E6B50502800225
:020B9900807664
:080B9B0090E6B8E0FCBC406EDE
:070BA300EA4B7003020D8E06
:090BAA0090E68AE4F090E68BF07D
:080BB30090E6A0E0FC20E1F84F
:0A0BBB0090E68BE0FC7D008C0D8DB0
:090BC5000E90E6B9E0FCBCA31F90
:040BCE00850D088504
:030BD2000E098584
:060BD5000B82850C837504
:030BDB001340754F
:070BDE0014E7C002C003127E
:080BE5000A06D003D002800BC8
:0B0BED00C002C003121028D003D00289
:060BF800AC0DAD0EEC2572
:070BFE000BFEED350CFF8E2C
:0A0C05000B8F0CEAC39CFAEB9DFB79
:020C0F008092D1
:040C110075820022C6
:0A0C150090E6B8E0FABAC0028003CE
:030C1F00020D8E35
:080C220090E6A0E0FA20E1F8E1
:0E0C2A0090E7407409F0A37403F090E68AE4AA
:0A0C3800F090E68B7402F0020D8EBE
:0A0C420090E6B8E0FABAC0028003A1
:030C4C00020D8E08
:080C4F0090E6A0E0FA20E1F8B4
:0E0C570090E7407401F0A3E4F0A3F0A3F09046
:0B0C6500E744E4F5F0121D7CA3E4124C
:0A0C70001D7CA3E4121D7CA3E41216
:080C7A001D7C90E68AE4F09075
:080C8200E68B7408F0020D8EF0
:080C8A0090E6B8E0FABA40233D
:090C920090E68AE4F090E68BF094
:080C9B0090E6A0E0FA20E1F868
:0C0CA30090E740E0FAA3E0FB78A7A6026F
:060CAF0008A603020D8EF1
:040CB5007582002222
:080CB90090E6B8E0FABA40250C
:070CC10078A7E60846601E5B
:0C0CC80090E6BCE0FAA3E0FB78A7E6B5DC
:090CD400020708E6B503028002E4
:020CDD0080078E
:070CDF00789E7601020D8EE4
:040CE60075820022F1
:070CEA00750BF0750C3F755E
:060CF1000D04750E0075F4
:060CF7000FCD7510AB905B
:070CFD00E6B8E0FABAC003FB
:030D0400020D924B
:030D0700020EAB2E
:070D0A00750BE0750C3F754D
:060D11000D0C750E0075CB
:060D17000F7875105690E4
:070D1D00E6B9E0FABAE403B5
:030D2400020D922B
:030D2700020EAB0E
:070D2A00750BC0750C3F754D
:060D31000D10750E0075A7
:060D37000FCD7510AB901A
:070D3D00E6B9E0FABAE20397
:030D4400020D920B
:030D4700020EABEE
:070D4A00750BA0750C3F754D
:060D51000D1C750E00757B
:060D57000FCD7510AB90FA
:070D5D00E6B8E0FABAC0039A
:030D6400020D92EB
:030D6700020EABCE
:070D6A00750BF8750C3F75D5
:060D71000D02750E007575
:060D77000FCD7510AB90DA
:070D7D00E6B8E0FABAC0037A
:030D8400020D92CB
:030D8700020EABAE
:040D8A00758200224C
:030D8E007582016A
:010D9100223F
:0C0D92007AFF90E6B8E0FBBBC0028004D2
:040D9E007582002238
:050DA200AB0DAC0E7565
:0A0DA7000D00750E00C002C003C06D
:0E0DB10004121028D004D003D00274032BFBD0
:0A0DBF00E43CFC8B0D8C0EC0021208
:0A0DC9000F7BD002E50D24FDFBE5D1
:070DD3000E34FFFC8B0D8CB8
:0B0DDA000E90E740E0FBA3E0FCEBB54F
:060DE5000F48ECB51044BC
:040DEB007A007B000F
:0A0DEF007403250DFCE4350EFD8BA6
:0A0DF900067F00C3EE9CEF9D502C16
:0A0E0300EB2440F582E434E7F583A8
:0A0E0D00E0FC2AFAEB2440FCE43478
:0A0E1700E7FD74022B2440F582E48D
:0C0E210034E7F583E0FE8C828D83F00B3B
:020E2D0080C083
:030E2F00EA606412
:040E3200850D08859D
:030E36000E099012
:090E3900E6B9E0FABAE1028034E6
:050E4200BAE202803D50
:050E4700BAE402800581
:050E4C00BAE943801724
:020E51007A0025
:030E5300BA0C00D6
:020E5600503E0C
:0A0E5800EA2440F582E434E7F58354
:060E62007430F00A80EB81
:050E680090E740751346
:030E6D00FC7514FD
:060E70001D120A0680209D
:050E760090E740751338
:030E7B00007514EB
:060E7E001E120A0680129C
:050E840090E74075132A
:030E89001C7514C1
:060E8C001E120A0680049C
:040E92007582002243
:0C0E960090E68AE4F000000090E68BE596
:080EA2000DF000000075820153
:010EAA002225
:080EAB0090E6B8E0FABA401C21
:070EB30078A7E60846601570
:0C0EBA0090E6BCE0FAA3E0FB78A7E6B5E8
:090EC600020708E6B503028004EE
:040ECF007582002206
:090ED30090E68AE4F090E68BF051
:080EDC0090E6A0E0FA20E1F825
:070EE40090E68AE0FA7014A9
:050EEB00AA0DAB0E9002
:0E0EF000E68BE0FC7D00B50206EDB503028046
:010EFE0004EF
:040EFF0075820022D6
:060F03008A15AD158D06F4
:060F09008E071EEF6025BB
:0C0F0F00C002C00374022E2440FFE43432
:090F1B00E7FCEE2440F582E43409
:0C0F2400E7F583E0FA8F828C83F0D003A5
:040F3000D00280D596
:080F340090E740E50FF0A3E592
:050F3C0010F07C407E76
:0A0F4100E78E9A759B407C00740255
:030F4B002515FD6C
:090F4E0090E67BE0FE2CFCDDF7CF
:0A0F5700740225152440F582E434ED
:0C0F6100E7F583C3E49CFCF074032AFA5B
:080F6D00E43BFB8A0D8B0E1220
:050F7500102875820147
:010F7A002254
:050F7B00E50DFA700411
:040F80007582012253
:080F840090E678E0FB20E6F89E
:0C0F8C0090E6787480F090E67974A3F091
:080F980090E678E0FB30E0F880
:080FA00090E678E0FB20E2740A
:080FA80090E678E0FB30E16CFB
:030FB000BA01087B
:080FB30090E678E0FB4420F019
:070FBB0090E679E07B407C29
:060FC200E78C9A7B407CE5
:050FC800E77C008B9B9B
:040FCD00DA0280269E
:080FD10090E678E0FB30E0F847
:080FD90090E678E0FB20E23B0A
:030FE100BA01084A
:080FE40090E678E0FB4420F0E8
:0B0FEC0090E679E0FB90E67BF080D6F9
:080FF70090E678E0FA30E0F822
:080FFF0090E678E0FA20E2150B
:0E10070090E678E0FA4440F090E679E0FA9046
:07101500E67BF07582012269
:0B101C0090E678E0FA4440F075820096
:0110270022A6
:02102800AA0D0F
:08102A0090E678E0FB20E6F8F7
:0C10320090E6787480F090E67974A2F0EB
:08103E0090E678E0FB30E0F8D9
:0810460090E678E0FB20E26B6C
:08104E0090E678E0FB30E1635D
:03105600EA600E3F
:071059007B407CE78C9A7BD1
:07106000407CE77C008B9B44
:021067007B020A
:03106900EA700327
:03106C00EB603BFB
:03106F00EB60141F
:03107200BB0208B6
:0810750090E679E50CF080061D
:06107D0090E679E50BF09E
:031083001B800AC5
:0A10860090E67BE0FC90E679F01A9A
:0810900090E678E0FC30E0F886
:0810980090E678E0FC20E2196B
:0810A00090E678E0FC20E1C1BC
:0210A800800FB7
:0E10AA0090E678E0FA4440F01210C57582011D
:0110B8002215
:0B10B90090E678E0FA4440F0758200F9
:0110C4002209
:0810C50090E678E0FA20E6F85D
:0E10CD0090E678E0FA4480F090E67974A2F0A4
:0810DB0090E678E0FA30E0F83D
:0810E30090E678E0FA4440F0C9
:0810EB0090E678E0FA20E6F837
:0810F30090E678E0FA30E1D24A
:0110FB0022D2
:051DF7000102000000E4
:041DFC000201203090
:0E1E000055534232204D6F64756C6500000032
:0E1E0E00FDFDFDFD000000000000BE16B64CFC
:0E1E1C00444D6F62557362000000FDFDFDFD38
:021E2A000000B6
:0710FC0078AAB60202806031
:0711030078ABB60002801179
:0B110A001207EA78AC760C7582001228
:0611150007F375820122C0
:05111B0078AAE6701F38
:06112000789FE630E011AB
:0B1126001207EA78AC76037582001215
:0611310007F375820122A4
:08113700789FE64401F68024D4
:05113F0078AAB60108CA
:08114400789FE654FEF68017C7
:06114C00789FE620E0118F
:0B1152001207EA78AC760475820012E8
:06115D0007F37582012278
:0A11630078AAE624F45003021253A8
:0A116D0078AAE625E02690117773BA
:0711770002119B0211AB0203
:06117E0011BB0212530236
:0611840011C80211E10296
:06118A00121502124C02D6
:06119000123E02123E02B5
:05119600124502123EAB
:0A119B001212571207EA75820012C3
:0611A50007F37582012230
:0A11AB001212691207EA75820012A1
:0611B50007F37582012220
:0D11BB00901E2C75F08012088275820122B2
:0711C8001207EA750B007528
:0611CF000C6A750D187595
:0C11D5000E007582041207F375820122DF
:0711E10090E67BE0FA6004D8
:0411E800D28580022A
:0211EC00C285BA
:0711EE0090E67BE0FA6004CB
:0411F500D28380021F
:0211F900C283AF
:0711FB0090E67BE0FA6004BE
:04120200D28680020E
:02120600C2869E
:0D1208001207EA7582001207F375820122B9
:0C1215001207EAA285E433FA8A0BA283D8
:0B122100E433FA8A0CA284E433FA8A5A
:0A122C000DA286E433FA8A0E7582E3
:08123600041207F37582012286
:07123E001216267582012241
:07124500121A2D758201222F
:07124C0012127575820122E8
:03125300758200A1
:011256002275
:0E12570043B20843B22043B240D282C283D2D7
:0312650085C286B9
:011268002263
:0B126900C28253B297C283D285C286B6
:011274002257
:051E2C000102000000AE
:0B1275007A007B0090E67BE0FC600448
:04128000D285800291
:02128400C28521
:0712860090E67BE0FC600430
:04128D00D283800286
:02129100C28316
:0E129300C286758204C002C0031207CCD003CD
:0E12A10000C0031207EA7582001207F3D003A3
:0712AF00D002AC0BAD0CAE48
:0412B6000DAF0E8CDE
:0412BA000F8D108EF6
:0912BE00118F12EC4D4E4F70022D
:0212C7007B01A9
:0312C900EB6006D1
:0612CC00EA600302137A40
:0D12D200C002C00312075ED003D002E4B5D5
:0412DF000A0280314E
:0512E3007401B50A0FC3
:0E12E8007A01C002C0031207EAD003D00280D0
:0112F6001DDA
:0512F7007402B50A13AA
:0B12FC007B0178AC7602C002C0031238
:0813070007EAD003D0028005C3
:05130F007A0002137AD0
:03131400EB70B2C9
:05131700AC0BAD0CAEB3
:0A131C000DAF0EC3ED94FEEE940039
:05132600EF94005006E9
:06132B008C088D0980060C
:061331007508007509FEBD
:08133700AC08AD09E4FEFFE57E
:09133F000BC39CFCE50C9DFDE5CF
:081348000D9EFEE50E9FFF8CD7
:041350000B8D0C8E67
:081354000D8F0EC000C001A8BE
:04135C0008A90909CA
:0E136000D286C286D8FAD9F8D001D000EC4D62
:07136E004E4F60030212C99B
:051375007B010212C91A
:03137A00EA6029FD
:07137D00E50FC3950BFAE533
:0513840010950CFBE5D3
:0513890011950DFCE5CB
:05138E0012950EFD8A1E
:041393000B8B0C8C28
:041397000D8D0E7832
:0B139B00ACE64480F67582040207F304
:0113A6002224
:0A13A700C001C002A908AA09E9600C
:0213B100010A2F
:0313B30090E67B46
:0E13B600E0139283D286C286139283D286C23F
:0E13C40086139283D286C286139283D286C28B
:0E13D20086139283D286C286139283D286C27D
:0E13E00086139283D286C286139283D286C26F
:0913EE0086D9C5DAC3D002D00192
:0113F70022D3
:0A13F800C001C002A908AA09E960BB
:02140200010ADD
:0A14040090E67B058690E67C0586E5
:0E140E00E0139283A28413D286C2869283A238
:0E141C008413D286C2869283A28413D286C223
:0E142A00869283A28413D286C2869283A28405
:0E14380013D286C2869283A28413D286C28605
:0E1446009283A28413D286C2869283A284135C
:0E145400D286C2860586F00586D9AFDAADD005
:0314620002D001B4
:011465002264
:0A146600C001C002A908AA09E9604C
:02147000010A6F
:0314720090E67C85
:0E147500A284D286C28613A284D286C28613B7
:0E148300A284D286C28613A284D286C28613A9
:0E149100A284D286C28613A284D286C286139B
:0E149F00A284D286C28613A284D286C286138D
:0914AD00F0D9C2DAC0D002D0016E
:0114B6002213
:0A14B700C001C002A908AA09E960FB
:0214C100010A1E
:0314C30090E67B35
:0E14C600E0139285D286C286139285D286C22A
:0E14D40086139285D286C286139285D286C276
:0E14E20086139285D286C286139285D286C268
:0E14F00086139285D286C286139285D286C25A
:0914FE0086D9C5DAC3D002D00181
:0115070022C1
:0A150800C001C002A908AA09E960A9
:02151200010ACC
:0A15140090E67B058690E67C0586D4
:0E151E00E0139285A28413D286C2869285A223
:0E152C008413D286C2869285A28413D286C210
:0E153A00869285A28413D286C2869285A284F0
:0E15480013D286C2869285A28413D286C286F2
:0E1556009285A28413D286C2869285A2841347
:0E156400D286C2860586F00586D9AFDAADD0F4
:0315720002D001A3
:011575002253
:0A157600C001C002A908AA09E9603B
:02158000010A5E
:0315820090E67B75
:0E158500E0139283139285D286C2861392835E
:0E159300139285D286C286139283139285D25C
:0E15A10086C286139283139285D286C286D9A3
:0715AF00D5DAD3D002D00110
:0115B6002212
:0A15B700C001C002A908AA09E960FA
:0215C100010A1D
:0A15C30090E67B058690E67C058625
:0215CD007C029E
:0E15CF00E0139283139285FBE8A28413F8EBDD
:0E15DD00D286C286139283139285FBE8A28405
:0E15EB0013F8EBD286C286139283139285FB0F
:0E15F900E8A28413F8EBD286C2861392831305
:0E1607009285FBE8A28413F8EBD286C286DC43
:0E161500B9E80586F0058619D9AEDAACD00228
:02162300D001F4
:0116250022A2
:07162600751700751900752E
:07162D001A0078AAB6082A92
:0816340075170190E67BE0F55B
:08163C001690E67BE0FE60045D
:04164400D2858002C9
:02164800C28559
:04164A00E516600839
:04164E00751BF8759B
:041652001C13805A8B
:04165600751BA775E4
:04165A001C1380528B
:05165E0078AAB6092581
:0A16630075160190E67BE0FC6004C0
:04166D00D2858002A0
:02167100C28530
:0716730090E67BE0FC60043F
:04167A00D283800295
:02167E00C28325
:04168000751B6675FB
:041684001C1480288A
:0816880075170190E67BE0F507
:081690001690E67BE0FC60040B
:04169800D283800277
:02169C00C28307
:04169E00E5166008E5
:0416A200751B087537
:0416A6001C15800689
:0416AA00751BB77580
:0216AE001C140A
:0D16B0007582041207CC1207EA7582001241
:0416BD0007F3850B9F
:0316C1001D850C78
:0316C4001E850D73
:0316C7001F850E6E
:0316CA0020851D5B
:0316CD000F851E68
:0316D00010851F63
:0316D3001185205E
:0A16D600127407551DFD7A007B0019
:0716E0007C008D18AA1DE536
:0C16E7001EC423CAC423541F6ACA541F27
:0C16F300CA6ACAFBE51FC42354E04BFB8D
:0A16FF00AC1FE520C423CCC4235423
:0C1709001F6CCC541FCC6CCCFE8A0B8BE8
:041715000C8C0D8E9D
:051719000EE518601D43
:05171E00AA0BAB0CACAE
:0A1723000DAE0E0ABA00090BBB0060
:06172D00050CBC00010EDA
:051733008A0B8B0C8CF9
:031738000D8E0E05
:05173B00E50F4510451B
:051740001145127003C9
:0317450075190112
:02174800C28657
:04174A00E519600736
:07174E00E51A6003021940D7
:0717550012075EE50A602C9B
:05175C007401B50A0C48
:04176100E51A70080D
:08176500751A011207EA801B4E
:05176D007402B50A1032
:071772001207EAE519700FF0
:0917790078AC76027519018006B6
:06178200751A0002194077
:04178800E5176005FC
:05178C00E5AA20E0B910
:04179100E5166005F4
:05179500E5AA20E5B00B
:04179A00E51970AC31
:04179E00E517600EDD
:0717A2007A007BF08B9A7ABC
:0717A900007BF07B008A9B2E
:0417B000E516600ECC
:0717B4007A007BF88B9D7A9F
:0717BB00007BF87B008A9E11
:0417C200E5176019AE
:0E17C60090E690E0FA8A037A0090E691E0FC4B
:0A17D4007E004AF508EE4BF509808F
:0117DE0054B6
:0417DF00850B2185D0
:0317E3000C228550
:0317E6000D23854B
:0317E9000E24903B
:0717EC00E680E0FF30E70694
:0617F3007A007B02800475
:0417F9007A407B00B7
:0C17FD008A07EBFD3395E0FAFBC3EF9583
:0618090021ED9522EA9595
:06180F0023EB95245018A4
:0818150090E680E0FA30E706DE
:06181D007A007B0280044A
:041823007A407B008C
:061827008A088B0980060F
:04182D008521088584
:0218310022098A
:08183300AA08AB09E4FCFDE585
:09183B000BC39AFAE50C9BFBE5D6
:081844000D9CFCE50E9DFD8AE0
:04184C000B8B0C8C6A
:041850000D8D0EE507
:0318540018601306
:05185700E50B450C4506
:05185C000D450E7009AE
:08186100150874FFB50802151B
:011869000975
:06186A00E50845096009D4
:07187000851B82851C831219
:02187700006B04
:07187900E518700302190AD3
:05188000E50B450C45DD
:061885000D450E60030298
:02188B00190A38
:06188D00AA18E517700B1C
:031893003083049B
:041896007BFF800252
:02189A007B00D1
:02189C008005C5
:05189E0090E67BE0FB79
:0518A30078AAB60B1D40
:0218A8008A04B0
:0B18AA00EBA2E09285C313FB30840525
:0518B5004303808003E5
:0318BA0053037F56
:0618BD00D286C286DCE7C2
:0218C30080198A
:0B18C500EBA2E09283C313FB3084050C
:0518D0004303808003CA
:0318D50053037F3B
:0618D800D286C286DAE7A9
:0418DE00E516601D8E
:0C18E200AD187A007408C39DFDE49AFA6A
:0718EE008DF005F0EB800214
:0218F500C3131B
:0818F700D5F0FBFB90E67CF04C
:0718FF007518000508E4B5AF
:0419060008020509C5
:04190A00E517600974
:09190E0090E6497482F00000002B
:04191700E51660125F
:0A191B0090E698E509F00000009046
:08192500E699E508F00000005E
:05192D00E50B450C452F
:061932000D450E600302EA
:02193800174A4C
:06193A0075190102174AB5
:071940001208E612091EE582
:041947001A700122EF
:04194B00E518601D1E
:05194F00AA0BAB0CAC7B
:0A1954000DAD0E1ABAFF091BBBFF10
:06195E00051CBCFF011D89
:051964008A0B8B0C8CC6
:031969000D8D0ED3
:04196C00850D23E5DD
:0A1970000EC40354F8C523C403C5D8
:04197A00236523C5F9
:06197E002354F8C52365A7
:0419840023F524E53E
:081988000CC40354074523F5CC
:0319900023850BA1
:0819930021E50CC40354F8C562
:06199B0021C403C5216513
:0619A10021C52154F8C528
:0419A700216521F5A0
:0319AB0022852171
:0319AE000B852284
:0319B1000C85237F
:0319B4000D85247A
:0919B7000EAE18E4FFFAFBEE2568
:0819C00021FEEF3522FFEA359C
:0719C80023FAEB3524FB8E2E
:0419CF000B8F0C8AE4
:0419D3000D8B0EE585
:0919D7000FC39EFEE5109FFFE521
:0819E000119AFAE5129BFB8E3F
:0419E8000F8F108AC3
:0419EC00118B128EBB
:0419F0000B8F0C8AC3
:0419F4000D8B0EE564
:0319F80017600471
:0419FB007A8080026C
:0219FF007A006C
:041A0100E516600482
:041A05007B408002A0
:021A09007B0060
:0A1A0B00EB4A78AC46F6E5176004DC
:041A15007A048002CD
:021A19007A0051
:041A1B00E516600468
:041A1F007B048002C2
:021A23007B0046
:071A2500EB2AF5820207F332
:011A2C002297
:071A2D007526007527007506
:071A3400280090E67BE0F5BD
:081A3B00257582041207CC128C
:091A430007EA7582001207F38521
:031A4C000B2B85DC
:031A4F000C2C85D7
:031A52000D2D85D2
:031A55000E2E85CD
:031A58002B0F85CC
:031A5B002C1085C7
:031A5E002D1185C2
:031A61002E12E55D
:041A64002B452C459D
:051A68002D452E700366
:031A6D00752701D9
:0C1A70007407552BFAE4FDFBFC74032501
:081A7C002BFBE4352CFCE435E2
:071A84002DFDE4352EFE8B61
:041A8B000B8C0C8D27
:0A1A8F000DEEF50EC313FEED13FD7E
:0E1A9900EC13FCEB13FBEEC313FEED13FDECA0
:0A1AA70013FCEB13FB8B0B8C0C8D72
:041AB1000D8E0EE5A3
:031AB500256008A1
:041AB8007529B77560
:041ABC002A15800661
:041AC0007529767599
:021AC4002A15E1
:021AC600C286D6
:041AC800E5276007A7
:071ACC00E5286003021CC9BC
:0B1AD300C00212075ED002E50A60347A
:051ADE007401B50A10BF
:041AE300E528700C76
:0C1AE700752801C0021207EAD002801F1F
:051AF3007402B50A14A5
:0B1AF800C0021207EAD002E527700FC1
:091B030078AC760275270180061A
:061B0C00752800021CC94F
:051B1200E5AA20E0B18E
:041B1700E52560055B
:051B1B00E5AA20E5A889
:041B2000E52770A4A1
:071B24007D007EF08E9A7D2A
:081B2B00007EF07E008D9BE5B9
:031B330025601218
:041B3600E526700E22
:071B3A007D007EF88E9D7D09
:071B4100007EF87E008D9E7E
:0E1B480090E690E0FD8D067D0090E691E0FFB6
:0A1B56007B002DF508EB3EF509AB0E
:071B600008AC09E4FDFEE5FD
:091B67000BC39BFBE50C9CFCE5A3
:081B70000D9DFDE50E9EFE8BAC
:041B78000B8C0C8D39
:061B7C000D8E0EEA602C44
:051B8200E50B450C45D8
:051B87000D450E702267
:0E1B8C008A03FC74032BFBE43CFCA2E713CBA2
:0C1B9A0013CBA2E713CB13CBFCE508C370
:071BA6009BF508E5099CF521
:011BAD00092E
:061BAE00E5084509600D89
:091BB400C002852982852A8312F2
:041BBD00006BD002E7
:061BC100EA7003021C465D
:051BC700E50B450C4593
:051BCC000D450E7075CF
:091BD1007B0090E67BE0FC7D0046
:051BDA00C3ED9A502349
:031BDF00BD04053D
:051BE20090E67BE0FC31
:0E1BE700ECA2E09283C313FCA2E09285C3132C
:061BF500FCEBA28413FBCF
:071BFB00D286C2860D80D8DE
:041C0200E525601C58
:0E1C06008A047D007408C39CFCE49DFD8CF0F4
:051C140005F0EB800269
:021C1900C313F3
:071C1B00D5F0FB90E67CF020
:0E1C22008A037C0074032BFBE43CFCA2E71356
:0C1C3000CB13CBA2E713CB13CBFCEB25AE
:051C3C0008F508EC357D
:051C410009F5097A001D
:041C4600E5256063CD
:051C4A00E50B450C450F
:051C4F000D450E6004CC
:041C5400E5266052CF
:071C58000508E4B5080205D0
:011C5F00097B
:081C6000E509C313C50813C513
:041C680008F509E58D
:031C6C00266024CB
:081C6F0090E680E0FB30E7067F
:061C77007B007C028004EA
:041C7D007B407C002C
:0C1C8100ECA2E713CB13CBFCEB2508F51D
:051C8D0008EC3509F52B
:011C92000948
:0A1C930090E698E509F000000090CB
:091C9D00E699E508F0000000756D
:041CA6002600800391
:031CAA007526019B
:0C1CAD0090E6497482F0000000E50B4551
:041CB9000C450D4584
:061CBD000E6003021AC8CC
:061CC300752701021AC89A
:0C1CC900C0021208E60012091ED002E55D
:041CD5002870012250
:0A1CD900E50B25E0FBE50C33FCE50C
:0A1CE3000D33FDE50E33FEEB2BFB85
:0C1CED00EC33FCED33FDEE33FE8B0B8C72
:041CF9000C8D0D8EB3
:041CFD000EEA603D4E
:041D0100EA30E21DC5
:051D0500AB0BAC0CADBE
:0A1D0A000DAE0E1BBBFF091CBCFF51
:061D1400051DBDFF011ECC
:051D1A008B0B8C0C8D09
:031D1F000D8E0E18
:0A1D2200E4FBFCFDEA250BFAEB35AB
:081D2C000CFBEC350DFCED355C
:051D34000EFD8A0B8B7F
:041D39000C8C0D8D74
:011D3D000E97
:071D3E00E50FC3950BFAE568
:051D450010950CFBE508
:051D4A0011950DFCE500
:051D4F0012950EFD8A53
:041D54000F8B108C55
:041D5800118D128A4D
:041D5C000B8B0C8C55
:041D60000D8D0EE5F2
:031D6400257008DF
:051D6700F50FF510F579
:031D6C0011F5125C
:0C1D6F0078ACE644C0F67582080207F369
:011D7B002245
:051E31000102000000A9
:0EE10000120100020000004043140300000062
:04E10E000102000109
:0AE112000A060002000000400100B0
:0EE11C0009022E0001010080FA09040000042F
:0EE12A00FF000000070501024000000705810C
:0EE138000240000007050202000200070586F3
:04E1460002000200D1
:0EE14A0009022E0001010080FA090400000401
:0EE15800FF00000007050102400000070581DE
:0EE16600024000000705020240000007058687
:04E174000240000065
:091F00000205A8000205DC000244
:081F090005C6000206400002BB
:081F110005F20002065E000269
:081F190006B8000206B8000240
:081F210006B8000206B8000238
:081F290006B8000206B8000230
:081F310006B8000206B8000228
:081F390006B8000206B8000220
:081F410006B8000206B8000218
:081F490006B8000206B8000210
:081F510006B8000206B8000208
:081F590006B8000206B8000200
:081F610006B8000206B80002F8
:081F690006B8000206B80002F0
:081F710006B8000206B80002E8
:081F790006B8000206B80002E0
:081F810006B8000206B80002D8
:081F890006B8000206B80002D0
:081F910006B8000206B80002C8
:081F990006B8000206B80002C0
:081FA10006B8000206B80002B8
:081FA90006B8000206B80002B0
:071FB10006B8000206B800AB
:06009C00E478FFF6D8FD38
:08007A007900E94400601B7AE3
:0500820000901E36781D
:030087000075A061
:0A008A00E0E493F2A308B8000205B9
:08009400A0D9F4DAF275A0FF17
:0E1D7C0020F71030F6118883A88220F507F6B4
:051D8A00A88375830031
:011D8F002231
:031D9000F280F7E7
:021D9300F0223C
:0400A20075A00078CD
:0700A60000E8440060077947
:0600AD0000E4F309D8FC99
:0800B3007800E84400600C79BC
:0B00BB000090E000E4F0A3D8FCD9FAAC
:02006B00E4733C
:0E1D950090E682E044C0F090E681F0438701C2
:0E1DA300000000000000000000000000000032
:0E1DB100000000000000000000000000000024
:091DBF00000000000000000022F9
:03006D0075812F6B
:0A007000121DE4E582600302006641
:0E1DC80020F71430F6148883A88220F507E671
:061DD600A88375830022C2
:031DDC00E280F7AB
:031DDF00E4932268
:021DE200E022FD
:041DE40075820022E2
:00000001FF
