:0400000002006D325B
:01000B0032C2
:0100130032BA
:01001B0032B2
:0100230032AA
:01002B0032A2
:030033000206BD05
:01003B003292
:03004300023F0079
:01004B003282
:03005300023F0069
:01005B003272
:030063000206C1D1
:0300EA00020066AB
:050066001200ED80FE18
:0900ED007881760078807600909D
:0E00F600E60B7403F000000000000090E6002E
:0E0104007410F075800175B28175900075B3AE
:0E011200FF75B08075B5A090E67AE0FA440162
:0B012000F012356290E60174E2F0126C
:0E012B00027B90E6097403F000000075890164
:09013900000000788276000876CF
:04014200E178847666
:05014600120876E178CB
:05014B0086761C087619
:04015000E178887654
:0A0154004A0876E1D2E843D8209073
:0E015E00E668E0FA4409F090E65CE0FA443D01
:0E016C00F090E682E4F0D2AF90E680E0FA5424
:05017A00F7F0538EF8C0
:08017F001201C4789EE660073E
:070187001201A0789E760032
:05018E007881E6600726
:0701930078817600123C08A0
:05019A001206C180E027
:01019F00223D
:0A01A00090E680E0FA440AF07A00CD
:0201AA00DAFE7B
:0E01AC0090E65D74FFF090E65F74FFF05391F3
:0901BA00EF90E680E0FA54F7F042
:0101C3002219
:0601C4007880E6700122C4
:0501CA00AA08AB097852
:0901CF0096A60208A603788EA68C
:0601D8000B08A60C08A6AE
:0501DE000D08A60E78DB
:0501E30092A60F08A622
:0601E8001008A61108A694
:0601EE00127898A69B7830
:0801F40099A69A789AA69E785C
:0A01FC009BA69D1202FDE58270082B
:0802060090E6A0E0FA4401F0CB
:0C020E0090E6A0E0FA4480F078807600D2
:06021A00789686080886B4
:0A02200009788E860208860308861E
:09022A00040886058A0B8B0C8C7C
:040233000D8D0E78A7
:0C023700928602088603088604088605EB
:050243008A0F8B108CF6
:04024800118D12788A
:08024C0098869B7899869A7848
:070254009A869E789B869DAF
:01025B002280
:0E025C0090E6837401F07421F07411F0743197
:0E026A00F090E6837402F07422F07416F074C3
:0202780036F05E
:01027A002261
:0E027B0090E610E4F000000090E611E4F000C0
:0E028900000090E612E4F000000090E613E49E
:0D029700F000000090E614E4F0000000907C
:0E02A400E615E4F000000090E618E4F000001B
:0E02B2000090E619E4F000000090E61AE4F077
:0E02C00000000090E61BE4F000000090E61045
:0E02CE0074A0F000000090E61174A0F0000093
:0E02DC000090E61274A0F000000090E614748A
:0E02EA00E0F000000090E68DE4F0000000124D
:0502F8000941020909A3
:0C02FD0090E6B9E0FA24F450030205AAD0
:07030900EA2A2A9003107399
:070310000203F70204810261
:0603170005AA02052F02F9
:06031D0005AA0205AA0278
:0603230003340205AA02EA
:0603290003E20203D00212
:05032F0003A90203BE5A
:0A03340090E6BBE0FABA0102800F68
:05033E00BA020280205C
:05034300BA0602803142
:05034800BA075A8042D3
:09034D00788290E6B308E6F0782E
:0B0356008286027B0090E6B4EAF00211
:0203610005ADE8
:09036300788A90E6B308E6F07810
:0B036C008A86027B0090E6B4EAF002F3
:0203770005ADD2
:09037900788490E6B308E6F07800
:0B0382008486027B0090E6B4EAF002E3
:02038D0005ADBC
:09038F00788C90E6B308E6F078E2
:0B0398008C86027B0090E6B4EAF002C5
:0203A30005ADA6
:0403A500758200223B
:0803A90090E740789DE6F0901A
:0B03B100E68AE4F090E68B7401F00295
:0203BC0005AD8D
:0A03BE0090E6BAE0FA789DA602125C
:0603C800027B12025C0240
:0203CE0005AD7B
:0A03D00090E6BAE0FA789CA602124B
:0603DA00027B12025C022E
:0203E00005AD69
:0803E20090E740789CE6F090E2
:0B03EA00E68AE4F090E68B7401F0025C
:0203F50005AD54
:0A03F70090E6B8E0FABA8002800A2E
:05040100BA8102801B1E
:05040600BA8274802C95
:0A040B0090E740E4F090E741F09024
:0A041500E68AF090E68B7402F00214
:02041F0005AD29
:0A04210090E740E4F090E741F0900E
:0A042B00E68AF090E68B7402F002FE
:0204350005AD13
:0E04370090E6BCE0FA53027E90E6BCE0FBC308
:0E04450074809BE433FB4A903C6F93FA33952E
:0E045300E0FB74A12AFA74E63BFB8A828B83DD
:0E046100E0FA53020190E740EAF090E741E430
:0C046F00F090E68AF090E68B7402F00238
:02047B0005ADCD
:04047D007582002262
:0704810090E6B8E0FA600804
:05048800BA020280121F
:03048D0002052B3A
:0B04900090E6BAE0FABA01030205ADE5
:04049B007582002244
:09049F0090E6BAE06003020527B3
:0E04A80090E6BCE0FA53027E90E6BCE0FBC397
:0E04B60074809BE433FB4A903C6F93FA3395BD
:0E04C400E0FB74A12AFA74E63BFB90E6BCE074
:0E04D200FC53047E90E6BCE0FDC374809DE404
:0E04E00033FD4C903C6F93FC3395E0FD74A10E
:0E04EE002CFC74E63DFD8C828D83E0FC5304F3
:0E04FC00FE8A828B83ECF090E6BCE05480FA1E
:0E050A00C423541FFA90E6BCE0FB740F5B9014
:0D051800E6832AF090E683E0FA4420F0022A
:0205250005AD22
:0405270075820022B7
:04052B0075820022B3
:07052F0090E6B8E0FA600558
:05053600BA026D800E09
:0A053B0090E6BAE0FABA0202806806
:040545007582002299
:0E05490090E6BCE0FA53027E90E6BCE0FBC3F5
:0E05570074809BE433FB4A903C6F93FA33951B
:0E056500E0FB74A12AFA74E63BFB90E6BCE0D2
:0E057300FC53047E90E6BCE0FDC374809DE462
:0E05810033FD4C903C6F93FC3395E0FD74A16C
:0E058F002CFC74E63DFD8C828D83E0FC430461
:09059D00018A828B83ECF08007D7
:0405A6007582002238
:0305AA00020B1928
:0305AD0075820153
:0105B0002228
:0C05B100C0E0C082C083C00078807601EA
:0905BD005391EF90E65D7401F02A
:0905C600D000D083D082D0E032D5
:0E05CF00C0E0C082C0835391EF90E65D7404DB
:0105DD00F02D
:0705DE00D083D082D0E0328F
:0E05E500C0E0C082C0835391EF90E65D7402C7
:0105F300F017
:0705F400D083D082D0E03279
:0D05FB00C0E0C082C083C002C003C0007811
:0A060800888602088603788AA6029D
:0C06120008A6038A828B83A37402F07890
:0A061E00868602088603788CA60287
:0E06280008A6038A828B83A37407F05391EF18
:0606360090E65D7410F077
:0D063C00D000D003D002D083D082D0E032B5
:0C064900C0E0C082C083C0007881760150
:090655005391EF90E65D7408F08A
:09065E00D000D083D082D0E0323C
:0D066700C0E0C082C083C002C003C000908C
:07067400E680E0FA30E72CFC
:0A067B0078868602088603788AA6B6
:0D0685000208A6038A828B83A37402F0781A
:0A069200888602088603788CA60211
:0B069C0008A6038A828B83A37407F07A
:0906A7005391EF90E65D7420F020
:0D06B000D000D003D002D083D082D0E03241
:0306BD0053D8EF20
:0106C0003207
:053C5B00010200000061
:053C600001000000005E
:053C6500010000000059
:053C6A0001F70000005D
:0A3C6F00000102020303040405052E
:0A00C600789E7600789FE4F608F6B5
:0C00D00008F608F678A3E4F608F608F637
:0800DC0008F678A7E4F608F627
:0706C100120719E582601425
:0706C8001206DDE582700D52
:0B06CF0012080D78AC76017582000265
:0206DA00081600
:0106DC0022FB
:0706DD0078A9E624F9403181
:0A06E40078A9E625E0269006EE73E3
:0706EE0002070302070602E8
:0606F500070902071502CF
:0606FB00070C02070F02CC
:020701000712DD
:030703000209A147
:03070600020A05DF
:0307090002166B6A
:03070C00022DDBE0
:03070F0002364966
:03071200022302BD
:03071500758200EA
:0107180022BE
:05071900E5BA30E10427
:04071E0075820022BE
:0707220078AC76007A807BC1
:06072900E78B9A7A807B49
:0C072F00E77B008A9B90E67BE0FA7B00F1
:05073B000ABA00010BE9
:0E07400090E68DE0FC7D00EAB50406EBB50501
:03074E0002801115
:0B07510012080D78AC760175820012D2
:06075C0008167582002260
:0A07620090E67BE0FA78A9A6029069
:09076C00E67BE0FA78AAA60290EF
:0B077500E67BE0FA78ABA6027582017B
:010780002256
:080781001201C4E5BA30E104E5
:04078900750A0022CB
:0C078D0090E780E0FA7B000ABA00010B44
:0E07990090E68DE0FC7D00EAB50406EBB505A8
:0307A700028011BC
:0B07AA0012080D78AC76017582001279
:0607B5000816750AFF2280
:0B07BB0090E781E0FA78A9E6B5021390
:0C07C60090E782E0FA78AA748046FBEA13
:0307D200B5030468
:0407D500750A01227E
:0607D90090E781E0700CC6
:0807DF0090E782E0FABA02047F
:0407E700750A02226B
:0307EB00750AFF8D
:0107EE0022E8
:0807EF00AA827B0B7C007D4017
:0E07F70090E67BE0FE8B828C838DF0123B81BE
:07080500A3AB82AC83DAEB28
:01080C0022C9
:08080D0090E68DE4F00000000C
:0108150022C0
:07081600AA82E5BA30E201FD
:01081D0022B8
:07081E007BC07CE78C9D7B91
:08082500C07CE77C008B9E9073
:08082D00E67CEA04F078AC90CF
:07083500E67CE6F07B0B7C82
:05083C00007D408A066A
:03084100EE60174F
:0E0844008B828C838DF0123C3BFFA3AB82AC09
:090852008390E67CEFF01E80E6C5
:0A085B0090E68F74022AF0000000FE
:010865002270
:07086600AA82E5BA30E201AD
:01086D002268
:07086E007BC07CE78C9D7B41
:08087500C07CE77C008B9E9023
:08087D00E67CEA04F078AC907F
:04088500E67CE6F037
:01088900224C
:05088A00E5BA30E201B7
:01088F002246
:0808900090E7C178ACE6F0909E
:0C089800E7C0E0FA90E68F04F0000000DA
:0108A4002231
:0E08A500AA82AB83ACF090E67BE0FDC002C0FF
:0E08B30003C004C00512080DD005D004D00308
:0708C100D002E5BA30E201AC
:0108C800220D
:0708C9007EC07FE78F9D7EDA
:0808D000C07FE77F008E9E90BF
:0C08D800E67CED04F090E67CE4F08D0678
:0308E400EE6017AC
:0E08E7008A828B838CF0123C3BFFA3AA82AB6B
:0908F5008390E67CEFF01E80E622
:0A08FE0090E68F74022DF000000058
:0109080022CC
:0E09090090E618E4F000000090E6047480F020
:0E09170000000090E6047402F00000007A0474
:0B09250090E6497482F0000000DAF553
:0E09300090E604E4F000000090E6A3E4F0007E
:02093E000000B7
:010940002294
:0E09410090E61AE4F000000090E6047480F0E6
:0D094F0000000090E6047406F00000009027
:0E095C00E604E4F000000090E6A5E4F00000E0
:01096A00008C
:01096B002269
:08096C0090E680E0FA30E70696
:060974007A007B02800402
:04097A007A407B0044
:0E097E0090E624EBF000000090E680E0FA30F6
:02098C00E7067C
:06098E007A007B028004E8
:040994007A407B002A
:0809980090E625EAF0000000E2
:0109A0002234
:0709A10078AAB602028007EC
:0709A80078AAB60350800598
:0509AF0012080D804D4F
:0A09B4007582041207EF12080DE52A
:0809BE000BF4FAE50CF4FBE573
:0A09C6000DF4FCE50EF4FD747B2A2D
:0C09D000FAE43BFBE43CFCE43DFD8A0B38
:0509DC008B0C8C0D8D59
:0509E1000E1217EF7873
:0C09E6009FE4F608F608F608F612094136
:0B09F200120909758204120816800427
:0409FD0075820022DD
:030A0100758201FA
:010A040022CF
:070A050078AAB6020280236B
:070A0C0078AAB60302803353
:070A130078AAB60402804A34
:070A1A0078AAB60902806012
:070A210078AAB60A028070FA
:070A280078AAB60B75806E81
:070A2F0012080D750B117593
:060A36000C00750D0075B7
:0A0A3C000E00758204120816806097
:0E0A460012080D75B28190E601E0FA4420F02E
:0E0A540090E6C274FFF0D2B775820012081649
:020A62008042D0
:0E0A640012080DC2B775B20090E601E0FA5418
:0E0A7200DFF090E6C2E4F075820012081680F4
:010A80002550
:070A810012080D750B007552
:060A88000C20750D007545
:0A0A8E000E00758204120816800E97
:050A98001214A6800904
:050A9D00121258800454
:040AA2007582002237
:030AA60075820155
:010AA900222A
:0A0AAA00AA82AB83E508450970013C
:010AB400221F
:070AB500AC14BCE602800551
:050ABC008B05BDE631D1
:080AC1008A068B07AC13AD148B
:0E0AC9008E028F038C828D83E0F88A828B83ED
:060AD700F00EBE00010F4D
:050ADD000CBC00010D3E
:080AE200150874FFB5080215A8
:010AEA000902
:060AEB00E508450970D882
:010AF10022E2
:0C0AF2008C9AAC137E008C9B8D9D7B00C9
:050AFE008A9E020B04BA
:010B030022CF
:080B0400A90890E67B0586902C
:040B0C00E67C0586F8
:080B1000E00586F00586D9F826
:010B180022BA
:0A0B190090E6B9E0FABAA202804AA1
:050B2300BAA3028045A9
:060B2800BAE103020DEE2C
:060B2E00BAE203020DCE45
:060B3400BAE303020DCE3E
:060B3A00BAE403020DAE57
:060B4000BAE503020DAE50
:060B4600BAE603020CB93F
:060B4C00BAE703020CE60B
:060B5200BAE803020D2EBB
:060B5800BAE903020D8E54
:060B5E00BAEA03020D5D7E
:060B6400BAEB03020E0EC5
:030B6A00020E2E4A
:0B0B6D0090E6BAE0FAA3E0FB8A0B8BD5
:0A0B78000C90E6BEE0FAA3E0FB904B
:090B8200E6B8E0FCBCC0028003EF
:030B8B00020C1E3B
:070B8E00EA4B7003020E3276
:080B950090E6A0E0FC20E1F86D
:080B9D0090E6B9E0FCBCA211D6
:0A0BA500750D00750E00C002C003BC
:070BAF001210CCD003D002AC
:090BB600C3EA9440EB94005006E0
:060BBF008A0D8B0E80067A
:060BC500750D40750E00E5
:080BCB0090E6B9E0FCBCA20DAC
:0D0BD300C002C00312101FD003D002801A10
:040BE000850D0885F2
:030BE4000E099067
:040BE700E740850B53
:030BEB0013850C63
:0C0BEE0014C002C003120AAAD003D002F7
:080BFA0090E68AE4F0AC0DADB9
:080C02000E90E68BECF0EC25EE
:070C0A000BFEED350CFF8E1F
:0A0C11000B8F0CEAC39CFAEB9DFB6D
:030C1B00020B8E3B
:0A0C1E0078A7E608467003020CB543
:0C0C280090E6BCE0FCA3E0FD78A7E6B578
:090C3400040708E6B50502800280
:020C3D008076BF
:080C3F0090E6B8E0FCBC406E39
:070C4700EA4B7003020E32BC
:090C4E0090E68AE4F090E68BF0D8
:080C570090E6A0E0FC20E1F8AA
:0A0C5F0090E68BE0FC7D008C0D8D0B
:090C69000E90E6B9E0FCBCA31FEB
:040C7200850D08855F
:030C76000E0985DF
:060C79000B82850C83755F
:030C7F00134075AA
:070C820014E7C002C00312D9
:080C89000AAAD003D002800B7F
:0B0C9100C002C0031210CCD003D00240
:060C9C00AC0DAD0EEC25CD
:070CA2000BFEED350CFF8E87
:0A0CA9000B8F0CEAC39CFAEB9DFBD5
:020CB30080922D
:040CB5007582002222
:0A0CB90090E6B8E0FABAC00280032A
:030CC300020E32EC
:080CC60090E6A0E0FA20E1F83D
:0E0CCE0090E7407409F0A37403F090E68AE406
:0A0CDC00F090E68B7402F0020E3275
:0A0CE60090E6B8E0FABAC0028003FD
:030CF000020E32BF
:080CF30090E6A0E0FA20E1F810
:0E0CFB0090E740741DF0A3E4F0A3F0A3F09086
:0B0D0900E744E4F5F0123B81A3E41284
:0A0D14003B81A3E4123B81A3E4122B
:080D1E003B8190E68AE4F090AD
:080D2600E68B7408F0020E32A6
:080D2E0090E6B8E0FABA402398
:090D360090E68AE4F090E68BF0EF
:080D3F0090E6A0E0FA20E1F8C3
:0C0D470090E740E0FAA3E0FB78A7A602CA
:060D530008A603020E32A7
:040D5900758200227D
:080D5D0090E6B8E0FABA402567
:070D650078A7E60846601EB6
:0C0D6C0090E6BCE0FAA3E0FB78A7E6B537
:090D7800020708E6B5030280023F
:020D81008007E9
:070D8300789E7601020E329A
:040D8A00758200224C
:070D8E00750BF0750C3F75B9
:060D95000D04750E00754F
:060D9B000FCD7510AB90B6
:070DA100E6B8E0FABAC00356
:030DA800020E3602
:030DAB00020F4FE5
:070DAE00750BE0750C3F75A9
:060DB5000D0C750E007527
:060DBB000F787510569040
:070DC100E6B9E0FABAE40311
:030DC800020E36E2
:030DCB00020F4FC5
:070DCE00750BC0750C3F75A9
:060DD5000D10750E007503
:060DDB000FCD7510AB9076
:070DE100E6B9E0FABAE203F3
:030DE800020E36C2
:030DEB00020F4FA5
:070DEE00750BA0750C3F75A9
:060DF5000D1C750E0075D7
:060DFB000FCD7510AB9056
:070E0100E6B8E0FABAC003F5
:030E0800020E36A1
:030E0B00020F4F84
:070E0E00750BF8750C3F7530
:060E15000D02750E0075D0
:060E1B000FCD7510AB9035
:070E2100E6B8E0FABAC003D5
:030E2800020E3681
:030E2B00020F4F64
:040E2E0075820022A7
:030E3200758201C5
:010E3500229A
:0C0E36007AFF90E6B8E0FBBBC00280042D
:040E42007582002293
:050E4600AB0DAC0E75C0
:0A0E4B000D00750E00C002C003C0C8
:0E0E5500041210CCD004D003D00274032BFB87
:0A0E6300E43CFC8B0D8C0EC0021263
:0A0E6D00101FD002E50D24FDFBE587
:070E77000E34FFFC8B0D8C13
:0B0E7E000E90E740E0FBA3E0FCEBB5AA
:060E89000F48ECB5104417
:040E8F007A007B006A
:0A0E93007403250DFCE4350EFD8B01
:0A0E9D00067F00C3EE9CEF9D502C71
:0A0EA700EB2440F582E434E7F58304
:0A0EB100E0FC2AFAEB2440FCE434D4
:0A0EBB00E7FD74022B2440F582E4E9
:0C0EC50034E7F583E0FE8C828D83F00B97
:020ED10080C0DF
:030ED300EA60646E
:040ED600850D0885F9
:030EDA000E09906E
:090EDD00E6B9E0FABAE102803442
:050EE600BAE202803DAC
:050EEB00BAE4028005DD
:050EF000BAE943801780
:020EF5007A0081
:030EF700BA0C0032
:020EFA00503E68
:0A0EFC00EA2440F582E434E7F583B0
:060F06007430F00A80EBDC
:050F0C0090E7407513A1
:030F11008D7514C7
:060F14003C120AAA802035
:050F1A0090E740751393
:030F1F00917514B5
:060F22003C120AAA801235
:050F280090E740751385
:030F2D00AD75148B
:060F30003C120AAA800435
:040F3600758200229E
:0C0F3A0090E68AE4F000000090E68BE5F1
:080F46000DF0000000758201AE
:010F4E002280
:080F4F0090E6B8E0FABA401C7C
:070F570078A7E608466015CB
:0C0F5E0090E6BCE0FAA3E0FB78A7E6B543
:090F6A00020708E6B50302800449
:040F73007582002261
:090F770090E68AE4F090E68BF0AC
:080F800090E6A0E0FA20E1F880
:070F880090E68AE0FA701404
:050F8F00AA0DAB0E905D
:0E0F9400E68BE0FC7D00B50206EDB5030280A1
:010FA200044A
:040FA3007582002231
:060FA7008A15AD158D0650
:060FAD008E071EEF602517
:0C0FB300C002C00374022E2440FFE4348E
:090FBF00E7FCEE2440F582E43465
:0C0FC800E7F583E0FA8F828C83F0D00301
:040FD400D00280D5F2
:080FD80090E740E50FF0A3E5EE
:050FE00010F07C407ED2
:0A0FE500E78E9A759B407C007402B1
:030FEF002515FDC8
:090FF20090E67BE0FE2CFCDDF72B
:0A0FFB00740225152440F582E43449
:0C100500E7F583C3E49CFCF074032AFAB6
:08101100E43BFB8A0D8B0E127B
:0510190010CC758201FE
:01101E0022AF
:05101F00E50DFA70046C
:0410240075820122AE
:0810280090E678E0FB20E6F8F9
:0C10300090E6787480F090E67974A3F0EC
:08103C0090E678E0FB30E0F8DB
:0810440090E678E0FB20E27465
:08104C0090E678E0FB30E16C56
:03105400BA0108D6
:0810570090E678E0FB4420F074
:07105F0090E679E07B407C84
:06106600E78C9A7B407C40
:05106C00E77C008B9BF6
:04107100DA028026F9
:0810750090E678E0FB30E0F8A2
:08107D0090E678E0FB20E23B65
:03108500BA0108A5
:0810880090E678E0FB4420F043
:0B10900090E679E0FB90E67BF080D654
:08109B0090E678E0FA30E0F87D
:0810A30090E678E0FA20E21566
:0E10AB0090E678E0FA4440F090E679E0FA90A2
:0710B900E67BF075820122C5
:0B10C00090E678E0FA4440F0758200F2
:0110CB002202
:0210CC00AA0D6B
:0810CE0090E678E0FB20E6F853
:0C10D60090E6787480F090E67974A2F047
:0810E20090E678E0FB30E0F835
:0810EA0090E678E0FB20E26BC8
:0810F20090E678E0FB30E163B9
:0310FA00EA600E9B
:0710FD007B407CE78C9A7B2D
:07110400407CE77C008B9B9F
:02110B007B0265
:03110D00EA700382
:03111000EB603B56
:03111300EB60147A
:03111600BB020811
:0811190090E679E50CF0800678
:0611210090E679E50BF0F9
:031127001B800A20
:0A112A0090E67BE0FC90E679F01AF5
:0811340090E678E0FC30E0F8E1
:08113C0090E678E0FC20E219C6
:0811440090E678E0FC20E1C117
:02114C00800F12
:0E114E0090E678E0FA4440F0121169758201D3
:01115C002270
:0B115D0090E678E0FA4440F075820054
:011168002264
:0811690090E678E0FA20E6F8B8
:0E11710090E678E0FA4480F090E67974A2F0FF
:08117F0090E678E0FA30E0F898
:0811870090E678E0FA4440F024
:08118F0090E678E0FA20E6F892
:0811970090E678E0FA30E1D2A5
:01119F00222D
:0811A00090E678E0FA4440F00B
:0811A80090E678E0FA20E6F879
:0111B000221C
:0711B100AA8290E679EAF042
:0811B80090E678E0FA30E0F85F
:0811C00090E678E0FA20E20855
:0811C80090E678E0FA20E1074F
:0711D0001211A078AC762398
:0611D70078ACE6B4010053
:0411DD00E433F58280
:0111E10022EB
:0C11E200AA8290E6787480F0EA2AFAE510
:0B11EE00164AF5821211B1E582700470
:0411F90078AC762236
:0611FD0078ACE6B401002D
:04120300E433F58259
:0112070022C4
:091208007516017582510211E214
:0C121100AA82AB83751600758251C002E2
:0D121D00C0031211E2E582D003D00260117F
:0E122A008B82C002C0031211B1E582D003D046
:031238000270043D
:04123B007C008002B1
:02123F007C0130
:03124100EC600B53
:0B1244007B008A821211B1E582700469
:04124F007A0080029F
:021253007A011E
:021255008A828B
:011257002274
:06125800E4F517F518F59E
:07125E0008F5097582081272
:0612650007EF12080DACBA
:04126B000FAD10AE05
:0A126F0011AF12C3E49C74209DE44B
:051279009EE49F4028E7
:04127E00850B19853E
:031282000C1A85BE
:031285000D1B85B9
:041288000E1CEC2527
:08128C0019FCED351AFDEE35E9
:0A1294001BFEEF351CFFC3E49C7441
:08129E00209DE49EE49F500A2C
:0A12A60078AC760975820002081684
:0912B000AC19741C251AFDE4358B
:0712B9001BFEE4351CFF8C55
:0412C0000B8D0C8EF8
:0412C4000D8F0E85F7
:0612C8000B82850C83126D
:0612CE001211E58270051B
:0512D400F5820208167E
:0A12D9001211A0758200120816E53C
:0412E3000F4510455E
:0512E700114512602812
:0A12EC001212087401B50F0EE4B5EC
:0812F600100AE4B51106E4B58D
:0412FE001202800256
:02130200800861
:0813040090E678E0FC4420F0C3
:08130C0090E679E0F50A800388
:0313140075180148
:04131700E51860076E
:07131B00E5176003021498BE
:09132200120781E4B50A02803FC4
:05132B007401B50A0C7D
:04133000E517700845
:0813340075170112080D802E4F
:05133C007402B50A1C5B
:0713410012080DE5187022EF
:0C13480090E6A57401F00000007518018B
:0913540078AC76021211A0800DA4
:04135D00E51870031C
:031361001211A0C6
:0613640075170002149849
:04136A00E51870A969
:05136E00E5AA20E5A442
:071373007C007DF88D9D7CDC
:08137A00007DF87D008C9E85CA
:031382000F1D85B7
:03138500101E85B2
:03138800111F85AD
:03138B001220909D
:07138E00E680E0FA30E706FB
:061395007A007B028004D7
:04139B007A407B0019
:0C139F00EB3395E0FCFDC3EA951DEB95D7
:0613AB001EEC951FED95FC
:0313B100205014B5
:0813B40090E680E0FA30E70644
:0613BC007A007B028004B0
:0413C2007A407B00F2
:0213C6008004A1
:0413C800AA0FAB10AD
:0413CC008A088B09F7
:0713D000E508450970030266
:0213D70014837D
:0713D900E518600302148314
:0813E00090E678E0FC30E0F833
:0813E80090E678E0FC30E21809
:0813F00078AC7623751801901A
:0C13F800E6A57401F0EAC39508FAEB9535
:0414040009FB80C898
:0A1408007402B50F0EE4B5100AE4FB
:09141200B51106E4B512028002D6
:02141B00800847
:08141D0090E678E0FC4420F0A9
:0A1425007401B50F0EE4B5100AE4DF
:09142F00B51106E4B512028002B9
:02143800800B27
:0B143A00C002C0031211A0D003D002BA
:0A14450090E679E0FC90E67CF015DB
:07144F000874FFB508021547
:01145600098C
:05145700AC0FAD10AE6A
:0A145C0011AF121CBCFF091DBDFFFB
:06146600051EBEFF011F80
:05146C008C0F8D108EB5
:0A147100118F12EC4D4E4F60030284
:02147B0013D08C
:06147D007518010213D0F6
:0E14830090E698EBF00000007B0090E699EAFE
:07149100F000000002131738
:07149800120941E51760068F
:06149F0075820002081630
:0114A5002224
:0714A600752100752200759D
:0614AD002301E4F508F53F
:0814B300097582081207EF120F
:0514BB00080DAD0FAEAD
:0414C00010AF11ACAC
:0C14C40012C3E49D74209EE49FE49C4051
:0114D0001CFF
:0A14D100ED250BFDEE350CFEEF35A6
:0A14DB000DFFEC350EFCC3E49D7418
:0814E500209EE49FE49C500AE4
:0A14ED0078AC76097582000208163B
:0B14F700758200120816AC0B741C2557
:081502000CFDE4350DFEE4359B
:05150A000EFF8C0B8DAB
:04150F000C8E0D8FA2
:041513000EE50F458D
:041517001045114525
:03151B0012700348
:03151E0075220132
:04152100E522600758
:07152500E5216003021653EB
:09152C00120781E4B50A028035C2
:051535007401B50A0C71
:04153A00E52170082F
:08153E0075210112080D802443
:051546007402B50A1952
:07154B0012080DE5227018E3
:0C15520090E6A37401F000000075220177
:06155E0078AC7602800665
:0615640075210002165380
:04156A00E52270B353
:05156E00E5AA20E0AE3B
:071573007C007DF08D9A7CE5
:08157A00007DF07D008C9B90C8
:0E158200E690E0FC8C057C0090E691E0FE7F98
:08159000002CF508EF3DF50900
:06159800E508450960832F
:07159E00E5226003021521A4
:0415A500E523600CCE
:0715A900850B82850C831203
:0515B00012117523007B
:0515B50078ACE6700EA9
:0E15BA0090E67BE0FCF5821211B1E582700B29
:0B15C80075220190E6A37401F080C5BD
:0815D300150874FFB5080215AC
:0115DB000906
:0515DC00AC0FAD10AEE4
:0715E10011AF12EC24FFF52D
:0A15E80024ED34FFF525EE34FFF585
:0715F20026EF34FFF5278509
:0315F900240F8537
:0315FC0025108532
:0315FF002611852D
:031602002712AA02
:041605000BAB0CAC73
:0A1609000DAD0E0ABA00090BBB007C
:06161300050CBC00010DF6
:051619008A0B8B0C8C14
:04161E000D8D0EE53B
:0416220024452545F1
:051626002645277003BA
:03162B0075220124
:06162E00E5084509700605
:0616340090E6497482F00B
:04163A00E52270092C
:06163E00E50B543F6003C0
:03164400021598F4
:071647001211A012116975D8
:05164E002301021598C4
:04165300E523700615
:061657001211A01211693E
:07165D00120909E5216006F6
:0616640075820002081669
:01166A00225D
:053C7900010200000043
:053C7E00010000000040
:053C830001000000003B
:053C880001F70000003F
:043C8D000A015000D8
:0E3C9100582D426F617264000000FDFDFDFDC4
:0E3C9F000000A2A7177FE3F11608F07CE900F1
:0E3CAD00444F6E62557362000000FDFDFDFD88
:023CBB00000007
:07166B0078AAB602028077A5
:0716720078ABB60002801105
:0B16790012080D78AC760C7582001290
:0616840008167582012228
:05168A0078AAE67036AD
:06168F00789FE630E01137
:0B16950012080D78AC7603758200127D
:0616A0000816758201220C
:0616A600789FE630E4111C
:0B16AC0012080D78AC76037582001266
:0616B700081675820122F5
:0816BD00789FE64401F6802449
:0516C50078AAB601083F
:0816CA00789FE654FEF680173C
:0616D200789FE620E01104
:0B16D80012080D78AC76047582001239
:0616E300081675820122C9
:0A16E90078AAE624F450030217D992
:0A16F30078AAE625E0269016FD73A4
:0716FD000217210217310260
:0617040017410217D90293
:06170A00174E02176702F2
:06171000179B0217D20234
:0617160017C40217C40213
:05171C0017CB0217C409
:0A1721001217DD12080D7582001288
:06172B0008167582012280
:0A1731001217EF12080D7582001266
:06173B0008167582012270
:0D174100903CBD75F0801208A57582012254
:07174E0012080D750B007578
:061755000C6A750D187509
:0C175B000E00758204120816758201222F
:0717670090E67BE0FA60044C
:04176E00D2B3800270
:02177200C2B300
:0717740090E67BE0FA60043F
:04177B00D2B2800264
:02177F00C2B2F4
:0717810090E67BE0FA600432
:04178800D2B4800255
:02178C00C2B4E5
:0D178E0012080D75820012081675820122E6
:0C179B0012080DA2B3E433FA8A0BA2B2CC
:0B17A700E433FA8A0CA2B0E433FA8AA3
:0A17B2000DA2B4E433FA8A0E75822A
:0817BC000412081675820122D7
:0717C400121BAC758201222B
:0717CB00121FB37582012219
:0717D2001217FB75820122D2
:0317D90075820016
:0117DC0022EA
:0E17DD0043B50443B50843B510D2B5C2B2D22D
:0317EB00B3C2B4D2
:0117EE0022D8
:0B17EF00C2B553B5E3C2B2D2B3C2B41E
:0117FA0022CC
:053CBD000102000000FF
:053CC2000100000000FC
:053CC7000100000000F7
:053CCC0001F7000000FB
:0B17FB007A007B0090E67BE0FC6004BD
:04180600D2B38002D7
:02180A00C2B367
:07180C0090E67BE0FC6004A4
:04181300D2B28002CB
:02181700C2B25B
:0E181900C2B4758204C002C0031207EFD003F0
:0E18270000C00312080D758200120816D003CF
:07183500D002AC0BAD0CAEBC
:04183C000DAF0E8C52
:041840000F8D108E6A
:09184400118F12EC4D4E4F7002A1
:02184D007B011D
:03184F00EB600645
:06185200EA600302190028
:0D185800C002C003120781D003D002E4B526
:041865000A028031C2
:051869007401B50A0F37
:0E186E007A01C002C00312080DD003D0028020
:01187C001D4E
:05187D007402B50A131E
:0B1882007B0178AC7602C002C00312AC
:08188D00080DD003D002800514
:051895007A00021900B9
:03189A00EB70B23E
:05189D00AC0BAD0CAE28
:0A18A2000DAF0EC3ED94FEEE9400AE
:0518AC00EF940050065E
:0618B1008C088D09800681
:0618B7007508007509FE32
:0818BD00AC08AD09E4FEFFE5F3
:0918C5000BC39CFCE50C9DFDE544
:0818CE000D9EFEE50E9FFF8C4C
:0418D6000B8D0C8EDC
:0818DA000D8F0EC000C001A833
:0418E20008A909093F
:0E18E600D2B4C2B4D8FAD9F8D001D000EC4D7B
:0718F4004E4F600302184F84
:0518FB007B0102184F03
:03190000EA602971
:07190300E50FC3950BFAE5A7
:05190A0010950CFBE547
:05190F0011950DFCE53F
:0519140012950EFD8A92
:041919000B8B0C8C9C
:04191D000D8D0E78A6
:0B192100ACE64480F675820402081654
:01192C002298
:0A192D00C001C002A908AA09E96080
:02193700010AA3
:0319390090E67BBA
:0E193C00E01392B2D2B4C2B41392B2D2B4C2CB
:0E194A00B41392B2D2B4C2B41392B2D2B4C2E9
:0E195800B41392B2D2B4C2B41392B2D2B4C2DB
:0E196600B41392B2D2B4C2B41392B2D2B4C2CD
:09197400B4D9C5DAC3D002D001D8
:01197D002247
:0A197E00C001C002A908AA09E9602F
:02198800010A52
:0A198A0090E67B058690E67C05865A
:0E199400E01392B2A2B013D2B4C2B492B2A2C7
:0E19A200B013D2B4C2B492B2A2B013D2B4C287
:0E19B000B492B2A2B013D2B4C2B492B2A2B03A
:0E19BE0013D2B4C2B492B2A2B013D2B4C2B467
:0E19CC0092B2A2B013D2B4C2B492B2A2B013BF
:0E19DA00D2B4C2B40586F00586D9AFDAADD01E
:0319E80002D00129
:0119EB0022D9
:0A19EC00C001C002A908AA09E960C1
:0219F600010AE4
:0319F80090E67CFA
:0E19FB00A2B0D2B4C2B413A2B0D2B4C2B4131C
:0E1A0900A2B0D2B4C2B413A2B0D2B4C2B4130D
:0E1A1700A2B0D2B4C2B413A2B0D2B4C2B413FF
:0E1A2500A2B0D2B4C2B413A2B0D2B4C2B413F1
:091A3300F0D9C2DAC0D002D001E2
:011A3C002287
:0A1A3D00C001C002A908AA09E9606F
:021A4700010A92
:031A490090E67BA9
:0E1A4C00E01392B3D2B4C2B41392B3D2B4C2B8
:0E1A5A00B41392B3D2B4C2B41392B3D2B4C2D6
:0E1A6800B41392B3D2B4C2B41392B3D2B4C2C8
:0E1A7600B41392B3D2B4C2B41392B3D2B4C2BA
:091A8400B4D9C5DAC3D002D001C7
:011A8D002236
:0A1A8E00C001C002A908AA09E9601E
:021A9800010A41
:0A1A9A0090E67B058690E67C058649
:0E1AA400E01392B3A2B013D2B4C2B492B3A2B4
:0E1AB200B013D2B4C2B492B3A2B013D2B4C275
:0E1AC000B492B3A2B013D2B4C2B492B3A2B027
:0E1ACE0013D2B4C2B492B3A2B013D2B4C2B455
:0E1ADC0092B3A2B013D2B4C2B492B3A2B013AC
:0E1AEA00D2B4C2B40586F00586D9AFDAADD00D
:031AF80002D00118
:011AFB0022C8
:0A1AFC00C001C002A908AA09E960B0
:021B0600010AD2
:031B080090E67BE9
:0E1B0B00E01392B21392B3D2B4C2B41392B2EA
:0E1B19001392B3D2B4C2B41392B21392B3D2E9
:0E1B2700B4C2B41392B21392B3D2B4C2B4D902
:071B3500D5DAD3D002D00184
:011B3C002286
:0A1B3D00C001C002A908AA09E9606E
:021B4700010A91
:0A1B490090E67B058690E67C058699
:021B53007C0212
:0E1B5500E01392B21392B3FBE8A2B013F8EBC8
:0E1B6300D2B4C2B41392B21392B3FBE8A2B094
:0E1B710013F8EBD2B4C2B41392B21392B3FBCA
:0E1B7F00E8A2B013F8EBD2B4C2B41392B213C2
:0E1B8D0092B3FBE8A2B013F8EBD2B4C2B4DC02
:0E1B9B00B9E80586F0058619D9AEDAACD0029D
:021BA900D00169
:011BAB002217
:071BAC00752900752B00757F
:071BB3002C0078AAB6082AF5
:081BBA0075290190E67BE0F5BE
:081BC2002890E67BE0FE6004C0
:041BCA00D2B3800210
:021BCE00C2B3A0
:041BD000E52860089C
:041BD400752D7E7578
:041BD8002E19805AE8
:041BDC00752D2D75C1
:041BE0002E198052E8
:051BE40078AAB60925F6
:0A1BE90075280190E67BE0FC600423
:041BF300D2B38002E7
:021BF700C2B377
:071BF90090E67BE0FC6004B4
:041C0000D2B28002DA
:021C0400C2B26A
:041C0600752DEC75D7
:041C0A002E198028E7
:081C0E0075290190E67BE0F569
:081C16002890E67BE0FC60046D
:041C1E00D2B28002BC
:021C2200C2B24C
:041C2400E528600847
:041C2800752D8E7513
:041C2C002E1A8006E6
:041C3000752D3D755C
:021C34002E1A66
:0D1C36007582041207EF12080D758200126E
:041C43000816850BEF
:031C47002F850CDA
:031C4A0030850DD5
:031C4D0031850ED0
:031C500032852FAB
:031C53000F8530CA
:031C5600108531C5
:031C5900118532C0
:0A1C5C00127407552FFD7A007B007B
:071C66007C008D2AAA2FE586
:0C1C6D0030C423CAC423541F6ACA541F89
:0C1C7900CA6ACAFBE531C42354E04BFBEF
:0A1C8500AC31E532C423CCC4235473
:0C1C8F001F6CCC541FCC6CCCFE8A0B8B5D
:041C9B000C8C0D8E12
:051C9F000EE52A601DA6
:051CA400AA0BAB0CAC23
:0A1CA9000DAE0E0ABA00090BBB00D5
:061CB300050CBC00010E4F
:051CB9008A0B8B0C8C6E
:031CBE000D8E0E7A
:051CC100E50F45104590
:051CC60011451270033E
:031CCB00752B0175
:021CCE00C2B49E
:041CD000E52B600799
:071CD400E52C6003021EC6AF
:071CDB00120781E50A602CED
:051CE2007401B50A0CBD
:041CE700E52C700870
:081CEB00752C0112080D801B8D
:051CF3007402B50A10A7
:071CF80012080DE52B700F2F
:091CFF0078AC7602752B01800619
:061D0800752C00021EC64E
:041D0E00E52960055E
:051D1200E5AA20E0B984
:041D1700E528600556
:051D1B00E5AA20E5B07F
:041D2000E52B70AC93
:041D2400E529600E3F
:071D28007A007BF08B9A7A30
:071D2F00007BF07B008A9BA2
:041D3600E528600E2E
:071D3A007A007BF88B9D7A13
:071D4100007BF87B008A9E85
:041D4800E529601910
:0E1D4C0090E690E0FA8A037A0090E691E0FCBF
:0A1D5A007E004AF508EE4BF5098003
:011D6400542A
:041D6500850B338532
:031D69000C3485B2
:031D6C000D3585AD
:031D6F000E36909D
:071D7200E680E0FF30E70608
:061D79007A007B028004E9
:041D7F007A407B002B
:0C1D83008A07EBFD3395E0FAFBC3EF95F7
:061D8F0033ED9534EA95E6
:061D950035EB95365018F5
:081D9B0090E680E0FA30E70653
:061DA3007A007B028004BF
:041DA9007A407B0001
:061DAD008A088B09800684
:041DB30085330885E7
:021DB7003409ED
:081DB900AA08AB09E4FCFDE5FA
:091DC1000BC39AFAE50C9BFBE54B
:081DCA000D9CFCE50E9DFD8A55
:041DD2000B8B0C8CDF
:041DD6000D8D0EE57C
:031DDA002A601369
:051DDD00E50B450C457B
:051DE2000D450E700923
:081DE700150874FFB508021590
:011DEF0009EA
:061DF000E5084509600949
:071DF600852D82852E83126A
:021DFD00006B79
:071DFF00E52A7003021E90AB
:051E0600E50B450C4551
:061E0B000D450E6003020C
:021E11001E9021
:061E1300AA2AE529700B6C
:031E190030B204E0
:041E1C007BFF8002C6
:021E20007B0045
:021E2200800539
:051E240090E67BE0FBED
:051E290078AAB60B1DB4
:021E2E008A0424
:0B1E3000EBA2E092B3C313FB30B0053F
:051E3B00430380800359
:031E400053037FCA
:061E4300D2B4C2B4DCE7DA
:021E49008019FE
:0B1E4B00EBA2E092B2C313FB30B00525
:051E560043038080033E
:031E5B0053037FAF
:061E5E00D2B4C2B4DAE7C1
:041E6400E528601DF0
:0C1E6800AD2A7A007408C39DFDE49AFACC
:071E74008DF005F0EB800288
:021E7B00C3138F
:081E7D00D5F0FBFB90E67CF0C0
:071E8500752A000508E4B511
:041E8C00080205093A
:041E9000E5296009D7
:091E940090E6497482F0000000A0
:041E9D00E5286012C2
:0A1EA10090E698E509F000000090BB
:081EAB00E699E508F0000000D3
:051EB300E50B450C45A4
:061EB8000D450E6003025F
:021EBE001CD036
:061EC000752B01021CD08D
:071EC600120909120941E5B0
:041ECD002C70012252
:041ED100E52A601D81
:051ED500AA0BAB0CACF0
:0A1EDA000DAD0E1ABAFF091BBBFF85
:061EE400051CBCFF011DFE
:051EEA008A0B8B0C8C3B
:031EEF000D8D0E48
:041EF200850D35E540
:0A1EF6000EC40354F8C535C403C53B
:041F0000356535C549
:061F04003554F8C53565F7
:041F0A0035F536E58E
:081F0E000CC40354074535F52E
:031F160035850B03
:081F190033E50CC40354F8C5C4
:061F210033C403C5336563
:061F270033C53354F8C578
:041F2D00336533F5F0
:031F3100348533C1
:031F34000B8534E6
:031F37000C8535E1
:031F3A000D8536DC
:091F3D000EAE2AE4FFFAFBEE25CA
:081F460033FEEF3534FFEA35EC
:071F4E0035FAEB3536FB8E7E
:041F55000B8F0C8A58
:041F59000D8B0EE5F9
:091F5D000FC39EFEE5109FFFE595
:081F6600119AFAE5129BFB8EB3
:041F6E000F8F108A37
:041F7200118B128E2F
:041F76000B8F0C8A37
:041F7A000D8B0EE5D8
:031F7E00296004D3
:041F81007A808002E0
:021F85007A00E0
:041F8700E5286004E5
:041F8B007B40800215
:021F8F007B00D5
:0A1F9100EB4A78AC46F6E52960043F
:041F9B007A04800242
:021F9F007A00C6
:041FA100E5286004CB
:041FA5007B04800237
:021FA9007B00BB
:071FAB00EB2AF58202081683
:011FB200220C
:071FB3007538007539007557
:071FBA003A0090E67BE0F520
:081FC100377582041207EF12CC
:091FC900080D758200120816854E
:031FD2000B3D853F
:031FD5000C3E853A
:031FD8000D3F8535
:031FDB000E408530
:031FDE003D0F852F
:031FE1003E10852A
:031FE4003F118525
:031FE7004012E5C0
:041FEA003D453E45EE
:051FEE003F45407003B7
:031FF3007539013C
:0C1FF6007407553DFAE4FDFBFC74032564
:082002003DFBE4353EFCE43532
:07200A003FFDE43540FE8BB1
:042011000B8C0C8D9B
:0A2015000DEEF50EC313FEED13FDF2
:0E201F00EC13FCEB13FBEEC313FEED13FDEC14
:0A202D0013FCEB13FB8B0B8C0C8DE6
:042037000D8E0EE517
:03203B0037600803
:04203E00753B3D753C
:042042003C1B8006BD
:04204600753BFC7575
:02204A003C1A3E
:02204C00C2B41C
:04204E00E539600709
:07205200E53A600302224F92
:0B205900C002120781D002E50A6034CB
:052064007401B50A1033
:04206900E53A700CD8
:0C206D00753A01C00212080DD002801F5D
:052079007402B50A1419
:0B207E00C00212080DD002E539700FFF
:0920890078AC760275390180067D
:06209200753A0002224F26
:05209800E5AA20E0B103
:04209D00E5376005BE
:0520A100E5AA20E5A8FE
:0420A600E53970A404
:0720AA007D007EF08E9A7D9F
:0820B100007EF07E008D9BE52E
:0320B9003760127B
:0420BC00E538700E85
:0720C0007D007EF88E9D7D7E
:0720C700007EF87E008D9EF3
:0E20CE0090E690E0FD8D067D0090E691E0FF2B
:0A20DC007B002DF508EB3EF509AB83
:0720E60008AC09E4FDFEE572
:0920ED000BC39BFBE50C9CFCE518
:0820F6000D9DFDE50E9EFE8B21
:0420FE000B8C0C8DAE
:062102000D8E0EEA602CB8
:05210800E50B450C454C
:05210D000D450E7022DB
:0E2112008A03FC74032BFBE43CFCA2E713CB16
:0C21200013CBA2E713CB13CBFCE508C3E4
:07212C009BF508E5099CF595
:0121330009A2
:06213400E5084509600DFD
:09213A00C002853B82853C831242
:04214300006BD0025B
:06214700EA70030221CC46
:05214D00E50B450C4507
:052152000D450E707543
:092157007B0090E67BE0FC7D00BA
:05216000C3ED9A5023BD
:03216500BD0405B1
:0521680090E67BE0FCA5
:0E216D00ECA2E092B2C313FCA2E092B3C31343
:06217B00FCEBA2B013FB17
:07218100D2B4C2B40D80D8F6
:04218800E537601CBB
:0E218C008A047D007408C39CFCE49DFD8CF069
:05219A0005F0EB8002DE
:02219F00C31368
:0721A100D5F0FB90E67CF095
:0E21A8008A037C0074032BFBE43CFCA2E713CB
:0C21B600CB13CBA2E713CB13CBFCEB2523
:0521C20008F508EC35F2
:0521C70009F5097A0092
:0421CC00E537606330
:0521D000E50B450C4584
:0521D5000D450E600441
:0421DA00E538605232
:0721DE000508E4B508020545
:0121E50009F0
:0821E600E509C313C50813C588
:0421EE0008F509E502
:0321F2003860242E
:0821F50090E680E0FB30E706F4
:0621FD007B007C0280045F
:042203007B407C00A0
:0C220700ECA2E713CB13CBFCEB2508F591
:0522130008EC3509F59F
:0122180009BC
:0A22190090E698E509F0000000903F
:09222300E699E508F000000075E1
:04222C0038008003F3
:03223000753801FD
:0C22330090E6497482F0000000E50B45C5
:04223F000C450D45F8
:062243000E600302204EB4
:0622490075390102204E70
:0C224F00C00212090900120941D002E58A
:04225B003A700122B2
:0A225F00E50B25E0FBE50C33FCE580
:0A2269000D33FDE50E33FEEB2BFBF9
:0C227300EC33FCED33FDEE33FE8B0B8CE6
:04227F000C8D0D8E27
:042283000EEA603DC2
:04228700EA30E21D3A
:05228B00AB0BAC0CAD33
:0A2290000DAE0E1BBBFF091CBCFFC6
:06229A00051DBDFF011E41
:0522A0008B0B8C0C8D7E
:0322A5000D8E0E8D
:0A22A800E4FBFCFDEA250BFAEB3520
:0822B2000CFBEC350DFCED35D1
:0522BA000EFD8A0B8BF4
:0422BF000C8C0D8DE9
:0122C3000E0C
:0722C400E50FC3950BFAE5DD
:0522CB0010950CFBE57D
:0522D00011950DFCE575
:0522D50012950EFD8AC8
:0422DA000F8B108CCA
:0422DE00118D128AC2
:0422E2000B8B0C8CCA
:0422E6000D8D0EE567
:0322EA0037700842
:0522ED00F50FF510F5EE
:0322F20011F512D1
:0C22F50078ACE644C0F6758208020816BA
:0123010022B9
:053CD1000102000000EB
:053CD6000100000000E8
:053CDB000100000000E3
:053CE00001F7000000E7
:0600E400754100754200A9
:0723020078AAB60202807701
:0723090078ABB60002801161
:0B23100012080D78AC760C75820012EC
:06231B0008167582012284
:0523210078AAE6703609
:06232600789FE630E4118F
:0B232C0012080D78AC760375820012D9
:0623370008167582012268
:06233D00789FE630E0117C
:0B23430012080D78AC760375820012C2
:06234E0008167582012251
:08235400789FE64410F6802496
:05235C0078AAB601089B
:08236100789FE654EFF68017A7
:06236900789FE620E4115C
:0B236F0012080D78AC76047582001295
:06237A0008167582012225
:0A23800078AAE624F750030224387F
:0A238A0078AAE625E026902394735C
:072394000223AF0223C50282
:06239B0023D50223E2023B
:0623A10023EC0223F6020A
:0623A700240D02242402B3
:0223AD00242EDC
:0723AF0075410075420012A8
:0923B600243C12080D758200128E
:0623BF00081675820122E0
:0A23C50012244E12080D758200125A
:0623CF00081675820122D0
:0D23D500903CF475F0801208A5758201227D
:0A23E20012246B12252C75820122D3
:0A23EC0012080D12252C7582012243
:0B23F60090E67BE0FAF58212258212CF
:0C240100080D7582001208167582012279
:0B240D0090E67BE0FAF58212246012DA
:0C241800080D7582001208167582012262
:0A24240075820112259275820122D3
:0A242E0075820012259275820122CA
:03243800758200AA
:01243B00227E
:0E243C00C2B243B504D2B343B508C2B443B52F
:03244A0010D2B5F8
:01244D00226C
:0E244E00C2B5C2B253B5FBD2B353B5F7C2B498
:03245C0053B5EF86
:01245F00225A
:05246000E582FA6003B3
:03246500D2B322CD
:02246800C2B3FD
:01246A00224F
:0A246B007582041207EF12080D85B8
:032475000B65856F
:032478000C66856A
:03247B000D678565
:0A247E000E68906BFF75F0DC74022D
:0E248800123B1CAA82AB83ACF0FD0ABA00091D
:092496000BBB00050CBC00010D9C
:05249F008A0B8B0C8C80
:0A24A4000D8D0EC374249AE49BE42E
:0524AE009CE49D4004C8
:0424B300754200224C
:0524B700AA0BAB0CAC08
:0A24BC000DAD0EC374579AE49BE4C3
:0524C6009CE49D4004B0
:0424CB007542012233
:0E24CF00EA24C0FAEB34FFFBEC34FFFCED34E2
:0924DD00FFFD756518E4F566F5D4
:0A24E60067F5688A828B838CF0EDA5
:0E24F000123B1CAA82AB83ACF0FD0ABA0009B5
:0924FE000BBB00050CBC00010D34
:052507008A0B8B0C8C17
:04250C000D8D0E859E
:032510000B4685F2
:032513000C4785ED
:032516000D4885E8
:0A2519000E49EB7006EC7003ED6054
:0125230004B3
:042524007542FF22DB
:03252800854642A3
:01252B00228D
:04252C00E542700D07
:07253000750B56750C587580
:062537000D14F50E803FBB
:0C253D00E54275F018A4243FFAE435F0E4
:09254900FB8A65F5663395E0F5A7
:0A25520067F568906BFF75F0DC740C
:0E255C0002123B1CAA82AB83ACF0FD0ABA004F
:0A256A00090BBB00050CBC00010DBD
:052574008A0B8B0C8CAA
:032579000D8D0EB7
:06257C007582040208163E
:0A258200AA8274075AF54130E10304
:03258C00D2B422A4
:02258F00C2B4D4
:012591002227
:09259200AA82754B00754C009003
:09259B00E67BE0FB90E67BE0F535
:0425A4004AEA600B94
:0825A80075440190E67BE0F5AB
:0325B00045800C57
:0725B30090E67BE0F54375A3
:0525BA0045017544001D
:0E25BF00758204C0031207EF0012080D75822A
:0925CD0000120816D003AA0BAF9E
:0425D6000CAE0DAD8D
:0425DA000E8A0F8FC7
:0425DE00108E118DBD
:0425E20012EB600494
:0425E600D2B38002EA
:0225EA00C2B37A
:0725EC00E5426003022690A6
:0425F300E544603724
:0425F700E545603323
:0525FB00E54130E2178C
:05260000E54130E00996
:04260500754D2F756B
:032609004E290255
:02260C0026BDE9
:04260E00754D8D7504
:032612004E29024C
:0226150026BDE0
:05261700E54130E0097F
:04261C00754D737510
:032620004E28023F
:0226230026BDD2
:04262500754DD175A9
:032629004E280236
:02262C0026BDC9
:04262E00E544602FF0
:05263200E54130E21556
:05263700E54130E00860
:04263C00754D9F75C4
:042640004E2A807925
:04264400754DF97562
:042648004E2A807125
:05264C00E54130E0084B
:04265100754DEB7563
:042655004E29806426
:04265900754D457501
:04265D004E2A805C25
:05266100E54130E21527
:05266600E54130E00831
:04266B00754D09752B
:04266F004E2C804A23
:04267300754D6575C7
:042677004E2C804223
:05267B00E54130E0081C
:04268000754D5375CC
:042684004E2B803524
:04268800754DAD756A
:04268C004E2B802D24
:05269000E54130E215F8
:05269500E54130E00802
:04269A00754DC17544
:04269E004E2C801B23
:0426A200754D4775B6
:0426A6004E2D801322
:0526AA00E54130E008ED
:0426AF00754D0475EC
:0426B3004E2D800622
:0426B700754D8A755E
:0226BB004E2DA2
:0426BD00E54B600782
:0726C100E54C600302280450
:0726C800120781E50A602CF6
:0526CF007401B50A0CC6
:0426D400E54C700859
:0826D800754C0112080D801B76
:0526E0007402B50A10B0
:0726E50012080DE54B700F18
:0926EC0078AC7602754B01800602
:0626F500754C00022804F0
:0426FB00E54460054D
:0526FF00E5AA20E0B98E
:04270400E545600542
:05270800E5AA20E5B088
:04270D00E54B70AC7C
:04271100E544600E2D
:072715007E007FF08F9A7E29
:07271C00007FF07F008E9B9F
:04272300E545600E1A
:072727007E007FF88F9D7E0C
:07272E00007FF87F008E9E82
:04273500E5446019FE
:0E27390090E690E0FE8E077E0090E691E0FABA
:0A2747007D004EF508ED4FF5098006
:012751005334
:04275200850F4F851B
:032756001050859B
:0327590011518596
:03275C0012529086
:07275F00E680E0FC30E70614
:062766007A007B028004F2
:04276C007A407B0034
:0C2770008A04EB3395E0FAFDC3EC954FB2
:08277C00EB9550EA9551ED9533
:0327840052501898
:0827870090E680E0FA30E7065D
:06278F007A007B028004C9
:042795007A407B000B
:062799008A088B0980068E
:04279F00854F0885D5
:0227A3005009DB
:0827A500AA08AB09E4FCFDE504
:0927AD000FC39AFAE5109BFBE54D
:0827B600119CFCE5129DFD8A57
:0427BE000F8B108CE1
:0427C200118D1285DE
:0627C6004D82854E8312D6
:0627CC00006BE54460090A
:0927D20090E6497482F000000059
:0427DB00E54560125E
:0A27DF0090E698E509F00000009074
:0827E900E699E508F00000008C
:0527F100E50F45104555
:0627F60011451260030210
:0227FC0026BDF8
:0627FE00754B010226BD2F
:04280400E54A60043D
:04280800D2B38002C5
:02280C00C2B355
:07280E00120909120941E55E
:032815004C605ABA
:07281800E50BC3950FFAE583
:05281F000C9510FBE523
:052824000D9511FCE51B
:052829000E9512FD8A6E
:04282E000B8B0C8C78
:042832000D8D0E8A70
:042836000F8B108C68
:04283A00118D12E505
:03283E00446004EF
:042841007A80800217
:022845007A0017
:04284700E5456004FF
:04284B007B4080024C
:02284F007B000C
:0A285100EB4A78AC46F6E54460045B
:04285B007A04800279
:02285F007A00FD
:04286100E5456004E5
:042865007B0480026E
:022869007B00F2
:07286B00EB2AF582020816BA
:012872002243
:08287300A908AA09E960010AA5
:0E287B0090E67BE03392B2B2B4B2B4A2B033B6
:0E28890092B2B2B4B2B4A2B03392B2B2B4B250
:0E289700B4A2B03392B2B2B4B2B4A2B03392D3
:0E28A500B2B2B4B2B4A2B03392B2B2B4B2B412
:0E28B300A2B03392B2B2B4B2B4A2B03392B2B9
:0E28C100B2B4B2B4A2B03390E67CF0D9ADDA76
:0128CF00AB5D
:0128D00022E5
:0828D100A908AA09E960010A47
:0E28D90090E67BE03392B2B2B4A2B033B2B458
:0E28E70092B2B2B4A2B033B2B492B2B2B4A202
:0E28F500B033B2B492B2B2B4A2B033B2B49265
:0E290300B2B2B4A2B033B2B492B2B2B4A2B0C7
:0E29110033B2B492B2B2B4A2B033B2B492B246
:0E291F00B2B4A2B033B2B490E67CF0D9ADDA17
:01292D00ABFE
:01292E002286
:08292F00A908AA09E960010AE8
:0E29370090E67BE01392B2B2B4B2B4A2B01339
:0E29450092B2B2B4B2B4A2B01392B2B2B4B2B3
:0E295300B4A2B01392B2B2B4B2B4A2B0139256
:0E296100B2B2B4B2B4A2B01392B2B2B4B2B475
:0E296F00A2B01392B2B2B4B2B4A2B01392B23C
:0E297D00B2B4B2B4A2B01390E67CF0D9ADDAD9
:01298B00ABA0
:01298C002228
:08298D00A908AA09E960010A8A
:0E29950090E67BE01392B2B2B4A2B013B2B4DB
:0E29A30092B2B2B4A2B013B2B492B2B2B4A265
:0E29B100B013B2B492B2B2B4A2B013B2B492E8
:0E29BF00B2B2B4A2B013B2B492B2B2B4A2B02B
:0E29CD0013B2B492B2B2B4A2B013B2B492B2CA
:0E29DB00B2B4A2B013B2B490E67CF0D9ADDA7B
:0129E900AB42
:0129EA0022CA
:0829EB00A908AA09E960010A2C
:0329F30090E67BF0
:0E29F600E03392B2B2B4B2B4A2B03392B2B235
:0E2A0400B4B2B4A2B03392B2B2B4B2B4A2B0C3
:0E2A12003392B2B2B4B2B4A2B03392B2B2B444
:0E2A2000B2B4A2B03392B2B2B4B2B4A2B03328
:0E2A2E0092B2B2B4B2B4A2B03392B2B2B4B2A9
:082A3C00B4A2B033D9B4DAB240
:012A4400226F
:082A4500A908AA09E960010AD1
:032A4D0090E67B95
:0E2A5000E03392B2B2B4A2B033B2B492B2B2DA
:0E2A5E00B4A2B033B2B492B2B2B4A2B033B2EA
:0E2A6C00B492B2B2B4A2B033B2B492B2B2B469
:0E2A7A00A2B033B2B492B2B2B4A2B033B2B4CE
:0E2A880092B2B2B4A2B033B2B492B2B2B4A25F
:082A9600B033B2B4D9B4DAB2D6
:012A9E002215
:082A9F00A908AA09E960010A77
:032AA70090E67B3B
:0E2AAA00E01392B2B2B4B2B4A2B01392B2B2C0
:0E2AB800B4B2B4A2B01392B2B2B4B2B4A2B02F
:0E2AC6001392B2B2B4B2B4A2B01392B2B2B4D0
:0E2AD400B2B4A2B01392B2B2B4B2B4A2B013B4
:0E2AE20092B2B2B4B2B4A2B01392B2B2B4B215
:082AF000B4A2B013D9B4DAB2AC
:012AF80022BB
:082AF900A908AA09E960010A1D
:032B010090E67BE0
:0E2B0400E01392B2B2B4A2B013B2B492B2B265
:0E2B1200B4A2B013B2B492B2B2B4A2B013B275
:0E2B2000B492B2B2B4A2B013B2B492B2B2B4D4
:0E2B2E00A2B013B2B492B2B2B4A2B013B2B459
:0E2B3C0092B2B2B4A2B013B2B492B2B2B4A2CA
:082B4A00B013B2B4D9B4DAB241
:012B52002260
:082B5300A908AA09E960010AC2
:032B5B0090E67C85
:0E2B5E003392B2B2B4B2B4A2B03392B2B2B4F7
:0E2B6C00B2B4A2B03392B2B2B4B2B4A2B033DB
:0E2B7A0092B2B2B4B2B4A2B03392B2B2B4B25C
:0E2B8800B4A2B03392B2B2B4B2B4A2B03392DF
:0E2B9600B2B2B4B2B4A2B03392B2B2B4B2B41E
:082BA400A2B033F0D9B4DAB29B
:012BAC002206
:082BAD00A908AA09E960010A68
:032BB50090E67C2B
:0C2BB800E5433392B2B2B4A2B033B2B421
:0E2BC40092B2B2B4A2B033B2B492B2B2B4A222
:0E2BD200B033B2B492B2B2B4A2B033B2B49285
:0E2BE000B2B2B4A2B033B2B492B2B2B4A2B0E8
:0E2BEE0033B2B492B2B2B4A2B033B2B492B267
:0C2BFC00B2B4A2B033B2B4F0D9B2DAB077
:012C080022A9
:082C0900A908AA09E960010A0B
:032C110090E67CCE
:0C2C1400E5431392B2B2B4B2B4A2B01304
:0E2C200092B2B2B4B2B4A2B01392B2B2B4B2D5
:0E2C2E00B4A2B01392B2B2B4B2B4A2B0139278
:0E2C3C00B2B2B4B2B4A2B01392B2B2B4B2B497
:0E2C4A00A2B01392B2B2B4B2B4A2B01392B25E
:0C2C5800B2B4B2B4A2B013F0D9B2DAB03A
:012C6400224D
:082C6500A908AA09E960010AAF
:032C6D0090E67C72
:0C2C7000E5431392B2B2B4A2B013B2B4A8
:0E2C7C0092B2B2B4A2B013B2B492B2B2B4A289
:0E2C8A00B013B2B492B2B2B4A2B013B2B4920C
:0E2C9800B2B2B4A2B013B2B492B2B2B4A2B04F
:0E2CA60013B2B492B2B2B4A2B013B2B492B2EE
:0C2CB400B2B4A2B013B2B4F0D9B2DAB0DE
:012CC00022F1
:082CC100A908AA09E960010A53
:062CC900E544600274FF07
:082CCF0004FBE545600274FFFF
:022CD70004FCFB
:092CD900E543BB000490E67BE03A
:022CE2007D086B
:072CE40013B2B492B2A84242
:082CEB00D8FEB2B4A2B0A84269
:0C2CF300D8FEDDED13BC000490E67CF080
:042CFF00D9D8DAD670
:012D030022AD
:082D0400A908AA09E960010A0F
:062D0C00E544600274FFC3
:082D120004FBE545600274FFBB
:022D1A0004FCB7
:092D1C00E543BB000490E67BE0F6
:022D25007D0827
:072D270033B2B492B2A842DE
:082D2E00D8FEB2B4A2B0A84225
:0C2D3600D8FEDDED33BC000490E67CF01C
:042D4200D9D8DAD62C
:012D4600226A
:082D4700A908AA09E960010ACC
:062D4F00E544600274FF80
:082D550004FBE545600274FF78
:022D5D0004FC74
:092D5F00E543BB000490E67BE0B3
:022D68007D08E4
:052D6A001392B2A84223
:082D6F00D8FEB2B4A2B0A842E4
:0E2D7700D8FEB2B4DDED13BC000490E67CF093
:042D8500D9D8DAD6E9
:012D89002227
:082D8A00A908AA09E960010A89
:062D9200E544600274FF3D
:082D980004FBE545600274FF35
:022DA00004FC31
:092DA200E543BB000490E67BE070
:022DAB007D08A1
:052DAD003392B2A842C0
:082DB200D8FEB2B4A2B0A842A1
:0E2DBA00D8FEB2B4DDED33BC000490E67CF030
:042DC800D9D8DAD6A6
:012DCC0022E4
:053CE5000102000000D7
:053CEA000100000000D4
:053CEF000100000000CF
:053CF40001F7000000D3
:0A2DCD00C28CC28D78AD868A78AD05
:032DD70008868CDF
:012DDA0022D6
:072DDB0078AAB60202806035
:072DE20078ABB6000280117E
:0B2DE90012080D78AC760C7582001209
:062DF400081675820122A1
:052DFA0078AAE6701F3D
:062DFF00789FE630E211AE
:0B2E050012080D78AC760375820012F5
:062E100008167582012284
:082E1600789FE64404F68024D5
:052E1E0078AAB60108CE
:082E2300789FE654FBF68017CE
:062E2B00789FE620E21191
:0B2E310012080D78AC760475820012C8
:062E3C0008167582012258
:0A2E420078AAE624F85003022F2CB2
:0A2E4C0078AAE625E026902E5673C2
:072E5600022E6E022E6E0237
:062E5D002E80022E8D0202
:062E63002F12022F1A02DB
:052E69002F22022F27BB
:0C2E6E0012080D78ADE4F608F67582003D
:062E7A00120816022F30C1
:0D2E8000903CFE75F0801208A575820122BD
:0A2E8D007582041207EF12080D759C
:062E970065FAE4F566F5A2
:042E9D0067F56885E8
:062EA1000B82850C838505
:052EA7000DF0E50E1224
:0C2EAC003B1CAA82AB83ACF0FD8A0B8BB0
:042EB8000C8C0D8DE4
:072EBC000EEC7003ED600C49
:072EC300750BFF750CFF7594
:052ECA000D00750E0073
:092ECF00E50BF4FAE50CF4FBE557
:082ED8000DF4FCE50EF4FD7899
:082EE000ADA60208A603850B54
:032EE80065850CF1
:032EEB0066850DEC
:032EEE0067850EE7
:0C2EF100689000FAE4F5F0123B9AAA8207
:0A2EFD00AB83ACF0FD8A0B8B0C8C4C
:072F07000D8D0E758204120E
:042F0E000816801E03
:082F12007582011232E88016FD
:082F1A007582001232E8800EFE
:052F2200122FA480093C
:052F27001231238004BB
:042F2C007582002288
:032F3000758201A6
:012F3300227B
:0E2F340090E6F3E0FA4480F000000090E67BA7
:0C2F4200E0FA90E6F1F0000000022F849D
:0E2F4E0090E6F3E0FA547FF000000090E67B7E
:0C2F5C00E0FA90E6F1F0000000022F8483
:0B2F680090E6F1E0122F84E582600D7E
:0D2F730090E6F2E0FA90E67CF07582012213
:032F800075820057
:012F8300222B
:052F8400122DCDD28CDE
:052F8900E5BB20E70399
:032F8E00308DF88B
:052F9100E5BB30E70480
:042F9600758201221D
:092F9A0090E6F574FFF075820069
:012FA300220B
:0A2FA400E4FAFBF508F50975820454
:0D2FAE00C002C0031207EFD00300C00312E1
:0D2FBB00080D758200120816D003D002AC7C
:042FC8000BAD0CAE93
:042FCC000DAF0E8CAB
:042FD0000F8D108EC3
:092FD400118F12EC4D4E4F7002FA
:022FDD007B0176
:032FDF00EB60069E
:062FE200EA60030230EF7B
:0D2FE800C002C003120781D003D002E4B57F
:042FF5000A0280400C
:052FF9007401B50A128D
:032FFE00EA700F67
:0E3001007A01C002C00312080DD003D0028075
:01300F002997
:053010007402B50A1F67
:0E301500C002C00312080DD003D002EB7016EB
:0C30230090E6A37401F00000007B01782F
:05302F00AC76028005F3
:053034007A000230EFFC
:03303900EB70A396
:06303C00E5084509702AB9
:05304200E5AA20E025D5
:073047007C007DF08D9A7CF6
:08304E00007DF07D008C9B90D9
:0E305600E690E0FC8C057C0090E691E0FE7FA9
:08306400002CF508EF3DF50911
:07306C00E5084509700302AD
:023073002FDF4D
:0E307500C002C003122F34E582D003D00270D7
:013083000646
:0630840078AC76058052D5
:0E308A00C002C003122F4EE582D003D00270A8
:013098000631
:0630990078AC7606803DD4
:07309F00E50824FEF508E539
:0630A6000934FFF509AC3E
:0430AC000BAD0CAEAE
:0A30B0000DAF0E1CBCFF091DBDFF93
:0630BA00051EBEFF011F10
:0530C0008C0B8D0C8E4D
:0930C5000D8F0EEC4D4E4F700210
:0230CE007B0184
:0630D000E5084509700649
:0630D60090E6497482F04F
:0830DC0078ACB60003022FDFFF
:0B30E4007B0190E6A37401F0022FDFD7
:0A30EF00C002120909D002EA6029AC
:0730F900E50FC3950BFAE59A
:0531000010950CFBE539
:0531050011950DFCE531
:05310A0012950EFD8A84
:04310F000B8B0C8C8E
:043113000D8D0E7898
:0B311700ACE64480F675820402081646
:01312200228A
:0A312300E4FAFBF508F509758204D3
:0D312D00C002C0031207EFD00300C0031260
:0D313A00080D758200120816D003D002ACFB
:043147000BAD0CAE12
:04314B000DAF0E8C2A
:04314F000F8D108E42
:09315300118F12EC4D4E4F700279
:02315C007B01F5
:03315E00EB60061D
:06316100EA60030232A83F
:0D316700C002C003120781D003D002E4B5FE
:043174000A02804685
:053178007401B50A120C
:03317D00EA700FE6
:0E3180007A01C002C00312080DD003D00280F5
:01318E002F11
:05318F007402B50A25E1
:0E319400C002C00312080DD003D002EB701C65
:0E31A20090E6A37401F000000090E6A5740111
:0931B000F07B0178AC7602800589
:0531B9007A000232A8BB
:0331BE00EB709D16
:0631C100E5084509703D20
:0531C700E5AA20E0383C
:0531CC00E5AA20E53337
:0731D1007C007DF08D9A7C6B
:0831D800007DF07D008C9B7C62
:0631E000007DF88D9D7CCE
:0831E600007DF87D008C9E9035
:0E31EE00E690E0FC8C057C0090E691E0FE7F10
:0831FC00002CF508EF3DF50978
:07320400E508450970030213
:02320B00315E32
:0E320D00C002C003122F34E582D003D002703D
:01321B0006AC
:06321C0078AC7605806A23
:0E322200C002C003122F68E582D003D00270F4
:013230000697
:0632310078AC7606805522
:08323700150874FFB50802152B
:01323F000985
:05324000AC0BAD0CAE6B
:0A3245000DAF0E1CBCFF091DBDFFFC
:06324F00051EBEFF011F79
:053255008C0B8D0C8EB6
:09325A000D8F0EEC4D4E4F700279
:023263007B01ED
:06326500E5084509702197
:0D326B0090E690E0FC90E698F000000090E6
:0C327800E691E0FC90E699F00000009068
:08328400E6497482F00000002D
:08328C0078ACB6000302315ECC
:0E32940090E6A37401F000000090E6A574011E
:0632A200F07B0102315E29
:0E32A800C00212090900120941D002EA603189
:0732B600E50FC3950BFAE5DB
:0532BD0010950CFBE57B
:0532C20011950DFCE573
:0532C70012950EFD8AC6
:0432CC000F8B108CC8
:0432D000118D128AC0
:0432D4000B8B0C8CC8
:0432D8000D8D0E78D2
:0B32DC00ACE644C0F67582080208163C
:0132E70022C4
:0C32E8008582537B007C00C003C00412F0
:0A32F4002F34E582D004D003700DE2
:0B32FE0012080D78AC76057582000206
:023309000816A4
:0E330B00758204C003C0041207EFD00400C096
:0B3319000412080DD004D003E50B45A2
:043324000C450D4502
:033328000E700222
:02332B007C0123
:0A332D0090E6F574FFF090E6CEE59F
:093337000EF000000090E6CFE565
:093340000DF000000090E6D0E55C
:093349000CF000000090E6D1E553
:0C3352000BF0C003C004122DCDD004D03D
:0A335E000390E6D1E0FDE553601C8A
:0E33680090E6187410F000000090E6D2740198
:07337600F0000000EC7031D3
:07337D00F5BB000000802AEF
:0E338400C003C004C00512096CD005D004D0EF
:0E3392000390E61A7408F000000090E6E27462
:0833A00002F0000000EC7006D1
:0633A80075BB06000000E9
:0E33AE00758200C003C004C005120816D005C9
:0433BC00D004D00366
:0333C000EC6006B8
:0633C300EB60030234BEC2
:0E33C900C003C004C005120781D005D004D097
:0733D70003E4B50A02806661
:0533DE007401B50A16A0
:0333E300EB701379
:0E33E6007B01C003C004C00512080DD005D045
:0533F40004D003804B32
:0533F9007402B50A4258
:0E33FE00C003C004C00512080DD005D004D0D5
:04340C0003EC703429
:0534100078ACE6700439
:0434150078AC760217
:04341900E55360080F
:08341D0090E6A37401F08006A3
:0634250090E6A57401F021
:08342B00000000E5BB20E709E9
:0934330000000090E6F574FFF0C2
:04343C007C0180048B
:043440007B00807A13
:05344400E5BB20E75D7F
:0A34490090E6D1E0FEB50502801206
:0E345300C003C004122DCDD004D00390E6D1EA
:04346100E0FD8024E6
:03346500308D2186
:0834680078AC7606E55360081C
:0834700090E6A37401F0800650
:0634780090E6A57401F0CE
:0B347E007C0100000090E6F574FFF0F8
:04348900E5536005A2
:05348D00E5AA30E00F8C
:07349200E55360030233C0A3
:08349900E5AA30E5030233C08F
:0534A100D28C0233C0D3
:0634A600EC60030233C0DC
:0434AC00E55370096B
:0934B00090E6487406F0000000EB
:0534B9007C010233C09C
:0E34BE00C00312090900120941D003EB70018E
:0134CC0022DD
:0C34CD0090E6CEE0FB7C007D007E008BD2
:0534D900577554007559
:0634DE0055007556009038
:0E34E400E6CFE0FF7A007B008A048F03E4FA53
:0834F200FF4254EA4255EB428F
:0534FA0056EC42579062
:0E34FF00E6D0E0FD7E007A008A038E028D0684
:09350D00E4FD4254EE4255EA428D
:0535160056EB42579046
:0C351B00E6D1E0FCE4FFFAFBE5544204BA
:09352700E5554207E5564202E5B4
:09353000574203E50BC39CFCE5C6
:083539000C9FFFE50D9AFAE575
:063541000E9BFB8C0B8FBA
:043547000C8A0D8B52
:05354B000EE5536004D1
:043550007A808002FB
:023554007A40BB
:0B35560078ACEA46F675820402081605
:013561002247
:053CF9000102000000C3
:053CFE000100000000C0
:053D03000100000000BA
:053D080001F7000000BE
:0D35620090E60174FAF090E6F574FFF09029
:0A356F003DB1E493FA90E6F3F0900A
:0A3579003DB2E493FA90E6C3F0902F
:0A3583003DB3E493FA90E6C1F09026
:0A358D003DB4E493FA90E6C2F0901A
:0A3597003DB6E493FA90E6C0F09010
:0D35A1003DB7E493FA90E6F4F075AF077AB9
:0635AE000D7B3D8B9A7AB3
:0A35B4000D7B3D7B008A9B759DE4B2
:0535BE00759E007A007B
:0335C300BA8000CB
:0235C600500CA7
:0C35C80090E67BE0FB90E67CF00A80EFD0
:0E35D40090E67174FFF075B4FF90E672E0FAB5
:0E35E2004480F043B68000000090E6C4E4F0A0
:0E35F00000000090E6C5E4F0903D8DE493FAF3
:0B35FE0090E6C6F0903D8EE493FA903A
:0A360900E6C7F0903D8FE493FA90BD
:0A361300E6C8F0903D90E493FA90B1
:0A361D00E6C9F0903D91E493FA90A5
:0A362700E6CAF0903D92E493FA9099
:0A363100E6CBF0903D93E493FA908D
:0A363B00E6CCF0903D94E493FA9081
:03364500E6CDF0DF
:01364800225F
:0E3D0D0081B901010101010723030202020234
:0E3D1B000200F7F5F5F5F5F5F5F700000000EC
:0E3D29000000003F0C8A9A3FA5B53F0721031A
:0E3D3700030103030500F3F3F2F3F3F1F3F7D6
:0E3D45003F0000000000003F819138010101A5
:0E3D530001070101070202020200F7F5F7F76F
:0E3D6100F7F7F7F7000075000000003F8191B2
:0E3D6F003801010101070303050000000000F8
:0E3D7D00F3F1F3F3F3F3F3F700006E00000030
:023D8B00003FF7
:0E3D8D00000000000000000000000000000028
:0E3D9B0000000000000000000000000000001A
:083DA900000000000000000012
:073DB100E08000F7FA4E006C
:0736490078AAB602028060BE
:0736500078ABB60002801107
:0B36570012080D78AC760C7582001292
:063662000816758201222A
:0536680078AAE6701FC6
:06366D00789FE630E31136
:0B36730012080D78AC7603758200127F
:06367E000816758201220E
:08368400789FE64408F680245B
:05368C0078AAB6010858
:08369100789FE654F7F680175C
:06369900789FE620E3111A
:0B369F0012080D78AC76047582001252
:0636AA00081675820122E2
:0736B00078AAE624FB403B71
:0A36B70078AAE625E0269036C173DC
:0736C1000236D00236D002F0
:0636C80036DB0236E802C9
:0236CE0036EDD7
:0B36D00012080D758200120816801B06
:0D36DB00903DC275F0801208A57582012295
:0536E8001236FA800912
:0536ED00123A138004F5
:0436F20075820022BB
:0336F600758201D9
:0136F90022AE
:0736FA0075580075590075B9
:093701005A007582081207EF124C
:0B370A00080D758200120816C28090A6
:0E371500E618E4F000000090E61AE4F0000070
:0E3723000090E6027468F000000090E630E4CA
:0E373100F000000090E631E4F090E680E0FD4C
:03373F0030E7066A
:063742007D007E02800400
:043748007D407E0042
:05374C008D5B8E5CAFF7
:043751000FAB10AA00
:0437550011AC12851C
:033759005B5D8530
:03375C005C5E753B
:08375F005F00756000C3EF95E7
:063767005DEB955EEA95A2
:06376D005FEC9560502C9A
:053773008F5B8B5CADD3
:0C3778005C90E63474C04DF0000000903E
:07378400E635E55BF0E4F51A
:04378B0008F50975BF
:06378F005901750F0075E1
:0637950010007511007523
:04379B001200807226
:08379F0090E680E0FD30E71325
:0E37A70090E63474C8F000000090E635E4F0BF
:0537B50000000080127D
:0E37BA0090E63474C0F000000090E6357440D4
:0437C800F00000000D
:0A37CC00EFC3955DFFEB955EFBEA8D
:0837D600955FFAEC9560FC8F91
:0437DE000F8B108AB3
:0437E200118C1285AF
:0337E6000F6185EB
:0337E900106285E6
:0337EC00116385E1
:0537EF001264C3EF9518
:0637F4005DEB955EEA9515
:0637FA005FEC9560500B2E
:043800008561088551
:03380400620975E1
:0438070059018006DD
:04380B00855B08854C
:02380F005C0952
:0A38110090E601E0FA4403F0D287CC
:04381B00E55A600703
:07381F00E558600302399136
:07382600120781E50A602E84
:05382D007401B50A0C56
:04383200E5587008DD
:0838360012080D755801801DF8
:05383E007402B50A123E
:0738430012080DE55A701197
:0A384A00C28778AC7602755A01803F
:01385400066D
:06385500755800023991D4
:04385B00E55A70BCFE
:05385F00E5AA20E0587D
:0E38640090E690E0FA8A037A00EB3395E0FCE0
:08387200FDE50BC39AF561E5C9
:05387A000C9BF562E566
:05387F000D9CF563E55E
:053884000E9DF56485B6
:03388900610B854B
:03388C00620C8546
:03388F00630D8541
:03389200640E9031
:0C389500E691E0FEE4FFFAFBE561C39E53
:0A38A100FEE5629FFFE5639AFAE579
:0638AB00649BFB8E0B8FF5
:0438B1000C8A0D8BE5
:0738B5000E90E6497402F0D9
:0B38BC0090E6A9E0FA20E20302396860
:0E38C70090E6A5E0FA530270BA3003023968A9
:0438D500E55960153C
:0C38D900AA0990E63474C04AF000000018
:0938E50090E635E508F000000052
:0A38EE0090E698E55CF00000009001
:0938F800E699E55BF00000008593
:03390100085B85DB
:03390400095CE576
:05390700084509605CA9
:08390C00AA08AB09E4FCFDE58B
:093914000FC39AFAE5109BFBE5D4
:08391D00119CFCE5129DFD8ADE
:043925000F8B108C68
:04392900118D128565
:03392D000F6185A2
:033930001062859D
:0339330011638598
:0339360012649088
:07393900E680E0FE30E70626
:063940007E007F028004FE
:043946007E407F0040
:0B394A00EF3395E0FAFBC3E5619EE55A
:06395500629FE5639AE5A4
:04395B00649B500910
:04395F00850F088543
:03396300100975D3
:02396600590105
:07396800E55B455C60030212
:02396F00381B03
:0B39710090E6A7E0FA20E20302381BFA
:05397C00E50B450C45C0
:063981000D450E6003027B
:02398700381BEB
:08398900755A01C28702381BC8
:0E399100C28790E601E054FEF0E0FA4402F036
:07399F00120909120941E5BC
:0339A600586067FF
:0539A90078ACE6705C43
:0739AE0090E6ACE0FA701195
:0739B50090E6ABE0FA700A96
:0539BC00E50B450C4580
:0539C1000D450E60261B
:0639C600E55B455C6006B4
:0639CC0078AC760A803899
:0739D20090E6B0E0FA700777
:0739D90090E6AFE0FA600682
:0639E00078AC760B802498
:0639E60078AC7607801E9C
:0639EC00E55B455C60068E
:0639F20078AC760880129B
:0739F80090E6AFE0FA700752
:0739FF0090E6B0E0FA60045D
:043A060078AC760919
:063A0A007582001208168F
:023A1000D28062
:013A12002291
:0D3A13007A007B007C00C002C003C00412DA
:0E3A2000080D758200120816D004D003D002E3
:0E3A2E00C28090E6187410F000000090E61AB6
:0D3A3C007408F0000000C002C003C00412B6
:0E3A4900096CD004D003D00290E60274E8F0BD
:0E3A570000000090E601E0FD4403F0D28790ED
:0C3A6500E630E4F000000090E631E4F0F0
:033A7100EA600305
:033A7400EB706391
:0E3A7700C002C003C004120781D004D003D0E7
:053A850002E50A603CAF
:053A8A007401B50A16ED
:033A8F00EA7013C7
:0E3A92007A01C002C003C00412080DD004D097
:053AA00003D0028021AB
:053AA5007402B50A18CF
:0E3AAA00C002C003C00412080DD004D003D027
:043AB80002EB700AA3
:063ABC007C017B01800487
:043AC2007A008014F2
:033AC600EB70A8FA
:033AC900EA60A50B
:083ACC0090E6A7E0FD30E29D49
:063AD4007B01C287809710
:0E3ADA00C28790E601E054FEF0E0FB4402F0EB
:0D3AE800C002C004120909D00400C004127D
:093AF5000941D004D002EA601B73
:033AFE00EC701257
:073B010090E6ABE0FA70074B
:073B080090E6ACE0FA600456
:043B0F0078AC760711
:063B130075820012081685
:023B1900D28058
:013B1B002287
:053DB800010200000003
:053DBD00010000000000
:053DC2000100000000FB
:053DC70001F7000000FF
:0EE1000012010002000000404314070000005E
:04E10E000102000109
:0AE112000A060002000000400100B0
:0EE11C0009022E0001010080FA09040000042F
:0EE12A00FF000000070501024000000705810C
:0EE138000240000007050202000200070586F3
:04E1460002000200D1
:0EE14A0009022E0001010080FA090400000401
:0EE15800FF00000007050102400000070581DE
:0EE16600024000000705020240000007058687
:04E174000240000065
:02E178000000A5
:093F00000205B1000205E5000212
:083F090005CF00020649000289
:083F110005FB00020667000237
:083F190006C1000206C100020E
:083F210006C1000206C1000206
:083F290006C1000206C10002FE
:083F310006C1000206C10002F6
:083F390006C1000206C10002EE
:083F410006C1000206C10002E6
:083F490006C1000206C10002DE
:083F510006C1000206C10002D6
:083F590006C1000206C10002CE
:083F610006C1000206C10002C6
:083F690006C1000206C10002BE
:083F710006C1000206C10002B6
:083F790006C1000206C10002AE
:083F810006C1000206C10002A6
:083F890006C1000206C100029E
:083F910006C1000206C1000296
:083F990006C1000206C100028E
:083FA10006C1000206C1000286
:083FA90006C1000206C100027E
:073FB10006C1000206C10079
:083B1C00FB7A20E4FCFDFEFF32
:0E3B2400E5822582F582E58333F583E5F033F3
:0B3B3200F5F0EB33FB4017DAE98042AE
:0E3B3D00E5822582F582E58333F583E5F033DA
:053B4B00F5F0EB33FB77
:0E3B5000EC33FCED33FDEE33FEEF33FFEC956E
:063B5E0065ED9566EE9591
:083B640067EF95684013EC9532
:083B6C0065FCED9566FDEE9588
:093B740067FEEF9568FF43820132
:023B7D00DABEAE
:023B7F00EB2237
:06009C00E478FFF6D8FD38
:08007A007900E94400601B7AE3
:0500820000903DCC7868
:030087000075A061
:0A008A00E0E493F2A308B8000205B9
:08009400A0D9F4DAF275A0FF17
:0E3B810020F71030F6118883A88220F507F691
:053B8F00A8837583000E
:013B9400220E
:033B9500F280F7C4
:023B9800F02219
:0C3B9A00AAF0FBE5828565F0A4FCADF00C
:0C3BA600E5838565F0A42DFDE435F0FEFC
:0C3BB200E5828566F0A42DFDE5F03EFEE6
:0C3BBE00E433FFEA8565F0A42EFEE5F07C
:0C3BCA003FFFE5838566F0A42EFEE5F0C9
:0C3BD6003FFFE5828567F0A42EFEE5F0BD
:0B3BE2003FFFEB8565F0A42FFFEA8594
:0A3BED0066F0A42FFFE5838567F062
:0C3BF700A42FFFE5828568F0A42F8EF05B
:053C03008D838C82227C
:0400A20075A00078CD
:0700A60000E8440060077947
:0600AD0000E4F309D8FC99
:0800B3007800E84400600C79BC
:0B00BB000090E000E4F0A3D8FCD9FAAC
:02006B00E4733C
:0E3C080090E682E044C0F090E681F043870130
:0E3C16000000000000000000000000000000A0
:0E3C2400000000000000000000000000000092
:093C320000000000000000002267
:03006D0075816832
:0A007000123C57E5826003020066AF
:0E3C3B0020F71430F6148883A88220F507E6DF
:063C4900A8837583002230
:033C4F00E280F719
:033C5200E49322D6
:023C5500E0226B
:043C57007582002250
:00000001FF
