:0400000002006B325D
:01000B0032C2
:0100130032BA
:01001B0032B2
:0100230032AA
:01002B0032A2
:030033000206B50D
:01003B003292
:03004300021F0099
:01004B003282
:03005300021F0089
:01005B003272
:030063000206B9D9
:0300E200020066B3
:050066001200E580FE20
:0900E500788176007880760090A5
:0E00EE00E60B7403F000000000000090E60036
:0E00FC007410F075800075B20675900075B333
:0E010A00FF75B03E75B53F90E67AE0FA44010D
:0B011800F012188F90E60174E2F01264
:0E012300027390E6097403F000000075890174
:09013100000000788276000876D7
:04013A00E17884766E
:05013E00120876E178D3
:0501430086761C087621
:04014800E17888765C
:0A014C004A0876E1D2E843D820907B
:0E015600E668E0FA4409F090E65CE0FA443D09
:0E016400F090E682E4F0D2AF90E680E0FA542C
:05017200F7F0538EF8C8
:080177001201BC789EE660074E
:07017F00120198789E760042
:050186007881E660072E
:07018B0078817600121A6270
:050192001206B980E037
:010197002245
:0A01980090E680E0FA440AF07A00D5
:0201A200DAFE83
:0E01A40090E65D74FFF090E65F74FFF05391FB
:0901B200EF90E680E0FA54F7F04A
:0101BB002221
:0601BC007880E6700122CC
:0501C200AA08AB09785A
:0901C70096A60208A603788EA694
:0601D0000B08A60C08A6B6
:0501D6000D08A60E78E3
:0501DB0092A60F08A62A
:0601E0001008A61108A69C
:0601E600127898A69B7838
:0801EC0099A69A789AA69E7864
:0A01F4009BA69D1202F5E58270083B
:0801FE0090E6A0E0FA4401F0D4
:0C02060090E6A0E0FA4480F078807600DA
:06021200789686080886BC
:0A02180009788E8602088603088626
:09022200040886058A0B8B0C8C84
:04022B000D8D0E78AF
:0C022F00928602088603088604088605F3
:05023B008A0F8B108CFE
:04024000118D127892
:0802440098869B7899869A7850
:07024C009A869E789B869DB7
:010253002288
:0E02540090E6837401F07421F07411F074319F
:0E026200F090E6837402F07422F07416F074CB
:0202700036F066
:010272002269
:0E02730090E610E4F000000090E611E4F000C8
:0E028100000090E612E4F000000090E613E4A6
:0D028F00F000000090E614E4F00000009084
:0E029C00E615E4F000000090E618E4F0000023
:0E02AA000090E619E4F000000090E61AE4F07F
:0E02B80000000090E61BE4F000000090E6104D
:0E02C60074A0F000000090E61174A0F000009B
:0E02D4000090E61274A0F000000090E6147492
:0E02E200E0F000000090E68DE4F00000001255
:0502F000091F0208E7F0
:0C02F50090E6B9E0FA24F450030205A2E0
:07030100EA2A2A90030873A9
:070308000203EF0204790279
:06030F0005A20205270211
:0603150005A20205A20290
:06031B00032C0205A20202
:0603210003DA0203C8022A
:0503270003A10203B672
:0A032C0090E6BBE0FABA0102800F70
:05033600BA0202802064
:05033B00BA060280314A
:05034000BA075A8042DB
:09034500788290E6B308E6F07836
:0B034E008286027B0090E6B4EAF00219
:0203590005A5F8
:09035B00788A90E6B308E6F07818
:0B0364008A86027B0090E6B4EAF002FB
:02036F0005A5E2
:09037100788490E6B308E6F07808
:0B037A008486027B0090E6B4EAF002EB
:0203850005A5CC
:09038700788C90E6B308E6F078EA
:0B0390008C86027B0090E6B4EAF002CD
:02039B0005A5B6
:04039D007582002243
:0803A10090E740789DE6F09022
:0B03A900E68AE4F090E68B7401F0029D
:0203B40005A59D
:0A03B60090E6BAE0FA789DA6021264
:0603C00002731202540258
:0203C60005A58B
:0A03C80090E6BAE0FA789CA6021253
:0603D20002731202540246
:0203D80005A579
:0803DA0090E740789CE6F090EA
:0B03E200E68AE4F090E68B7401F00264
:0203ED0005A564
:0A03EF0090E6B8E0FABA8002800A36
:0503F900BA8102801B27
:0503FE00BA8274802C9E
:0A04030090E740E4F090E741F0902C
:0A040D00E68AF090E68B7402F0021C
:0204170005A539
:0A04190090E740E4F090E741F09016
:0A042300E68AF090E68B7402F00206
:02042D0005A523
:0E042F0090E6BCE0FA53027E90E6BCE0FBC310
:0E043D0074809BE433FB4A901ABA93FA33950D
:0E044B00E0FB74A12AFA74E63BFB8A828B83E5
:0E045900E0FA53020190E740EAF090E741E438
:0C046700F090E68AF090E68B7402F00240
:0204730005A5DD
:04047500758200226A
:0704790090E6B8E0FA60080C
:05048000BA0202801227
:030485000205234A
:0B04880090E6BAE0FABA01030205A5F5
:04049300758200224C
:0904970090E6BAE0600302051FC3
:0E04A00090E6BCE0FA53027E90E6BCE0FBC39F
:0E04AE0074809BE433FB4A901ABA93FA33959C
:0E04BC00E0FB74A12AFA74E63BFB90E6BCE07C
:0E04CA00FC53047E90E6BCE0FDC374809DE40C
:0E04D80033FD4C901ABA93FC3395E0FD74A1ED
:0E04E6002CFC74E63DFD8C828D83E0FC5304FB
:0E04F400FE8A828B83ECF090E6BCE05480FA26
:0E050200C423541FFA90E6BCE0FB740F5B901C
:0D051000E6832AF090E683E0FA4420F00232
:02051D0005A532
:04051F0075820022BF
:0405230075820022BB
:0705270090E6B8E0FA600560
:05052E00BA026D800E11
:0A05330090E6BAE0FABA020280680E
:04053D0075820022A1
:0E05410090E6BCE0FA53027E90E6BCE0FBC3FD
:0E054F0074809BE433FB4A901ABA93FA3395FA
:0E055D00E0FB74A12AFA74E63BFB90E6BCE0DA
:0E056B00FC53047E90E6BCE0FDC374809DE46A
:0E05790033FD4C901ABA93FC3395E0FD74A14B
:0E0587002CFC74E63DFD8C828D83E0FC430469
:09059500018A828B83ECF08007DF
:04059E007582002240
:0305A200020A73D7
:0305A5007582015B
:0105A8002230
:0C05A900C0E0C082C083C00078807601F2
:0905B5005391EF90E65D7401F032
:0905BE00D000D083D082D0E032DD
:0E05C700C0E0C082C0835391EF90E65D7404E3
:0105D500F035
:0705D600D083D082D0E03297
:0E05DD00C0E0C082C0835391EF90E65D7402CF
:0105EB00F01F
:0705EC00D083D082D0E03281
:0D05F300C0E0C082C083C002C003C0007819
:0A060000888602088603788AA602A5
:0C060A0008A6038A828B83A37402F07898
:0A061600868602088603788CA6028F
:0E06200008A6038A828B83A37407F05391EF20
:06062E0090E65D7410F07F
:0D063400D000D003D002D083D082D0E032BD
:0C064100C0E0C082C083C0007881760158
:09064D005391EF90E65D7408F092
:09065600D000D083D082D0E03244
:0D065F00C0E0C082C083C002C003C0009094
:07066C00E680E0FA30E72C04
:0A06730078868602088603788AA6BE
:0D067D000208A6038A828B83A37402F07822
:0A068A00888602088603788CA60219
:0B06940008A6038A828B83A37407F082
:09069F005391EF90E65D7420F028
:0D06A800D000D003D002D083D082D0E03249
:0306B50053D8EF28
:0106B800320F
:051AB50001000000002B
:0A1ABA000001020203030404050505
:0A00C400789E7600789FE4F608F6B7
:0C00CE0008F608F678A3E4F608F608F639
:0800DA0008F678A7E4F608F629
:0706B9001206F7E582601450
:0706C0001206D5E582700D62
:0B06C7001207EB78AC76017582000290
:0206D20007F42B
:0106D4002203
:0706D50078A9B60002800EB7
:0706DC0078A9B60102800AB3
:0706E30078A9B6040B8006A4
:0306EA0002097F83
:0306ED000209E01F
:0306F000021108EC
:0306F3007582000D
:0106F60022E1
:0506F700E5BA30E1044A
:0406FC0075820022E1
:0707000078AC76007A807BE3
:06070700E78B9A7A807B6B
:0C070D00E77B008A9B90E67BE0FA7B0013
:050719000ABA00010B0B
:0E071E0090E68DE0FC7D00EAB50406EBB50523
:03072C0002801137
:0B072F001207EB78AC76017582001217
:06073A0007F475820022A5
:0A07400090E67BE0FA78A9A602908B
:09074A00E67BE0FA78AAA6029011
:0B075300E67BE0FA78ABA6027582019D
:01075E002278
:08075F001201BCE5BA30E1040F
:04076700750A0022ED
:0C076B0090E780E0FA7B000ABA00010B66
:0E07770090E68DE0FC7D00EAB50406EBB505CA
:03078500028011DE
:0B0788001207EB78AC760175820012BE
:0607930007F4750AFF22C5
:0B07990090E781E0FA78A9E6B50213B2
:0C07A40090E782E0FA78AA748046FBEA35
:0307B000B503048A
:0407B300750A0122A0
:0607B70090E781E0700CE8
:0807BD0090E782E0FABA0204A1
:0407C500750A02228D
:0307C900750AFFAF
:0107CC00220A
:0807CD00AA827B0B7C007D4039
:0E07D50090E67BE0FE8B828C838DF01219DBA8
:0707E300A3AB82AC83DAEB4B
:0107EA0022EC
:0807EB0090E68DE4F00000002F
:0107F30022E3
:0707F400AA82E5BA30E20120
:0107FB0022DB
:0707FC007BC07CE78C9D7BB4
:08080300C07CE77C008B9E9095
:08080B00E67CEA04F078AC90F1
:07081300E67CE6F07B0B7CA4
:05081A00007D408A068C
:03081F00EE601771
:0E0822008B828C838DF0121A95FFA3AB82ACF3
:090830008390E67CEFF01E80E6E7
:0A08390090E68F74022AF000000020
:010843002292
:07084400AA82E5BA30E201CF
:01084B00228A
:07084C007BC07CE78C9D7B63
:08085300C07CE77C008B9E9045
:08085B00E67CEA04F078AC90A1
:04086300E67CE6F059
:01086700226E
:05086800E5BA30E201D9
:01086D002268
:08086E0090E7C178ACE6F090C0
:0C087600E7C0E0FA90E68F04F0000000FC
:010882002253
:0E088300AA82AB83ACF090E67BE0FDC002C021
:0E08910003C004C0051207EBD005D004D0034D
:07089F00D002E5BA30E201CE
:0108A600222F
:0708A7007EC07FE78F9D7EFC
:0808AE00C07FE77F008E9E90E1
:0C08B600E67CED04F090E67CE4F08D069A
:0308C200EE6017CE
:0E08C5008A828B838CF0121A95FFA3AA82AB55
:0908D3008390E67CEFF01E80E644
:0A08DC0090E68F74022DF00000007A
:0108E60022EF
:0E08E70090E618E4F000000090E6047480F043
:0E08F50000000090E6047402F00000007A0497
:0B09030090E6497482F0000000DAF575
:0E090E0090E604E4F000000090E6A3E4F000A0
:02091C000000D9
:01091E0022B6
:0E091F0090E61AE4F000000090E6047480F008
:0D092D0000000090E6047406F00000009049
:0E093A00E604E4F000000090E6A5E4F0000002
:0109480000AE
:01094900228B
:08094A0090E680E0FA30E706B8
:060952007A007B02800424
:040958007A407B0066
:0E095C0090E624EBF000000090E680E0FA3018
:02096A00E7069E
:06096C007A007B0280040A
:040972007A407B004C
:0809760090E625EAF000000004
:01097E002256
:07097F0078AAB6020280070E
:0709860078AAB6034D8005BD
:05098D001207EB804A97
:0A0992007582041207CD1207EBE591
:08099C000BF4FAE50CF4FBE595
:0A09A4000DF4FCE50EF4FD747B2A4F
:0C09AE00FAE43BFBE43CFCE43DFD8A0B5A
:0509BA008B0C8C0D8D7B
:0A09BF000E789FE4F608F608F6082B
:0B09C900F612091F1208E775820412E5
:0409D40007F48004A0
:0409D8007582002202
:0309DC0075820120
:0109DF0022F5
:0509E00078AAB6021721
:0709E5001207EB750B007512
:0609EC000C00750D007502
:0A09F2000E007582041207F4800461
:0409FC0075820022DE
:030A0000758201FB
:010A030022D0
:0A0A0400AA82AB83E50845097001E2
:010A0E0022C5
:070A0F00AC14BCE6028005F7
:050A16008B05BDE63177
:080A1B008A068B07AC13AD1431
:0E0A23008E028F038C828D83E0F88A828B8393
:060A3100F00EBE00010FF3
:050A37000CBC00010DE4
:080A3C00150874FFB50802154E
:010A440009A8
:060A4500E508450970D828
:010A4B002288
:0C0A4C008C9AAC137E008C9B8D9D7B006F
:050A58008A9E020A5E07
:010A5D002276
:080A5E00A90890E67B058690D3
:040A6600E67C05869F
:080A6A00E00586F00586D9F8CD
:010A72002261
:0A0A730090E6B9E0FABAA202804A48
:050A7D00BAA302804550
:060A8200BAE103020D4879
:060A8800BAE203020D2892
:060A8E00BAE303020D288B
:060A9400BAE403020D08A4
:060A9A00BAE503020D089D
:060AA000BAE603020C138C
:060AA600BAE703020C4058
:060AAC00BAE803020C8809
:060AB200BAE903020CE8A2
:060AB800BAEA03020CB7CC
:060ABE00BAEB03020D6813
:030AC400020D8898
:0B0AC70090E6BAE0FAA3E0FB8A0B8B7C
:0A0AD2000C90E6BEE0FAA3E0FB90F2
:090ADC00E6B8E0FCBCC002800396
:030AE500020B7889
:070AE800EA4B7003020D8CC4
:080AEF0090E6A0E0FC20E1F814
:080AF70090E6B9E0FCBCA2117D
:0A0AFF00750D00750E00C002C00363
:070B0900121026D003D002F8
:090B1000C3EA9440EB9400500686
:060B19008A0D8B0E800620
:060B1F00750D40750E008B
:080B250090E6B9E0FCBCA20D52
:0D0B2D00C002C003120F79D003D002801A5D
:040B3A00850D088598
:030B3E000E09900D
:040B4100E740850BF9
:030B450013850C09
:0C0B480014C002C003120A04D003D00243
:080B540090E68AE4F0AC0DAD5F
:080B5C000E90E68BECF0EC2595
:070B64000BFEED350CFF8EC6
:0A0B6B000B8F0CEAC39CFAEB9DFB14
:030B7500020AE889
:0A0B780078A7E608467003020C0F90
:0C0B820090E6BCE0FCA3E0FD78A7E6B51F
:090B8E00040708E6B50502800227
:020B9700807666
:080B990090E6B8E0FCBC406EE0
:070BA100EA4B7003020D8C0A
:090BA80090E68AE4F090E68BF07F
:080BB10090E6A0E0FC20E1F851
:0A0BB90090E68BE0FC7D008C0D8DB2
:090BC3000E90E6B9E0FCBCA31F92
:040BCC00850D088506
:030BD0000E098586
:060BD3000B82850C837506
:030BD90013407551
:070BDC0014E7C002C0031280
:080BE3000A04D003D002800BCC
:0B0BEB00C002C003121026D003D0028D
:060BF600AC0DAD0EEC2574
:070BFC000BFEED350CFF8E2E
:0A0C03000B8F0CEAC39CFAEB9DFB7B
:020C0D008092D3
:040C0F0075820022C8
:0A0C130090E6B8E0FABAC0028003D0
:030C1D00020D8C39
:080C200090E6A0E0FA20E1F8E3
:0E0C280090E7407409F0A37403F090E68AE4AC
:0A0C3600F090E68B7402F0020D8CC2
:0A0C400090E6B8E0FABAC0028003A3
:030C4A00020D8C0C
:080C4D0090E6A0E0FA20E1F8B6
:0E0C550090E7407404F0A3E4F0A3F0A3F09045
:0B0C6300E744E4F5F01219DBA3E412F3
:0A0C6E0019DBA3E41219DBA3E41262
:080C780019DB90E68AE4F0901C
:080C8000E68B7408F0020D8CF4
:080C880090E6B8E0FABA40233F
:090C900090E68AE4F090E68BF096
:080C990090E6A0E0FA20E1F86A
:0C0CA10090E740E0FAA3E0FB78A7A60271
:060CAD0008A603020D8CF5
:040CB3007582002224
:080CB70090E6B8E0FABA40250E
:070CBF0078A7E60846601E5D
:0C0CC60090E6BCE0FAA3E0FB78A7E6B5DE
:090CD200020708E6B503028002E6
:020CDB00800790
:070CDD00789E7601020D8CE8
:040CE40075820022F3
:070CE800750BF0750C3F7560
:060CEF000D04750E0075F6
:060CF5000FCD7510AB905D
:070CFB00E6B8E0FABAC003FD
:030D0200020D904F
:030D0500020EA932
:070D0800750BE0750C3F754F
:060D0F000D0C750E0075CD
:060D15000F7875105690E6
:070D1B00E6B9E0FABAE403B7
:030D2200020D902F
:030D2500020EA912
:070D2800750BC0750C3F754F
:060D2F000D10750E0075A9
:060D35000FCD7510AB901C
:070D3B00E6B9E0FABAE20399
:030D4200020D900F
:030D4500020EA9F2
:070D4800750BA0750C3F754F
:060D4F000D1C750E00757D
:060D55000FCD7510AB90FC
:070D5B00E6B8E0FABAC0039C
:030D6200020D90EF
:030D6500020EA9D2
:070D6800750BF8750C3F75D7
:060D6F000D02750E007577
:060D75000FCD7510AB90DC
:070D7B00E6B8E0FABAC0037C
:030D8200020D90CF
:030D8500020EA9B2
:040D8800758200224E
:030D8C007582016C
:010D8F002241
:0C0D90007AFF90E6B8E0FBBBC0028004D4
:040D9C00758200223A
:050DA000AB0DAC0E7567
:0A0DA5000D00750E00C002C003C06F
:0E0DAF0004121026D004D003D00274032BFBD4
:0A0DBD00E43CFC8B0D8C0EC002120A
:0A0DC7000F79D002E50D24FDFBE5D5
:070DD1000E34FFFC8B0D8CBA
:0B0DD8000E90E740E0FBA3E0FCEBB551
:060DE3000F48ECB51044BE
:040DE9007A007B0011
:0A0DED007403250DFCE4350EFD8BA8
:0A0DF700067F00C3EE9CEF9D502C18
:0A0E0100EB2440F582E434E7F583AA
:0A0E0B00E0FC2AFAEB2440FCE4347A
:0A0E1500E7FD74022B2440F582E48F
:0C0E1F0034E7F583E0FE8C828D83F00B3D
:020E2B0080C085
:030E2D00EA606414
:040E3000850D08859F
:030E34000E099014
:090E3700E6B9E0FABAE1028034E8
:050E4000BAE202803D52
:050E4500BAE402800583
:050E4A00BAE943801726
:020E4F007A0027
:030E5100BA0C00D8
:020E5400503E0E
:0A0E5600EA2440F582E434E7F58356
:060E60007430F00A80EB83
:050E660090E740751348
:030E6B00C9751432
:060E6E001A120A048020A4
:050E740090E74075133A
:030E7900CD751420
:060E7C001A120A048012A4
:050E820090E74075132C
:030E8700E97514F6
:060E8A001A120A048004A4
:040E90007582002245
:0C0E940090E68AE4F000000090E68BE598
:080EA0000DF000000075820155
:010EA8002227
:080EA90090E6B8E0FABA401C23
:070EB10078A7E60846601572
:0C0EB80090E6BCE0FAA3E0FB78A7E6B5EA
:090EC400020708E6B503028004F0
:040ECD007582002208
:090ED10090E68AE4F090E68BF053
:080EDA0090E6A0E0FA20E1F827
:070EE20090E68AE0FA7014AB
:050EE900AA0DAB0E9004
:0E0EEE00E68BE0FC7D00B50206EDB503028048
:010EFC0004F1
:040EFD0075820022D8
:060F01008A15AD158D06F6
:060F07008E071EEF6025BD
:0C0F0D00C002C00374022E2440FFE43434
:090F1900E7FCEE2440F582E4340B
:0C0F2200E7F583E0FA8F828C83F0D003A7
:040F2E00D00280D598
:080F320090E740E50FF0A3E594
:050F3A0010F07C407E78
:0A0F3F00E78E9A759B407C00740257
:030F49002515FD6E
:090F4C0090E67BE0FE2CFCDDF7D1
:0A0F5500740225152440F582E434EF
:0C0F5F00E7F583C3E49CFCF074032AFA5D
:080F6B00E43BFB8A0D8B0E1222
:050F730010267582014B
:010F78002256
:050F7900E50DFA700413
:040F7E007582012255
:080F820090E678E0FB20E6F8A0
:0C0F8A0090E6787480F090E67974A3F093
:080F960090E678E0FB30E0F882
:080F9E0090E678E0FB20E2740C
:080FA60090E678E0FB30E16CFD
:030FAE00BA01087D
:080FB10090E678E0FB4420F01B
:070FB90090E679E07B407C2B
:060FC000E78C9A7B407CE7
:050FC600E77C008B9B9D
:040FCB00DA028026A0
:080FCF0090E678E0FB30E0F849
:080FD70090E678E0FB20E23B0C
:030FDF00BA01084C
:080FE20090E678E0FB4420F0EA
:0B0FEA0090E679E0FB90E67BF080D6FB
:080FF50090E678E0FA30E0F824
:080FFD0090E678E0FA20E2150D
:0E10050090E678E0FA4440F090E679E0FA9048
:07101300E67BF0758201226B
:0B101A0090E678E0FA4440F075820098
:0110250022A8
:02102600AA0D11
:0810280090E678E0FB20E6F8F9
:0C10300090E6787480F090E67974A2F0ED
:08103C0090E678E0FB30E0F8DB
:0810440090E678E0FB20E26B6E
:08104C0090E678E0FB30E1635F
:03105400EA600E41
:071057007B407CE78C9A7BD3
:07105E00407CE77C008B9B46
:021065007B020C
:03106700EA700329
:03106A00EB603BFD
:03106D00EB601421
:03107000BB0208B8
:0810730090E679E50CF080061F
:06107B0090E679E50BF0A0
:031081001B800AC7
:0A10840090E67BE0FC90E679F01A9C
:08108E0090E678E0FC30E0F888
:0810960090E678E0FC20E2196D
:08109E0090E678E0FC20E1C1BE
:0210A600800FB9
:0E10A80090E678E0FA4440F01210C375820121
:0110B6002217
:0B10B70090E678E0FA4440F0758200FB
:0110C200220B
:0810C30090E678E0FA20E6F85F
:0E10CB0090E678E0FA4480F090E67974A2F0A6
:0810D90090E678E0FA30E0F83F
:0810E10090E678E0FA4440F0CB
:0810E90090E678E0FA20E6F839
:0810F10090E678E0FA30E1D24C
:0110F90022D4
:051AC40001000000001C
:041AC90002012030C6
:0E1ACD0055534232204D6F64756C6500000069
:0E1ADB00FDFDFDFD000000000000BA7D5C690D
:0E1AE900444D6F62557362000000FDFDFDFD6F
:021AF7000000ED
:0A10FA00C28CC28D78AD868A78ADF5
:0311040008868CCE
:0111070022C5
:0711080078AAB60202806024
:07110F0078ABB6000280116D
:0B1116001207EB78AC760C758200121B
:0611210007F475820122B3
:0511270078AAE6701F2C
:06112C00789FE630E2119D
:0B1132001207EB78AC76037582001208
:06113D0007F47582012297
:08114300789FE64404F68024C5
:05114B0078AAB60108BE
:08115000789FE654FBF68017BE
:06115800789FE620E21181
:0B115E001207EB78AC760475820012DB
:0611690007F4758201226B
:0A116F0078AAE624F8500302125992
:0A11790078AAE625E02690118373A2
:0711830002119B02119B0207
:06118A0011AD0211BA02D2
:06119000123F02124702AB
:05119600124F0212548B
:0C119B001207EB78ADE4F608F675820050
:0611A7001207F402125DC4
:0D11AD00901AF975F08012088375820122F6
:0A11BA007582041207CD1207EB75D1
:0611C4001BFAE4F51CF526
:0411CA001DF51E856C
:0611CE000B82850C8385F5
:0511D4000DF0E50E1214
:0C11D9001976AA82AB83ACF0FD8A0B8B68
:0411E5000C8C0D8DD4
:0711E9000EEC7003ED600C39
:0711F000750BFF750CFF7584
:0511F7000D00750E0063
:0911FC00E50BF4FAE50CF4FBE547
:081205000DF4FCE50EF4FD7888
:08120D00ADA60208A603850B43
:031215001B850C2A
:031218001C850D25
:03121B001D850E20
:0C121E001E9000FAE4F5F01219F4AA8208
:0A122A00AB83ACF0FD8A0B8B0C8C3B
:071234000D8D0E75820412FE
:04123B0007F4801E16
:08123F007582011216158016DC
:08124700758200121615800EDD
:05124F001212D180091C
:0512540012145080049B
:041259007582002278
:03125D0075820196
:01126000226B
:0E12610090E6F3E0FA4480F000000090E67B97
:0C126F00E0FA90E6F1F00000000212B17D
:0E127B0090E6F3E0FA547FF000000090E67B6E
:0C128900E0FA90E6F1F00000000212B163
:0B12950090E6F1E01212B1E582600D5E
:0D12A00090E6F2E0FA90E67CF07582012203
:0312AD0075820047
:0112B000221B
:0512B1001210FAD28CBE
:0512B600E5BB20E70389
:0312BB00308DF87B
:0512BE00E5BB30E70470
:0412C300758201220D
:0912C70090E6F574FFF075820059
:0112D00022FB
:0A12D100E4FAFBF508F50975820444
:0D12DB00C002C0031207CDD00300C00312F3
:0D12E80007EB7582001207F4D003D002ACB2
:0412F5000BAD0CAE83
:0412F9000DAF0E8C9B
:0412FD000F8D108EB3
:09130100118F12EC4D4E4F7002E9
:02130A007B0165
:03130C00EB60068D
:06130F00EA600302141C59
:0D131500C002C00312075FD003D002E4B590
:041322000A028040FB
:051326007401B50A127C
:03132B00EA700F56
:0E132E007A01C002C0031207EBD003D0028088
:01133C002987
:05133D007402B50A1F57
:0E134200C002C0031207EBD003D002EB7016FE
:0C13500090E6A37401F00000007B01781F
:05135C00AC76028005E3
:051361007A0002141CDB
:03136600EB70A386
:06136900E5084509702AA9
:05136F00E5AA20E025C5
:071374007C007DF08D9A7CE6
:08137B00007DF07D008C9B90C9
:0E138300E690E0FC8C057C0090E691E0FE7F99
:08139100002CF508EF3DF50901
:07139900E50845097003029D
:0213A000130C2C
:0E13A200C002C003121261E582D003D00270B7
:0113B0000636
:0613B10078AC76058052C5
:0E13B700C002C00312127BE582D003D0027088
:0113C5000621
:0613C60078AC7606803DC4
:0713CC00E50824FEF508E529
:0613D3000934FFF509AC2E
:0413D9000BAD0CAE9E
:0A13DD000DAF0E1CBCFF091DBDFF83
:0613E700051EBEFF011F00
:0513ED008C0B8D0C8E3D
:0913F2000D8F0EEC4D4E4F700200
:0213FB007B0174
:0613FD00E5084509700639
:0614030090E6497482F03E
:0814090078ACB6000302130CDD
:0B1411007B0190E6A37401F002130CB5
:0A141C00C0021208E7D002EA6029BE
:07142600E50FC3950BFAE589
:05142D0010950CFBE529
:0514320011950DFCE521
:0514370012950EFD8A74
:04143C000B8B0C8C7E
:041440000D8D0E7888
:0B144400ACE64480F67582040207F459
:01144F00227A
:0A145000E4FAFBF508F509758204C3
:0D145A00C002C0031207CDD00300C0031272
:0D14670007EB7582001207F4D003D002AC31
:041474000BAD0CAE02
:041478000DAF0E8C1A
:04147C000F8D108E32
:09148000118F12EC4D4E4F700269
:021489007B01E5
:03148B00EB60060D
:06148E00EA60030215D51F
:0D149400C002C00312075FD003D002E4B510
:0414A1000A02804675
:0514A5007401B50A12FC
:0314AA00EA700FD6
:0E14AD007A01C002C0031207EBD003D0028008
:0114BB002F01
:0514BC007402B50A25D1
:0E14C100C002C0031207EBD003D002EB701C78
:0E14CF0090E6A37401F000000090E6A5740101
:0914DD00F07B0178AC7602800579
:0514E6007A000215D59B
:0314EB00EB709D06
:0614EE00E5084509703D10
:0514F400E5AA20E0382C
:0514F900E5AA20E53327
:0714FE007C007DF08D9A7C5B
:08150500007DF07D008C9B7C51
:06150D00007DF88D9D7CBD
:08151300007DF87D008C9E9024
:0E151B00E690E0FC8C057C0090E691E0FE7FFF
:08152900002CF508EF3DF50967
:07153100E508450970030203
:02153800148B12
:0E153A00C002C003121261E582D003D002701D
:01154800069C
:0615490078AC7605806A13
:0E154F00C002C003121295E582D003D00270D4
:01155D000687
:06155E0078AC7606805512
:08156400150874FFB50802151B
:01156C000975
:05156D00AC0BAD0CAE5B
:0A1572000DAF0E1CBCFF091DBDFFEC
:06157C00051EBEFF011F69
:051582008C0B8D0C8EA6
:091587000D8F0EEC4D4E4F700269
:021590007B01DD
:06159200E5084509702187
:0D15980090E690E0FC90E698F000000090D6
:0C15A500E691E0FC90E699F00000009058
:0815B100E6497482F00000001D
:0815B90078ACB6000302148BAC
:0E15C10090E6A37401F000000090E6A574010E
:0615CF00F07B0102148B09
:0E15D500C0021208E70012091FD002EA6031BE
:0715E300E50FC3950BFAE5CB
:0515EA0010950CFBE56B
:0515EF0011950DFCE563
:0515F40012950EFD8AB6
:0415F9000F8B108CB8
:0415FD00118D128AB0
:041601000B8B0C8CB7
:041605000D8D0E78C1
:0B160900ACE644C0F67582080207F44E
:0116140022B3
:0C1615008582167B007C00C003C004121C
:0A1621001261E582D004D003700DC1
:0B162B001207EB78AC76057582000218
:0216360007F4B7
:0E163800758204C003C0041207CDD00400C0A8
:0B164600041207EBD004D003E50B45B5
:041651000C450D45F2
:031655000E700212
:021658007C0113
:0A165A0090E6F574FFF090E6CEE58F
:091664000EF000000090E6CFE555
:09166D000DF000000090E6D0E54C
:091676000CF000000090E6D1E543
:0C167F000BF0C003C0041210FAD004D01D
:0A168B000390E6D1E0FDE516601CB7
:0E16950090E6187410F000000090E6D2740188
:0716A300F0000000EC7031C3
:0716AA00F5BB000000802ADF
:0E16B100C003C004C00512094AD005D004D001
:0E16BF000390E61A7408F000000090E6E27452
:0816CD0002F0000000EC7006C1
:0616D50075BB06000000D9
:0E16DB00758200C003C004C0051207F4D005DC
:0416E900D004D00356
:0316ED00EC6006A8
:0616F000EB60030217EBA2
:0E16F600C003C004C00512075FD005D004D0A9
:0717040003E4B50A02806650
:05170B007401B50A168F
:03171000EB701368
:0E1713007B01C003C004C0051207EBD005D057
:0517210004D003804B21
:051726007402B50A4247
:0E172B00C003C004C0051207EBD005D004D0E7
:0417390003EC703419
:05173D0078ACE6700429
:0417420078AC760207
:04174600E51660083C
:08174A0090E6A37401F0800693
:0617520090E6A57401F011
:08175800000000E5BB20E709D9
:0917600000000090E6F574FFF0B2
:041769007C0180047B
:04176D007B00807A03
:05177100E5BB20E75D6F
:0A17760090E6D1E0FEB505028012F6
:0E178000C003C0041210FAD004D00390E6D1CA
:04178E00E0FD8024D6
:03179200308D2176
:0817950078AC7606E516600849
:08179D0090E6A37401F0800640
:0617A50090E6A57401F0BE
:0B17AB007C0100000090E6F574FFF0E8
:0417B600E5166005CF
:0517BA00E5AA30E00F7C
:0717BF00E51660030216EDC0
:0817C600E5AA30E5030216ED6F
:0517CE00D28C0216EDB3
:0617D300EC60030216EDBC
:0417D900E516700998
:0917DD0090E6487406F0000000DB
:0517E6007C010216ED7C
:0E17EB00C0031208E70012091FD003EB7001C3
:0117F90022CD
:0C17FA0090E6CEE0FB7C007D007E008BC2
:051806001A75170075C2
:06180B00180075190090A1
:0E181100E6CFE0FF7A007B008A048F03E4FA42
:08181F00FF4217EA4218EB42F8
:0518270019EC421A90CB
:0E182C00E6D0E0FD7E007A008A038E028D0673
:09183A00E4FD4217EE4218EA42F7
:0518430019EB421A90B0
:0C184800E6D1E0FCE4FFFAFBE5174204E7
:09185400E5184207E5194202E51E
:09185D001A4203E50BC39CFCE5F3
:081866000C9FFFE50D9AFAE565
:06186E000E9BFB8C0B8FAA
:041874000C8A0D8B42
:051878000EE5166004FE
:04187D007A808002EB
:021881007A40AB
:0B18830078ACEA46F67582040207F418
:01188E002237
:051AF9000100000000E7
:0D188F0090E60174FAF090E6F574FFF09019
:0A189C001BA2E493FA90E6F3F0902B
:0A18A6001BA3E493FA90E6C3F09050
:0A18B0001BA4E493FA90E6C1F09047
:0A18BA001BA5E493FA90E6C2F0903B
:0A18C4001BA7E493FA90E6C0F09031
:0D18CE001BA8E493FA90E6F4F075AF077ADA
:0618DB00FE7B1A8B9A7AD5
:0A18E100FE7B1A7B008A9B759DE4D4
:0518EB00759E007A006B
:0318F000BA8000BB
:0218F300500C97
:0C18F50090E67BE0FB90E67CF00A80EFC0
:0E19010090E67174FFF075B4FF90E672E0FAA4
:0E190F004480F043B68000000090E6C4E4F08F
:0E191D0000000090E6C5E4F0901B7EE493FA13
:0B192B0090E6C6F0901B7FE493FA905A
:0A193600E6C7F0901B80E493FA90DE
:0A194000E6C8F0901B81E493FA90D2
:0A194A00E6C9F0901B82E493FA90C6
:0A195400E6CAF0901B83E493FA90BA
:0A195E00E6CBF0901B84E493FA90AE
:0A196800E6CCF0901B85E493FA90A2
:03197200E6CDF0CF
:01197500224F
:0E1AFE0081B901010101010723030202020266
:0E1B0C000200F7F5F5F5F5F5F5F7000000001D
:0E1B1A000000003F0C8A9A3FA5B53F0721034B
:0E1B2800030103030500F3F3F2F3F3F1F3F707
:0E1B36003F0000000000003F819138010101D6
:0E1B440001070101070202020200F7F5F7F7A0
:0E1B5200F7F7F7F7000075000000003F8191E3
:0E1B6000380101010107030305000000000029
:0E1B6E00F3F1F3F3F3F3F3F700006E00000061
:021B7C00003F28
:0E1B7E00000000000000000000000000000059
:0E1B8C0000000000000000000000000000004B
:081B9A00000000000000000043
:071BA200E08000F7FA4E009D
:0EE10000120100020000004043140300000062
:04E10E000102000109
:0AE112000A060002000000400100B0
:0EE11C0009022E0001010080FA09040000042F
:0EE12A00FF000000070501024000000705810C
:0EE138000240000007050202000200070586F3
:04E1460002000200D1
:0EE14A0009022E0001010080FA090400000401
:0EE15800FF00000007050102400000070581DE
:0EE16600024000000705020240000007058687
:04E174000240000065
:091F00000205A9000205DD000242
:081F090005C7000206410002B9
:081F110005F30002065F000267
:081F190006B9000206B900023E
:081F210006B9000206B9000236
:081F290006B9000206B900022E
:081F310006B9000206B9000226
:081F390006B9000206B900021E
:081F410006B9000206B9000216
:081F490006B9000206B900020E
:081F510006B9000206B9000206
:081F590006B9000206B90002FE
:081F610006B9000206B90002F6
:081F690006B9000206B90002EE
:081F710006B9000206B90002E6
:081F790006B9000206B90002DE
:081F810006B9000206B90002D6
:081F890006B9000206B90002CE
:081F910006B9000206B90002C6
:081F990006B9000206B90002BE
:081FA10006B9000206B90002B6
:081FA90006B9000206B90002AE
:071FB10006B9000206B900A9
:08197600FB7A20E4FCFDFEFFFA
:0E197E00E5822582F582E58333F583E5F033BB
:0B198C00F5F0EB33FB4017DAE9804276
:0E199700E5822582F582E58333F583E5F033A2
:0519A500F5F0EB33FB3F
:0E19AA00EC33FCED33FDEE33FEEF33FFEC9536
:0619B8001BED951CEE95ED
:0819BE001DEF951E4013EC958E
:0819C6001BFCED951CFDEE95E4
:0919CE001DFEEF951EFF4382018E
:0219D700DABE76
:0219D900EB22FF
:06009A00E478FFF6D8FD3A
:080078007900E94400601B7AE5
:0500800000901BA978AF
:030085000075A063
:0A008800E0E493F2A308B8000205BB
:08009200A0D9F4DAF275A0FF19
:0E19DB0020F71030F6118883A88220F507F659
:0519E900A883758300D6
:0119EE0022D6
:0319EF00F280F78C
:0219F200F022E1
:0C19F400AAF0FBE582851BF0A4FCADF01E
:0C1A0000E583851BF0A42DFDE435F0FE0D
:0C1A0C00E582851CF0A42DFDE5F03EFEF7
:0C1A1800E433FFEA851BF0A42EFEE5F08D
:0C1A24003FFFE583851CF0A42EFEE5F0DA
:0C1A30003FFFE582851DF0A42EFEE5F0CE
:0B1A3C003FFFEB851BF0A42FFFEA85A5
:0A1A47001CF0A42FFFE583851DF0BD
:0C1A5100A42FFFE582851EF0A42F8EF06C
:051A5D008D838C822244
:0400A00075A00078CF
:0700A40000E8440060077949
:0600AB0000E4F309D8FC9B
:0800B1007800E84400600C79BE
:0B00B9000090E000E4F0A3D8FCD9FAAE
:0E1A620090E682E044C0F090E681F0438701F8
:0E1A7000000000000000000000000000000068
:0E1A7E0000000000000000000000000000005A
:091A8C000000000000000000222F
:03006B0075811E7E
:0A006E00121AB1E582600302006679
:0E1A950020F71430F6148883A88220F507E6A7
:061AA300A88375830022F8
:031AA900E280F7E1
:031AAC00E493229E
:021AAF00E02233
:041AB1007582002218
:00000001FF
