:0400000002006D325B
:01000B0032C2
:0100130032BA
:01001B0032B2
:0100230032AA
:01002B0032A2
:030033000206B70B
:01003B003292
:03004300023F0079
:01004B003282
:03005300023F0069
:01005B003272
:030063000206BBD7
:0300E400020066B1
:050066001200E780FE1E
:0900E700788176007880760090A3
:0E00F000E60B7403F000000000000090E60034
:0E00FE007410F075800175B28175900075B3B5
:0E010C00FF75B08075B5A090E67AE0FA440168
:0B011A00F012257390E60174E2F01271
:0E012500027590E6097403F000000075890170
:09013300000000788276000876D5
:04013C00E17884766C
:05014000120876E178D1
:0501450086761C08761F
:04014A00E17888765A
:0A014E004A0876E1D2E843D8209079
:0E015800E668E0FA4409F090E65CE0FA443D07
:0E016600F090E682E4F0D2AF90E680E0FA542A
:05017400F7F0538EF8C6
:080179001201BE789EE660074A
:0701810012019A789E76003E
:050188007881E660072C
:07018D0078817600122C19A5
:050194001206BB80E033
:010199002243
:0A019A0090E680E0FA440AF07A00D3
:0201A400DAFE81
:0E01A60090E65D74FFF090E65F74FFF05391F9
:0901B400EF90E680E0FA54F7F048
:0101BD00221F
:0601BE007880E6700122CA
:0501C400AA08AB097858
:0901C90096A60208A603788EA692
:0601D2000B08A60C08A6B4
:0501D8000D08A60E78E1
:0501DD0092A60F08A628
:0601E2001008A61108A69A
:0601E800127898A69B7836
:0801EE0099A69A789AA69E7862
:0A01F6009BA69D1202F7E582700837
:0802000090E6A0E0FA4401F0D1
:0C02080090E6A0E0FA4480F078807600D8
:06021400789686080886BA
:0A021A0009788E8602088603088624
:09022400040886058A0B8B0C8C82
:04022D000D8D0E78AD
:0C023100928602088603088604088605F1
:05023D008A0F8B108CFC
:04024200118D127890
:0802460098869B7899869A784E
:07024E009A869E789B869DB5
:010255002286
:0E02560090E6837401F07421F07411F074319D
:0E026400F090E6837402F07422F07416F074C9
:0202720036F064
:010274002267
:0E02750090E610E4F000000090E611E4F000C6
:0E028300000090E612E4F000000090E613E4A4
:0D029100F000000090E614E4F00000009082
:0E029E00E615E4F000000090E618E4F0000021
:0E02AC000090E619E4F000000090E61AE4F07D
:0E02BA0000000090E61BE4F000000090E6104B
:0E02C80074A0F000000090E61174A0F0000099
:0E02D6000090E61274A0F000000090E6147490
:0E02E400E0F000000090E68DE4F00000001253
:0502F20009350208FDC2
:0C02F70090E6B9E0FA24F450030205A4DC
:07030300EA2A2A90030A73A5
:07030A000203F102047B0273
:0603110005A4020529020B
:0603170005A40205A4028A
:06031D00032E0205A402FC
:0603230003DC0203CA0224
:0503290003A30203B86C
:0A032E0090E6BBE0FABA0102800F6E
:05033800BA0202802062
:05033D00BA0602803148
:05034200BA075A8042D9
:09034700788290E6B308E6F07834
:0B0350008286027B0090E6B4EAF00217
:02035B0005A7F4
:09035D00788A90E6B308E6F07816
:0B0366008A86027B0090E6B4EAF002F9
:0203710005A7DE
:09037300788490E6B308E6F07806
:0B037C008486027B0090E6B4EAF002E9
:0203870005A7C8
:09038900788C90E6B308E6F078E8
:0B0392008C86027B0090E6B4EAF002CB
:02039D0005A7B2
:04039F007582002241
:0803A30090E740789DE6F09020
:0B03AB00E68AE4F090E68B7401F0029B
:0203B60005A799
:0A03B80090E6BAE0FA789DA6021262
:0603C20002751202560252
:0203C80005A787
:0A03CA0090E6BAE0FA789CA6021251
:0603D40002751202560240
:0203DA0005A775
:0803DC0090E740789CE6F090E8
:0B03E400E68AE4F090E68B7401F00262
:0203EF0005A760
:0A03F10090E6B8E0FABA8002800A34
:0503FB00BA8102801B25
:05040000BA8274802C9B
:0A04050090E740E4F090E741F0902A
:0A040F00E68AF090E68B7402F0021A
:0204190005A735
:0A041B0090E740E4F090E741F09014
:0A042500E68AF090E68B7402F00204
:02042F0005A71F
:0E04310090E6BCE0FA53027E90E6BCE0FBC30E
:0E043F0074809BE433FB4A902C7B93FA339538
:0E044D00E0FB74A12AFA74E63BFB8A828B83E3
:0E045B00E0FA53020190E740EAF090E741E436
:0C046900F090E68AF090E68B7402F0023E
:0204750005A7D9
:040477007582002268
:07047B0090E6B8E0FA60080A
:05048200BA0202801225
:0304870002052546
:0B048A0090E6BAE0FABA01030205A7F1
:04049500758200224A
:0904990090E6BAE06003020521BF
:0E04A20090E6BCE0FA53027E90E6BCE0FBC39D
:0E04B00074809BE433FB4A902C7B93FA3395C7
:0E04BE00E0FB74A12AFA74E63BFB90E6BCE07A
:0E04CC00FC53047E90E6BCE0FDC374809DE40A
:0E04DA0033FD4C902C7B93FC3395E0FD74A118
:0E04E8002CFC74E63DFD8C828D83E0FC5304F9
:0E04F600FE8A828B83ECF090E6BCE05480FA24
:0E050400C423541FFA90E6BCE0FB740F5B901A
:0D051200E6832AF090E683E0FA4420F00230
:02051F0005A72E
:0405210075820022BD
:0405250075820022B9
:0705290090E6B8E0FA60055E
:05053000BA026D800E0F
:0A05350090E6BAE0FABA020280680C
:04053F00758200229F
:0E05430090E6BCE0FA53027E90E6BCE0FBC3FB
:0E05510074809BE433FB4A902C7B93FA339525
:0E055F00E0FB74A12AFA74E63BFB90E6BCE0D8
:0E056D00FC53047E90E6BCE0FDC374809DE468
:0E057B0033FD4C902C7B93FC3395E0FD74A176
:0E0589002CFC74E63DFD8C828D83E0FC430467
:09059700018A828B83ECF08007DD
:0405A000758200223E
:0305A400020AD771
:0305A70075820159
:0105AA00222E
:0C05AB00C0E0C082C083C00078807601F0
:0905B7005391EF90E65D7401F030
:0905C000D000D083D082D0E032DB
:0E05C900C0E0C082C0835391EF90E65D7404E1
:0105D700F033
:0705D800D083D082D0E03295
:0E05DF00C0E0C082C0835391EF90E65D7402CD
:0105ED00F01D
:0705EE00D083D082D0E0327F
:0D05F500C0E0C082C083C002C003C0007817
:0A060200888602088603788AA602A3
:0C060C0008A6038A828B83A37402F07896
:0A061800868602088603788CA6028D
:0E06220008A6038A828B83A37407F05391EF1E
:0606300090E65D7410F07D
:0D063600D000D003D002D083D082D0E032BB
:0C064300C0E0C082C083C0007881760156
:09064F005391EF90E65D7408F090
:09065800D000D083D082D0E03242
:0D066100C0E0C082C083C002C003C0009092
:07066E00E680E0FA30E72C02
:0A06750078868602088603788AA6BC
:0D067F000208A6038A828B83A37402F07820
:0A068C00888602088603788CA60217
:0B06960008A6038A828B83A37407F080
:0906A1005391EF90E65D7420F026
:0D06AA00D000D003D002D083D082D0E03247
:0306B70053D8EF26
:0106BA00320D
:052C6C00010200000060
:052C710001000000005D
:052C7600010000000058
:0A2C7B000001020203030404050532
:0A00C600789E7600789FE4F608F6B5
:0C00D00008F608F678A3E4F608F608F637
:0800DC0008F678A7E4F608F627
:0706BB0012070DE582601437
:0706C2001206D7E582700D5E
:0B06C90012080178AC76017582000277
:0206D400080A12
:0106D6002201
:0706D70078A9E624FA402B8C
:0A06DE0078A9E625E0269006E873EF
:0706E8000206FA0206FD0202
:0606EF00070002070902EA
:0506F5000703020706E7
:0306FA000209955D
:0306FD000209F9F6
:0307000002115E85
:03070300021DECE8
:0307060002265A6E
:03070900758200F6
:01070C0022CA
:05070D00E5BA30E10433
:0407120075820022CA
:0707160078AC76007A807BCD
:06071D00E78B9A7A807B55
:0C072300E77B008A9B90E67BE0FA7B00FD
:05072F000ABA00010BF5
:0E07340090E68DE0FC7D00EAB50406EBB5050D
:0307420002801121
:0B07450012080178AC760175820012EA
:06075000080A7582002278
:0A07560090E67BE0FA78A9A6029075
:09076000E67BE0FA78AAA60290FB
:0B076900E67BE0FA78ABA60275820187
:010774002262
:080775001201BEE5BA30E104F7
:04077D00750A0022D7
:0C07810090E780E0FA7B000ABA00010B50
:0E078D0090E68DE0FC7D00EAB50406EBB505B4
:03079B00028011C8
:0B079E0012080178AC76017582001291
:0607A900080A750AFF2298
:0B07AF0090E781E0FA78A9E6B502139C
:0C07BA0090E782E0FA78AA748046FBEA1F
:0307C600B5030474
:0407C900750A01228A
:0607CD0090E781E0700CD2
:0807D30090E782E0FABA02048B
:0407DB00750A022277
:0307DF00750AFF99
:0107E20022F4
:0807E300AA827B0B7C007D4023
:0E07EB0090E67BE0FE8B828C838DF0122B92C9
:0707F900A3AB82AC83DAEB35
:0108000022D5
:0808010090E68DE4F000000018
:0108090022CC
:07080A00AA82E5BA30E20109
:0108110022C4
:070812007BC07CE78C9D7B9D
:08081900C07CE77C008B9E907F
:08082100E67CEA04F078AC90DB
:07082900E67CE6F07B0B7C8E
:05083000007D408A0676
:03083500EE60175B
:0E0838008B828C838DF0122C4CFFA3AB82AC14
:090846008390E67CEFF01E80E6D1
:0A084F0090E68F74022AF00000000A
:01085900227C
:07085A00AA82E5BA30E201B9
:010861002274
:070862007BC07CE78C9D7B4D
:08086900C07CE77C008B9E902F
:08087100E67CEA04F078AC908B
:04087900E67CE6F043
:01087D002258
:05087E00E5BA30E201C3
:010883002252
:0808840090E7C178ACE6F090AA
:0C088C00E7C0E0FA90E68F04F0000000E6
:01089800223D
:0E089900AA82AB83ACF090E67BE0FDC002C00B
:0E08A70003C004C005120801D005D004D00320
:0708B500D002E5BA30E201B8
:0108BC002219
:0708BD007EC07FE78F9D7EE6
:0808C400C07FE77F008E9E90CB
:0C08CC00E67CED04F090E67CE4F08D0684
:0308D800EE6017B8
:0E08DB008A828B838CF0122C4CFFA3AA82AB76
:0908E9008390E67CEFF01E80E62E
:0A08F20090E68F74022DF000000064
:0108FC0022D9
:0E08FD0090E618E4F000000090E6047480F02D
:0E090B0000000090E6047402F00000007A0480
:0B09190090E6497482F0000000DAF55F
:0E09240090E604E4F000000090E6A3E4F0008A
:020932000000C3
:0109340022A0
:0E09350090E61AE4F000000090E6047480F0F2
:0D09430000000090E6047406F00000009033
:0E095000E604E4F000000090E6A5E4F00000EC
:01095E000098
:01095F002275
:0809600090E680E0FA30E706A2
:060968007A007B0280040E
:04096E007A407B0050
:0E09720090E624EBF000000090E680E0FA3002
:02098000E70688
:060982007A007B028004F4
:040988007A407B0036
:08098C0090E625EAF0000000EE
:010994002240
:0709950078AAB602028007F8
:07099C0078AAB603508005A4
:0509A300120801804D67
:0A09A8007582041207E3120801E54E
:0809B2000BF4FAE50CF4FBE57F
:0A09BA000DF4FCE50EF4FD747B2A39
:0C09C400FAE43BFBE43CFCE43DFD8A0B44
:0509D0008B0C8C0D8D65
:0509D5000E1212CB78A8
:0C09DA009FE4F608F608F608F61209354E
:0B09E6001208FD75820412080A80044C
:0409F10075820022E9
:0309F50075820107
:0109F80022DC
:0709F90078AAB60202800E8D
:070A000078AAB60302801E74
:070A070078AAB60454803503
:070A0E00120801750B0175D0
:060A15000C00750D0075D8
:0A0A1B000E0075820412080A803FE5
:0E0A250012080175B28190E601E0FA4420F05B
:0E0A330090E6C274FFF0D2B775820012080A76
:020A4100802112
:0E0A4300120801C2B775B20090E601E0FA5445
:0E0A5100DFF090E6C2E4F075820012080A8021
:010A5F000492
:040A60007582002279
:030A640075820197
:010A6700226C
:0A0A6800AA82AB83E508450970017E
:010A72002261
:070A7300AC14BCE602800593
:050A7A008B05BDE63113
:080A7F008A068B07AC13AD14CD
:0E0A87008E028F038C828D83E0F88A828B832F
:060A9500F00EBE00010F8F
:050A9B000CBC00010D80
:080AA000150874FFB5080215EA
:010AA8000944
:060AA900E508450970D8C4
:010AAF002224
:0C0AB0008C9AAC137E008C9B8D9D7B000B
:050ABC008A9E020AC23F
:010AC1002212
:080AC200A90890E67B0586906F
:040ACA00E67C05863B
:080ACE00E00586F00586D9F869
:010AD60022FD
:0A0AD70090E6B9E0FABAA202804AE4
:050AE100BAA3028045EC
:060AE600BAE103020DACB1
:060AEC00BAE203020D8CCA
:060AF200BAE303020D8CC3
:060AF800BAE403020D6CDC
:060AFE00BAE503020D6CD5
:060B0400BAE603020C77C3
:060B0A00BAE703020CA48F
:060B1000BAE803020CEC40
:060B1600BAE903020D4CD8
:060B1C00BAEA03020D1B02
:060B2200BAEB03020DCC4A
:030B2800020DECCF
:0B0B2B0090E6BAE0FAA3E0FB8A0B8B17
:0A0B36000C90E6BEE0FAA3E0FB908D
:090B4000E6B8E0FCBCC002800331
:030B4900020BDCC0
:070B4C00EA4B7003020DF0FB
:080B530090E6A0E0FC20E1F8AF
:080B5B0090E6B9E0FCBCA21118
:0A0B6300750D00750E00C002C003FE
:070B6D0012108AD003D00230
:090B7400C3EA9440EB9400500622
:060B7D008A0D8B0E8006BC
:060B8300750D40750E0027
:080B890090E6B9E0FCBCA20DEE
:0D0B9100C002C003120FDDD003D002801A95
:040B9E00850D088534
:030BA2000E0990A9
:040BA500E740850B95
:030BA90013850CA5
:0C0BAC0014C002C003120A68D003D0027B
:080BB80090E68AE4F0AC0DADFB
:080BC0000E90E68BECF0EC2531
:070BC8000BFEED350CFF8E62
:0A0BCF000B8F0CEAC39CFAEB9DFBB0
:030BD900020B4CC0
:0A0BDC0078A7E608467003020C73C8
:0C0BE60090E6BCE0FCA3E0FD78A7E6B5BB
:090BF200040708E6B505028002C3
:020BFB00807602
:080BFD0090E6B8E0FCBC406E7C
:070C0500EA4B7003020DF041
:090C0C0090E68AE4F090E68BF01A
:080C150090E6A0E0FC20E1F8EC
:0A0C1D0090E68BE0FC7D008C0D8D4D
:090C27000E90E6B9E0FCBCA31F2D
:040C3000850D0885A1
:030C34000E098521
:060C37000B82850C8375A1
:030C3D00134075EC
:070C400014E7C002C003121B
:080C47000A68D003D002800B03
:0B0C4F00C002C00312108AD003D002C4
:060C5A00AC0DAD0EEC250F
:070C60000BFEED350CFF8EC9
:0A0C67000B8F0CEAC39CFAEB9DFB17
:020C710080926F
:040C73007582002264
:0A0C770090E6B8E0FABAC00280036C
:030C8100020DF071
:080C840090E6A0E0FA20E1F87F
:0E0C8C0090E7407409F0A37403F090E68AE448
:0A0C9A00F090E68B7402F0020DF0FA
:0A0CA40090E6B8E0FABAC00280033F
:030CAE00020DF044
:080CB10090E6A0E0FA20E1F852
:0E0CB90090E740740DF0A3E4F0A3F0A3F090D8
:0B0CC700E744E4F5F0122B92A3E412C6
:0A0CD2002B92A3E4122B92A3E4126C
:080CDC002B9290E68AE4F090EF
:080CE400E68B7408F0020DF02C
:080CEC0090E6B8E0FABA4023DB
:090CF40090E68AE4F090E68BF032
:080CFD0090E6A0E0FA20E1F806
:0C0D050090E740E0FAA3E0FB78A7A6020C
:060D110008A603020DF02C
:040D170075820022BF
:080D1B0090E6B8E0FABA4025A9
:070D230078A7E60846601EF8
:0C0D2A0090E6BCE0FAA3E0FB78A7E6B579
:090D3600020708E6B50302800281
:020D3F0080072B
:070D4100789E7601020DF01F
:040D4800758200228E
:070D4C00750BF0750C3F75FB
:060D53000D04750E007591
:060D59000FCD7510AB90F8
:070D5F00E6B8E0FABAC00398
:030D6600020DF487
:030D6900020F0D69
:070D6C00750BE0750C3F75EB
:060D73000D0C750E007569
:060D79000F787510569082
:070D7F00E6B9E0FABAE40353
:030D8600020DF467
:030D8900020F0D49
:070D8C00750BC0750C3F75EB
:060D93000D10750E007545
:060D99000FCD7510AB90B8
:070D9F00E6B9E0FABAE20335
:030DA600020DF447
:030DA900020F0D29
:070DAC00750BA0750C3F75EB
:060DB3000D1C750E007519
:060DB9000FCD7510AB9098
:070DBF00E6B8E0FABAC00338
:030DC600020DF427
:030DC900020F0D09
:070DCC00750BF8750C3F7573
:060DD3000D02750E007513
:060DD9000FCD7510AB9078
:070DDF00E6B8E0FABAC00318
:030DE600020DF407
:030DE900020F0DE9
:040DEC0075820022EA
:030DF00075820108
:010DF30022DD
:0C0DF4007AFF90E6B8E0FBBBC002800470
:040E000075820022D5
:050E0400AB0DAC0E7502
:0A0E09000D00750E00C002C003C00A
:0E0E13000412108AD004D003D00274032BFB0B
:0A0E2100E43CFC8B0D8C0EC00212A5
:0A0E2B000FDDD002E50D24FDFBE50C
:070E35000E34FFFC8B0D8C55
:0B0E3C000E90E740E0FBA3E0FCEBB5EC
:060E47000F48ECB5104459
:040E4D007A007B00AC
:0A0E51007403250DFCE4350EFD8B43
:0A0E5B00067F00C3EE9CEF9D502CB3
:0A0E6500EB2440F582E434E7F58346
:0A0E6F00E0FC2AFAEB2440FCE43416
:0A0E7900E7FD74022B2440F582E42B
:0C0E830034E7F583E0FE8C828D83F00BD9
:020E8F0080C021
:030E9100EA6064B0
:040E9400850D08853B
:030E98000E0990B0
:090E9B00E6B9E0FABAE102803484
:050EA400BAE202803DEE
:050EA900BAE40280051F
:050EAE00BAE9438017C2
:020EB3007A00C3
:030EB500BA0C0074
:020EB800503EAA
:0A0EBA00EA2440F582E434E7F583F2
:060EC4007430F00A80EB1F
:050ECA0090E7407513E4
:030ECF0094751403
:060ED2002C120A688020CA
:050ED80090E7407513D6
:030EDD00987514F1
:060EE0002C120A688012CA
:050EE60090E7407513C8
:030EEB00B47514C7
:060EEE002C120A688004CA
:040EF40075820022E1
:0C0EF80090E68AE4F000000090E68BE534
:080F04000DF0000000758201F0
:010F0C0022C2
:080F0D0090E6B8E0FABA401CBE
:070F150078A7E6084660150D
:0C0F1C0090E6BCE0FAA3E0FB78A7E6B585
:090F2800020708E6B5030280048B
:040F310075820022A3
:090F350090E68AE4F090E68BF0EE
:080F3E0090E6A0E0FA20E1F8C2
:070F460090E68AE0FA701446
:050F4D00AA0DAB0E909F
:0E0F5200E68BE0FC7D00B50206EDB5030280E3
:010F6000048C
:040F61007582002273
:060F65008A15AD158D0692
:060F6B008E071EEF602559
:0C0F7100C002C00374022E2440FFE434D0
:090F7D00E7FCEE2440F582E434A7
:0C0F8600E7F583E0FA8F828C83F0D00343
:040F9200D00280D534
:080F960090E740E50FF0A3E530
:050F9E0010F07C407E14
:0A0FA300E78E9A759B407C007402F3
:030FAD002515FD0A
:090FB00090E67BE0FE2CFCDDF76D
:0A0FB900740225152440F582E4348B
:0C0FC300E7F583C3E49CFCF074032AFAF9
:080FCF00E43BFB8A0D8B0E12BE
:050FD700108A75820183
:010FDC0022F2
:050FDD00E50DFA7004AF
:040FE20075820122F1
:080FE60090E678E0FB20E6F83C
:0C0FEE0090E6787480F090E67974A3F02F
:080FFA0090E678E0FB30E0F81E
:0810020090E678E0FB20E274A7
:08100A0090E678E0FB30E16C98
:03101200BA010818
:0810150090E678E0FB4420F0B6
:07101D0090E679E07B407CC6
:06102400E78C9A7B407C82
:05102A00E77C008B9B38
:04102F00DA0280263B
:0810330090E678E0FB30E0F8E4
:08103B0090E678E0FB20E23BA7
:03104300BA0108E7
:0810460090E678E0FB4420F085
:0B104E0090E679E0FB90E67BF080D696
:0810590090E678E0FA30E0F8BF
:0810610090E678E0FA20E215A8
:0E10690090E678E0FA4440F090E679E0FA90E4
:07107700E67BF07582012207
:0B107E0090E678E0FA4440F075820034
:011089002244
:02108A00AA0DAD
:08108C0090E678E0FB20E6F895
:0C10940090E6787480F090E67974A2F089
:0810A00090E678E0FB30E0F877
:0810A80090E678E0FB20E26B0A
:0810B00090E678E0FB30E163FB
:0310B800EA600EDD
:0710BB007B407CE78C9A7B6F
:0710C200407CE77C008B9BE2
:0210C9007B02A8
:0310CB00EA7003C5
:0310CE00EB603B99
:0310D100EB6014BD
:0310D400BB020854
:0810D70090E679E50CF08006BB
:0610DF0090E679E50BF03C
:0310E5001B800A63
:0A10E80090E67BE0FC90E679F01A38
:0810F20090E678E0FC30E0F824
:0810FA0090E678E0FC20E21909
:0811020090E678E0FC20E1C159
:02110A00800F54
:0E110C0090E678E0FA4440F012112775820157
:01111A0022B2
:0B111B0090E678E0FA4440F075820096
:0111260022A6
:0811270090E678E0FA20E6F8FA
:0E112F0090E678E0FA4480F090E67974A2F041
:08113D0090E678E0FA30E0F8DA
:0811450090E678E0FA4440F066
:08114D0090E678E0FA20E6F8D4
:0811550090E678E0FA30E1D2E7
:01115D00226F
:052C8500010200000047
:052C8A00010000000044
:052C8F0001000000003F
:042C94000500100027
:0E2C98004F6E626F617264205553420000005F
:0E2CA600FDFDFDFD000000000000BFFCD3009E
:0E2CB400444F6E62557362000000FDFDFDFD91
:022CC200000010
:07115E0078AAB602028060CE
:0711650078ABB60002801117
:0B116C0012080178AC760C75820012AE
:06117700080A7582012246
:05117D0078AAE6701FD6
:06118200789FE630E01149
:0B11880012080178AC7603758200129B
:06119300080A758201222A
:08119900789FE64401F6802472
:0511A10078AAB6010868
:0811A600789FE654FEF6801765
:0611AE00789FE620E0112D
:0B11B40012080178AC7604758200126E
:0611BF00080A75820122FE
:0A11C50078AAE624F450030212B5E4
:0A11CF0078AAE625E0269011D973F6
:0711D9000211FD02120D02DC
:0611E000121D0212B5020F
:0611E600122A021243026E
:0611EC0012770212AE02B0
:0611F20012A00212A0028F
:0511F80012A70212A085
:0A11FD001212B912080175820012E7
:06120700080A75820122B5
:0A120D001212CB12080175820012C4
:06121700080A75820122A5
:0D121D00902CC475F0801208997582012292
:07122A00120801750B0075AD
:061231000C6A750D187532
:0C1237000E0075820412080A7582012264
:0712430090E67BE0FA600475
:04124A00D2B3800299
:02124E00C2B329
:0712500090E67BE0FA600468
:04125700D2B280028D
:02125B00C2B21D
:07125D0090E67BE0FA60045B
:04126400D2B480027E
:02126800C2B40E
:0D126A0012080175820012080A7582012227
:0C127700120801A2B3E433FA8A0BA2B201
:0B128300E433FA8A0CA2B0E433FA8ACC
:0A128E000DA2B4E433FA8A0E758253
:081298000412080A758201220C
:0712A000121688758201227D
:0712A700121A8F758201226B
:0712AE001212D77582012224
:0312B5007582003F
:0112B8002213
:0E12B90043B50443B50843B510D2B5C2B2D256
:0312C700B3C2B4FB
:0112CA002201
:0B12CB00C2B553B5E3C2B2D2B3C2B447
:0112D60022F5
:052CC400010200000008
:052CC900010000000005
:052CCE00010000000000
:0B12D7007A007B0090E67BE0FC6004E6
:0412E200D2B3800201
:0212E600C2B391
:0712E80090E67BE0FC6004CE
:0412EF00D2B28002F5
:0212F300C2B285
:0E12F500C2B4758204C002C0031207E3D00326
:0E13030000C00312080175820012080AD00310
:07131100D002AC0BAD0CAEE5
:041318000DAF0E8C7B
:04131C000F8D108E93
:09132000118F12EC4D4E4F7002CA
:021329007B0146
:03132B00EB60066E
:06132E00EA60030213DC7B
:0D133400C002C003120775D003D002E4B55B
:041341000A028031EB
:051345007401B50A0F60
:0E134A007A01C002C003120801D003D0028055
:011358001D77
:051359007402B50A1347
:0B135E007B0178AC7602C002C00312D5
:081369000801D003D002800549
:051371007A000213DC0C
:03137600EB70B267
:05137900AC0BAD0CAE51
:0A137E000DAF0EC3ED94FEEE9400D7
:05138800EF9400500687
:06138D008C088D098006AA
:061393007508007509FE5B
:08139900AC08AD09E4FEFFE51C
:0913A1000BC39CFCE50C9DFDE56D
:0813AA000D9EFEE50E9FFF8C75
:0413B2000B8D0C8E05
:0813B6000D8F0EC000C001A85C
:0413BE0008A9090968
:0E13C200D2B4C2B4D8FAD9F8D001D000EC4DA4
:0713D0004E4F600302132BD6
:0513D7007B0102132B55
:0313DC00EA60299B
:0713DF00E50FC3950BFAE5D1
:0513E60010950CFBE571
:0513EB0011950DFCE569
:0513F00012950EFD8ABC
:0413F5000B8B0C8CC6
:0413F9000D8D0E78D0
:0B13FD00ACE64480F675820402080A8A
:0114080022C1
:0A140900C001C002A908AA09E960A9
:02141300010ACC
:0314150090E67BE3
:0E141800E01392B2D2B4C2B41392B2D2B4C2F4
:0E142600B41392B2D2B4C2B41392B2D2B4C212
:0E143400B41392B2D2B4C2B41392B2D2B4C204
:0E144200B41392B2D2B4C2B41392B2D2B4C2F6
:09145000B4D9C5DAC3D002D00101
:011459002270
:0A145A00C001C002A908AA09E96058
:02146400010A7B
:0A14660090E67B058690E67C058683
:0E147000E01392B2A2B013D2B4C2B492B2A2F0
:0E147E00B013D2B4C2B492B2A2B013D2B4C2B0
:0E148C00B492B2A2B013D2B4C2B492B2A2B063
:0E149A0013D2B4C2B492B2A2B013D2B4C2B490
:0E14A80092B2A2B013D2B4C2B492B2A2B013E8
:0E14B600D2B4C2B40586F00586D9AFDAADD047
:0314C40002D00152
:0114C7002202
:0A14C800C001C002A908AA09E960EA
:0214D200010A0D
:0314D40090E67C23
:0E14D700A2B0D2B4C2B413A2B0D2B4C2B41345
:0E14E500A2B0D2B4C2B413A2B0D2B4C2B41337
:0E14F300A2B0D2B4C2B413A2B0D2B4C2B41329
:0E150100A2B0D2B4C2B413A2B0D2B4C2B4131A
:09150F00F0D9C2DAC0D002D0010B
:0115180022B0
:0A151900C001C002A908AA09E96098
:02152300010ABB
:0315250090E67BD2
:0E152800E01392B3D2B4C2B41392B3D2B4C2E1
:0E153600B41392B3D2B4C2B41392B3D2B4C2FF
:0E154400B41392B3D2B4C2B41392B3D2B4C2F1
:0E155200B41392B3D2B4C2B41392B3D2B4C2E3
:09156000B4D9C5DAC3D002D001F0
:01156900225F
:0A156A00C001C002A908AA09E96047
:02157400010A6A
:0A15760090E67B058690E67C058672
:0E158000E01392B3A2B013D2B4C2B492B3A2DD
:0E158E00B013D2B4C2B492B3A2B013D2B4C29E
:0E159C00B492B3A2B013D2B4C2B492B3A2B050
:0E15AA0013D2B4C2B492B3A2B013D2B4C2B47E
:0E15B80092B3A2B013D2B4C2B492B3A2B013D5
:0E15C600D2B4C2B40586F00586D9AFDAADD036
:0315D40002D00141
:0115D70022F1
:0A15D800C001C002A908AA09E960D9
:0215E200010AFC
:0315E40090E67B13
:0E15E700E01392B21392B3D2B4C2B41392B214
:0E15F5001392B3D2B4C2B41392B21392B3D213
:0E160300B4C2B41392B21392B3D2B4C2B4D92B
:07161100D5DAD3D002D001AD
:0116180022AF
:0A161900C001C002A908AA09E96097
:02162300010ABA
:0A16250090E67B058690E67C0586C2
:02162F007C023B
:0E163100E01392B21392B3FBE8A2B013F8EBF1
:0E163F00D2B4C2B41392B21392B3FBE8A2B0BD
:0E164D0013F8EBD2B4C2B41392B21392B3FBF3
:0E165B00E8A2B013F8EBD2B4C2B41392B213EB
:0E16690092B3FBE8A2B013F8EBD2B4C2B4DC2B
:0E167700B9E80586F0058619D9AEDAACD002C6
:02168500D00192
:011687002240
:0716880075170075190075CC
:07168F001A0078AAB6082A30
:0816960075170190E67BE0F5F9
:08169E001690E67BE0FE6004FB
:0416A600D2B3800239
:0216AA00C2B3C9
:0416AC00E5166008D7
:0416B000751B5A75D7
:0416B4001C14805A28
:0416B800751B097520
:0416BC001C14805228
:0516C00078AAB609251F
:0A16C50075160190E67BE0FC60045E
:0416CF00D2B3800210
:0216D300C2B3A0
:0716D50090E67BE0FC6004DD
:0416DC00D2B2800204
:0216E000C2B294
:0416E200751BC87537
:0416E6001C14802828
:0816EA0075170190E67BE0F5A5
:0816F2001690E67BE0FC6004A9
:0416FA00D2B28002E6
:0216FE00C2B276
:04170000E516600882
:04170400751B6A7572
:041708001C15800626
:04170C00751B1975BB
:021710001C15A6
:0D1712007582041207E312080175820012AF
:04171F00080A850B24
:031723001D850C15
:031726001E850D10
:031729001F850E0B
:03172C0020851DF8
:03172F000F851E05
:0317320010851F00
:03173500118520FB
:0A173800127407551DFD7A007B00B6
:071742007C008D18AA1DE5D3
:0C1749001EC423CAC423541F6ACA541FC4
:0C175500CA6ACAFBE51FC42354E04BFB2A
:0A176100AC1FE520C423CCC42354C0
:0C176B001F6CCC541FCC6CCCFE8A0B8B86
:041777000C8C0D8E3B
:05177B000EE518601DE1
:05178000AA0BAB0CAC4C
:0A1785000DAE0E0ABA00090BBB00FE
:06178F00050CBC00010E78
:051795008A0B8B0C8C97
:03179A000D8E0EA3
:05179D00E50F451045B9
:0517A200114512700367
:0317A700751901B0
:0217AA00C2B4C7
:0417AC00E5196007D4
:0717B000E51A60030219A213
:0717B700120775E50A602C22
:0517BE007401B50A0CE6
:0417C300E51A7008AB
:0817C700751A01120801801BD4
:0517CF007402B50A10D0
:0717D400120801E519700F76
:0917DB0078AC7602751901800654
:0617E400751A000219A2B3
:0417EA00E51760059A
:0517EE00E5AA20E0B9AE
:0417F300E516600592
:0517F700E5AA20E5B0A9
:0417FC00E51970ACCF
:04180000E517600E7A
:071804007A007BF08B9A7A59
:07180B00007BF07B008A9BCB
:04181200E516600E69
:071816007A007BF88B9D7A3C
:07181D00007BF87B008A9EAE
:04182400E51760194B
:0E18280090E690E0FA8A037A0090E691E0FCE8
:0A1836007E004AF508EE4BF509802C
:011840005453
:04184100850B21856D
:031845000C2285ED
:031848000D2385E8
:03184B000E2490D8
:07184E00E680E0FF30E70631
:061855007A007B02800412
:04185B007A407B0054
:0C185F008A07EBFD3395E0FAFBC3EF9520
:06186B0021ED9522EA9533
:0618710023EB9524501842
:0818770090E680E0FA30E7067C
:06187F007A007B028004E8
:041885007A407B002A
:061889008A088B098006AD
:04188F008521088522
:02189300220928
:08189500AA08AB09E4FCFDE523
:09189D000BC39AFAE50C9BFBE574
:0818A6000D9CFCE50E9DFD8A7E
:0418AE000B8B0C8C08
:0418B2000D8D0EE5A5
:0318B600186013A4
:0518B900E50B450C45A4
:0518BE000D450E70094C
:0818C300150874FFB5080215B9
:0118CB000913
:0618CC00E5084509600972
:0718D200851B82851C8312B7
:0218D900006BA2
:0718DB00E518700302196C0F
:0518E200E50B450C457B
:0618E7000D450E60030236
:0218ED00196C74
:0618EF00AA18E517700BBA
:0318F50030B2040A
:0418F8007BFF8002F0
:0218FC007B006F
:0218FE00800563
:0519000090E67BE0FB16
:0519050078AAB60B1DDD
:02190A008A044D
:0B190C00EBA2E092B3C313FB30B00568
:05191700430380800382
:03191C0053037FF3
:06191F00D2B4C2B4DCE703
:02192500801927
:0B192700EBA2E092B2C313FB30B0054E
:05193200430380800367
:0319370053037FD8
:06193A00D2B4C2B4DAE7EA
:04194000E516601D2B
:0C194400AD187A007408C39DFDE49AFA07
:071950008DF005F0EB8002B1
:02195700C313B8
:08195900D5F0FBFB90E67CF0E9
:071961007518000508E4B54C
:041968000802050963
:04196C00E517600912
:0919700090E6497482F0000000C9
:04197900E5166012FD
:0A197D0090E698E509F000000090E4
:08198700E699E508F0000000FC
:05198F00E50B450C45CD
:061994000D450E60030288
:02199A0017AC88
:06199C007519010217ACF1
:0719A2001208FD120935E5F2
:0419A9001A7001228D
:0419AD00E518601DBC
:0519B100AA0BAB0CAC19
:0A19B6000DAD0E1ABAFF091BBBFFAE
:0619C000051CBCFF011D27
:0519C6008A0B8B0C8C64
:0319CB000D8D0E71
:0419CE00850D23E57B
:0A19D2000EC40354F8C523C403C576
:0419DC00236523C597
:0619E0002354F8C5236545
:0419E60023F524E5DC
:0819EA000CC40354074523F56A
:0319F20023850B3F
:0819F50021E50CC40354F8C500
:0619FD0021C403C52165B1
:061A030021C52154F8C5C5
:041A0900216521F53D
:031A0D002285210E
:031A10000B852221
:031A13000C85231C
:031A16000D852417
:091A19000EAE18E4FFFAFBEE2505
:081A220021FEEF3522FFEA3539
:071A2A0023FAEB3524FB8ECB
:041A31000B8F0C8A81
:041A35000D8B0EE522
:091A39000FC39EFEE5109FFFE5BE
:081A4200119AFAE5129BFB8EDC
:041A4A000F8F108A60
:041A4E00118B128E58
:041A52000B8F0C8A60
:041A56000D8B0EE501
:031A5A001760040E
:041A5D007A80800209
:021A61007A0009
:041A6300E516600420
:041A67007B4080023E
:021A6B007B00FE
:0A1A6D00EB4A78AC46F6E51760047A
:041A77007A0480026B
:021A7B007A00EF
:041A7D00E516600406
:041A81007B04800260
:021A85007B00E4
:071A8700EB2AF58202080AB8
:011A8E002235
:071A8F0075260075270075A4
:071A9600280090E67BE0F55B
:081A9D00257582041207E31213
:091AA500080175820012080A858F
:031AAE000B2B857A
:031AB1000C2C8575
:031AB4000D2D8570
:031AB7000E2E856B
:031ABA002B0F856A
:031ABD002C108565
:031AC0002D118560
:031AC3002E12E5FB
:041AC6002B452C453B
:051ACA002D452E700304
:031ACF0075270177
:0C1AD2007407552BFAE4FDFBFC7403259F
:081ADE002BFBE4352CFCE43580
:071AE6002DFDE4352EFE8BFF
:041AED000B8C0C8DC5
:0A1AF1000DEEF50EC313FEED13FD1C
:0E1AFB00EC13FCEB13FBEEC313FEED13FDEC3E
:0A1B090013FCEB13FB8B0B8C0C8D0F
:041B13000D8E0EE540
:031B17002560083E
:041B1A00752919759B
:041B1E002A168006FD
:041B22007529D875D4
:021B26002A157E
:021B2800C2B445
:041B2A00E527600744
:071B2E00E5286003021D2BF6
:0B1B3500C002120775D002E50A603400
:051B40007401B50A105C
:041B4500E528700C13
:0C1B4900752801C002120801D002801FA4
:051B55007402B50A1442
:0B1B5A00C002120801D002E527700F46
:091B650078AC76027527018006B8
:061B6E00752800021D2B8A
:051B7400E5AA20E0B12C
:041B7900E5256005F9
:051B7D00E5AA20E5A827
:041B8200E52770A43F
:071B86007D007EF08E9A7DC8
:081B8D00007EF07E008D9BE557
:031B9500256012B6
:041B9800E526700EC0
:071B9C007D007EF88E9D7DA7
:071BA300007EF87E008D9E1C
:0E1BAA0090E690E0FD8D067D0090E691E0FF54
:0A1BB8007B002DF508EB3EF509ABAC
:071BC20008AC09E4FDFEE59B
:091BC9000BC39BFBE50C9CFCE541
:081BD2000D9DFDE50E9EFE8B4A
:041BDA000B8C0C8DD7
:061BDE000D8E0EEA602CE2
:051BE400E50B450C4576
:051BE9000D450E702205
:0E1BEE008A03FC74032BFBE43CFCA2E713CB40
:0C1BFC0013CBA2E713CB13CBFCE508C30E
:071C08009BF508E5099CF5BE
:011C0F0009CB
:061C1000E5084509600D26
:091C1600C002852982852A83128F
:041C1F00006BD00284
:061C2300EA7003021CA898
:051C2900E50B450C4530
:051C2E000D450E70756C
:091C33007B0090E67BE0FC7D00E3
:051C3C00C3ED9A5023E6
:031C4100BD0405DA
:051C440090E67BE0FCCE
:0E1C4900ECA2E092B2C313FCA2E092B3C3136C
:061C5700FCEBA2B013FB40
:071C5D00D2B4C2B40D80D81F
:041C6400E525601CF6
:0E1C68008A047D007408C39CFCE49DFD8CF092
:051C760005F0EB800207
:021C7B00C31391
:071C7D00D5F0FB90E67CF0BE
:0E1C84008A037C0074032BFBE43CFCA2E713F4
:0C1C9200CB13CBA2E713CB13CBFCEB254C
:051C9E0008F508EC351B
:051CA30009F5097A00BB
:041CA800E52560636B
:051CAC00E50B450C45AD
:051CB1000D450E60046A
:041CB600E52660526D
:071CBA000508E4B50802056E
:011CC1000919
:081CC200E509C313C50813C5B1
:041CCA0008F509E52B
:031CCE0026602469
:081CD10090E680E0FB30E7061D
:061CD9007B007C02800488
:041CDF007B407C00CA
:0C1CE300ECA2E713CB13CBFCEB2508F5BB
:051CEF0008EC3509F5C9
:011CF40009E6
:0A1CF50090E698E509F00000009069
:091CFF00E699E508F0000000750B
:041D0800260080032E
:031D0C0075260138
:0C1D0F0090E6497482F0000000E50B45EE
:041D1B000C450D4521
:061D1F000E6003021B2A06
:061D2500752701021B2AD4
:0C1D2B00C0021208FD00120935D002E5CC
:041D370028700122ED
:0A1D3B00E50B25E0FBE50C33FCE5A9
:0A1D45000D33FDE50E33FEEB2BFB22
:0C1D4F00EC33FCED33FDEE33FE8B0B8C0F
:041D5B000C8D0D8E50
:041D5F000EEA603DEB
:041D6300EA30E21D63
:051D6700AB0BAC0CAD5C
:0A1D6C000DAE0E1BBBFF091CBCFFEF
:061D7600051DBDFF011E6A
:051D7C008B0B8C0C8DA7
:031D81000D8E0EB6
:0A1D8400E4FBFCFDEA250BFAEB3549
:081D8E000CFBEC350DFCED35FA
:051D96000EFD8A0B8B1D
:041D9B000C8C0D8D12
:011D9F000E35
:071DA000E50FC3950BFAE506
:051DA70010950CFBE5A6
:051DAC0011950DFCE59E
:051DB10012950EFD8AF1
:041DB6000F8B108CF3
:041DBA00118D128AEB
:041DBE000B8B0C8CF3
:041DC2000D8D0EE590
:031DC6002570087D
:051DC900F50FF510F517
:031DCE0011F512FA
:0C1DD10078ACE644C0F675820802080AEF
:011DDD0022E3
:052CD3000102000000F9
:052CD8000100000000F6
:052CDD000100000000F1
:0A1DDE00C28CC28D78AD868A78AD04
:031DE80008868CDE
:011DEB0022D5
:071DEC0078AAB60202806034
:071DF30078ABB6000280117D
:0B1DFA0012080178AC760C7582001214
:061E0500080A75820122AB
:051E0B0078AAE6701F3B
:061E1000789FE630E211AC
:0B1E160012080178AC76037582001200
:061E2100080A758201228F
:081E2700789FE64404F68024D4
:051E2F0078AAB60108CD
:081E3400789FE654FBF68017CD
:061E3C00789FE620E21190
:0B1E420012080178AC760475820012D3
:061E4D00080A7582012263
:0A1E530078AAE624F85003021F3DB0
:0A1E5D0078AAE625E026901E6773C0
:071E6700021E7F021E7F0234
:061E6E001E91021E9E02FF
:061E74001F23021F2B02D8
:051E7A001F33021F38B8
:0C1E7F0012080178ADE4F608F675820048
:061E8B0012080A021F41CB
:0D1E9100902CE775F08012089975820122EF
:0A1E9E007582041207E312080175B3
:061EA80041FAE4F542F5E9
:041EAE0043F544852F
:061EB2000B82850C838504
:051EB8000DF0E50E1223
:0C1EBD002B2DAA82AB83ACF0FD8A0B8BAE
:041EC9000C8C0D8DE3
:071ECD000EEC7003ED600C48
:071ED400750BFF750CFF7593
:051EDB000D00750E0072
:091EE000E50BF4FAE50CF4FBE556
:081EE9000DF4FCE50EF4FD7898
:081EF100ADA60208A603850B53
:031EF90041850C14
:031EFC0042850D0F
:031EFF0043850E0A
:0C1F0200449000FAE4F5F0122BABAA8228
:0A1F0E00AB83ACF0FD8A0B8B0C8C4A
:071F18000D8D0E758204120D
:041F1F00080A801E0E
:081F23007582011222F98016FB
:081F2B007582001222F9800EFC
:051F3300121FB580093A
:051F38001221348004B9
:041F3D007582002287
:031F4100758201A5
:011F4400227A
:0E1F450090E6F3E0FA4480F000000090E67BA6
:0C1F5300E0FA90E6F1F0000000021F959B
:0E1F5F0090E6F3E0FA547FF000000090E67B7D
:0C1F6D00E0FA90E6F1F0000000021F9581
:0B1F790090E6F1E0121F95E582600D7C
:0D1F840090E6F2E0FA90E67CF07582012212
:031F910075820056
:011F9400222A
:051F9500121DDED28CDC
:051F9A00E5BB20E70398
:031F9F00308DF88A
:051FA200E5BB30E7047F
:041FA700758201221C
:091FAB0090E6F574FFF075820068
:011FB400220A
:0A1FB500E4FAFBF508F50975820453
:0D1FBF00C002C0031207E3D00300C00312EC
:0D1FCC00080175820012080AD003D002AC93
:041FD9000BAD0CAE92
:041FDD000DAF0E8CAA
:041FE1000F8D108EC2
:091FE500118F12EC4D4E4F7002F9
:021FEE007B0175
:031FF000EB60069D
:061FF300EA600302210078
:0D1FF900C002C003120775D003D002E4B58A
:042006000A0280400A
:05200A007401B50A128B
:03200F00EA700F65
:0E2012007A01C002C003120801D003D0028080
:012020002996
:052021007402B50A1F66
:0E202600C002C003120801D003D002EB7016F6
:0C20340090E6A37401F00000007B01782E
:05204000AC76028005F2
:052045007A00022100F9
:03204A00EB70A395
:06204D00E5084509702AB8
:05205300E5AA20E025D4
:072058007C007DF08D9A7CF5
:08205F00007DF07D008C9B90D8
:0E206700E690E0FC8C057C0090E691E0FE7FA8
:08207500002CF508EF3DF50910
:07207D00E5084509700302AC
:022084001FF04B
:0E208600C002C003121F45E582D003D00270D5
:012094000645
:0620950078AC76058052D4
:0E209B00C002C003121F5FE582D003D00270A6
:0120A9000630
:0620AA0078AC7606803DD3
:0720B000E50824FEF508E538
:0620B7000934FFF509AC3D
:0420BD000BAD0CAEAD
:0A20C1000DAF0E1CBCFF091DBDFF92
:0620CB00051EBEFF011F0F
:0520D1008C0B8D0C8E4C
:0920D6000D8F0EEC4D4E4F70020F
:0220DF007B0183
:0620E100E5084509700648
:0620E70090E6497482F04E
:0820ED0078ACB60003021FF0FD
:0B20F5007B0190E6A37401F0021FF0D5
:0A210000C0021208FDD002EA6029B7
:07210A00E50FC3950BFAE598
:0521110010950CFBE538
:0521160011950DFCE530
:05211B0012950EFD8A83
:042120000B8B0C8C8D
:042124000D8D0E7897
:0B212800ACE64480F675820402080A51
:012133002289
:0A213400E4FAFBF508F509758204D2
:0D213E00C002C0031207E3D00300C003126B
:0D214B00080175820012080AD003D002AC12
:042158000BAD0CAE11
:04215C000DAF0E8C29
:042160000F8D108E41
:09216400118F12EC4D4E4F700278
:02216D007B01F4
:03216F00EB60061C
:06217200EA60030222B93D
:0D217800C002C003120775D003D002E4B509
:042185000A02804684
:052189007401B50A120B
:03218E00EA700FE5
:0E2191007A01C002C003120801D003D0028000
:01219F002F10
:0521A0007402B50A25E0
:0E21A500C002C003120801D003D002EB701C70
:0E21B30090E6A37401F000000090E6A5740110
:0921C100F07B0178AC7602800588
:0521CA007A000222B9B9
:0321CF00EB709D15
:0621D200E5084509703D1F
:0521D800E5AA20E0383B
:0521DD00E5AA20E53336
:0721E2007C007DF08D9A7C6A
:0821E900007DF07D008C9B7C61
:0621F100007DF88D9D7CCD
:0821F700007DF87D008C9E9034
:0E21FF00E690E0FC8C057C0090E691E0FE7F0F
:08220D00002CF508EF3DF50976
:07221500E508450970030212
:02221C00216F30
:0E221E00C002C003121F45E582D003D002703B
:01222C0006AB
:06222D0078AC7605806A22
:0E223300C002C003121F79E582D003D00270F2
:012241000696
:0622420078AC7606805521
:08224800150874FFB50802152A
:012250000984
:05225100AC0BAD0CAE6A
:0A2256000DAF0E1CBCFF091DBDFFFB
:06226000051EBEFF011F78
:052266008C0B8D0C8EB5
:09226B000D8F0EEC4D4E4F700278
:022274007B01EC
:06227600E5084509702196
:0D227C0090E690E0FC90E698F000000090E5
:0C228900E691E0FC90E699F00000009067
:08229500E6497482F00000002C
:08229D0078ACB6000302216FCA
:0E22A50090E6A37401F000000090E6A574011D
:0622B300F07B0102216F27
:0E22B900C0021208FD00120935D002EA6031A1
:0722C700E50FC3950BFAE5DA
:0522CE0010950CFBE57A
:0522D30011950DFCE572
:0522D80012950EFD8AC5
:0422DD000F8B108CC7
:0422E100118D128ABF
:0422E5000B8B0C8CC7
:0422E9000D8D0E78D1
:0B22ED00ACE644C0F675820802080A47
:0122F80022C3
:0C22F90085822F7B007C00C003C0041213
:0A2305001F45E582D004D003700DDF
:0B230F0012080178AC76057582000210
:02231A00080AAF
:0E231C00758204C003C0041207E3D00400C0A1
:0B232A0004120801D004D003E50B45AD
:042335000C450D4501
:032339000E700221
:02233C007C0122
:0A233E0090E6F574FFF090E6CEE59E
:092348000EF000000090E6CFE564
:092351000DF000000090E6D0E55B
:09235A000CF000000090E6D1E552
:0C2363000BF0C003C004121DDED004D03B
:0A236F000390E6D1E0FDE52F601CAD
:0E23790090E6187410F000000090E6D2740197
:07238700F0000000EC7031D2
:07238E00F5BB000000802AEE
:0E239500C003C004C005120960D005D004D0FA
:0E23A3000390E61A7408F000000090E6E27461
:0823B10002F0000000EC7006D0
:0623B90075BB06000000E8
:0E23BF00758200C003C004C00512080AD005D4
:0423CD00D004D00365
:0323D100EC6006B7
:0623D400EB60030224CFC0
:0E23DA00C003C004C005120775D005D004D0A2
:0723E80003E4B50A02806660
:0523EF007401B50A169F
:0323F400EB701378
:0E23F7007B01C003C004C005120801D005D050
:0524050004D003804B30
:05240A007402B50A4256
:0E240F00C003C004C005120801D005D004D0DF
:04241D0003EC703428
:0524210078ACE6700438
:0424260078AC760216
:04242A00E52F600832
:08242E0090E6A37401F08006A2
:0624360090E6A57401F020
:08243C00000000E5BB20E709E8
:0924440000000090E6F574FFF0C1
:04244D007C0180048A
:042451007B00807A12
:05245500E5BB20E75D7E
:0A245A0090E6D1E0FEB50502801205
:0E246400C003C004121DDED004D00390E6D1E8
:04247200E0FD8024E5
:03247600308D2185
:0824790078AC7606E52F60083F
:0824810090E6A37401F080064F
:0624890090E6A57401F0CD
:0B248F007C0100000090E6F574FFF0F7
:04249A00E52F6005C5
:05249E00E5AA30E00F8B
:0724A300E52F60030223D1C5
:0824AA00E5AA30E5030223D18D
:0524B200D28C0223D1D1
:0624B700EC60030223D1DA
:0424BD00E52F70098E
:0924C10090E6487406F0000000EA
:0524CA007C010223D19A
:0E24CF00C0031208FD00120935D003EB7001A6
:0124DD0022DC
:0C24DE0090E6CEE0FB7C007D007E008BD1
:0524EA003375300075A0
:0624EF003100753200907F
:0E24F500E6CFE0FF7A007B008A048F03E4FA52
:08250300FF4230EA4231EB42D5
:05250B0032EC423390A8
:0E251000E6D0E0FD7E007A008A038E028D0682
:09251E00E4FD4230EE4231EA42D4
:0525270032EB4233908D
:0C252C00E6D1E0FCE4FFFAFBE5304204DD
:09253800E5314207E5324202E5FB
:09254100334203E50BC39CFCE5E9
:08254A000C9FFFE50D9AFAE574
:062552000E9BFB8C0B8FB9
:042558000C8A0D8B51
:05255C000EE52F6004F4
:042561007A808002FA
:022565007A40BA
:0B25670078ACEA46F675820402080A10
:012572002246
:052CE2000102000000EA
:052CE7000100000000E7
:052CEC000100000000E2
:0D25730090E60174FAF090E6F574FFF09028
:0A2580002D95E493FA90E6F3F09035
:0A258A002D96E493FA90E6C3F0905A
:0A2594002D97E493FA90E6C1F09051
:0A259E002D98E493FA90E6C2F09045
:0A25A8002D9AE493FA90E6C0F0903B
:0D25B2002D9BE493FA90E6F4F075AF077AE4
:0625BF00F17B2C8B9A7ADF
:0A25C500F17B2C7B008A9B759DE4DE
:0525CF00759E007A007A
:0325D400BA8000CA
:0225D700500CA6
:0C25D90090E67BE0FB90E67CF00A80EFCF
:0E25E50090E67174FFF075B4FF90E672E0FAB4
:0E25F3004480F043B68000000090E6C4E4F09F
:0E26010000000090E6C5E4F0902D71E493FA1D
:0B260F0090E6C6F0902D72E493FA9064
:0A261A00E6C7F0902D73E493FA90E8
:0A262400E6C8F0902D74E493FA90DC
:0A262E00E6C9F0902D75E493FA90D0
:0A263800E6CAF0902D76E493FA90C4
:0A264200E6CBF0902D77E493FA90B8
:0A264C00E6CCF0902D78E493FA90AC
:03265600E6CDF0DE
:01265900225E
:0E2CF10081B901010101010723030202020261
:0E2CFF000200F7F5F5F5F5F5F5F70000000019
:0E2D0D000000003F0C8A9A3FA5B53F07210346
:0E2D1B00030103030500F3F3F2F3F3F1F3F702
:0E2D29003F0000000000003F819138010101D1
:0E2D370001070101070202020200F7F5F7F79B
:0E2D4500F7F7F7F7000075000000003F8191DE
:0E2D5300380101010107030305000000000024
:0E2D6100F3F1F3F3F3F3F3F700006E0000005C
:022D6F00003F23
:0E2D7100000000000000000000000000000054
:0E2D7F00000000000000000000000000000046
:082D8D0000000000000000003E
:072D9500E08000F7FA4E0098
:07265A0078AAB602028060BD
:0726610078ABB60002801106
:0B26680012080178AC760C758200129D
:06267300080A7582012235
:0526790078AAE6701FC5
:06267E00789FE630E31135
:0B26840012080178AC7603758200128A
:06268F00080A7582012219
:08269500789FE64408F680245A
:05269D0078AAB6010857
:0826A200789FE654F7F680175B
:0626AA00789FE620E31119
:0B26B00012080178AC7604758200125D
:0626BB00080A75820122ED
:0726C10078AAE624FB403B70
:0A26C80078AAE625E0269026D273DA
:0726D2000226E10226E102ED
:0626D90026EC0226F902C6
:0226DF0026FED5
:0B26E10012080175820012080A801B1D
:0D26EC00902DA675F08012089975820122CC
:0526F90012270B80090F
:0526FE00122A248004F3
:0427030075820022B9
:03270700758201D7
:01270A0022AC
:07270B0075340075350075FF
:0927120036007582081207E3127B
:0B271B00080175820012080AC28090BD
:0E272600E618E4F000000090E61AE4F000006F
:0E2734000090E6027468F000000090E630E4C9
:0E274200F000000090E631E4F090E680E0FD4B
:0327500030E70669
:062753007D007E028004FF
:042759007D407E0041
:05275D008D378E38AF3E
:042762000FAB10AAFF
:0427660011AC12851B
:03276A0037398577
:03276D00383A7582
:082770003B00753C00C3EF952E
:0627780039EB953AEA95E9
:06277E003BEC953C502CE1
:052784008F378B38AD1A
:0C2789003890E63474C04DF00000009061
:07279500E635E537F0E4F53D
:04279C0008F50975BE
:0627A0003501750F007504
:0627A60010007511007522
:0427AC001200807225
:0827B00090E680E0FD30E71324
:0E27B80090E63474C8F000000090E635E4F0BE
:0527C60000000080127C
:0E27CB0090E63474C0F000000090E6357440D3
:0427D900F00000000C
:0A27DD00EFC39539FFEB953AFBEAD4
:0827E700953BFAEC953CFC8FD8
:0427EF000F8B108AB2
:0427F300118C1285AE
:0327F7000F3D850E
:0327FA00103E8509
:0327FD00113F8504
:052800001240C3EF953A
:0628050039EB953AEA955B
:06280B003BEC953C500B74
:04281100853D088574
:032815003E097504
:042818003501800600
:04281C00853708856F
:02282000380975
:0A28220090E601E0FA4403F0D287CB
:04282C00E536600726
:07283000E53460030229A258
:07283700120775E50A602E8F
:05283E007401B50A0C55
:04284300E534700800
:08284700120801753401801D27
:05284F007402B50A123D
:07285400120801E5367011C6
:0A285B00C28778AC76027536018062
:01286500066C
:062866007534000229A2F6
:04286C00E53670BC21
:05287000E5AA20E0587C
:0E28750090E690E0FA8A037A00EB3395E0FCDF
:08288300FDE50BC39AF53DE5EC
:05288B000C9BF53EE589
:052890000D9CF53FE581
:052895000E9DF54085D9
:03289A003D0B856E
:03289D003E0C8569
:0328A0003F0D8564
:0328A300400E9054
:0C28A600E691E0FEE4FFFAFBE53DC39E76
:0A28B200FEE53E9FFFE53F9AFAE5C0
:0628BC00409BFB8E0B8F18
:0428C2000C8A0D8BE4
:0728C6000E90E6497402F0D8
:0B28CD0090E6A9E0FA20E2030229795E
:0E28D80090E6A5E0FA530270BA3003022979A7
:0428E600E53560155F
:0C28EA00AA0990E63474C04AF000000017
:0928F60090E635E508F000000051
:0A28FF0090E698E538F00000009024
:09290900E699E537F000000085B5
:03291200083785FE
:032915000938E599
:05291800084509605CA8
:08291D00AA08AB09E4FCFDE58A
:092925000FC39AFAE5109BFBE5D3
:08292E00119CFCE5129DFD8ADD
:042936000F8B108C67
:04293A00118D128564
:03293E000F3D85C5
:03294100103E85C0
:03294400113F85BB
:03294700124090AB
:07294A00E680E0FE30E70625
:062951007E007F028004FD
:042957007E407F003F
:0B295B00EF3395E0FAFBC3E53D9EE57D
:062966003E9FE53F9AE5EB
:04296C00409B500933
:04297000850F088542
:03297400100975D2
:02297700350128
:07297900E537453860030259
:02298000282C01
:0B29820090E6A7E0FA20E20302282CF8
:05298D00E50B450C45BF
:062992000D450E6003027A
:02299800282CE9
:08299A00753601C28702282CEA
:0E29A200C28790E601E054FEF0E0FA4402F035
:0729B0001208FD120935E5D4
:0329B70034606722
:0529BA0078ACE6705C42
:0729BF0090E6ACE0FA701194
:0729C60090E6ABE0FA700A95
:0529CD00E50B450C457F
:0529D2000D450E60261A
:0629D700E53745386006FB
:0629DD0078AC760A803898
:0729E30090E6B0E0FA700776
:0729EA0090E6AFE0FA600681
:0629F10078AC760B802497
:0629F70078AC7607801E9B
:0629FD00E53745386006D5
:062A030078AC7608801299
:072A090090E6AFE0FA700750
:072A100090E6B0E0FA60045B
:042A170078AC760918
:062A1B0075820012080A9A
:022A2100D28061
:012A23002290
:0D2A24007A007B007C00C002C003C00412D9
:0E2A3100080175820012080AD004D003D002FA
:0E2A3F00C28090E6187410F000000090E61AB5
:0D2A4D007408F0000000C002C003C00412B5
:0E2A5A000960D004D003D00290E60274E8F0C8
:0E2A680000000090E601E0FD4403F0D28790EC
:0C2A7600E630E4F000000090E631E4F0EF
:032A8200EA600304
:032A8500EB706390
:0E2A8800C002C003C004120775D004D003D0F2
:052A960002E50A603CAE
:052A9B007401B50A16EC
:032AA000EA7013C6
:0E2AA3007A01C002C003C004120801D004D0A2
:052AB10003D0028021AA
:052AB6007402B50A18CE
:0E2ABB00C002C003C004120801D004D003D032
:042AC90002EB700AA2
:062ACD007C017B01800486
:042AD3007A008014F1
:032AD700EB70A8F9
:032ADA00EA60A50A
:082ADD0090E6A7E0FD30E29D48
:062AE5007B01C28780970F
:0E2AEB00C28790E601E054FEF0E0FB4402F0EA
:0D2AF900C002C0041208FDD00400C0041289
:092B06000935D004D002EA601B7D
:032B0F00EC701255
:072B120090E6ABE0FA70074A
:072B190090E6ACE0FA600455
:042B200078AC760710
:062B240075820012080A90
:022B2A00D28057
:012B2C002286
:052D9C0001020000002F
:052DA10001000000002C
:052DA600010000000027
:0EE10000120100020000004043140500000060
:04E10E000102000109
:0AE112000A060002000000400100B0
:0EE11C0009022E0001010080FA09040000042F
:0EE12A00FF000000070501024000000705810C
:0EE138000240000007050202000200070586F3
:04E1460002000200D1
:0EE14A0009022E0001010080FA090400000401
:0EE15800FF00000007050102400000070581DE
:0EE16600024000000705020240000007058687
:04E174000240000065
:02E178000000A5
:093F00000205AB000205DF00021E
:083F090005C900020643000295
:083F110005F500020661000243
:083F190006BB000206BB00021A
:083F210006BB000206BB000212
:083F290006BB000206BB00020A
:083F310006BB000206BB000202
:083F390006BB000206BB0002FA
:083F410006BB000206BB0002F2
:083F490006BB000206BB0002EA
:083F510006BB000206BB0002E2
:083F590006BB000206BB0002DA
:083F610006BB000206BB0002D2
:083F690006BB000206BB0002CA
:083F710006BB000206BB0002C2
:083F790006BB000206BB0002BA
:083F810006BB000206BB0002B2
:083F890006BB000206BB0002AA
:083F910006BB000206BB0002A2
:083F990006BB000206BB00029A
:083FA10006BB000206BB000292
:083FA90006BB000206BB00028A
:073FB10006BB000206BB0085
:082B2D00FB7A20E4FCFDFEFF31
:0E2B3500E5822582F582E58333F583E5F033F2
:0B2B4300F5F0EB33FB4017DAE98042AD
:0E2B4E00E5822582F582E58333F583E5F033D9
:052B5C00F5F0EB33FB76
:0E2B6100EC33FCED33FDEE33FEEF33FFEC956D
:062B6F0041ED9542EE95D8
:082B750043EF95444013EC9579
:082B7D0041FCED9542FDEE95CF
:092B850043FEEF9544FF43820179
:022B8E00DABEAD
:022B9000EB2236
:06009C00E478FFF6D8FD38
:08007A007900E94400601B7AE3
:0500820000902DAB7899
:030087000075A061
:0A008A00E0E493F2A308B8000205B9
:08009400A0D9F4DAF275A0FF17
:0E2B920020F71030F6118883A88220F507F690
:052BA000A8837583000D
:012BA500220D
:032BA600F280F7C3
:022BA900F02218
:0C2BAB00AAF0FBE5828541F0A4FCADF02F
:0C2BB700E5838541F0A42DFDE435F0FE1F
:0C2BC300E5828542F0A42DFDE5F03EFE09
:0C2BCF00E433FFEA8541F0A42EFEE5F09F
:0C2BDB003FFFE5838542F0A42EFEE5F0EC
:0C2BE7003FFFE5828543F0A42EFEE5F0E0
:0B2BF3003FFFEB8541F0A42FFFEA85B7
:0A2BFE0042F0A42FFFE5838543F0A9
:0C2C0800A42FFFE5828544F0A42F8EF07D
:052C14008D838C82227B
:0400A20075A00078CD
:0700A60000E8440060077947
:0600AD0000E4F309D8FC99
:0800B3007800E84400600C79BC
:0B00BB000090E000E4F0A3D8FCD9FAAC
:02006B00E4733C
:0E2C190090E682E044C0F090E681F04387012F
:0E2C270000000000000000000000000000009F
:0E2C3500000000000000000000000000000091
:092C430000000000000000002266
:03006D0075814456
:0A007000122C68E5826003020066AE
:0E2C4C0020F71430F6148883A88220F507E6DE
:062C5A00A883758300222F
:032C6000E280F718
:032C6300E49322D5
:022C6600E0226A
:042C6800758200224F
:00000001FF
